{
  "contractName": "TravelkoinController",
  "abi": [
    {
      "constant": false,
      "inputs": [
        {
          "name": "_beneficiary",
          "type": "address"
        },
        {
          "name": "_stake",
          "type": "uint256"
        }
      ],
      "name": "setHodlerStake",
      "outputs": [],
      "payable": false,
      "stateMutability": "nonpayable",
      "type": "function"
    },
    {
      "constant": true,
      "inputs": [],
      "name": "TOKEN_SALE1_PRE",
      "outputs": [
        {
          "name": "",
          "type": "uint256"
        }
      ],
      "payable": false,
      "stateMutability": "view",
      "type": "function"
    },
    {
      "constant": true,
      "inputs": [],
      "name": "TOKEN_HODL_6M",
      "outputs": [
        {
          "name": "",
          "type": "uint256"
        }
      ],
      "payable": false,
      "stateMutability": "view",
      "type": "function"
    },
    {
      "constant": true,
      "inputs": [],
      "name": "TOKEN_SALE2",
      "outputs": [
        {
          "name": "",
          "type": "uint256"
        }
      ],
      "payable": false,
      "stateMutability": "view",
      "type": "function"
    },
    {
      "constant": false,
      "inputs": [
        {
          "name": "_id",
          "type": "uint256"
        }
      ],
      "name": "revokeGrant",
      "outputs": [],
      "payable": false,
      "stateMutability": "nonpayable",
      "type": "function"
    },
    {
      "constant": false,
      "inputs": [
        {
          "name": "_token",
          "type": "address"
        },
        {
          "name": "_hodler",
          "type": "address"
        }
      ],
      "name": "setToken",
      "outputs": [],
      "payable": false,
      "stateMutability": "nonpayable",
      "type": "function"
    },
    {
      "constant": true,
      "inputs": [],
      "name": "TOKEN_HODL_9M",
      "outputs": [
        {
          "name": "",
          "type": "uint256"
        }
      ],
      "payable": false,
      "stateMutability": "view",
      "type": "function"
    },
    {
      "constant": true,
      "inputs": [],
      "name": "TOKEN_BOUNTY",
      "outputs": [
        {
          "name": "",
          "type": "uint256"
        }
      ],
      "payable": false,
      "stateMutability": "view",
      "type": "function"
    },
    {
      "constant": true,
      "inputs": [],
      "name": "MILLION",
      "outputs": [
        {
          "name": "",
          "type": "uint256"
        }
      ],
      "payable": false,
      "stateMutability": "view",
      "type": "function"
    },
    {
      "constant": false,
      "inputs": [
        {
          "name": "_beneficiary",
          "type": "address"
        },
        {
          "name": "_start",
          "type": "uint256"
        },
        {
          "name": "_amount",
          "type": "uint256"
        },
        {
          "name": "_revocable",
          "type": "bool"
        },
        {
          "name": "_advisor",
          "type": "bool"
        }
      ],
      "name": "createGrant",
      "outputs": [],
      "payable": false,
      "stateMutability": "nonpayable",
      "type": "function"
    },
    {
      "constant": true,
      "inputs": [],
      "name": "newController",
      "outputs": [
        {
          "name": "",
          "type": "address"
        }
      ],
      "payable": false,
      "stateMutability": "view",
      "type": "function"
    },
    {
      "constant": true,
      "inputs": [],
      "name": "hodler",
      "outputs": [
        {
          "name": "",
          "type": "address"
        }
      ],
      "payable": false,
      "stateMutability": "view",
      "type": "function"
    },
    {
      "constant": false,
      "inputs": [],
      "name": "unpause",
      "outputs": [],
      "payable": false,
      "stateMutability": "nonpayable",
      "type": "function"
    },
    {
      "constant": true,
      "inputs": [],
      "name": "VESTING_ADVISOR_DURATION",
      "outputs": [
        {
          "name": "",
          "type": "uint256"
        }
      ],
      "payable": false,
      "stateMutability": "view",
      "type": "function"
    },
    {
      "constant": false,
      "inputs": [
        {
          "name": "_from",
          "type": "address"
        },
        {
          "name": "_to",
          "type": "address"
        },
        {
          "name": "_amount",
          "type": "uint256"
        }
      ],
      "name": "onTransfer",
      "outputs": [
        {
          "name": "",
          "type": "bool"
        }
      ],
      "payable": false,
      "stateMutability": "nonpayable",
      "type": "function"
    },
    {
      "constant": true,
      "inputs": [],
      "name": "multiSigWallet",
      "outputs": [
        {
          "name": "",
          "type": "address"
        }
      ],
      "payable": false,
      "stateMutability": "view",
      "type": "function"
    },
    {
      "constant": true,
      "inputs": [],
      "name": "VESTING_ADVISOR_CLIFF",
      "outputs": [
        {
          "name": "",
          "type": "uint256"
        }
      ],
      "payable": false,
      "stateMutability": "view",
      "type": "function"
    },
    {
      "constant": true,
      "inputs": [],
      "name": "SALE",
      "outputs": [
        {
          "name": "",
          "type": "address"
        }
      ],
      "payable": false,
      "stateMutability": "view",
      "type": "function"
    },
    {
      "constant": true,
      "inputs": [],
      "name": "VESTING_TEAM_CLIFF",
      "outputs": [
        {
          "name": "",
          "type": "uint256"
        }
      ],
      "payable": false,
      "stateMutability": "view",
      "type": "function"
    },
    {
      "constant": false,
      "inputs": [
        {
          "name": "_controller",
          "type": "address"
        }
      ],
      "name": "setNewController",
      "outputs": [],
      "payable": false,
      "stateMutability": "nonpayable",
      "type": "function"
    },
    {
      "constant": true,
      "inputs": [],
      "name": "isCrowdsaleOpen",
      "outputs": [
        {
          "name": "",
          "type": "bool"
        }
      ],
      "payable": false,
      "stateMutability": "view",
      "type": "function"
    },
    {
      "constant": true,
      "inputs": [],
      "name": "paused",
      "outputs": [
        {
          "name": "",
          "type": "bool"
        }
      ],
      "payable": false,
      "stateMutability": "view",
      "type": "function"
    },
    {
      "constant": true,
      "inputs": [],
      "name": "TOKEN_FOUNDERS",
      "outputs": [
        {
          "name": "",
          "type": "uint256"
        }
      ],
      "payable": false,
      "stateMutability": "view",
      "type": "function"
    },
    {
      "constant": true,
      "inputs": [
        {
          "name": "",
          "type": "uint256"
        }
      ],
      "name": "tokenGrants",
      "outputs": [
        {
          "name": "",
          "type": "address"
        }
      ],
      "payable": false,
      "stateMutability": "view",
      "type": "function"
    },
    {
      "constant": true,
      "inputs": [],
      "name": "TOKEN_REFERRAL",
      "outputs": [
        {
          "name": "",
          "type": "uint256"
        }
      ],
      "payable": false,
      "stateMutability": "view",
      "type": "function"
    },
    {
      "constant": true,
      "inputs": [],
      "name": "TOKEN_SALE1_NORMAL",
      "outputs": [
        {
          "name": "",
          "type": "uint256"
        }
      ],
      "payable": false,
      "stateMutability": "view",
      "type": "function"
    },
    {
      "constant": true,
      "inputs": [],
      "name": "getGrantCount",
      "outputs": [
        {
          "name": "",
          "type": "uint256"
        }
      ],
      "payable": false,
      "stateMutability": "view",
      "type": "function"
    },
    {
      "constant": false,
      "inputs": [],
      "name": "pause",
      "outputs": [],
      "payable": false,
      "stateMutability": "nonpayable",
      "type": "function"
    },
    {
      "constant": true,
      "inputs": [],
      "name": "THOUSAND",
      "outputs": [
        {
          "name": "",
          "type": "uint256"
        }
      ],
      "payable": false,
      "stateMutability": "view",
      "type": "function"
    },
    {
      "constant": true,
      "inputs": [],
      "name": "TOKEN_TEAM",
      "outputs": [
        {
          "name": "",
          "type": "uint256"
        }
      ],
      "payable": false,
      "stateMutability": "view",
      "type": "function"
    },
    {
      "constant": true,
      "inputs": [],
      "name": "owner",
      "outputs": [
        {
          "name": "",
          "type": "address"
        }
      ],
      "payable": false,
      "stateMutability": "view",
      "type": "function"
    },
    {
      "constant": false,
      "inputs": [
        {
          "name": "_beneficiary",
          "type": "address"
        },
        {
          "name": "_stake",
          "type": "uint256"
        }
      ],
      "name": "addHodlerStake",
      "outputs": [],
      "payable": false,
      "stateMutability": "nonpayable",
      "type": "function"
    },
    {
      "constant": true,
      "inputs": [],
      "name": "crowdsale",
      "outputs": [
        {
          "name": "",
          "type": "address"
        }
      ],
      "payable": false,
      "stateMutability": "view",
      "type": "function"
    },
    {
      "constant": false,
      "inputs": [
        {
          "name": "_where",
          "type": "address"
        },
        {
          "name": "_amount",
          "type": "uint256"
        }
      ],
      "name": "burn",
      "outputs": [],
      "payable": false,
      "stateMutability": "nonpayable",
      "type": "function"
    },
    {
      "constant": false,
      "inputs": [
        {
          "name": "_id",
          "type": "uint256"
        },
        {
          "name": "_amount",
          "type": "uint256"
        }
      ],
      "name": "transferToGrant",
      "outputs": [],
      "payable": false,
      "stateMutability": "nonpayable",
      "type": "function"
    },
    {
      "constant": true,
      "inputs": [],
      "name": "FOUNDER2",
      "outputs": [
        {
          "name": "",
          "type": "address"
        }
      ],
      "payable": false,
      "stateMutability": "view",
      "type": "function"
    },
    {
      "constant": true,
      "inputs": [],
      "name": "TOKEN_SALE3",
      "outputs": [
        {
          "name": "",
          "type": "uint256"
        }
      ],
      "payable": false,
      "stateMutability": "view",
      "type": "function"
    },
    {
      "constant": false,
      "inputs": [
        {
          "name": "_wallet",
          "type": "address"
        }
      ],
      "name": "setNewMultisig",
      "outputs": [],
      "payable": false,
      "stateMutability": "nonpayable",
      "type": "function"
    },
    {
      "constant": false,
      "inputs": [
        {
          "name": "_time",
          "type": "uint256"
        }
      ],
      "name": "setHodlerTime",
      "outputs": [],
      "payable": false,
      "stateMutability": "nonpayable",
      "type": "function"
    },
    {
      "constant": true,
      "inputs": [],
      "name": "VESTING_TEAM_DURATION",
      "outputs": [
        {
          "name": "",
          "type": "uint256"
        }
      ],
      "payable": false,
      "stateMutability": "view",
      "type": "function"
    },
    {
      "constant": true,
      "inputs": [],
      "name": "TOKEN_INVESTORS",
      "outputs": [
        {
          "name": "",
          "type": "uint256"
        }
      ],
      "payable": false,
      "stateMutability": "view",
      "type": "function"
    },
    {
      "constant": false,
      "inputs": [
        {
          "name": "_token",
          "type": "address"
        }
      ],
      "name": "claimTokenTokens",
      "outputs": [],
      "payable": false,
      "stateMutability": "nonpayable",
      "type": "function"
    },
    {
      "constant": true,
      "inputs": [],
      "name": "INVESTOR2",
      "outputs": [
        {
          "name": "",
          "type": "address"
        }
      ],
      "payable": false,
      "stateMutability": "view",
      "type": "function"
    },
    {
      "constant": true,
      "inputs": [],
      "name": "TOKEN_COMMUNITY",
      "outputs": [
        {
          "name": "",
          "type": "uint256"
        }
      ],
      "payable": false,
      "stateMutability": "view",
      "type": "function"
    },
    {
      "constant": false,
      "inputs": [
        {
          "name": "_sale",
          "type": "address"
        },
        {
          "name": "_amount",
          "type": "uint256"
        }
      ],
      "name": "setCrowdsaleTransfer",
      "outputs": [],
      "payable": false,
      "stateMutability": "nonpayable",
      "type": "function"
    },
    {
      "constant": true,
      "inputs": [],
      "name": "FOUNDER1",
      "outputs": [
        {
          "name": "",
          "type": "address"
        }
      ],
      "payable": false,
      "stateMutability": "view",
      "type": "function"
    },
    {
      "constant": false,
      "inputs": [
        {
          "name": "_owner",
          "type": "address"
        },
        {
          "name": "_spender",
          "type": "address"
        },
        {
          "name": "_amount",
          "type": "uint256"
        }
      ],
      "name": "onApprove",
      "outputs": [
        {
          "name": "",
          "type": "bool"
        }
      ],
      "payable": false,
      "stateMutability": "nonpayable",
      "type": "function"
    },
    {
      "constant": false,
      "inputs": [
        {
          "name": "_token",
          "type": "address"
        },
        {
          "name": "_claimer",
          "type": "address"
        }
      ],
      "name": "extractTokens",
      "outputs": [],
      "payable": false,
      "stateMutability": "nonpayable",
      "type": "function"
    },
    {
      "constant": false,
      "inputs": [
        {
          "name": "newOwner",
          "type": "address"
        }
      ],
      "name": "transferOwnership",
      "outputs": [],
      "payable": false,
      "stateMutability": "nonpayable",
      "type": "function"
    },
    {
      "constant": false,
      "inputs": [
        {
          "name": "_owner",
          "type": "address"
        }
      ],
      "name": "proxyPayment",
      "outputs": [
        {
          "name": "",
          "type": "bool"
        }
      ],
      "payable": true,
      "stateMutability": "payable",
      "type": "function"
    },
    {
      "constant": true,
      "inputs": [],
      "name": "INVESTOR1",
      "outputs": [
        {
          "name": "",
          "type": "address"
        }
      ],
      "payable": false,
      "stateMutability": "view",
      "type": "function"
    },
    {
      "constant": true,
      "inputs": [],
      "name": "TKT_UNIT",
      "outputs": [
        {
          "name": "",
          "type": "uint256"
        }
      ],
      "payable": false,
      "stateMutability": "view",
      "type": "function"
    },
    {
      "constant": true,
      "inputs": [],
      "name": "TOKEN_HODL_3M",
      "outputs": [
        {
          "name": "",
          "type": "uint256"
        }
      ],
      "payable": false,
      "stateMutability": "view",
      "type": "function"
    },
    {
      "constant": true,
      "inputs": [],
      "name": "token",
      "outputs": [
        {
          "name": "",
          "type": "address"
        }
      ],
      "payable": false,
      "stateMutability": "view",
      "type": "function"
    },
    {
      "inputs": [
        {
          "name": "_wallet",
          "type": "address"
        }
      ],
      "payable": false,
      "stateMutability": "nonpayable",
      "type": "constructor"
    },
    {
      "anonymous": false,
      "inputs": [
        {
          "indexed": true,
          "name": "_token",
          "type": "address"
        },
        {
          "indexed": true,
          "name": "_claimer",
          "type": "address"
        },
        {
          "indexed": false,
          "name": "_amount",
          "type": "uint256"
        }
      ],
      "name": "ExtractedTokens",
      "type": "event"
    },
    {
      "anonymous": false,
      "inputs": [],
      "name": "Pause",
      "type": "event"
    },
    {
      "anonymous": false,
      "inputs": [],
      "name": "Unpause",
      "type": "event"
    },
    {
      "anonymous": false,
      "inputs": [
        {
          "indexed": true,
          "name": "previousOwner",
          "type": "address"
        },
        {
          "indexed": true,
          "name": "newOwner",
          "type": "address"
        }
      ],
      "name": "OwnershipTransferred",
      "type": "event"
    }
  ],
  "bytecode": "0x60606040526000805460a060020a60ff021916905560058054600160a060020a03199081166001178255600680548216600217905560078054821660031790556008805482166004179055600980549091169091179055341561006157600080fd5b604051602080613b3b8339810160405280805160008054600160a060020a03191633600160a060020a03908116919091179091559092508216151590506100a757600080fd5b6000805460a060020a60ff02191674010000000000000000000000000000000000000000179055600a8054600160a060020a03909216600160a060020a0319909216919091179055613a3d806100fe6000396000f300606060405260043610620002a45763ffffffff60e060020a600035041662346b578114620002a95780630224dc1814620002d057806304c80c3c14620002f85780631b8b478714620002d05780631d33267a146200030e5780631da26a8b146200032757806328262dd1146200034f578063299c55f7146200036557806332bc934c146200037b57806332f402c514620003915780633a02263c14620003c35780633bc5853214620003f55780633f4ba83a146200040b578063471b37cf14620004215780634a39314914620004375780634b8feb4f14620004765780634bc1aa42146200048c5780634db08aea14620004a257806356c2c1f614620004b857806359baef4014620004ce5780635a3320ff14620004f05780635c975abb146200050657806363302789146200051c5780636fc559bb146200053257806372f4f5f914620002f85780637a4690fb146200054b5780637c1b6afe14620005615780638456cb591462000577578063851cad90146200058d5780638cac193914620005a35780638da5cb5b14620005b957806393a378da14620005cf5780639c1e03a014620005f45780639dc29fac146200060a5780639f95de64146200062f578063a804903a146200064b578063ac60da791462000661578063aebb25401462000677578063b0e9a1ef1462000699578063b2cb0a3d14620006b2578063b3922c4214620006c8578063b5c7b1fe14620006de578063b8a4b8581462000700578063bd1fac00146200054b578063ca94452d1462000716578063d16c4cf5146200073b578063da682aeb1462000751578063ed6b2d7d146200077c578063f2fde38b14620007a4578063f48c305414620007c6578063f5459d6b14620007dc578063f751366514620007f2578063fbd7d0811462000808578063fc0c546a146200081e575b600080fd5b3415620002b557600080fd5b620002ce600160a060020a036004351660243562000834565b005b3415620002dc57600080fd5b620002e6620008bf565b60405190815260200160405180910390f35b34156200030457600080fd5b620002e6620008ce565b34156200031a57600080fd5b620002ce600435620008dd565b34156200033357600080fd5b620002ce600160a060020a036004358116906024351662000990565b34156200035b57600080fd5b620002e662000fd5565b34156200037157600080fd5b620002e662000fe4565b34156200038757600080fd5b620002e662000ff3565b34156200039d57600080fd5b620002ce600160a060020a03600435166024356044356064351515608435151562000ffa565b3415620003cf57600080fd5b620003d9620011c0565b604051600160a060020a03909116815260200160405180910390f35b34156200040157600080fd5b620003d9620011cf565b34156200041757600080fd5b620002ce620011de565b34156200042d57600080fd5b620002e66200125f565b34156200044357600080fd5b62000462600160a060020a036004358116906024351660443562001266565b604051901515815260200160405180910390f35b34156200048257600080fd5b620003d962001352565b34156200049857600080fd5b620002e662001361565b3415620004ae57600080fd5b620003d962001368565b3415620004c457600080fd5b620002e662001377565b3415620004da57600080fd5b620002ce600160a060020a03600435166200137f565b3415620004fc57600080fd5b62000462620015db565b34156200051257600080fd5b62000462620016cf565b34156200052857600080fd5b620002e6620016df565b34156200053e57600080fd5b620003d9600435620016ee565b34156200055757600080fd5b620002e662001717565b34156200056d57600080fd5b620002e662001726565b34156200058357600080fd5b620002ce6200172c565b34156200059957600080fd5b620002e6620017b2565b3415620005af57600080fd5b620002e6620017b8565b3415620005c557600080fd5b620003d9620017c7565b3415620005db57600080fd5b620002ce600160a060020a0360043516602435620017d6565b34156200060057600080fd5b620003d962001849565b34156200061657600080fd5b620002ce600160a060020a036004351660243562001858565b34156200063b57600080fd5b620002ce60043560243562001936565b34156200065757600080fd5b620003d962001a7f565b34156200066d57600080fd5b620002e662001a8e565b34156200068357600080fd5b620002ce600160a060020a036004351662001a9d565b3415620006a557600080fd5b620002ce60043562001af1565b3415620006be57600080fd5b620002e662001b56565b3415620006d457600080fd5b620002e662001b5e565b3415620006ea57600080fd5b620002ce600160a060020a036004351662001b6d565b34156200070c57600080fd5b620003d962001bf6565b34156200072257600080fd5b620002ce600160a060020a036004351660243562001c05565b34156200074757600080fd5b620003d962001cf0565b34156200075d57600080fd5b62000462600160a060020a036004358116906024351660443562001cff565b34156200078857600080fd5b620002ce600160a060020a036004358116906024351662001d14565b3415620007b057600080fd5b620002ce600160a060020a036004351662001d70565b62000462600160a060020a036004351662001e00565b3415620007e857600080fd5b620003d962001e07565b3415620007fe57600080fd5b620002e662001e16565b34156200081457600080fd5b620002e662001e22565b34156200082a57600080fd5b620003d962001e30565b600b5433600160a060020a039081169116146200085057600080fd5b600c54600160a060020a031662346b57838360405160e060020a63ffffffff8516028152600160a060020a0390921660048301526024820152604401600060405180830381600087803b1515620008a657600080fd5b6102c65a03f11515620008b857600080fd5b5050505050565b6a0771d2fa45345aa900000081565b6a01a784379d99db4200000081565b60005433600160a060020a03908116911614620008f957600080fd5b600d5481106200090857600080fd5b600d8054829081106200091757fe5b600091825260209091200154600454600160a060020a03918216916374a8f103911660405160e060020a63ffffffff8416028152600160a060020a039091166004820152602401600060405180830381600087803b15156200097857600080fd5b6102c65a03f115156200098a57600080fd5b50505050565b60005433600160a060020a03908116911614620009ac57600080fd5b60005460a060020a900460ff161515620009c557600080fd5b600160a060020a0382161515620009db57600080fd5b60048054600160a060020a031916600160a060020a038481169190911790915581161562000a2457600c8054600160a060020a031916600160a060020a03831617905562000ab4565b600c54600160a060020a0316151562000ab45769d3c21bcecceda10000006a01a784379d99db420000006a05ca4ec2a79a7f6700000062000a6462002068565b808481526020018381526020018281526020019350505050604051809103906000f080151562000a9357600080fd5b600c8054600160a060020a031916600160a060020a03929092169190911790555b600454600160a060020a03166318160ddd6000604051602001526040518163ffffffff1660e060020a028152600401602060405180830381600087803b151562000afd57600080fd5b6102c65a03f1151562000b0f57600080fd5b50505060405180511515905062000fd157600454600554600160a060020a039182169163827f32c0911662000b806a0422ca8b0a00a42500000062000b736a0771d2fa45345aa900000081816a108b2a2c2802909400000063ffffffff62001e3f16565b9063ffffffff62001e3f16565b60006040516020015260405160e060020a63ffffffff8516028152600160a060020a0390921660048301526024820152604401602060405180830381600087803b151562000bcd57600080fd5b6102c65a03f1151562000bdf57600080fd5b50505060405180515050600454600c54600160a060020a039182169163827f32c0911662000c396a05ca4ec2a79a7f6700000062000b7369d3c21bcecceda10000006a01a784379d99db4200000063ffffffff62001e3f16565b60006040516020015260405160e060020a63ffffffff8516028152600160a060020a0390921660048301526024820152604401602060405180830381600087803b151562000c8657600080fd5b6102c65a03f1151562000c9857600080fd5b50505060405180515050600454600054600160a060020a039182169163827f32c0911662000ce36a013da329b63364718000006a01a784379d99db4200000063ffffffff62001e3f16565b60006040516020015260405160e060020a63ffffffff8516028152600160a060020a0390921660048301526024820152604401602060405180830381600087803b151562000d3057600080fd5b6102c65a03f1151562000d4257600080fd5b50505060405180515050600454600a54600160a060020a039182169163827f32c091166a108b2a2c2802909400000060006040516020015260405160e060020a63ffffffff8516028152600160a060020a0390921660048301526024820152604401602060405180830381600087803b151562000dbe57600080fd5b6102c65a03f1151562000dd057600080fd5b50505060405180515050600454600160a060020a031663827f32c03062000e146a05606db4c03408968000006a0b949d854f34fece00000063ffffffff62001e3f16565b60006040516020015260405160e060020a63ffffffff8516028152600160a060020a0390921660048301526024820152604401602060405180830381600087803b151562000e6157600080fd5b6102c65a03f1151562000e7357600080fd5b50505060405180515050600454600854600160a060020a039182169163827f32c0911662000ec7600262000eba6a027b46536c66c8e3000000600363ffffffff62001e5a16565b9063ffffffff62001e7216565b60006040516020015260405160e060020a63ffffffff8516028152600160a060020a0390921660048301526024820152604401602060405180830381600087803b151562000f1457600080fd5b6102c65a03f1151562000f2657600080fd5b50505060405180515050600454600954600160a060020a039182169163827f32c0911662000f676a027b46536c66c8e3000000600363ffffffff62001e5a16565b60006040516020015260405160e060020a63ffffffff8516028152600160a060020a0390921660048301526024820152604401602060405180830381600087803b151562000fb457600080fd5b6102c65a03f1151562000fc657600080fd5b505050604051805150505b5050565b6a05ca4ec2a79a7f6700000081565b6a013da329b633647180000081565b620f424081565b60005433600160a060020a039081169116146200101657600080fd5b600160a060020a038516158015906200102f5750600083115b80156200103c5750428410155b15156200104857600080fd5b8015620010f857600d80546001810162001063838262002079565b9160005260206000209001600087876276a70062ed4e008862001085620020a5565b600160a060020a03909516855260208501939093526040808501929092526060840152901515608083015260a09091019051809103906000f0801515620010cb57600080fd5b909190916101000a815481600160a060020a030219169083600160a060020a03160217905550506200119e565b600d8054600181016200110c838262002079565b9160005260206000209001600087876301e13380630784ce008862001130620020a5565b600160a060020a03909516855260208501939093526040808501929092526060840152901515608083015260a09091019051809103906000f08015156200117657600080fd5b909190916101000a815481600160a060020a030219169083600160a060020a03160217905550505b600d54620008b890620011b990600163ffffffff62001ea116565b8462001936565b600354600160a060020a031681565b600c54600160a060020a031681565b60005433600160a060020a03908116911614620011fa57600080fd5b60005460a060020a900460ff1615156200121357600080fd5b6000805474ff0000000000000000000000000000000000000000191690557f7805862f689e2f13df9f062ff482ad3ad112aca9e0847911ed832e158c525b3360405160405180910390a1565b62ed4e0081565b600c54600090600160a060020a03166337a3931f8560405160e060020a63ffffffff8416028152600160a060020a039091166004820152602401600060405180830381600087803b1515620012ba57600080fd5b6102c65a03f11515620012cc57600080fd5b505060005460a060020a900460ff1615905080620012fb575030600160a060020a031684600160a060020a0316145b8062001318575030600160a060020a031683600160a060020a0316145b80620013315750600b54600160a060020a038581169116145b806200134a5750600b54600160a060020a038481169116145b949350505050565b600a54600160a060020a031681565b6276a70081565b600554600160a060020a031681565b6301e1338081565b600a5460009033600160a060020a039081169116146200139e57600080fd5b600160a060020a03821615801590620013c05750600354600160a060020a0316155b1515620013cc57600080fd5b60038054600160a060020a031916600160a060020a038481169190911790915560045416633cebb8238360405160e060020a63ffffffff8416028152600160a060020a039091166004820152602401600060405180830381600087803b15156200143557600080fd5b6102c65a03f115156200144757600080fd5b5050600c54600160a060020a0316905063f2fde38b8360405160e060020a63ffffffff8416028152600160a060020a039091166004820152602401600060405180830381600087803b15156200149c57600080fd5b6102c65a03f11515620014ae57600080fd5b50505030600160a060020a03163190506000811115620014fa57600160a060020a03821681156108fc0282604051600060405180830381858888f193505050501515620014fa57600080fd5b600454600160a060020a03166370a082313060006040516020015260405160e060020a63ffffffff8416028152600160a060020a039091166004820152602401602060405180830381600087803b15156200155457600080fd5b6102c65a03f115156200156657600080fd5b5050506040518051915050600081111562000fd157600454600160a060020a031663a9059cbb838360006040516020015260405160e060020a63ffffffff8516028152600160a060020a0390921660048301526024820152604401602060405180830381600087803b151562000fb457600080fd5b600b54600090600160a060020a0316158015906200165b5750600b54600160a060020a031663ecb70fb76000604051602001526040518163ffffffff1660e060020a028152600401602060405180830381600087803b15156200163d57600080fd5b6102c65a03f115156200164f57600080fd5b50505060405180519050155b8015620016c95750600b54600160a060020a03166344691f7e6000604051602001526040518163ffffffff1660e060020a028152600401602060405180830381600087803b1515620016ac57600080fd5b6102c65a03f11515620016be57600080fd5b505050604051805190505b90505b90565b60005460a060020a900460ff1681565b6a05606db4c034089680000081565b600d805482908110620016fd57fe5b600091825260209091200154600160a060020a0316905081565b6a108b2a2c2802909400000081565b600d5490565b60005433600160a060020a039081169116146200174857600080fd5b60005460a060020a900460ff16156200176057600080fd5b6000805474ff0000000000000000000000000000000000000000191660a060020a1790557f6985a02210a168e66602d3235cb6db0e70f92b3ba4d376a33c0f3d9434bff62560405160405180910390a1565b6103e881565b6a0b949d854f34fece00000081565b600054600160a060020a031681565b600b5433600160a060020a03908116911614620017f257600080fd5b600c54600160a060020a03166393a378da838360405160e060020a63ffffffff8516028152600160a060020a0390921660048301526024820152604401600060405180830381600087803b1515620008a657600080fd5b600b54600160a060020a031681565b600a5433600160a060020a039081169116146200187457600080fd5b30600160a060020a031682600160a060020a03161480620018a25750600554600160a060020a038381169116145b1515620018ae57600080fd5b600454600160a060020a031663d3ce77fe838360006040516020015260405160e060020a63ffffffff8516028152600160a060020a0390921660048301526024820152604401602060405180830381600087803b15156200190e57600080fd5b6102c65a03f115156200192057600080fd5b50505060405180519050151562000fd157600080fd5b60005433600160a060020a039081169116146200195257600080fd5b600d5482108015620019645750600081115b8015620019ec5750600d8054839081106200197b57fe5b6000918252602082200154600160a060020a03169063be9a655590604051602001526040518163ffffffff1660e060020a028152600401602060405180830381600087803b1515620019cc57600080fd5b6102c65a03f11515620019de57600080fd5b505050604051805190504211155b1515620019f857600080fd5b600454600d8054600160a060020a039092169163a9059cbb91908590811062001a1d57fe5b6000918252602082200154600160a060020a03169084906040516020015260405160e060020a63ffffffff8516028152600160a060020a0390921660048301526024820152604401602060405180830381600087803b15156200190e57600080fd5b600754600160a060020a031681565b6a0422ca8b0a00a42500000081565b600a5433600160a060020a0390811691161462001ab957600080fd5b600160a060020a038116151562001acf57600080fd5b600a8054600160a060020a031916600160a060020a0392909216919091179055565b600b5433600160a060020a0390811691161462001b0d57600080fd5b600c54600160a060020a031663b0e9a1ef8260405160e060020a63ffffffff84160281526004810191909152602401600060405180830381600087803b15156200097857600080fd5b630784ce0081565b6a027b46536c66c8e300000081565b60005433600160a060020a0390811691161462001b8957600080fd5b600454600160a060020a038281169116141562001ba557600080fd5b600454600160a060020a031663df8de3e78260405160e060020a63ffffffff8416028152600160a060020a039091166004820152602401600060405180830381600087803b15156200097857600080fd5b600954600160a060020a031681565b60005433600160a060020a0390811691161462001c2157600080fd5b600160a060020a0382161580159062001c41575062001c3f620015db565b155b801562001c585750600454600160a060020a031615155b151562001c6457600080fd5b600b8054600160a060020a031916600160a060020a0384811691909117909155600454600554908216916323b872dd9116848460006040516020015260405160e060020a63ffffffff8616028152600160a060020a0393841660048201529190921660248201526044810191909152606401602060405180830381600087803b15156200190e57600080fd5b600654600160a060020a031681565b505060005460a060020a900460ff1615919050565b60005433600160a060020a0390811691161462001d3057600080fd5b600354600160a060020a031615158062001d585750600454600160a060020a03838116911614155b151562001d6457600080fd5b62000fd1828262001eb4565b60005433600160a060020a0390811691161462001d8c57600080fd5b600160a060020a038116151562001da257600080fd5b600054600160a060020a0380831691167f8be0079c531659141344cd1fd0a4f28419497f9722a3daafe3b4186f6b6457e060405160405180910390a360008054600160a060020a031916600160a060020a0392909216919091179055565b6000806000fd5b600854600160a060020a031681565b670de0b6b3a764000081565b69d3c21bcecceda100000081565b600454600160a060020a031681565b60008282018381101562001e4f57fe5b8091505b5092915050565b600080828481151562001e6957fe5b04949350505050565b60008083151562001e87576000915062001e53565b5082820282848281151562001e9857fe5b041462001e4f57fe5b60008282111562001eae57fe5b50900390565b60008054819033600160a060020a0390811691161462001ed357600080fd5b600160a060020a038416151562001f285782600160a060020a03166108fc30600160a060020a0316319081150290604051600060405180830381858888f19350505050151562001f2257600080fd5b6200098a565b83915081600160a060020a03166370a082313060006040516020015260405160e060020a63ffffffff8416028152600160a060020a039091166004820152602401602060405180830381600087803b151562001f8357600080fd5b6102c65a03f1151562001f9557600080fd5b5050506040518051915050600160a060020a03821663a9059cbb848360006040516020015260405160e060020a63ffffffff8516028152600160a060020a0390921660048301526024820152604401602060405180830381600087803b151562001ffe57600080fd5b6102c65a03f115156200201057600080fd5b505050604051805190505082600160a060020a031684600160a060020a03167f21e9b296e283cad208b551b3c383bb74e34086eb5691fee8392dcce6794521c28360405190815260200160405180910390a350505050565b60405161102080620020d883390190565b815481835581811511620020a057600083815260209020620020a0918101908301620020b6565b505050565b60405161091a80620030f883390190565b620016cc91905b80821115620020d35760008155600101620020bd565b509056006060604052341561000f57600080fd5b60405160608061102083398101604052808051919060200180519190602001805160008054600160a060020a033316600160a060020a0319909116179055600b949094555050600c55600d55610fb68061006a6000396000f3006060604052600436106101235763ffffffff60e060020a600035041662346b57811461012857806304c80c3c1461014c5780630d92e3e8146101715780630eb6f5431461018457806326c43d8f1461019757806328262dd1146101aa57806337a3931f146101bd57806342ef4c1a146101dc5780634a48314f146101ef5780634b86faba14610202578063685a73e0146102155780638da5cb5b1461023357806391e79c721461026257806393a378da14610275578063b0e9a1ef14610297578063b40d8d58146102ad578063be2b1047146102c0578063c899fa77146102d3578063d228cfc5146102e6578063d43a0b4c14610305578063d6192c6c14610318578063e2c208361461036e578063f2fde38b14610381578063fbd7d081146103a0575b600080fd5b341561013357600080fd5b61014a600160a060020a03600435166024356103b3565b005b341561015757600080fd5b61015f6105cc565b60405190815260200160405180910390f35b341561017c57600080fd5b61015f6105d2565b341561018f57600080fd5b61015f6105d8565b34156101a257600080fd5b61015f6105de565b34156101b557600080fd5b61015f6105e4565b34156101c857600080fd5b61014a600160a060020a03600435166105ea565b34156101e757600080fd5b61015f6106b1565b34156101fa57600080fd5b61015f6106b7565b341561020d57600080fd5b61014a6106bd565b341561022057600080fd5b61014a60048035602481019101356106c8565b341561023e57600080fd5b6102466106ff565b604051600160a060020a03909116815260200160405180910390f35b341561026d57600080fd5b61015f61070e565b341561028057600080fd5b61014a600160a060020a0360043516602435610714565b34156102a257600080fd5b61014a600435610848565b34156102b857600080fd5b61015f61090f565b34156102cb57600080fd5b61015f610915565b34156102de57600080fd5b61015f61091b565b34156102f157600080fd5b61014a600160a060020a0360043516610921565b341561031057600080fd5b61015f610cc6565b341561032357600080fd5b610337600160a060020a0360043516610ccc565b60405194855292151560208501529015156040808501919091529015156060840152901515608083015260a0909101905180910390f35b341561037957600080fd5b61015f610d04565b341561038c57600080fd5b61014a600160a060020a0360043516610e7b565b34156103ab57600080fd5b61015f610f16565b6000805433600160a060020a039081169116146103cf57600080fd5b60075415806103e057506007544211155b156105c757600160a060020a0383166000908152600160205260409020548214806104125750600160a060020a038316155b1561041c576105c7565b600160a060020a0383166000908152600160205260409020541580156104425750600082115b156104635760035461045b90600163ffffffff610f1c16565b6003556104a4565b600160a060020a038316600090815260016020526040812054118015610487575081155b156104a4576003546104a090600163ffffffff610f3616565b6003555b600160a060020a03831660009081526001602052604090205482116104f157600160a060020a0383166000908152600160205260409020546104ec908363ffffffff610f3616565b61051b565b600160a060020a03831660009081526001602052604090205461051b90839063ffffffff610f3616565b600160a060020a03841660009081526001602052604090205490915082111561055957600254610551908263ffffffff610f1c16565b600255610570565b60025461056c908263ffffffff610f3616565b6002555b600160a060020a038084166000818152600160205260409081902085905590913316907f531b6d98182f354ef73d680007a0fa84a81fa4a320e289e4f826150ad104fb1a9085905190815260200160405180910390a35b505050565b600c5481565b600e5481565b60055481565b60035481565b600d5481565b60005433600160a060020a0390811691161461060557600080fd5b600160a060020a0381166000908152600160205260408120541180156106485750600160a060020a0381166000908152600160208190526040909120015460ff16155b156106a557600160a060020a0381166000908152600160208190526040909120808201805460ff19169092179091555460025461068a9163ffffffff610f3616565b6002556003546106a190600163ffffffff610f3616565b6003555b6106ad610d04565b5050565b60095481565b60085481565b6106c633610921565b565b60005b818110156105c7576106f78383838181106106e257fe5b90506020020135600160a060020a0316610921565b6001016106cb565b600054600160a060020a031681565b60025481565b60005433600160a060020a0390811691161461072f57600080fd5b600754158061074057506007544211155b156106ad578015806107595750600160a060020a038216155b15610763576106ad565b600160a060020a038216600090815260016020526040902054151561079a5760035461079690600163ffffffff610f1c16565b6003555b600160a060020a0382166000908152600160205260409020546107c3908263ffffffff610f1c16565b600160a060020a0383166000908152600160205260409020556002546107ef908263ffffffff610f1c16565b600255600160a060020a03808316600081815260016020526040908190205491923316917f531b6d98182f354ef73d680007a0fa84a81fa4a320e289e4f826150ad104fb1a915190815260200160405180910390a35050565b60005433600160a060020a0390811691161461086357600080fd5b600754158061087457506007544211155b1561090c574281101561088657600080fd5b600781905561089e816276a70063ffffffff610f1c16565b6008556108b48162ed4e0063ffffffff610f1c16565b6009556108cb81630163f50063ffffffff610f1c16565b600a55600160a060020a0333167fc7ad31b0c99a40aa43822fbc49a68cf7f3eb3d52152a5c01a7f636e4481cf43f8260405190815260200160405180910390a25b50565b600a5481565b60075481565b60045481565b600160a060020a03811660009081526001602052604081205481901180156109665750600160a060020a0382166000908152600160208190526040909120015460ff16155b151561097157600080fd5b50600061097c610d04565b50600160a060020a03821660009081526001602081905260409091200154610100900460ff161580156109b157506008544210155b15610a3357600454600b54600160a060020a038416600090815260016020526040902054610a07926109fa9290916109ee9163ffffffff610f4816565b9063ffffffff610f7316565b829063ffffffff610f1c16565b600160a060020a038316600090815260016020819052604090912001805461ff00191661010017905590505b600160a060020a0382166000908152600160208190526040909120015462010000900460ff16158015610a6857506009544210155b15610ad357600554600c54600160a060020a038416600090815260016020526040902054610aa5926109fa9290916109ee9163ffffffff610f4816565b600160a060020a038316600090815260016020819052604090912001805462ff000019166201000017905590505b600160a060020a038216600090815260016020819052604090912001546301000000900460ff16158015610b095750600a544210155b15610b7657600654600d54600160a060020a038416600090815260016020526040902054610b46926109fa9290916109ee9163ffffffff610f4816565b600160a060020a038316600090815260016020819052604090912001805463ff0000001916630100000017905590505b60008111156106ad57600e54610b92908263ffffffff610f1c16565b600e5560008054600160a060020a03169063fc0c546a90604051602001526040518163ffffffff1660e060020a028152600401602060405180830381600087803b1515610bde57600080fd5b6102c65a03f11515610bef57600080fd5b50505060405180519050600160a060020a031663a9059cbb838360006040516020015260405160e060020a63ffffffff8516028152600160a060020a0390921660048301526024820152604401602060405180830381600087803b1515610c5557600080fd5b6102c65a03f11515610c6657600080fd5b505050604051805190501515610c7b57600080fd5b81600160a060020a031633600160a060020a03167fd06980f1b54006ca63e8ddd2f4dafe76e8bcd6e7d7f333296f778781626af4268360405190815260200160405180910390a35050565b60065481565b6001602081905260009182526040909120805491015460ff808216916101008104821691620100008204811691630100000090041685565b60006008544210158015610d185750600454155b15610d24576002546004555b6009544210158015610d365750600554155b15610d42576002546005555b600a544210158015610d545750600654155b15610e7457600254600655600e54600c54600b5460008054610e709493610e64939092610e5892600160a060020a03169063fc0c546a90604051602001526040518163ffffffff1660e060020a028152600401602060405180830381600087803b1515610dc057600080fd5b6102c65a03f11515610dd157600080fd5b50505060405180519050600160a060020a03166370a082313060006040516020015260405160e060020a63ffffffff8416028152600160a060020a039091166004820152602401602060405180830381600087803b1515610e3157600080fd5b6102c65a03f11515610e4257600080fd5b505050604051805191905063ffffffff610f3616565b9063ffffffff610f3616565b9063ffffffff610f1c16565b600d555b5060025490565b60005433600160a060020a03908116911614610e9657600080fd5b600160a060020a0381161515610eab57600080fd5b600054600160a060020a0380831691167f8be0079c531659141344cd1fd0a4f28419497f9722a3daafe3b4186f6b6457e060405160405180910390a36000805473ffffffffffffffffffffffffffffffffffffffff1916600160a060020a0392909216919091179055565b600b5481565b600082820183811015610f2b57fe5b8091505b5092915050565b600082821115610f4257fe5b50900390565b600080831515610f5b5760009150610f2f565b50828202828482811515610f6b57fe5b0414610f2b57fe5b6000808284811515610f8157fe5b049493505050505600a165627a7a723058201f078ed739869ace4b7aa38b53564ce10933b8a74c2a6d8615f4b2e0c4d1aab400296060604052341561000f57600080fd5b60405160a08061091a833981016040528080519190602001805191906020018051919060200180519190602001805160008054600160a060020a03191633600160a060020a039081169190911790915590925086161515905061007157600080fd5b8183111561007e57600080fd5b60018054600160a060020a031916600160a060020a0387161790556005805460ff191682151517905560048290556100c384846401000000006100d2810261079b1704565b600255505050600355506100e8565b6000828201838110156100e157fe5b9392505050565b610823806100f76000396000f3006060604052600436106100ab5763ffffffff60e060020a6000350416630fb5a6b481146100b057806313d033c0146100d55780631726cbc8146100e85780631916558714610107578063384711cc1461012857806338af3eed1461014757806374a8f10314610176578063872a7810146101955780638da5cb5b146101bc5780639852595c146101cf578063be9a6555146101ee578063f2fde38b14610201578063fa01dc0614610220575b600080fd5b34156100bb57600080fd5b6100c361023f565b60405190815260200160405180910390f35b34156100e057600080fd5b6100c3610245565b34156100f357600080fd5b6100c3600160a060020a036004351661024b565b341561011257600080fd5b610126600160a060020a0360043516610283565b005b341561013357600080fd5b6100c3600160a060020a036004351661039c565b341561015257600080fd5b61015a6104dd565b604051600160a060020a03909116815260200160405180910390f35b341561018157600080fd5b610126600160a060020a03600435166104ec565b34156101a057600080fd5b6101a86106a9565b604051901515815260200160405180910390f35b34156101c757600080fd5b61015a6106b2565b34156101da57600080fd5b6100c3600160a060020a03600435166106c1565b34156101f957600080fd5b6100c36106d3565b341561020c57600080fd5b610126600160a060020a03600435166106d9565b341561022b57600080fd5b6101a8600160a060020a0360043516610774565b60045481565b60025481565b600160a060020a03811660009081526006602052604081205461027d906102718461039c565b9063ffffffff61078916565b92915050565b600061028e8261024b565b90506000811161029d57600080fd5b600160a060020a0382166000908152600660205260409020546102c6908263ffffffff61079b16565b600160a060020a0380841660008181526006602052604080822094909455600154919363a9059cbb939290921691859190516020015260405160e060020a63ffffffff8516028152600160a060020a0390921660048301526024820152604401602060405180830381600087803b151561033f57600080fd5b6102c65a03f1151561035057600080fd5b50505060405180519050151561036557600080fd5b7ffb81f9b30d73d830c3544b34d827c08142579ee75710b490bab0b3995468c5658160405190815260200160405180910390a15050565b600080600083600160a060020a03166370a082313060006040516020015260405160e060020a63ffffffff8416028152600160a060020a039091166004820152602401602060405180830381600087803b15156103f857600080fd5b6102c65a03f1151561040957600080fd5b5050506040518051600160a060020a03861660009081526006602052604090205490935061043f9150839063ffffffff61079b16565b905060025442101561045457600092506104d6565b6004546003546104699163ffffffff61079b16565b4210158061048f5750600160a060020a03841660009081526007602052604090205460ff165b1561049c578092506104d6565b6104d36004546104c76104ba6003544261078990919063ffffffff16565b849063ffffffff6107b516565b9063ffffffff6107e016565b92505b5050919050565b600154600160a060020a031681565b600080548190819033600160a060020a0390811691161461050c57600080fd5b60055460ff16151561051d57600080fd5b600160a060020a03841660009081526007602052604090205460ff161561054357600080fd5b83600160a060020a03166370a082313060006040516020015260405160e060020a63ffffffff8416028152600160a060020a039091166004820152602401602060405180830381600087803b151561059a57600080fd5b6102c65a03f115156105ab57600080fd5b5050506040518051905092506105c08461024b565b91506105d2838363ffffffff61078916565b600160a060020a03808616600081815260076020526040808220805460ff191660011790558154949550919363a9059cbb931691859190516020015260405160e060020a63ffffffff8516028152600160a060020a0390921660048301526024820152604401602060405180830381600087803b151561065157600080fd5b6102c65a03f1151561066257600080fd5b50505060405180519050151561067757600080fd5b7f44825a4b2df8acb19ce4e1afba9aa850c8b65cdb7942e2078f27d0b0960efee660405160405180910390a150505050565b60055460ff1681565b600054600160a060020a031681565b60066020526000908152604090205481565b60035481565b60005433600160a060020a039081169116146106f457600080fd5b600160a060020a038116151561070957600080fd5b600054600160a060020a0380831691167f8be0079c531659141344cd1fd0a4f28419497f9722a3daafe3b4186f6b6457e060405160405180910390a36000805473ffffffffffffffffffffffffffffffffffffffff1916600160a060020a0392909216919091179055565b60076020526000908152604090205460ff1681565b60008282111561079557fe5b50900390565b6000828201838110156107aa57fe5b8091505b5092915050565b6000808315156107c857600091506107ae565b508282028284828115156107d857fe5b04146107aa57fe5b60008082848115156107ee57fe5b049493505050505600a165627a7a7230582062d7c0b71ba0ea9eb37aad0a6e495e1b8e37095f3c1bf6e0e5704e50380707200029a165627a7a72305820d20af48415d64fcaafc5ee32c9375da34fa340bf1872510de956afc5a86bba0a0029",
  "source": "pragma solidity ^0.4.18;\n\nimport \"zeppelin-solidity/contracts/math/SafeMath.sol\";\nimport \"zeppelin-solidity/contracts/lifecycle/Pausable.sol\";\nimport \"./minime_0.2.0/ERC20MiniMe.sol\";\nimport \"./minime_0.2.0/TokenController.sol\";\nimport \"./TravelkoinMiniMeCrowdsale.sol\";\nimport \"./TravelkoinHodler.sol\";\nimport \"./TravelkoinTokenVesting.sol\";\nimport \"./TravelkoinHasNoTokens.sol\";\n\n\n/**\n * @title TravelkoinController\n * @author Bjorn Harvold\n * @notice Controller of the Travelkoin Token\n * @dev Crowdsale can be only replaced when no active crowdsale is running.\n *  The contract is paused by default. It has to be unpaused to enable token transfer.\n */\ncontract TravelkoinController is Pausable, TravelkoinHasNoTokens, TokenController {\n    using SafeMath for uint;\n\n    // when migrating this contains the address of the new controller\n    TokenController public newController;\n\n    // token contract\n    ERC20MiniMe public token;\n\n    // distribution of tokens\n    uint256 public constant TKT_UNIT = 10 ** 18;\n    uint256 public constant THOUSAND = 10 ** 3;\n    uint256 public constant MILLION = 10 ** 6;\n    uint256 public constant TOKEN_SALE1_PRE = 9 * MILLION * TKT_UNIT;\n    uint256 public constant TOKEN_SALE1_NORMAL = 20 * MILLION * TKT_UNIT;\n    uint256 public constant TOKEN_SALE2 = 9 * MILLION * TKT_UNIT;\n    uint256 public constant TOKEN_SALE3 = 5 * MILLION * TKT_UNIT;\n    uint256 public constant TOKEN_HODL_3M = 1 * MILLION * TKT_UNIT;\n    uint256 public constant TOKEN_HODL_6M = 2 * MILLION * TKT_UNIT;\n    uint256 public constant TOKEN_HODL_9M = 7 * MILLION * TKT_UNIT;\n    uint256 public constant TOKEN_REFERRAL = 2 * MILLION * TKT_UNIT;\n    uint256 public constant TOKEN_BOUNTY = 1500 * THOUSAND * TKT_UNIT;\n    uint256 public constant TOKEN_COMMUNITY = 20 * MILLION * TKT_UNIT;\n    uint256 public constant TOKEN_TEAM = 14 * MILLION * TKT_UNIT;\n    uint256 public constant TOKEN_FOUNDERS = 6500 * THOUSAND * TKT_UNIT;\n    uint256 public constant TOKEN_INVESTORS = 3 * MILLION * TKT_UNIT;\n\n    // addresses only SALE will remain, the others will be real eth addresses\n    address public SALE = 0x1;\n    address public FOUNDER1 = 0x2;\n    address public FOUNDER2 = 0x3;\n    address public INVESTOR1 = 0x4;\n    address public INVESTOR2 = 0x5;\n\n    // addresses for multisig and crowdsale\n    address public multiSigWallet;\n    TravelkoinMiniMeCrowdsale public crowdsale;\n\n    // hodler reward contract\n    TravelkoinHodler public hodler;\n\n    // token grants\n    TravelkoinTokenVesting[] public tokenGrants;\n    uint256 public constant VESTING_TEAM_CLIFF = 365 days;\n    uint256 public constant VESTING_TEAM_DURATION = 4 * 365 days;\n    uint256 public constant VESTING_ADVISOR_CLIFF = 3 * 30 days;\n    uint256 public constant VESTING_ADVISOR_DURATION = 6 * 30 days;\n\n\n    /// @dev only the crowdsale can call it\n    modifier onlyCrowdsale() {\n        require(msg.sender == address(crowdsale));\n        _;\n    }\n\n    /// @dev only the crowdsale can call it\n    modifier onlyMultiSig() {\n        require(msg.sender == address(multiSigWallet));\n        _;\n    }\n\n\n    ////////////////\n    // Constructor, overrides\n    ////////////////\n\n    /// @notice Constructor for Travelkoin Controller\n    function TravelkoinController(address _wallet) public {\n        require(_wallet != address(0));\n\n        paused = true;\n        multiSigWallet = _wallet;\n    }\n\n    /// @dev overrides HasNoTokens#extractTokens to make it possible to extract any tokens after migration or before that any tokens except travelkoin\n    function extractTokens(address _token, address _claimer) onlyOwner public {\n        require(newController != address(0) || _token != address(token));\n\n        super.extractTokens(_token, _claimer);\n    }\n\n\n    ////////////////\n    // Manage crowdsale\n    ////////////////\n\n    /// @notice Set crowdsale address and transfer TKT tokens from travelkoinController's SALE address\n    /// @dev Crowdsale can be only set when the current crowdsale is not active and token is set\n    function setCrowdsaleTransfer(address _sale, uint256 _amount) public onlyOwner {\n        require(_sale != address(0) && !isCrowdsaleOpen() && address(token) != address(0));\n\n        crowdsale = TravelkoinMiniMeCrowdsale(_sale);\n\n        // transfer TKT tokens to crowdsale account from the account of controller\n        require(token.transferFrom(SALE, _sale, _amount));\n    }\n\n    /// @notice Is there a not ended crowdsale?\n    /// @return true if there is no crowdsale or the current crowdsale is not yet ended but started\n    function isCrowdsaleOpen() public view returns (bool) {\n        return address(crowdsale) != address(0) && !crowdsale.hasEnded() && crowdsale.hasStarted();\n    }\n\n\n    ////////////////\n    // Manage grants\n    ////////////////\n\n    /// @notice Grant vesting token to an address\n    function createGrant(\n        address _beneficiary,\n        uint256 _start,\n        uint256 _amount,\n        bool _revocable,\n        bool _advisor)\n    public\n    onlyOwner\n    {\n        require(_beneficiary != address(0) && _amount > 0 && _start >= now);\n\n        // create token grant\n        if (_advisor) {\n            tokenGrants.push(new TravelkoinTokenVesting(_beneficiary, _start, VESTING_ADVISOR_CLIFF, VESTING_ADVISOR_DURATION, _revocable));\n        } else {\n            tokenGrants.push(new TravelkoinTokenVesting(_beneficiary, _start, VESTING_TEAM_CLIFF, VESTING_TEAM_DURATION, _revocable));\n        }\n\n        // transfer funds to the grant\n        transferToGrant(tokenGrants.length.sub(1), _amount);\n    }\n\n    /// @notice Transfer tokens to a grant until it is starting\n    function transferToGrant(uint256 _id, uint256 _amount) public onlyOwner {\n        require(_id < tokenGrants.length && _amount > 0 && now <= tokenGrants[_id].start());\n\n        // transfer funds to the grant\n        require(token.transfer(address(tokenGrants[_id]), _amount));\n    }\n\n    /// @dev Revoking grant\n    function revokeGrant(uint256 _id) public onlyOwner {\n        require(_id < tokenGrants.length);\n\n        tokenGrants[_id].revoke(token);\n    }\n\n    /// @notice Returns the token grant count\n    function getGrantCount() view public returns (uint) {\n        return tokenGrants.length;\n    }\n\n\n    ////////////////\n    // BURN, handle ownership - only multsig can call these functions!\n    ////////////////\n\n    /// @notice contract can burn its own or its sale tokens\n    function burn(address _where, uint256 _amount) public onlyMultiSig {\n        require(_where == address(this) || _where == SALE);\n\n        require(token.destroyTokens(_where, _amount));\n    }\n\n    /// @notice replaces controller when it was not yet replaced, only multisig can do it\n    function setNewController(address _controller) public onlyMultiSig {\n        require(_controller != address(0) && newController == address(0));\n\n        newController = TokenController(_controller);\n        token.changeController(_controller);\n        hodler.transferOwnership(_controller);\n\n        // send eth\n        uint256 _stake = this.balance;\n        if (_stake > 0)\n            _controller.transfer(_stake);\n\n        // send tokens\n        _stake = token.balanceOf(this);\n        if (_stake > 0)\n            token.transfer(_controller, _stake);\n    }\n\n    /// @notice Set new multisig wallet, to make it upgradable.\n    function setNewMultisig(address _wallet) public onlyMultiSig {\n        require(_wallet != address(0));\n\n        multiSigWallet = _wallet;\n    }\n\n\n    ////////////////\n    // When PAUSED\n    ////////////////\n\n    /// @notice set the token, if no hodler provided then creates a hodler reward contract\n    function setToken(address _token, address _hodler) public onlyOwner whenPaused {\n        require(_token != address(0));\n\n        token = ERC20MiniMe(_token);\n\n\n        if (_hodler != address(0)) {\n            // set hodler reward contract if provided\n            hodler = TravelkoinHodler(_hodler);\n        } else if (hodler == address(0)) {\n            // create hodler reward contract if not yet created\n            hodler = new TravelkoinHodler(TOKEN_HODL_3M, TOKEN_HODL_6M, TOKEN_HODL_9M);\n        }\n\n        // MINT tokens if not minted yet\n        if (token.totalSupply() == 0) {\n            // sale\n            token.generateTokens(SALE, TOKEN_SALE1_PRE.add(TOKEN_SALE1_NORMAL).add(TOKEN_SALE2).add(TOKEN_SALE3));\n            // hodler reward\n            token.generateTokens(address(hodler), TOKEN_HODL_3M.add(TOKEN_HODL_6M).add(TOKEN_HODL_9M));\n            // bounty + referral\n            token.generateTokens(owner, TOKEN_BOUNTY.add(TOKEN_REFERRAL));\n            // community fund\n            token.generateTokens(address(multiSigWallet), TOKEN_COMMUNITY);\n            // team -> grantable\n            token.generateTokens(address(this), TOKEN_FOUNDERS.add(TOKEN_TEAM));\n            // investors\n            token.generateTokens(INVESTOR1, TOKEN_INVESTORS.div(3).mul(2));\n            token.generateTokens(INVESTOR2, TOKEN_INVESTORS.div(3));\n        }\n    }\n\n\n    ////////////////\n    // Proxy for TravelkoinHodler contract\n    ////////////////\n\n    /// @notice Proxy call for setting hodler start time\n    function setHodlerTime(uint256 _time) public onlyCrowdsale {\n        hodler.setHodlerTime(_time);\n    }\n\n    /// @notice Proxy call for adding hodler stake\n    function addHodlerStake(address _beneficiary, uint256 _stake) public onlyCrowdsale {\n        hodler.addHodlerStake(_beneficiary, _stake);\n    }\n\n    /// @notice Proxy call for setting hodler stake\n    function setHodlerStake(address _beneficiary, uint256 _stake) public onlyCrowdsale {\n        hodler.setHodlerStake(_beneficiary, _stake);\n    }\n\n\n    ////////////////\n    // MiniMe Controller functions\n    ////////////////\n\n    /// @notice No eth payment to the token contract\n    function proxyPayment(address _owner) payable public returns (bool) {\n        revert();\n    }\n\n    /// @notice Before transfers are enabled for everyone, only this and the crowdsale contract is allowed to distribute TKT\n    function onTransfer(address _from, address _to, uint256 _amount) public returns (bool) {\n        // moving any funds makes hodl participation invalid\n        hodler.invalidate(_from);\n\n        return !paused || _from == address(this) || _to == address(this) || _from == address(crowdsale) || _to == address(crowdsale);\n    }\n\n    function onApprove(address _owner, address _spender, uint256 _amount) public returns (bool) {\n        return !paused;\n    }\n\n    /// @notice Retrieve mistakenly sent tokens (other than the travelkoin token) from the token contract\n    function claimTokenTokens(address _token) public onlyOwner {\n        require(_token != address(token));\n\n        token.claimTokens(_token);\n    }\n}",
  "sourcePath": "/Users/crash/git/travelkoin/travelkoin-contracts/contracts/TravelkoinController.sol",
  "compiler": {
    "name": "solc",
    "version": "0.4.18+commit.9cf6e910.Emscripten.clang"
  },
  "schemaVersion": "1.0.1",
  "updatedAt": "2018-01-30T09:09:52.796Z"
}