{
  "contractName": "TravelkoinMiniMeCrowdsale",
  "abi": [
    {
      "constant": true,
      "inputs": [],
      "name": "rate",
      "outputs": [
        {
          "name": "",
          "type": "uint256"
        }
      ],
      "payable": false,
      "stateMutability": "view",
      "type": "function"
    },
    {
      "constant": true,
      "inputs": [],
      "name": "endTime",
      "outputs": [
        {
          "name": "",
          "type": "uint256"
        }
      ],
      "payable": false,
      "stateMutability": "view",
      "type": "function"
    },
    {
      "constant": true,
      "inputs": [],
      "name": "weiRaised",
      "outputs": [
        {
          "name": "",
          "type": "uint256"
        }
      ],
      "payable": false,
      "stateMutability": "view",
      "type": "function"
    },
    {
      "constant": true,
      "inputs": [],
      "name": "hasStarted",
      "outputs": [
        {
          "name": "",
          "type": "bool"
        }
      ],
      "payable": false,
      "stateMutability": "view",
      "type": "function"
    },
    {
      "constant": true,
      "inputs": [],
      "name": "wallet",
      "outputs": [
        {
          "name": "",
          "type": "address"
        }
      ],
      "payable": false,
      "stateMutability": "view",
      "type": "function"
    },
    {
      "constant": true,
      "inputs": [],
      "name": "startTime",
      "outputs": [
        {
          "name": "",
          "type": "uint256"
        }
      ],
      "payable": false,
      "stateMutability": "view",
      "type": "function"
    },
    {
      "constant": false,
      "inputs": [
        {
          "name": "beneficiary",
          "type": "address"
        }
      ],
      "name": "buyTokens",
      "outputs": [],
      "payable": true,
      "stateMutability": "payable",
      "type": "function"
    },
    {
      "constant": true,
      "inputs": [],
      "name": "hasEnded",
      "outputs": [
        {
          "name": "",
          "type": "bool"
        }
      ],
      "payable": false,
      "stateMutability": "view",
      "type": "function"
    },
    {
      "constant": true,
      "inputs": [],
      "name": "token",
      "outputs": [
        {
          "name": "",
          "type": "address"
        }
      ],
      "payable": false,
      "stateMutability": "view",
      "type": "function"
    },
    {
      "inputs": [
        {
          "name": "_startTime",
          "type": "uint256"
        },
        {
          "name": "_endTime",
          "type": "uint256"
        },
        {
          "name": "_rate",
          "type": "uint256"
        },
        {
          "name": "_wallet",
          "type": "address"
        }
      ],
      "payable": false,
      "stateMutability": "nonpayable",
      "type": "constructor"
    },
    {
      "payable": true,
      "stateMutability": "payable",
      "type": "fallback"
    },
    {
      "anonymous": false,
      "inputs": [
        {
          "indexed": true,
          "name": "purchaser",
          "type": "address"
        },
        {
          "indexed": true,
          "name": "beneficiary",
          "type": "address"
        },
        {
          "indexed": false,
          "name": "value",
          "type": "uint256"
        },
        {
          "indexed": false,
          "name": "amount",
          "type": "uint256"
        }
      ],
      "name": "TokenPurchase",
      "type": "event"
    }
  ],
  "bytecode": "0x6060604052341561000f57600080fd5b6040516080806104c9833981016040528080519190602001805191906020018051919060200180519150504284101561004757600080fd5b8383101561005457600080fd5b6000821161006157600080fd5b600160a060020a038116151561007657600080fd5b60019390935560029190915560045560038054600160a060020a031916600160a060020a03909216919091179055610416806100b36000396000f3006060604052600436106100985763ffffffff7c01000000000000000000000000000000000000000000000000000000006000350416632c4e722e81146100a35780633197cbb6146100c85780634042b66f146100db57806344691f7e146100ee578063521eb2731461011557806378e9792514610144578063ec8ac4d814610157578063ecb70fb71461016b578063fc0c546a1461017e575b6100a133610191565b005b34156100ae57600080fd5b6100b661019e565b60405190815260200160405180910390f35b34156100d357600080fd5b6100b66101a4565b34156100e657600080fd5b6100b66101aa565b34156100f957600080fd5b6101016101b0565b604051901515815260200160405180910390f35b341561012057600080fd5b6101286101b9565b604051600160a060020a03909116815260200160405180910390f35b341561014f57600080fd5b6100b66101c8565b6100a1600160a060020a0360043516610191565b341561017657600080fd5b6101016101ce565b341561018957600080fd5b6101286101d6565b61019b81346101e5565b50565b60045481565b60025481565b60055481565b60015442101590565b600354600160a060020a031681565b60015481565b600254421190565b600054600160a060020a031681565b600160a060020a03821615156101fa57600080fd5b6102038161023b565b151561020e57600080fd5b610218828261026c565b60055461022b908263ffffffff61037216565b6005556102378161038c565b5050565b6000806000600154421015801561025457506002544211155b9150508215158180156102645750805b949350505050565b6000610283600454836103bf90919063ffffffff16565b60008054919250600160a060020a039091169063827f32c09085908490604051602001526040517c010000000000000000000000000000000000000000000000000000000063ffffffff8516028152600160a060020a0390921660048301526024820152604401602060405180830381600087803b151561030357600080fd5b6102c65a03f1151561031457600080fd5b505050604051805190505082600160a060020a031633600160a060020a03167f623b3804fa71d67900d064613da8f94b9617215ee90799290593e1745087ad18848460405191825260208201526040908101905180910390a3505050565b60008282018381101561038157fe5b8091505b5092915050565b600354600160a060020a031681156108fc0282604051600060405180830381858888f19350505050151561019b57600080fd5b6000808315156103d25760009150610385565b508282028284828115156103e257fe5b041461038157fe00a165627a7a7230582015cec825bddd41cfd3bc8a754bbf0cda1f051875ec44ad947f103eb41ff5f3b00029",
  "source": "pragma solidity ^0.4.18;\n\nimport \"./minime_0.2.0/ERC20MiniMe.sol\";\nimport \"zeppelin-solidity/contracts/math/SafeMath.sol\";\n\n\n/**\n * @title Crowdsale\n * @dev Crowdsale is a base contract for managing a token crowdsale.\n * Crowdsales have a start and end timestamps, where investors can make\n * token purchases and the crowdsale will assign them tokens based\n * on a token per ETH rate. Funds collected are forwarded to a wallet\n * as they arrive.\n */\ncontract TravelkoinMiniMeCrowdsale {\n    using SafeMath for uint256;\n\n    // The token being sold\n    ERC20MiniMe public token;\n\n    // start and end timestamps where investments are allowed (both inclusive)\n    uint256 public startTime;\n    uint256 public endTime;\n\n    // address where funds are collected\n    address public wallet;\n\n    // how many token units a buyer gets per wei\n    uint256 public rate;\n\n    // amount of raised money in wei\n    uint256 public weiRaised;\n\n    /**\n     * event for token purchase logging\n     * @param purchaser who paid for the tokens\n     * @param beneficiary who got the tokens\n     * @param value weis paid for purchase\n     * @param amount amount of tokens purchased\n     */\n    event TokenPurchase(address indexed purchaser, address indexed beneficiary, uint256 value, uint256 amount);\n\n\n    function TravelkoinMiniMeCrowdsale(\n        uint256 _startTime,\n        uint256 _endTime,\n        uint256 _rate,\n        address _wallet\n    ) public\n    {\n        require(_startTime >= now);\n        require(_endTime >= _startTime);\n        require(_rate > 0);\n        require(_wallet != 0x0);\n\n        startTime = _startTime;\n        endTime = _endTime;\n        rate = _rate;\n        wallet = _wallet;\n    }\n\n\n    // fallback function can be used to buy tokens\n    function() payable public {\n        buyTokens(msg.sender);\n    }\n\n    // low level token purchase function\n    function buyTokens(address beneficiary) public payable {\n        buyTokens(beneficiary, msg.value);\n    }\n\n    // @return true if crowdsale event has ended\n    function hasEnded() public constant returns (bool) {\n        return now > endTime;\n    }\n\n    // @return true if crowdsale has started\n    function hasStarted() public constant returns (bool) {\n        return now >= startTime;\n    }\n\n    // implementation of low level token purchase function\n    function buyTokens(address beneficiary, uint256 weiAmount) internal {\n        require(beneficiary != 0x0);\n        require(validPurchase(weiAmount));\n\n        transferToken(beneficiary, weiAmount);\n\n        // update state\n        weiRaised = weiRaised.add(weiAmount);\n\n        forwardFunds(weiAmount);\n    }\n\n    // low level transfer token\n    // override to create custom token transfer mechanism, eg. pull pattern\n    function transferToken(address beneficiary, uint256 weiAmount) internal {\n        // calculate token amount to be created\n        uint256 tokens = weiAmount.mul(rate);\n\n        token.generateTokens(beneficiary, tokens);\n\n        TokenPurchase(\n            msg.sender,\n            beneficiary,\n            weiAmount,\n            tokens\n        );\n    }\n\n    // send ether to the fund collection wallet\n    // override to create custom fund forwarding mechanisms\n    function forwardFunds(uint256 weiAmount) internal {\n        wallet.transfer(weiAmount);\n    }\n\n    // @return true if the transaction can buy tokens\n    function validPurchase(uint256 weiAmount) internal constant returns (bool) {\n        bool withinPeriod = now >= startTime && now <= endTime;\n        bool nonZeroPurchase = weiAmount != 0;\n        return withinPeriod && nonZeroPurchase;\n    }\n}",
  "sourcePath": "/Users/crash/git/travelkoin/travelkoin-contracts/contracts/TravelkoinMiniMeCrowdsale.sol",
  "compiler": {
    "name": "solc",
    "version": "0.4.18+commit.9cf6e910.Emscripten.clang"
  },
  "schemaVersion": "1.0.1",
  "updatedAt": "2018-01-30T08:29:32.512Z"
}