{
  "contractName": "TravelkoinHasNoTokens",
  "abi": [
    {
      "constant": true,
      "inputs": [],
      "name": "owner",
      "outputs": [
        {
          "name": "",
          "type": "address"
        }
      ],
      "payable": false,
      "stateMutability": "view",
      "type": "function"
    },
    {
      "constant": false,
      "inputs": [
        {
          "name": "_token",
          "type": "address"
        },
        {
          "name": "_claimer",
          "type": "address"
        }
      ],
      "name": "extractTokens",
      "outputs": [],
      "payable": false,
      "stateMutability": "nonpayable",
      "type": "function"
    },
    {
      "constant": false,
      "inputs": [
        {
          "name": "newOwner",
          "type": "address"
        }
      ],
      "name": "transferOwnership",
      "outputs": [],
      "payable": false,
      "stateMutability": "nonpayable",
      "type": "function"
    },
    {
      "anonymous": false,
      "inputs": [
        {
          "indexed": true,
          "name": "_token",
          "type": "address"
        },
        {
          "indexed": true,
          "name": "_claimer",
          "type": "address"
        },
        {
          "indexed": false,
          "name": "_amount",
          "type": "uint256"
        }
      ],
      "name": "ExtractedTokens",
      "type": "event"
    },
    {
      "anonymous": false,
      "inputs": [
        {
          "indexed": true,
          "name": "previousOwner",
          "type": "address"
        },
        {
          "indexed": true,
          "name": "newOwner",
          "type": "address"
        }
      ],
      "name": "OwnershipTransferred",
      "type": "event"
    }
  ],
  "bytecode": "0x606060405260008054600160a060020a033316600160a060020a031990911617905561033a806100306000396000f30060606040526004361061003d5763ffffffff60e060020a6000350416638da5cb5b8114610042578063ed6b2d7d14610071578063f2fde38b14610098575b600080fd5b341561004d57600080fd5b6100556100b7565b604051600160a060020a03909116815260200160405180910390f35b341561007c57600080fd5b610096600160a060020a03600435811690602435166100c6565b005b34156100a357600080fd5b610096600160a060020a0360043516610273565b600054600160a060020a031681565b60008054819033600160a060020a039081169116146100e457600080fd5b600160a060020a03841615156101365782600160a060020a03166108fc30600160a060020a0316319081150290604051600060405180830381858888f19350505050151561013157600080fd5b61026d565b83915081600160a060020a03166370a082313060006040516020015260405160e060020a63ffffffff8416028152600160a060020a039091166004820152602401602060405180830381600087803b151561019057600080fd5b6102c65a03f115156101a157600080fd5b5050506040518051915050600160a060020a03821663a9059cbb848360006040516020015260405160e060020a63ffffffff8516028152600160a060020a0390921660048301526024820152604401602060405180830381600087803b151561020957600080fd5b6102c65a03f1151561021a57600080fd5b505050604051805190505082600160a060020a031684600160a060020a03167f21e9b296e283cad208b551b3c383bb74e34086eb5691fee8392dcce6794521c28360405190815260200160405180910390a35b50505050565b60005433600160a060020a0390811691161461028e57600080fd5b600160a060020a03811615156102a357600080fd5b600054600160a060020a0380831691167f8be0079c531659141344cd1fd0a4f28419497f9722a3daafe3b4186f6b6457e060405160405180910390a36000805473ffffffffffffffffffffffffffffffffffffffff1916600160a060020a03929092169190911790555600a165627a7a7230582081555bd0d9eb751e1a4325999e40319f57dc27c2b7358e6523cf9b906fe4e2d70029",
  "source": "pragma solidity ^0.4.18;\n\nimport \"zeppelin-solidity/contracts/ownership/Ownable.sol\";\nimport \"zeppelin-solidity/contracts/token/ERC20/ERC20.sol\";\n\n\n/**\n * @title claim accidentally sent tokens\n */\ncontract TravelkoinHasNoTokens is Ownable {\n    event ExtractedTokens(address indexed _token, address indexed _claimer, uint _amount);\n\n    /// @notice This method can be used to extract mistakenly\n    ///  sent tokens to this contract.\n    /// @param _token The address of the token contract that you want to recover\n    ///  set to 0 in case you want to extract ether.\n    /// @param _claimer Address that tokens will be send to\n    function extractTokens(address _token, address _claimer) onlyOwner public {\n        if (_token == 0x0) {\n            _claimer.transfer(this.balance);\n            return;\n        }\n\n        ERC20 token = ERC20(_token);\n        uint balance = token.balanceOf(this);\n        token.transfer(_claimer, balance);\n        ExtractedTokens(_token, _claimer, balance);\n    }\n}",
  "sourcePath": "/Users/crash/git/travelkoin/travelkoin-contracts/contracts/TravelkoinHasNoTokens.sol",
  "compiler": {
    "name": "solc",
    "version": "0.4.18+commit.9cf6e910.Emscripten.clang"
  },
  "schemaVersion": "1.0.1",
  "updatedAt": "2018-01-30T08:29:32.511Z"
}