{
  "contractName": "MiniMeTokenFactory",
  "abi": [
    {
      "constant": false,
      "inputs": [
        {
          "name": "_parentToken",
          "type": "address"
        },
        {
          "name": "_snapshotBlock",
          "type": "uint256"
        },
        {
          "name": "_tokenName",
          "type": "string"
        },
        {
          "name": "_decimalUnits",
          "type": "uint8"
        },
        {
          "name": "_tokenSymbol",
          "type": "string"
        },
        {
          "name": "_transfersEnabled",
          "type": "bool"
        }
      ],
      "name": "createCloneToken",
      "outputs": [
        {
          "name": "",
          "type": "address"
        }
      ],
      "payable": false,
      "stateMutability": "nonpayable",
      "type": "function"
    }
  ],
  "bytecode": "0x6060604052341561000f57600080fd5b611dc08061001e6000396000f3006060604052600436106100405763ffffffff7c01000000000000000000000000000000000000000000000000000000006000350416635b7b72c18114610045575b600080fd5b341561005057600080fd5b6101096004803573ffffffffffffffffffffffffffffffffffffffff169060248035919060649060443590810190830135806020601f8201819004810201604051908101604052818152929190602084018383808284378201915050505050509190803560ff1690602001909190803590602001908201803590602001908080601f0160208091040260200160405190810160405281815292919060208401838380828437509496505050509135151591506101329050565b60405173ffffffffffffffffffffffffffffffffffffffff909116815260200160405180910390f35b60008030888888888888610144610313565b73ffffffffffffffffffffffffffffffffffffffff8089168252871660208201526040810186905260ff8416608082015281151560c082015260e0606082018181529060a0830190830187818151815260200191508051906020019080838360005b838110156101be5780820151838201526020016101a6565b50505050905090810190601f1680156101eb5780820380516001836020036101000a031916815260200191505b50838103825285818151815260200191508051906020019080838360005b83811015610221578082015183820152602001610209565b50505050905090810190601f16801561024e5780820380516001836020036101000a031916815260200191505b509950505050505050505050604051809103906000f080151561027057600080fd5b90508073ffffffffffffffffffffffffffffffffffffffff16633cebb823336040517c010000000000000000000000000000000000000000000000000000000063ffffffff841602815273ffffffffffffffffffffffffffffffffffffffff9091166004820152602401600060405180830381600087803b15156102f357600080fd5b6102c65a03f1151561030457600080fd5b50919998505050505050505050565b604051611a7180610324833901905600606060405260408051908101604052600781527f4d4d545f302e3200000000000000000000000000000000000000000000000000602082015260049080516200004d92916020019062000162565b5034156200005a57600080fd5b60405162001a7138038062001a71833981016040528080519190602001805191906020018051919060200180518201919060200180519190602001805182019190602001805160008054600160a060020a03338116600160a060020a031990921691909117909155600b8054918b166101000261010060a860020a0319909216919091179055915060019050848051620000f992916020019062000162565b506002805460ff191660ff851617905560038280516200011e92916020019062000162565b5060058054600160a060020a031916600160a060020a039790971696909617909555505050600655600b805460ff1916911515919091179055504360075562000207565b828054600181600116156101000203166002900490600052602060002090601f016020900481019282601f10620001a557805160ff1916838001178555620001d5565b82800160010185558215620001d5579182015b82811115620001d5578251825591602001919060010190620001b8565b50620001e3929150620001e7565b5090565b6200020491905b80821115620001e35760008155600101620001ee565b90565b61185a80620002176000396000f30060606040526004361061012f5763ffffffff60e060020a60003504166306fdde0381146101d4578063095ea7b31461025e578063176345141461029457806318160ddd146102b957806323b872dd146102cc578063313ce567146102f45780633cebb8231461031d5780634ee2cd7e1461033c57806354fd4d501461035e5780636638c0871461037157806370a082311461043557806380a5400114610454578063827f32c01461046757806395d89b4114610489578063981b24d01461049c578063a9059cbb146104b2578063bef97c87146104d4578063c5bcc4f1146104e7578063cae9ca51146104fa578063d3ce77fe1461055f578063dd62ed3e14610581578063df8de3e7146105a6578063e77772fe146105c5578063f41e60c5146105d8578063f77c4791146105f0575b60005461014490600160a060020a0316610603565b151561014f57600080fd5b60008054600160a060020a03169063f48c305490349033906040516020015260405160e060020a63ffffffff8516028152600160a060020a0390911660048201526024016020604051808303818588803b15156101ab57600080fd5b6125ee5a03f115156101bc57600080fd5b505050506040518051905015156101d257600080fd5b005b34156101df57600080fd5b6101e7610630565b60405160208082528190810183818151815260200191508051906020019080838360005b8381101561022357808201518382015260200161020b565b50505050905090810190601f1680156102505780820380516001836020036101000a031916815260200191505b509250505060405180910390f35b341561026957600080fd5b610280600160a060020a03600435166024356106ce565b604051901515815260200160405180910390f35b341561029f57600080fd5b6102a7610837565b60405190815260200160405180910390f35b34156102c457600080fd5b6102a761083d565b34156102d757600080fd5b610280600160a060020a036004358116906024351660443561084e565b34156102ff57600080fd5b6103076108ed565b60405160ff909116815260200160405180910390f35b341561032857600080fd5b6101d2600160a060020a03600435166108f6565b341561034757600080fd5b6102a7600160a060020a0360043516602435610940565b341561036957600080fd5b6101e7610a76565b341561037c57600080fd5b61041960046024813581810190830135806020601f8201819004810201604051908101604052818152929190602084018383808284378201915050505050509190803560ff1690602001909190803590602001908201803590602001908080601f016020809104026020016040519081016040528181529291906020840183838082843750949650508435946020013515159350610ae192505050565b604051600160a060020a03909116815260200160405180910390f35b341561044057600080fd5b6102a7600160a060020a0360043516610d0b565b341561045f57600080fd5b610419610d1f565b341561047257600080fd5b610280600160a060020a0360043516602435610d2e565b341561049457600080fd5b6101e7610dec565b34156104a757600080fd5b6102a7600435610e57565b34156104bd57600080fd5b610280600160a060020a0360043516602435610f40565b34156104df57600080fd5b610280610f68565b34156104f257600080fd5b6102a7610f71565b341561050557600080fd5b61028060048035600160a060020a03169060248035919060649060443590810190830135806020601f82018190048102016040519081016040528181529291906020840183838082843750949650610f7795505050505050565b341561056a57600080fd5b610280600160a060020a0360043516602435611092565b341561058c57600080fd5b6102a7600160a060020a036004358116906024351661114a565b34156105b157600080fd5b6101d2600160a060020a0360043516611175565b34156105d057600080fd5b610419611321565b34156105e357600080fd5b6101d26004351515611335565b34156105fb57600080fd5b610419611363565b600080600160a060020a038316151561061f576000915061062a565b823b90506000811191505b50919050565b60018054600181600116156101000203166002900480601f0160208091040260200160405190810160405280929190818152602001828054600181600116156101000203166002900480156106c65780601f1061069b576101008083540402835291602001916106c6565b820191906000526020600020905b8154815290600101906020018083116106a957829003601f168201915b505050505081565b600b5460009060ff1615156106e257600080fd5b8115806107125750600160a060020a03338116600090815260096020908152604080832093871683529290522054155b151561071d57600080fd5b60005461073290600160a060020a0316610603565b156107cd5760008054600160a060020a03169063da682aeb903390869086906040516020015260405160e060020a63ffffffff8616028152600160a060020a0393841660048201529190921660248201526044810191909152606401602060405180830381600087803b15156107a757600080fd5b6102c65a03f115156107b857600080fd5b5050506040518051905015156107cd57600080fd5b600160a060020a03338116600081815260096020908152604080832094881680845294909152908190208590557f8c5be1e5ebec7d5bd14f71427d1e84f3dd0314c0f7b2291e5b200ac8c7c3b9259085905190815260200160405180910390a35060015b92915050565b60075481565b600061084843610e57565b90505b90565b6000805433600160a060020a039081169116146108d857600b5460ff16151561087657600080fd5b600160a060020a0380851660009081526009602090815260408083203390941683529290522054829010156108aa57600080fd5b600160a060020a03808516600090815260096020908152604080832033909416835292905220805483900390555b6108e3848484611372565b5060019392505050565b60025460ff1681565b60005433600160a060020a0390811691161461091157600080fd5b6000805473ffffffffffffffffffffffffffffffffffffffff1916600160a060020a0392909216919091179055565b600160a060020a038216600090815260086020526040812054158061099c5750600160a060020a03831660009081526008602052604081208054849290811061098557fe5b6000918252602090912001546001608060020a0316115b15610a4d57600554600160a060020a031615610a4557600554600654600160a060020a0390911690634ee2cd7e9085906109d7908690611564565b60006040516020015260405160e060020a63ffffffff8516028152600160a060020a0390921660048301526024820152604401602060405180830381600087803b1515610a2357600080fd5b6102c65a03f11515610a3457600080fd5b505050604051805190509050610831565b506000610831565b600160a060020a0383166000908152600860205260409020610a6f908361157c565b9050610831565b60048054600181600116156101000203166002900480601f0160208091040260200160405190810160405280929190818152602001828054600181600116156101000203166002900480156106c65780601f1061069b576101008083540402835291602001916106c6565b600080831515610aef574393505b600b546101009004600160a060020a0316635b7b72c130868a8a8a8960006040516020015260405160e060020a63ffffffff8916028152600160a060020a038716600482019081526024820187905260ff8516606483015282151560a483015260c0604483019081529091608481019060c40187818151815260200191508051906020019080838360005b83811015610b92578082015183820152602001610b7a565b50505050905090810190601f168015610bbf5780820380516001836020036101000a031916815260200191505b50838103825285818151815260200191508051906020019080838360005b83811015610bf5578082015183820152602001610bdd565b50505050905090810190601f168015610c225780820380516001836020036101000a031916815260200191505b5098505050505050505050602060405180830381600087803b1515610c4657600080fd5b6102c65a03f11515610c5757600080fd5b5050506040518051915050600160a060020a038116633cebb8233360405160e060020a63ffffffff8416028152600160a060020a039091166004820152602401600060405180830381600087803b1515610cb057600080fd5b6102c65a03f11515610cc157600080fd5b50505080600160a060020a03167f086c875b377f900b07ce03575813022f05dd10ed7640b5282cf6d3c3fc352ade8560405190815260200160405180910390a29695505050505050565b6000610d178243610940565b90505b919050565b600554600160a060020a031681565b600080548190819033600160a060020a03908116911614610d4e57600080fd5b610d5661083d565b915083820182901015610d6857600080fd5b610d7185610d0b565b905083810181901015610d8357600080fd5b610d90600a8584016116db565b600160a060020a0385166000908152600860205260409020610db4908286016116db565b84600160a060020a0316600060008051602061180f8339815191528660405190815260200160405180910390a3506001949350505050565b60038054600181600116156101000203166002900480601f0160208091040260200160405190810160405280929190818152602001828054600181600116156101000203166002900480156106c65780601f1061069b576101008083540402835291602001916106c6565b600a546000901580610e8c575081600a6000815481101515610e7557fe5b6000918252602090912001546001608060020a0316115b15610f2e57600554600160a060020a031615610f2657600554600654600160a060020a039091169063981b24d090610ec5908590611564565b60006040516020015260405160e060020a63ffffffff84160281526004810191909152602401602060405180830381600087803b1515610f0457600080fd5b6102c65a03f11515610f1557600080fd5b505050604051805190509050610d1a565b506000610d1a565b610f39600a8361157c565b9050610d1a565b600b5460009060ff161515610f5457600080fd5b610f5f338484611372565b50600192915050565b600b5460ff1681565b60065481565b6000610f8384846106ce565b1515610f8e57600080fd5b83600160a060020a0316638f4ffcb1338530866040518563ffffffff1660e060020a0281526004018085600160a060020a0316600160a060020a0316815260200184815260200183600160a060020a0316600160a060020a0316815260200180602001828103825283818151815260200191508051906020019080838360005b8381101561102657808201518382015260200161100e565b50505050905090810190601f1680156110535780820380516001836020036101000a031916815260200191505b5095505050505050600060405180830381600087803b151561107457600080fd5b6102c65a03f1151561108557600080fd5b5060019695505050505050565b600080548190819033600160a060020a039081169116146110b257600080fd5b6110ba61083d565b9150838210156110c957600080fd5b6110d285610d0b565b9050838110156110e157600080fd5b6110ee600a8584036116db565b600160a060020a0385166000908152600860205260409020611112908583036116db565b600085600160a060020a031660008051602061180f8339815191528660405190815260200160405180910390a3506001949350505050565b600160a060020a03918216600090815260096020908152604080832093909416825291909152205490565b60008054819033600160a060020a0390811691161461119357600080fd5b600160a060020a03831615156111e157600054600160a060020a039081169030163180156108fc0290604051600060405180830381858888f1935050505015156111dc57600080fd5b61131c565b82915081600160a060020a03166370a082313060006040516020015260405160e060020a63ffffffff8416028152600160a060020a039091166004820152602401602060405180830381600087803b151561123b57600080fd5b6102c65a03f1151561124c57600080fd5b505050604051805160008054919350600160a060020a03808616935063a9059cbb92169084906040516020015260405160e060020a63ffffffff8516028152600160a060020a0390921660048301526024820152604401602060405180830381600087803b15156112bc57600080fd5b6102c65a03f115156112cd57600080fd5b50505060405180515050600054600160a060020a039081169084167ff931edb47c50b4b4104c187b5814a9aef5f709e17e2ecf9617e860cacade929c8360405190815260200160405180910390a35b505050565b600b546101009004600160a060020a031681565b60005433600160a060020a0390811691161461135057600080fd5b600b805460ff1916911515919091179055565b600054600160a060020a031681565b6000808215156113b65783600160a060020a031685600160a060020a031660008051602061180f8339815191528560405190815260200160405180910390a361155d565b6006544390106113c557600080fd5b600160a060020a038416158015906113ef575030600160a060020a031684600160a060020a031614155b15156113fa57600080fd5b6114048543610940565b91508282101561141357600080fd5b60005461142890600160a060020a0316610603565b156114c35760008054600160a060020a031690634a393149908790879087906040516020015260405160e060020a63ffffffff8616028152600160a060020a0393841660048201529190921660248201526044810191909152606401602060405180830381600087803b151561149d57600080fd5b6102c65a03f115156114ae57600080fd5b5050506040518051905015156114c357600080fd5b600160a060020a03851660009081526008602052604090206114e7908484036116db565b6114f18443610940565b90508281018190101561150357600080fd5b600160a060020a0384166000908152600860205260409020611527908285016116db565b83600160a060020a031685600160a060020a031660008051602061180f8339815191528560405190815260200160405180910390a35b5050505050565b60008183106115735781611575565b825b9392505050565b60008060008085805490506000141561159857600093506116d2565b8554869060001981019081106115aa57fe5b6000918252602090912001546001608060020a03168510611607578554869060001981019081106115d757fe5b60009182526020909120015470010000000000000000000000000000000090046001608060020a031693506116d2565b85600081548110151561161657fe5b6000918252602090912001546001608060020a031685101561163b57600093506116d2565b8554600093506000190191505b8282111561169857600260018385010104905084868281548110151561166a57fe5b6000918252602090912001546001608060020a03161161168c57809250611693565b6001810391505b611648565b85838154811015156116a657fe5b60009182526020909120015470010000000000000000000000000000000090046001608060020a031693505b50505092915050565b815460009081901580611714575083544390859060001981019081106116fd57fe5b6000918252602090912001546001608060020a0316105b15611786578354849061172a82600183016117d1565b8154811061173457fe5b600091825260209091200180546001608060020a03858116700100000000000000000000000000000000024382166fffffffffffffffffffffffffffffffff19909316929092171617815591506117cb565b83548490600019810190811061179857fe5b600091825260209091200180546001608060020a0380861670010000000000000000000000000000000002911617815590505b50505050565b81548183558181151161131c5760008381526020902061131c91810190830161084b91905b8082111561180a57600081556001016117f6565b50905600ddf252ad1be2c89b69c2b068fc378daa952ba7f163c4a11628f55a4df523b3efa165627a7a72305820e737adfca4efd95cdefb6e95e02aee77ccda07304050c9bdc3c6a54082b683730029a165627a7a723058209d46c6d6aa783e27f5f65535d4826ca29c8df11109ba3b06100acbb3dcbdabd70029",
  "source": "pragma solidity ^0.4.18;\n\n/*\n    Copyright 2016, Jordi Baylina\n\n    This program is free software: you can redistribute it and/or modify\n    it under the terms of the GNU General Public License as published by\n    the Free Software Foundation, either version 3 of the License, or\n    (at your option) any later version.\n\n    This program is distributed in the hope that it will be useful,\n    but WITHOUT ANY WARRANTY; without even the implied warranty of\n    MERCHANTABILITY or FITNESS FOR A PARTICULAR PURPOSE.  See the\n    GNU General Public License for more details.\n\n    You should have received a copy of the GNU General Public License\n    along with this program.  If not, see <http://www.gnu.org/licenses/>.\n */\n\n/// @title MiniMeToken Contract\n/// @author Jordi Baylina\n/// @dev This token contract's goal is to make it easy for anyone to clone this\n///  token using the token distribution at a given block, this will allow DAO's\n///  and DApps to upgrade their features in a decentralized manner without\n///  affecting the original token\n/// @dev It is ERC20 compliant, but still needs to under go further testing.\n\nimport \"./Controlled.sol\";\nimport \"./TokenController.sol\";\n\n\ncontract ApproveAndCallFallBack {\n    function receiveApproval(\n        address from,\n        uint256 _amount,\n        address _token,\n        bytes _data) public;\n}\n\n\n/// @dev The actual token contract, the default controller is the msg.sender\n///  that deploys the contract, so usually this token will be deployed by a\n///  token controller contract, which Giveth will call a \"Campaign\"\ncontract MiniMeToken is Controlled {\n\n    string public name;                //The Token's name: e.g. DigixDAO Tokens\n    uint8 public decimals;             //Number of decimals of the smallest unit\n    string public symbol;              //An identifier: e.g. REP\n    string public version = \"MMT_0.2\"; //An arbitrary versioning scheme\n\n\n    /// @dev `Checkpoint` is the structure that attaches a block number to a\n    ///  given value, the block number attached is the one that last changed the\n    ///  value\n    struct Checkpoint {\n\n        // `fromBlock` is the block number that the value was generated from\n        uint128 fromBlock;\n\n        // `value` is the amount of tokens at a specific block number\n        uint128 value;\n    }\n\n    // `parentToken` is the Token address that was cloned to produce this token;\n    //  it will be 0x0 for a token that was not cloned\n    MiniMeToken public parentToken;\n\n    // `parentSnapShotBlock` is the block number from the Parent Token that was\n    //  used to determine the initial distribution of the Clone Token\n    uint public parentSnapShotBlock;\n\n    // `creationBlock` is the block number that the Clone Token was created\n    uint public creationBlock;\n\n    // `balances` is the map that tracks the balance of each address, in this\n    //  contract when the balance changes the block number that the change\n    //  occurred is also included in the map\n    mapping(address => Checkpoint[]) balances;\n\n    // `allowed` tracks any extra transfer rights as in all ERC20 tokens\n    mapping(address => mapping(address => uint256)) allowed;\n\n    // Tracks the history of the `totalSupply` of the token\n    Checkpoint[] totalSupplyHistory;\n\n    // Flag that determines if the token is transferable or not.\n    bool public transfersEnabled;\n\n    // The factory used to create new clone tokens\n    MiniMeTokenFactory public tokenFactory;\n\n    ////////////////\n    // Constructor\n    ////////////////\n\n    /// @notice Constructor to create a MiniMeToken\n    /// @param _tokenFactory The address of the MiniMeTokenFactory contract that\n    ///  will create the Clone token contracts, the token factory needs to be\n    ///  deployed first\n    /// @param _parentToken Address of the parent token, set to 0x0 if it is a\n    ///  new token\n    /// @param _parentSnapShotBlock Block of the parent token that will\n    ///  determine the initial distribution of the clone token, set to 0 if it\n    ///  is a new token\n    /// @param _tokenName Name of the new token\n    /// @param _decimalUnits Number of decimals of the new token\n    /// @param _tokenSymbol Token Symbol for the new token\n    /// @param _transfersEnabled If true, tokens will be able to be transferred\n    function MiniMeToken(\n        address _tokenFactory,\n        address _parentToken,\n        uint _parentSnapShotBlock,\n        string _tokenName,\n        uint8 _decimalUnits,\n        string _tokenSymbol,\n        bool _transfersEnabled\n    ) public\n    {\n        tokenFactory = MiniMeTokenFactory(_tokenFactory);\n        name = _tokenName;\n        // Set the name\n        decimals = _decimalUnits;\n        // Set the decimals\n        symbol = _tokenSymbol;\n        // Set the symbol\n        parentToken = MiniMeToken(_parentToken);\n        parentSnapShotBlock = _parentSnapShotBlock;\n        transfersEnabled = _transfersEnabled;\n        creationBlock = block.number;\n    }\n    \n    /// @notice The fallback function: If the contract's controller has not been\n    ///  set to 0, then the `proxyPayment` method is called which relays the\n    ///  ether and creates tokens as described in the token controller contract\n    function() public payable {\n        require(isContract(controller));\n        require(TokenController(controller).proxyPayment.value(msg.value)(msg.sender));\n    }\n    \n    ///////////////////\n    // ERC20 Methods\n    ///////////////////\n\n    /// @notice Send `_amount` tokens to `_to` from `msg.sender`\n    /// @param _to The address of the recipient\n    /// @param _amount The amount of tokens to be transferred\n    /// @return Whether the transfer was successful or not\n    function transfer(address _to, uint256 _amount) public returns (bool success) {\n        require(transfersEnabled);\n        doTransfer(msg.sender, _to, _amount);\n        return true;\n    }\n\n    /// @notice Send `_amount` tokens to `_to` from `_from` on the condition it\n    ///  is approved by `_from`\n    /// @param _from The address holding the tokens being transferred\n    /// @param _to The address of the recipient\n    /// @param _amount The amount of tokens to be transferred\n    /// @return True if the transfer was successful\n    function transferFrom(address _from, address _to, uint256 _amount) public returns (bool success) {\n        // The controller of this contract can move tokens around at will,\n        //  this is important to recognize! Confirm that you trust the\n        //  controller of this contract, which in most situations should be\n        //  another open source smart contract or 0x0\n        if (msg.sender != controller) {\n            require(transfersEnabled);\n\n            // The standard ERC 20 transferFrom functionality\n            require(allowed[_from][msg.sender] >= _amount);\n            allowed[_from][msg.sender] -= _amount;\n        }\n        doTransfer(_from, _to, _amount);\n        return true;\n    }\n\n    /// @param _owner The address that's balance is being requested\n    /// @return The balance of `_owner` at the current block\n    function balanceOf(address _owner) public constant returns (uint256 balance) {\n        return balanceOfAt(_owner, block.number);\n    }\n\n    /// @notice `msg.sender` approves `_spender` to spend `_amount` tokens on\n    ///  its behalf. This is a modified version of the ERC20 approve function\n    ///  to be a little bit safer\n    /// @param _spender The address of the account able to transfer the tokens\n    /// @param _amount The amount of tokens to be approved for transfer\n    /// @return True if the approval was successful\n    function approve(address _spender, uint256 _amount) public returns (bool success) {\n        require(transfersEnabled);\n\n        // To change the approve amount you first have to reduce the addresses`\n        //  allowance to zero by calling `approve(_spender,0)` if it is not\n        //  already 0 to mitigate the race condition described here:\n        //  https://github.com/ethereum/EIPs/issues/20#issuecomment-263524729\n        require((_amount == 0) || (allowed[msg.sender][_spender] == 0));\n\n        // Alerts the token controller of the approve function call\n        if (isContract(controller)) {\n            require(TokenController(controller).onApprove(msg.sender, _spender, _amount));\n        }\n\n        allowed[msg.sender][_spender] = _amount;\n        Approval(msg.sender, _spender, _amount);\n        return true;\n    }\n\n    /// @dev This function makes it easy to read the `allowed[]` map\n    /// @param _owner The address of the account that owns the token\n    /// @param _spender The address of the account able to transfer the tokens\n    /// @return Amount of remaining tokens of _owner that _spender is allowed\n    ///  to spend\n    function allowance(address _owner, address _spender) public constant returns (uint256 remaining) {\n        return allowed[_owner][_spender];\n    }\n\n    /// @notice `msg.sender` approves `_spender` to send `_amount` tokens on\n    ///  its behalf, and then a function is triggered in the contract that is\n    ///  being approved, `_spender`. This allows users to use their tokens to\n    ///  interact with contracts in one function call instead of two\n    /// @param _spender The address of the contract able to transfer the tokens\n    /// @param _amount The amount of tokens to be approved for transfer\n    /// @return True if the function call was successful\n    function approveAndCall(address _spender, uint256 _amount, bytes _extraData) public returns (bool success) {\n        require(approve(_spender, _amount));\n\n        ApproveAndCallFallBack(_spender).receiveApproval(\n            msg.sender,\n            _amount,\n            this,\n            _extraData\n        );\n\n        return true;\n    }\n\n    /// @dev This function makes it easy to get the total number of tokens\n    /// @return The total number of tokens\n    function totalSupply() public constant returns (uint) {\n        return totalSupplyAt(block.number);\n    }\n\n\n    ////////////////\n    // Query balance and totalSupply in History\n    ////////////////\n\n    /// @dev Queries the balance of `_owner` at a specific `_blockNumber`\n    /// @param _owner The address from which the balance will be retrieved\n    /// @param _blockNumber The block number when the balance is queried\n    /// @return The balance at `_blockNumber`\n    function balanceOfAt(address _owner, uint _blockNumber) public constant returns (uint) {\n        // These next few lines are used when the balance of the token is\n        //  requested before a check point was ever created for this token, it\n        //  requires that the `parentToken.balanceOfAt` be queried at the\n        //  genesis block for that token as this contains initial balance of\n        //  this token\n        if ((balances[_owner].length == 0) || (balances[_owner][0].fromBlock > _blockNumber)) {\n            if (address(parentToken) != 0) {\n                return parentToken.balanceOfAt(_owner, min(_blockNumber, parentSnapShotBlock));\n            } else {\n                // Has no parent\n                return 0;\n            }\n\n            // This will return the expected balance during normal situations\n        } else {\n            return getValueAt(balances[_owner], _blockNumber);\n        }\n    }\n\n    /// @notice Total amount of tokens at a specific `_blockNumber`.\n    /// @param _blockNumber The block number when the totalSupply is queried\n    /// @return The total amount of tokens at `_blockNumber`\n    function totalSupplyAt(uint _blockNumber) public constant returns (uint) {\n\n        // These next few lines are used when the totalSupply of the token is\n        //  requested before a check point was ever created for this token, it\n        //  requires that the `parentToken.totalSupplyAt` be queried at the\n        //  genesis block for this token as that contains totalSupply of this\n        //  token at this block number.\n        if ((totalSupplyHistory.length == 0) || (totalSupplyHistory[0].fromBlock > _blockNumber)) {\n            if (address(parentToken) != 0) {\n                return parentToken.totalSupplyAt(min(_blockNumber, parentSnapShotBlock));\n            } else {\n                return 0;\n            }\n\n            // This will return the expected totalSupply during normal situations\n        } else {\n            return getValueAt(totalSupplyHistory, _blockNumber);\n        }\n    }\n\n    ////////////////\n    // Clone Token Method\n    ////////////////\n\n    /// @notice Creates a new clone token with the initial distribution being\n    ///  this token at `_snapshotBlock`\n    /// @param _cloneTokenName Name of the clone token\n    /// @param _cloneDecimalUnits Number of decimals of the smallest unit\n    /// @param _cloneTokenSymbol Symbol of the clone token\n    /// @param _snapshotBlock Block when the distribution of the parent token is\n    ///  copied to set the initial distribution of the new clone token;\n    ///  if the block is zero than the actual block, the current block is used\n    /// @param _transfersEnabled True if transfers are allowed in the clone\n    /// @return The address of the new MiniMeToken Contract\n    function createCloneToken(\n        string _cloneTokenName,\n        uint8 _cloneDecimalUnits,\n        string _cloneTokenSymbol,\n        uint _snapshotBlock,\n        bool _transfersEnabled\n    ) public returns (address)\n    {\n        if (_snapshotBlock == 0) {\n            _snapshotBlock = block.number;\n        }\n        MiniMeToken cloneToken = tokenFactory.createCloneToken(\n            this,\n            _snapshotBlock,\n            _cloneTokenName,\n            _cloneDecimalUnits,\n            _cloneTokenSymbol,\n            _transfersEnabled\n        );\n\n        cloneToken.changeController(msg.sender);\n\n        // An event to make the token easy to find on the blockchain\n        NewCloneToken(address(cloneToken), _snapshotBlock);\n        return address(cloneToken);\n    }\n\n    ////////////////\n    // Generate and destroy tokens\n    ////////////////\n\n    /// @notice Generates `_amount` tokens that are assigned to `_owner`\n    /// @param _owner The address that will be assigned the new tokens\n    /// @param _amount The quantity of tokens generated\n    /// @return True if the tokens are generated correctly\n    function generateTokens(address _owner, uint _amount) public onlyController returns (bool) {\n        uint curTotalSupply = totalSupply();\n        require(curTotalSupply + _amount >= curTotalSupply);\n        // Check for overflow\n        uint previousBalanceTo = balanceOf(_owner);\n        require(previousBalanceTo + _amount >= previousBalanceTo);\n        // Check for overflow\n        updateValueAtNow(totalSupplyHistory, curTotalSupply + _amount);\n        updateValueAtNow(balances[_owner], previousBalanceTo + _amount);\n        Transfer(0, _owner, _amount);\n        return true;\n    }\n\n\n    /// @notice Burns `_amount` tokens from `_owner`\n    /// @param _owner The address that will lose the tokens\n    /// @param _amount The quantity of tokens to burn\n    /// @return True if the tokens are burned correctly\n    function destroyTokens(address _owner, uint _amount) onlyController public returns (bool) {\n        uint curTotalSupply = totalSupply();\n        require(curTotalSupply >= _amount);\n        uint previousBalanceFrom = balanceOf(_owner);\n        require(previousBalanceFrom >= _amount);\n        updateValueAtNow(totalSupplyHistory, curTotalSupply - _amount);\n        updateValueAtNow(balances[_owner], previousBalanceFrom - _amount);\n        Transfer(_owner, 0, _amount);\n        return true;\n    }\n\n    ////////////////\n    // Enable tokens transfers\n    ////////////////\n\n\n    /// @notice Enables token holders to transfer their tokens freely if true\n    /// @param _transfersEnabled True if transfers are allowed in the clone\n    function enableTransfers(bool _transfersEnabled) public onlyController {\n        transfersEnabled = _transfersEnabled;\n    }\n    \n    //////////\n    // Safety Methods\n    //////////\n\n    /// @notice This method can be used by the controller to extract mistakenly\n    ///  sent tokens to this contract.\n    /// @param _token The address of the token contract that you want to recover\n    ///  set to 0 in case you want to extract ether.\n    function claimTokens(address _token) public onlyController {\n        if (_token == 0x0) {\n            controller.transfer(this.balance);\n            return;\n        }\n\n        MiniMeToken token = MiniMeToken(_token);\n        uint balance = token.balanceOf(this);\n        token.transfer(controller, balance);\n        ClaimedTokens(_token, controller, balance);\n    }\n\n    /// @dev This is the actual transfer function in the token contract, it can\n    ///  only be called by other functions in this contract.\n    /// @param _from The address holding the tokens being transferred\n    /// @param _to The address of the recipient\n    /// @param _amount The amount of tokens to be transferred\n    /// @return True if the transfer was successful\n    function doTransfer(address _from, address _to, uint _amount) internal {\n        if (_amount == 0) {\n            Transfer(_from, _to, _amount);\n            // Follow the spec to louch the event when transfer 0\n            return;\n        }\n\n        require(parentSnapShotBlock < block.number);\n\n        // Do not allow transfer to 0x0 or the token contract itself\n        require((_to != 0) && (_to != address(this)));\n\n        // If the amount being transfered is more than the balance of the\n        //  account the transfer throws\n        var previousBalanceFrom = balanceOfAt(_from, block.number);\n\n        require(previousBalanceFrom >= _amount);\n\n        // Alerts the token controller of the transfer\n        if (isContract(controller)) {\n            require(TokenController(controller).onTransfer(_from, _to, _amount));\n        }\n\n        // First update the balance array with the new value for the address\n        //  sending the tokens\n        updateValueAtNow(balances[_from], previousBalanceFrom - _amount);\n\n        // Then update the balance array with the new value for the address\n        //  receiving the tokens\n        var previousBalanceTo = balanceOfAt(_to, block.number);\n        require(previousBalanceTo + _amount >= previousBalanceTo);\n        // Check for overflow\n        updateValueAtNow(balances[_to], previousBalanceTo + _amount);\n\n        // An event to make the transfer easy to find on the blockchain\n        Transfer(_from, _to, _amount);\n\n    }\n\n    ////////////////\n    // Internal helper functions to query and set a value in a snapshot array\n    ////////////////\n\n    /// @dev `getValueAt` retrieves the number of tokens at a given block number\n    /// @param checkpoints The history of values being queried\n    /// @param _block The block number to retrieve the value at\n    /// @return The number of tokens being queried\n    function getValueAt(Checkpoint[] storage checkpoints, uint _block) constant internal returns (uint) {\n        if (checkpoints.length == 0) {\n            return 0;\n        }\n\n        // Shortcut for the actual value\n        if (_block >= checkpoints[checkpoints.length - 1].fromBlock) {\n            return checkpoints[checkpoints.length - 1].value;\n        }\n        if (_block < checkpoints[0].fromBlock) {\n            return 0;\n        }\n\n        // Binary search of the value in the array\n        uint min = 0;\n        uint max = checkpoints.length - 1;\n        while (max > min) {\n            uint mid = (max + min + 1) / 2;\n            if (checkpoints[mid].fromBlock <= _block) {\n                min = mid;\n            } else {\n                max = mid - 1;\n            }\n        }\n        return checkpoints[min].value;\n    }\n\n    /// @dev `updateValueAtNow` used to update the `balances` map and the\n    ///  `totalSupplyHistory`\n    /// @param checkpoints The history of data being updated\n    /// @param _value The new number of tokens\n    function updateValueAtNow(Checkpoint[] storage checkpoints, uint _value) internal {\n        if ((checkpoints.length == 0) || (checkpoints[checkpoints.length - 1].fromBlock < block.number)) {\n            Checkpoint storage newCheckPoint = checkpoints[checkpoints.length++];\n            newCheckPoint.fromBlock = uint128(block.number);\n            newCheckPoint.value = uint128(_value);\n        } else {\n            Checkpoint storage oldCheckPoint = checkpoints[checkpoints.length - 1];\n            oldCheckPoint.value = uint128(_value);\n        }\n    }\n\n    /// @dev Internal function to determine if an address is a contract\n    /// @param _addr The address being queried\n    /// @return True if `_addr` is a contract\n    function isContract(address _addr) constant internal returns (bool) {\n        uint size;\n        if (_addr == 0) {\n            return false;\n        }\n        assembly {\n            size := extcodesize(_addr)\n        }\n        return size > 0;\n    }\n\n    /// @dev Helper function to return a min betwen the two uints\n    function min(uint a, uint b) pure internal returns (uint) {\n        return a < b ? a : b;\n    }\n\n    ////////////////\n    // Events\n    ////////////////\n    event ClaimedTokens(address indexed _token, address indexed _controller, uint _amount);\n    event Transfer(address indexed _from, address indexed _to, uint256 _amount);\n    event NewCloneToken(address indexed _cloneToken, uint _snapshotBlock);\n    event Approval(\n        address indexed _owner,\n        address indexed _spender,\n        uint256 _amount\n    );\n}\n\n\n////////////////\n// MiniMeTokenFactory\n////////////////\n\n/// @dev This contract is used to generate clone contracts from a contract.\n///  In solidity this is the way to create a contract from a contract of the\n///  same class\ncontract MiniMeTokenFactory {\n\n    /// @notice Update the DApp by creating a new token with new functionalities\n    ///  the msg.sender becomes the controller of this clone token\n    /// @param _parentToken Address of the token being cloned\n    /// @param _snapshotBlock Block of the parent token that will\n    ///  determine the initial distribution of the clone token\n    /// @param _tokenName Name of the new token\n    /// @param _decimalUnits Number of decimals of the new token\n    /// @param _tokenSymbol Token Symbol for the new token\n    /// @param _transfersEnabled If true, tokens will be able to be transferred\n    /// @return The address of the new token contract\n    function createCloneToken(\n        address _parentToken,\n        uint _snapshotBlock,\n        string _tokenName,\n        uint8 _decimalUnits,\n        string _tokenSymbol,\n        bool _transfersEnabled\n    ) public returns (MiniMeToken)\n    {\n        MiniMeToken newToken = new MiniMeToken(\n            this,\n            _parentToken,\n            _snapshotBlock,\n            _tokenName,\n            _decimalUnits,\n            _tokenSymbol,\n            _transfersEnabled\n        );\n\n        newToken.changeController(msg.sender);\n        return newToken;\n    }\n}\n",
  "sourcePath": "/Users/crash/git/travelkoin/travelkoin-contracts/contracts/minime_0.2.0/MiniMeToken.sol",
  "compiler": {
    "name": "solc",
    "version": "0.4.19+commit.c4cbbb05.Emscripten.clang"
  },
  "schemaVersion": "1.0.1",
  "updatedAt": "2018-02-22T02:12:15.167Z"
}