{
  "contractName": "TravelkoinNormalSale",
  "abi": [
    {
      "constant": true,
      "inputs": [],
      "name": "travelkoinController",
      "outputs": [
        {
          "name": "",
          "type": "address"
        }
      ],
      "payable": false,
      "stateMutability": "view",
      "type": "function"
    },
    {
      "constant": true,
      "inputs": [],
      "name": "rate",
      "outputs": [
        {
          "name": "",
          "type": "uint256"
        }
      ],
      "payable": false,
      "stateMutability": "view",
      "type": "function"
    },
    {
      "constant": true,
      "inputs": [],
      "name": "endTime",
      "outputs": [
        {
          "name": "",
          "type": "uint256"
        }
      ],
      "payable": false,
      "stateMutability": "view",
      "type": "function"
    },
    {
      "constant": true,
      "inputs": [],
      "name": "cap",
      "outputs": [
        {
          "name": "",
          "type": "uint256"
        }
      ],
      "payable": false,
      "stateMutability": "view",
      "type": "function"
    },
    {
      "constant": false,
      "inputs": [],
      "name": "unpause",
      "outputs": [],
      "payable": false,
      "stateMutability": "nonpayable",
      "type": "function"
    },
    {
      "constant": true,
      "inputs": [],
      "name": "weiRaised",
      "outputs": [
        {
          "name": "",
          "type": "uint256"
        }
      ],
      "payable": false,
      "stateMutability": "view",
      "type": "function"
    },
    {
      "constant": true,
      "inputs": [],
      "name": "hasStarted",
      "outputs": [
        {
          "name": "",
          "type": "bool"
        }
      ],
      "payable": false,
      "stateMutability": "view",
      "type": "function"
    },
    {
      "constant": true,
      "inputs": [
        {
          "name": "",
          "type": "uint256"
        }
      ],
      "name": "contributorsKeys",
      "outputs": [
        {
          "name": "",
          "type": "address"
        }
      ],
      "payable": false,
      "stateMutability": "view",
      "type": "function"
    },
    {
      "constant": false,
      "inputs": [],
      "name": "finalize",
      "outputs": [],
      "payable": false,
      "stateMutability": "nonpayable",
      "type": "function"
    },
    {
      "constant": true,
      "inputs": [],
      "name": "tokenSold",
      "outputs": [
        {
          "name": "",
          "type": "uint256"
        }
      ],
      "payable": false,
      "stateMutability": "view",
      "type": "function"
    },
    {
      "constant": true,
      "inputs": [],
      "name": "wallet",
      "outputs": [
        {
          "name": "",
          "type": "address"
        }
      ],
      "payable": false,
      "stateMutability": "view",
      "type": "function"
    },
    {
      "constant": true,
      "inputs": [],
      "name": "paused",
      "outputs": [
        {
          "name": "",
          "type": "bool"
        }
      ],
      "payable": false,
      "stateMutability": "view",
      "type": "function"
    },
    {
      "constant": true,
      "inputs": [],
      "name": "startTime",
      "outputs": [
        {
          "name": "",
          "type": "uint256"
        }
      ],
      "payable": false,
      "stateMutability": "view",
      "type": "function"
    },
    {
      "constant": false,
      "inputs": [],
      "name": "pause",
      "outputs": [],
      "payable": false,
      "stateMutability": "nonpayable",
      "type": "function"
    },
    {
      "constant": true,
      "inputs": [],
      "name": "whitelistDayCount",
      "outputs": [
        {
          "name": "",
          "type": "uint8"
        }
      ],
      "payable": false,
      "stateMutability": "view",
      "type": "function"
    },
    {
      "constant": true,
      "inputs": [],
      "name": "isFinalized",
      "outputs": [
        {
          "name": "",
          "type": "bool"
        }
      ],
      "payable": false,
      "stateMutability": "view",
      "type": "function"
    },
    {
      "constant": true,
      "inputs": [],
      "name": "owner",
      "outputs": [
        {
          "name": "",
          "type": "address"
        }
      ],
      "payable": false,
      "stateMutability": "view",
      "type": "function"
    },
    {
      "constant": true,
      "inputs": [
        {
          "name": "",
          "type": "address"
        }
      ],
      "name": "whitelist",
      "outputs": [
        {
          "name": "",
          "type": "bool"
        }
      ],
      "payable": false,
      "stateMutability": "view",
      "type": "function"
    },
    {
      "constant": true,
      "inputs": [],
      "name": "tokenBalance",
      "outputs": [
        {
          "name": "",
          "type": "uint256"
        }
      ],
      "payable": false,
      "stateMutability": "view",
      "type": "function"
    },
    {
      "constant": true,
      "inputs": [],
      "name": "minContribution",
      "outputs": [
        {
          "name": "",
          "type": "uint256"
        }
      ],
      "payable": false,
      "stateMutability": "view",
      "type": "function"
    },
    {
      "constant": true,
      "inputs": [
        {
          "name": "",
          "type": "address"
        }
      ],
      "name": "stakesPerUser",
      "outputs": [
        {
          "name": "",
          "type": "uint256"
        }
      ],
      "payable": false,
      "stateMutability": "view",
      "type": "function"
    },
    {
      "constant": true,
      "inputs": [],
      "name": "valueOfNow",
      "outputs": [
        {
          "name": "",
          "type": "uint256"
        }
      ],
      "payable": false,
      "stateMutability": "view",
      "type": "function"
    },
    {
      "constant": true,
      "inputs": [
        {
          "name": "",
          "type": "uint8"
        }
      ],
      "name": "whitelistDayMaxStake",
      "outputs": [
        {
          "name": "",
          "type": "uint256"
        }
      ],
      "payable": false,
      "stateMutability": "view",
      "type": "function"
    },
    {
      "constant": true,
      "inputs": [],
      "name": "hasEnded",
      "outputs": [
        {
          "name": "",
          "type": "bool"
        }
      ],
      "payable": false,
      "stateMutability": "view",
      "type": "function"
    },
    {
      "constant": false,
      "inputs": [
        {
          "name": "newOwner",
          "type": "address"
        }
      ],
      "name": "transferOwnership",
      "outputs": [],
      "payable": false,
      "stateMutability": "nonpayable",
      "type": "function"
    },
    {
      "constant": true,
      "inputs": [],
      "name": "token",
      "outputs": [
        {
          "name": "",
          "type": "address"
        }
      ],
      "payable": false,
      "stateMutability": "view",
      "type": "function"
    },
    {
      "inputs": [
        {
          "name": "_travelkoinController",
          "type": "address"
        },
        {
          "name": "_startTime",
          "type": "uint256"
        },
        {
          "name": "_endTime",
          "type": "uint256"
        },
        {
          "name": "_minContribution",
          "type": "uint256"
        },
        {
          "name": "_rate",
          "type": "uint256"
        },
        {
          "name": "_cap",
          "type": "uint256"
        },
        {
          "name": "_wallet",
          "type": "address"
        }
      ],
      "payable": false,
      "stateMutability": "nonpayable",
      "type": "constructor"
    },
    {
      "payable": true,
      "stateMutability": "payable",
      "type": "fallback"
    },
    {
      "anonymous": false,
      "inputs": [
        {
          "indexed": true,
          "name": "_claimer",
          "type": "address"
        },
        {
          "indexed": true,
          "name": "_beneficiary",
          "type": "address"
        },
        {
          "indexed": false,
          "name": "_stake",
          "type": "uint256"
        },
        {
          "indexed": false,
          "name": "_amount",
          "type": "uint256"
        }
      ],
      "name": "TokenClaimed",
      "type": "event"
    },
    {
      "anonymous": false,
      "inputs": [
        {
          "indexed": true,
          "name": "_purchaser",
          "type": "address"
        },
        {
          "indexed": true,
          "name": "_beneficiary",
          "type": "address"
        },
        {
          "indexed": false,
          "name": "_value",
          "type": "uint256"
        },
        {
          "indexed": false,
          "name": "_stake",
          "type": "uint256"
        },
        {
          "indexed": false,
          "name": "_participants",
          "type": "uint256"
        },
        {
          "indexed": false,
          "name": "_weiRaised",
          "type": "uint256"
        }
      ],
      "name": "TokenPurchase",
      "type": "event"
    },
    {
      "anonymous": false,
      "inputs": [
        {
          "indexed": true,
          "name": "_whitelister",
          "type": "address"
        },
        {
          "indexed": true,
          "name": "_beneficiary",
          "type": "address"
        }
      ],
      "name": "WhitelistAddressAdded",
      "type": "event"
    },
    {
      "anonymous": false,
      "inputs": [
        {
          "indexed": true,
          "name": "_whitelister",
          "type": "address"
        },
        {
          "indexed": true,
          "name": "_beneficiary",
          "type": "address"
        }
      ],
      "name": "WhitelistAddressRemoved",
      "type": "event"
    },
    {
      "anonymous": false,
      "inputs": [
        {
          "indexed": true,
          "name": "_whitelister",
          "type": "address"
        },
        {
          "indexed": false,
          "name": "_day",
          "type": "uint8"
        },
        {
          "indexed": false,
          "name": "_maxStake",
          "type": "uint256"
        }
      ],
      "name": "WhitelistSetDay",
      "type": "event"
    },
    {
      "anonymous": false,
      "inputs": [
        {
          "indexed": false,
          "name": "owner",
          "type": "address"
        },
        {
          "indexed": false,
          "name": "_oldStartTime",
          "type": "uint256"
        },
        {
          "indexed": false,
          "name": "_oldEndTime",
          "type": "uint256"
        },
        {
          "indexed": false,
          "name": "_startTime",
          "type": "uint256"
        },
        {
          "indexed": false,
          "name": "_endTime",
          "type": "uint256"
        }
      ],
      "name": "TimeChange",
      "type": "event"
    },
    {
      "anonymous": false,
      "inputs": [
        {
          "indexed": false,
          "name": "owner",
          "type": "address"
        },
        {
          "indexed": false,
          "name": "_oldStartTime",
          "type": "uint256"
        },
        {
          "indexed": false,
          "name": "_oldEndTime",
          "type": "uint256"
        },
        {
          "indexed": false,
          "name": "_startTime",
          "type": "uint256"
        },
        {
          "indexed": false,
          "name": "_endTime",
          "type": "uint256"
        }
      ],
      "name": "TimeChangeErrorOccurred",
      "type": "event"
    },
    {
      "anonymous": false,
      "inputs": [],
      "name": "Finalized",
      "type": "event"
    },
    {
      "anonymous": false,
      "inputs": [],
      "name": "Pause",
      "type": "event"
    },
    {
      "anonymous": false,
      "inputs": [],
      "name": "Unpause",
      "type": "event"
    },
    {
      "anonymous": false,
      "inputs": [
        {
          "indexed": true,
          "name": "previousOwner",
          "type": "address"
        },
        {
          "indexed": true,
          "name": "newOwner",
          "type": "address"
        }
      ],
      "name": "OwnershipTransferred",
      "type": "event"
    },
    {
      "anonymous": false,
      "inputs": [
        {
          "indexed": true,
          "name": "purchaser",
          "type": "address"
        },
        {
          "indexed": true,
          "name": "beneficiary",
          "type": "address"
        },
        {
          "indexed": false,
          "name": "value",
          "type": "uint256"
        },
        {
          "indexed": false,
          "name": "amount",
          "type": "uint256"
        }
      ],
      "name": "TokenPurchase",
      "type": "event"
    },
    {
      "constant": false,
      "inputs": [
        {
          "name": "_beneficiaries",
          "type": "address[]"
        }
      ],
      "name": "claimTokensFor",
      "outputs": [],
      "payable": false,
      "stateMutability": "nonpayable",
      "type": "function"
    },
    {
      "constant": false,
      "inputs": [
        {
          "name": "_add",
          "type": "address[]"
        },
        {
          "name": "_remove",
          "type": "address[]"
        },
        {
          "name": "_whitelistLimits",
          "type": "uint256[]"
        }
      ],
      "name": "setWhitelist",
      "outputs": [],
      "payable": false,
      "stateMutability": "nonpayable",
      "type": "function"
    },
    {
      "constant": false,
      "inputs": [
        {
          "name": "_minContribution",
          "type": "uint256"
        }
      ],
      "name": "setMinContribution",
      "outputs": [],
      "payable": false,
      "stateMutability": "nonpayable",
      "type": "function"
    },
    {
      "constant": false,
      "inputs": [
        {
          "name": "_cap",
          "type": "uint256"
        }
      ],
      "name": "setCap",
      "outputs": [],
      "payable": false,
      "stateMutability": "nonpayable",
      "type": "function"
    },
    {
      "constant": false,
      "inputs": [
        {
          "name": "_startTime",
          "type": "uint256"
        },
        {
          "name": "_endTime",
          "type": "uint256"
        }
      ],
      "name": "setTimes",
      "outputs": [],
      "payable": false,
      "stateMutability": "nonpayable",
      "type": "function"
    },
    {
      "constant": false,
      "inputs": [
        {
          "name": "_rate",
          "type": "uint256"
        }
      ],
      "name": "setRate",
      "outputs": [],
      "payable": false,
      "stateMutability": "nonpayable",
      "type": "function"
    },
    {
      "constant": false,
      "inputs": [],
      "name": "claimToken",
      "outputs": [],
      "payable": false,
      "stateMutability": "nonpayable",
      "type": "function"
    },
    {
      "constant": false,
      "inputs": [
        {
          "name": "_beneficiary",
          "type": "address"
        }
      ],
      "name": "claimTokenFor",
      "outputs": [],
      "payable": false,
      "stateMutability": "nonpayable",
      "type": "function"
    },
    {
      "constant": true,
      "inputs": [],
      "name": "howMuchCanIContributeNow",
      "outputs": [
        {
          "name": "",
          "type": "uint256"
        }
      ],
      "payable": false,
      "stateMutability": "view",
      "type": "function"
    },
    {
      "constant": true,
      "inputs": [
        {
          "name": "_beneficiary",
          "type": "address"
        }
      ],
      "name": "howMuchCanXContributeNow",
      "outputs": [
        {
          "name": "",
          "type": "uint256"
        }
      ],
      "payable": false,
      "stateMutability": "view",
      "type": "function"
    },
    {
      "constant": true,
      "inputs": [
        {
          "name": "_time",
          "type": "uint256"
        }
      ],
      "name": "getSaleDay",
      "outputs": [
        {
          "name": "",
          "type": "uint8"
        }
      ],
      "payable": false,
      "stateMutability": "view",
      "type": "function"
    },
    {
      "constant": true,
      "inputs": [],
      "name": "getSaleDayNow",
      "outputs": [
        {
          "name": "",
          "type": "uint8"
        }
      ],
      "payable": false,
      "stateMutability": "view",
      "type": "function"
    },
    {
      "constant": true,
      "inputs": [],
      "name": "getContributorsCount",
      "outputs": [
        {
          "name": "",
          "type": "uint256"
        }
      ],
      "payable": false,
      "stateMutability": "view",
      "type": "function"
    },
    {
      "constant": true,
      "inputs": [
        {
          "name": "_pending",
          "type": "bool"
        },
        {
          "name": "_claimed",
          "type": "bool"
        }
      ],
      "name": "getContributors",
      "outputs": [
        {
          "name": "contributors",
          "type": "address[]"
        }
      ],
      "payable": false,
      "stateMutability": "view",
      "type": "function"
    },
    {
      "constant": true,
      "inputs": [],
      "name": "getTravelkoinBalance",
      "outputs": [
        {
          "name": "",
          "type": "uint256"
        }
      ],
      "payable": false,
      "stateMutability": "view",
      "type": "function"
    },
    {
      "constant": false,
      "inputs": [
        {
          "name": "_beneficiary",
          "type": "address"
        }
      ],
      "name": "buyTokens",
      "outputs": [],
      "payable": true,
      "stateMutability": "payable",
      "type": "function"
    }
  ],
  "bytecode": "0x60606040526006805460a060020a61ffff02191690556103e8600955690690836c0af5f5600000600a5567016345785d8a0000600d55341561004057600080fd5b60405160e080611dd1833981016040528080519190602001805191906020018051919060200180519190602001805191906020018051919060200180519150829050868685844284101561009357600080fd5b838310156100a057600080fd5b600082116100ad57600080fd5b600160a060020a03811615156100c257600080fd5b60019390935560029190915560045560038054600160a060020a0319908116600160a060020a039384161790915560068054909116339092169190911790556000811161010e57600080fd5b600755600160a060020a038716151561012657600080fd5b5060088054600160a060020a031916600160a060020a039790971696909617909555600a949094556009939093555050600d55611c69806101686000396000f3006060604052600436106101ea5763ffffffff60e060020a6000350416631a6fbf7c81146101f557806321c8f5e01461022457806322434836146102495780632c4e722e146102625780632e1e786d146102755780633197cbb614610344578063332e1a811461035757806334fcf437146103c7578063355274ea146103dd5780633f4ba83a146103f05780634042b66f146104035780634451d89f1461041657806344691f7e1461042957806344a2d0d214610450578063473b0d461461046657806347786d371461047c5780634bb278f314610492578063519ee19e146104a5578063521eb273146104b857806356afd6e3146104cb5780635c975abb146104de57806378e97925146104f15780638456cb591461050457806384a1f5a5146105175780638ac97efb146105355780638d4e40831461055e5780638da5cb5b146105715780639b19251a146105845780639e1a4d19146105a3578063a7a957ff146105b6578063aaffadf3146105c9578063bdcbd9d1146105dc578063be22bca6146105fb578063c7efa6891461061a578063c83261bd14610630578063cd3c054c1461064f578063da5e9c6214610662578063ec8ac4d81461067b578063ecb70fb71461068f578063f2fde38b146106a2578063fc0c546a146106c1578063feed5561146106d4575b6101f3336106e7565b005b341561020057600080fd5b61020861079a565b604051600160a060020a03909116815260200160405180910390f35b341561022f57600080fd5b6102376107a9565b60405190815260200160405180910390f35b341561025457600080fd5b6101f3600435602435610884565b341561026d57600080fd5b6102376109b6565b341561028057600080fd5b6101f3600460248135818101908301358060208181020160405190810160405280939291908181526020018383602002808284378201915050505050509190803590602001908201803590602001908080602002602001604051908101604052809392919081815260200183836020028082843782019150505050505091908035906020019082018035906020019080806020026020016040519081016040528093929190818152602001838360200280828437509496506109bc95505050505050565b341561034f57600080fd5b610237610d32565b341561036257600080fd5b61037460043515156024351515610d38565b60405160208082528190810183818151815260200191508051906020019060200280838360005b838110156103b357808201518382015260200161039b565b505050509050019250505060405180910390f35b34156103d257600080fd5b6101f3600435610ee8565b34156103e857600080fd5b610237610f27565b34156103fb57600080fd5b6101f3610f2d565b341561040e57600080fd5b610237610fac565b341561042157600080fd5b6101f3610fb2565b341561043457600080fd5b61043c610fe5565b604051901515815260200160405180910390f35b341561045b57600080fd5b610208600435610fee565b341561047157600080fd5b6101f3600435611016565b341561048757600080fd5b6101f3600435611048565b341561049d57600080fd5b6101f3611088565b34156104b057600080fd5b610237611128565b34156104c357600080fd5b61020861112e565b34156104d657600080fd5b61023761113d565b34156104e957600080fd5b61043c61114d565b34156104fc57600080fd5b61023761115d565b341561050f57600080fd5b6101f3611163565b341561052257600080fd5b6101f360048035602481019101356111e7565b341561054057600080fd5b61054861124e565b60405160ff909116815260200160405180910390f35b341561056957600080fd5b61043c611257565b341561057c57600080fd5b610208611267565b341561058f57600080fd5b61043c600160a060020a0360043516611276565b34156105ae57600080fd5b61023761128b565b34156105c157600080fd5b610548611291565b34156105d457600080fd5b61023761129c565b34156105e757600080fd5b610237600160a060020a03600435166112a2565b341561060657600080fd5b610237600160a060020a0360043516611393565b341561062557600080fd5b6105486004356113a5565b341561063b57600080fd5b6101f3600160a060020a03600435166113e6565b341561065a57600080fd5b610237611637565b341561066d57600080fd5b61023760ff6004351661163b565b6101f3600160a060020a03600435166106e7565b341561069a57600080fd5b61043c61164d565b34156106ad57600080fd5b6101f3600160a060020a0360043516611665565b34156106cc57600080fd5b610208611700565b34156106df57600080fd5b61023761170f565b6006546000908190819060a060020a900460ff161561070557600080fd5b600160a060020a038416151561071a57600080fd5b610723846112a2565b925061072f8334611715565b91506000821161073e57600080fd5b610748848361172d565b610758348363ffffffff61178316565b9050600081111561079457600160a060020a03331681156108fc0282604051600060405180830381858888f19350505050151561079457600080fd5b50505050565b600854600160a060020a031681565b600854600090600160a060020a031663fc0c546a82604051602001526040518163ffffffff1660e060020a028152600401602060405180830381600087803b15156107f357600080fd5b6102c65a03f1151561080457600080fd5b50505060405180519050600160a060020a03166370a082313060006040516020015260405160e060020a63ffffffff8416028152600160a060020a039091166004820152602401602060405180830381600087803b151561086457600080fd5b6102c65a03f1151561087557600080fd5b50505060405180519150505b90565b60065433600160a060020a0390811691161461089f57600080fd5b6108a7610fe5565b156108b157600080fd5b42821180156108bf57508082105b1561092d577f560684f737ffdee2237f1f50e320635689810ce4485d99562c11f8db5c9547bc336001546002548585604051600160a060020a03909516855260208501939093526040808501929092526060840152608083019190915260a0909101905180910390a1610992565b7f462e49a269f8c068198a434126159f9e737d66be7ea8903bb9eab19c5b7eb566336001546002548585604051600160a060020a03909516855260208501939093526040808501929092526060840152608083019190915260a0909101905180910390a15b42821180156109a057508082105b15156109ab57600080fd5b600191909155600255565b60095481565b600654600090819033600160a060020a039081169116146109dc57600080fd5b6109e4610fe5565b156109ee57600080fd5b5060009050808083511115610af45782516010805460ff191660ff92909216919091179055600091505b8251821015610af457610a3282600163ffffffff61179516565b9050828281518110610a4057fe5b9060200190602002015160ff821660009081526012602052604090205414610ae957828281518110610a6e57fe5b9060200190602002015160ff8216600090815260126020526040902055600160a060020a0333167fd5687efd49db15a67bba2e8f383f2231ff233c261ccd6e759a2527d80380d93c82858581518110610ac357fe5b9060200190602002015160405160ff909216825260208201526040908101905180910390a25b600190910190610a18565b600091505b8451821015610c10576000858381518110610b1057fe5b90602001906020020151600160a060020a03161415610b2e57600080fd5b60116000868481518110610b3e57fe5b90602001906020020151600160a060020a0316815260208101919091526040016000205460ff161515610c0557600160116000878581518110610b7d57fe5b90602001906020020151600160a060020a031681526020810191909152604001600020805460ff1916911515919091179055848281518110610bbb57fe5b90602001906020020151600160a060020a031633600160a060020a03167f989ceab15151ad117c420bf6c2f17f42cab53f8a72c3d259d61de6af2ab74c7360405160405180910390a35b600190910190610af9565b600091505b8351821015610d2b576000848381518110610c2c57fe5b90602001906020020151600160a060020a03161415610c4a57600080fd5b60116000858481518110610c5a57fe5b90602001906020020151600160a060020a0316815260208101919091526040016000205460ff1615610d2057600060116000868581518110610c9857fe5b90602001906020020151600160a060020a031681526020810191909152604001600020805460ff1916911515919091179055838281518110610cd657fe5b90602001906020020151600160a060020a031633600160a060020a03167feaddf568a5d6071d7c0ec91f9652fed569ad6bb5a976a93ab8f671e3d7eab95760405160405180910390a35b600190910190610c15565b5050505050565b60025481565b610d40611bee565b600080610d4b611bee565b60135460009350839250604051805910610d625750595b90808252806020026020018201604052509050600092505b601354831015610e6d57858015610dc857506000600e6000601386815481101515610da157fe5b6000918252602080832090910154600160a060020a03168352820192909252604001902054115b80610e105750848015610e105750600e6000601385815481101515610de957fe5b6000918252602080832090910154600160a060020a03168352820192909252604001902054155b15610e62576013805484908110610e2357fe5b600091825260209091200154600160a060020a0316818381518110610e4457fe5b600160a060020a039092166020928302909101909101526001909101905b600190920191610d7a565b81604051805910610e7b5750595b90808252806020026020018201604052509350600092505b81831015610edf57808381518110610ea757fe5b90602001906020020151848481518110610ebd57fe5b600160a060020a03909216602092830290910190910152600190920191610e93565b50505092915050565b60065433600160a060020a03908116911614610f0357600080fd5b610f0b610fe5565b15610f1557600080fd5b60008111610f2257600080fd5b600955565b600a5481565b60065433600160a060020a03908116911614610f4857600080fd5b60065460a060020a900460ff161515610f6057600080fd5b6006805474ff0000000000000000000000000000000000000000191690557f7805862f689e2f13df9f062ff482ad3ad112aca9e0847911ed832e158c525b3360405160405180910390a1565b60055481565b610fba61164d565b8015610fcf575060065460a860020a900460ff165b1515610fda57600080fd5b610fe3336113e6565b565b60015442101590565b6013805482908110610ffc57fe5b600091825260209091200154600160a060020a0316905081565b60065433600160a060020a0390811691161461103157600080fd5b611039610fe5565b1561104357600080fd5b600d55565b60065433600160a060020a0390811691161461106357600080fd5b61106b610fe5565b1561107557600080fd5b600081901061108357600080fd5b600a55565b60065433600160a060020a039081169116146110a357600080fd5b60065460a860020a900460ff16156110ba57600080fd5b6110c261164d565b15156110cd57600080fd5b6110d56117af565b7f6823b073d48d6e3a7d385eeb601452d680e74bb46afe3255a7d778f3a9b1768160405160405180910390a16006805475ff000000000000000000000000000000000000000000191660a860020a179055565b600b5481565b600354600160a060020a031681565b6000611148336112a2565b905090565b60065460a060020a900460ff1681565b60015481565b60065433600160a060020a0390811691161461117e57600080fd5b60065460a060020a900460ff161561119557600080fd5b6006805474ff0000000000000000000000000000000000000000191660a060020a1790557f6985a02210a168e66602d3235cb6db0e70f92b3ba4d376a33c0f3d9434bff62560405160405180910390a1565b60006111f161164d565b8015611206575060065460a860020a900460ff165b151561121157600080fd5b5060005b818110156112495761124183838381811061122c57fe5b90506020020135600160a060020a03166113e6565b600101611215565b505050565b60105460ff1681565b60065460a860020a900460ff1681565b600654600160a060020a031681565b60116020526000908152604090205460ff1681565b600c5481565b6000611148426113a5565b600d5481565b6000808080600160a060020a03851615156112bc57600080fd5b6112c4610fe5565b15806112d357506112d361164d565b156112e1576000935061138b565b600554600a546112f69163ffffffff61178316565b9250611300611291565b60105490925060ff9081169083161161138757600160a060020a03851660009081526011602052604090205460ff16151561133e576000935061138b565b600160a060020a0385166000908152600e602090815260408083205460ff861684526012909252909120546113789163ffffffff61178316565b90506113848382611715565b92505b8293505b505050919050565b600e6020526000908152604090205481565b60006113e060016113d4620151806113c86001548761178390919063ffffffff16565b9063ffffffff6119a016565b9063ffffffff61179516565b92915050565b6000806113f161164d565b8015611406575060065460a860020a900460ff165b151561141157600080fd5b60065460a060020a900460ff161561142857600080fd5b600160a060020a0383166000908152600e60205260408120549250821161144e57600080fd5b60095461146290839063ffffffff6119b716565b600160a060020a0384166000908152600e6020526040812055600c54909150611491908263ffffffff61178316565b600c55600854600160a060020a03166393a378da848360405160e060020a63ffffffff8516028152600160a060020a0390921660048301526024820152604401600060405180830381600087803b15156114ea57600080fd5b6102c65a03f115156114fb57600080fd5b5050600854600160a060020a0316905063fc0c546a6000604051602001526040518163ffffffff1660e060020a028152600401602060405180830381600087803b151561154757600080fd5b6102c65a03f1151561155857600080fd5b50505060405180519050600160a060020a031663a9059cbb848360006040516020015260405160e060020a63ffffffff8516028152600160a060020a0390921660048301526024820152604401602060405180830381600087803b15156115be57600080fd5b6102c65a03f115156115cf57600080fd5b5050506040518051905015156115e457600080fd5b82600160a060020a031633600160a060020a03167f29842d15961c304dad3345dcde04db3059d13a4455ed0646e5daf7c993a04bc6848460405191825260208201526040908101905180910390a3505050565b4290565b60126020526000908152604090205481565b60006116576119e2565b8061114857506111486119ea565b60065433600160a060020a0390811691161461168057600080fd5b600160a060020a038116151561169557600080fd5b600654600160a060020a0380831691167f8be0079c531659141344cd1fd0a4f28419497f9722a3daafe3b4186f6b6457e060405160405180910390a36006805473ffffffffffffffffffffffffffffffffffffffff1916600160a060020a0392909216919091179055565b600054600160a060020a031681565b60135490565b60008183116117245782611726565b815b9392505050565b600160a060020a038216151561174257600080fd5b61174b816119f5565b151561175657600080fd5b6117608282611a11565b600554611773908263ffffffff61179516565b60055561177f81611b66565b5050565b60008282111561178f57fe5b50900390565b6000828201838110156117a457fe5b8091505b5092915050565b6000806117ba6107a9565b600b55600954600f546117d29163ffffffff6119b716565b915081600b54111561193157600b546117f1908363ffffffff61178316565b600b839055600854909150600160a060020a031663fc0c546a6000604051602001526040518163ffffffff1660e060020a028152600401602060405180830381600087803b151561184157600080fd5b6102c65a03f1151561185257600080fd5b5050506040518051600854600160a060020a03918216925063a9059cbb9116634db08aea6000604051602001526040518163ffffffff1660e060020a028152600401602060405180830381600087803b15156118ad57600080fd5b6102c65a03f115156118be57600080fd5b505050604051805190508360006040516020015260405160e060020a63ffffffff8516028152600160a060020a0390921660048301526024820152604401602060405180830381600087803b151561191557600080fd5b6102c65a03f1151561192657600080fd5b505050604051805150505b600b54600c55600854600160a060020a031663b0e9a1ef62127500420160405160e060020a63ffffffff84160281526004810191909152602401600060405180830381600087803b151561198457600080fd5b6102c65a03f1151561199557600080fd5b50505061177f610fe3565b60008082848115156119ae57fe5b04949350505050565b6000808315156119ca57600091506117a8565b508282028284828115156119da57fe5b04146117a457fe5b600254421190565b600754600554101590565b6000611a0082611b9c565b80156113e0575050600d5490101590565b6000600160a060020a0383161515611a2857600080fd5b50600f548190611a3e908263ffffffff61179516565b600f55600160a060020a0383166000908152600e60205260409020541515611aa5576013805460018101611a728382611c00565b506000918252602090912001805473ffffffffffffffffffffffffffffffffffffffff1916600160a060020a0385161790555b600160a060020a0383166000908152600e6020526040902054611ace908263ffffffff61179516565b600e600085600160a060020a0316600160a060020a031681526020019081526020016000208190555082600160a060020a031633600160a060020a03167fc29b8032387f267ddc010037627574acbf3b1a65a6022ca8ba6c25f0ba85ee7584846013805490506005546040518085815260200184815260200183815260200182815260200194505050505060405180910390a3505050565b600354600160a060020a031681156108fc0282604051600060405180830381858888f193505050501515611b9957600080fd5b50565b6000611ba782611bbd565b80156113e05750611bb66119ea565b1592915050565b60008060006001544210158015611bd657506002544211155b915050821515818015611be65750805b949350505050565b60206040519081016040526000815290565b8154818355818115116112495760008381526020902061124991810190830161088191905b80821115611c395760008155600101611c25565b50905600a165627a7a7230582042094e49839c7cb8a7a7f94bcbefdf0be96a4baded329758168697482b02fe7a0029",
  "source": "pragma solidity ^0.4.18;\n\nimport \"./minime_0.2.0/ERC20MiniMe.sol\";\nimport \"./minime_0.2.0/TokenController.sol\";\nimport \"zeppelin-solidity/contracts/lifecycle/Pausable.sol\";\nimport \"./TravelkoinCappedCrowdsale.sol\";\nimport \"./TravelkoinFinalizableCrowdsale.sol\";\n\n\n/**\n * @title TravelkoinNormalSale\n * @author Bjorn Harvold\n * @notice Travelkoin Token Sale round one normal sale contract, with softcap and hardcap (cap)\n * @dev This contract has to be finalized before refund or token claims are enabled\n */\ncontract TravelkoinNormalSale is Pausable, TravelkoinFinalizableCrowdsale, TravelkoinCappedCrowdsale {\n    // the token is here\n    TokenController public travelkoinController;\n\n    uint256 public rate = 1000;\n    uint256 public cap = 31000 ether;\n\n    // total token sold and undistributed token count\n    uint256 public tokenSold;\n    uint256 public tokenBalance;\n\n    // minimum contribution, 0.1ETH\n    uint256 public minContribution = 0.1 ether;\n\n    // stakes contains contribution stake in wei\n    mapping(address => uint256) public stakesPerUser;\n    uint256 totalStakes;\n\n    // first {whitelistDayCount} days of token sale is exclusive for whitelisted addresses\n    // {whitelistDayMaxStake} contains the max stake limits per address for each whitelist sales day\n    // {whitelist} contains who can contribute during whitelist period\n    uint8 public whitelistDayCount;\n    mapping (address => bool) public whitelist;\n    mapping (uint8 => uint256) public whitelistDayMaxStake;\n\n    // addresses of contributors to handle finalization after token sale end (refunds or token claims)\n    address[] public contributorsKeys;\n\n    // events for token purchase during sale and claiming tokens after sale\n    event TokenClaimed(address indexed _claimer, address indexed _beneficiary, uint256 _stake, uint256 _amount);\n    event TokenPurchase(address indexed _purchaser, address indexed _beneficiary, uint256 _value, uint256 _stake, uint256 _participants, uint256 _weiRaised);\n\n    event WhitelistAddressAdded(address indexed _whitelister, address indexed _beneficiary);\n    event WhitelistAddressRemoved(address indexed _whitelister, address indexed _beneficiary);\n    event WhitelistSetDay(address indexed _whitelister, uint8 _day, uint256 _maxStake);\n\n    event TimeChange(address owner, uint256 _oldStartTime, uint256 _oldEndTime, uint256 _startTime, uint256 _endTime);\n    event TimeChangeErrorOccurred(address owner, uint256 _oldStartTime, uint256 _oldEndTime, uint256 _startTime, uint256 _endTime);\n\n    ////////////////\n    // Constructor and inherited function overrides\n    ////////////////\n\n    /// @notice Constructor to create TravelkoinNormalSale contract\n    /// @param _travelkoinController Address of travelkoinController\n    /// @param _startTime The start time of token sale in seconds.\n    /// @param _endTime The end time of token sale in seconds.\n    /// @param _minContribution The minimum contribution per transaction in wei (0.1 ETH)\n    /// @param _rate Number of TKT tokens per 1 ETH\n    /// @param _cap Maximum cap in wei, we can't raise more funds\n    /// @param _wallet Address of multisig wallet, which will get all the funds after successful sale\n    function TravelkoinNormalSale(\n        address _travelkoinController,\n        uint256 _startTime,\n        uint256 _endTime,\n        uint256 _minContribution,\n        uint256 _rate,\n        uint256 _cap,\n        address _wallet\n    )\n    TravelkoinCappedCrowdsale(_cap)\n    TravelkoinMiniMeCrowdsale(_startTime, _endTime, _rate, _wallet)\n    TravelkoinFinalizableCrowdsale()\n    public\n    {\n        // travelkoinController must be valid\n        require(_travelkoinController != address(0));\n        travelkoinController = TokenController(_travelkoinController);\n\n        // this is needed since super constructor wont overwrite overridden variables\n        cap = _cap;\n        rate = _rate;\n\n        minContribution = _minContribution;\n    }\n\n    /// @notice claimToken() for multiple addresses\n    /// @dev Anyone can call this function and distribute tokens after successful token sale\n    /// @param _beneficiaries Array of addresses for which we want to claim tokens\n    function claimTokensFor(address[] _beneficiaries) external afterSaleSuccess {\n        for (uint256 i = 0; i < _beneficiaries.length; i++) {\n            claimTokenFor(_beneficiaries[i]);\n        }\n    }\n\n    /// @notice Modifier for before sale cases\n    modifier beforeSale() {\n        require(!hasStarted());\n        _;\n    }\n\n    /// @notice Sets whitelist\n    /// @dev The length of _whitelistLimits says that the first X days of token sale is\n    ///  closed, meaning only for whitelisted addresses.\n    /// @param _add Array of addresses to add to whitelisted ethereum accounts\n    /// @param _remove Array of addresses to remove to whitelisted ethereum accounts\n    /// @param _whitelistLimits Array of limits in wei, where _whitelistLimits[0] = 10 ETH means\n    ///  whitelisted addresses can contribute maximum 10 ETH stakes on the first day\n    ///  After _whitelistLimits.length days, there will be no limits per address (besides hard cap)\n    function setWhitelist(address[] _add, address[] _remove, uint256[] _whitelistLimits) public onlyOwner beforeSale {\n        uint256 i = 0;\n        uint8 j = 0; // access max daily stakes\n\n        // we override whiteListLimits only if it was supplied as an argument\n        if (_whitelistLimits.length > 0) {\n            // saving whitelist max stake limits for each day -> uint256 maxStakeLimit\n            whitelistDayCount = uint8(_whitelistLimits.length);\n\n            for (i = 0; i < _whitelistLimits.length; i++) {\n                // instead of making the array day value 0-based we make it more logical so Day 1 = 1.\n                j = uint8(i.add(1));\n                if (whitelistDayMaxStake[j] != _whitelistLimits[i]) {\n                    whitelistDayMaxStake[j] = _whitelistLimits[i];\n                    WhitelistSetDay(msg.sender, j, _whitelistLimits[i]);\n                }\n            }\n        }\n\n        // adding whitelist addresses\n        for (i = 0; i < _add.length; i++) {\n            require(_add[i] != address(0));\n\n            if (!whitelist[_add[i]]) {\n                whitelist[_add[i]] = true;\n                WhitelistAddressAdded(msg.sender, _add[i]);\n            }\n        }\n\n        // removing whitelist addresses\n        for (i = 0; i < _remove.length; i++) {\n            require(_remove[i] != address(0));\n\n            if (whitelist[_remove[i]]) {\n                whitelist[_remove[i]] = false;\n                WhitelistAddressRemoved(msg.sender, _remove[i]);\n            }\n        }\n    }\n\n    /// @notice Sets min contribution before sale\n    function setMinContribution(uint256 _minContribution) public onlyOwner beforeSale {\n        minContribution = _minContribution;\n    }\n\n    /// @notice Sets soft and max cap\n    function setCap(uint256 _cap) public onlyOwner beforeSale {\n        require(0 < _cap);\n        cap = _cap;\n    }\n\n    /// @notice Sets crowdsale start and end time\n    function setTimes(uint256 _startTime, uint256 _endTime) public onlyOwner beforeSale {\n        if (_startTime > now && _startTime < _endTime) {\n            // dispatch event that ICO time has changed\n            TimeChange(msg.sender, startTime, endTime, _startTime, _endTime);\n        } else {\n            TimeChangeErrorOccurred(msg.sender, startTime, endTime, _startTime, _endTime);\n        }\n\n        // here's the actual validation that will result in a revert\n        require(_startTime > now && _startTime < _endTime);\n\n        startTime = _startTime;\n        endTime = _endTime;\n    }\n\n    /// @notice Set rate\n    function setRate(uint256 _rate) public onlyOwner beforeSale {\n        require(_rate > 0);\n        rate = _rate;\n    }\n\n\n    ////////////////\n    // AFTER token sale\n    ////////////////\n\n    /// @notice Modifier for cases where sale is closed and was successful.\n    /// @dev It checks whether the sale has ended AND whether the contract is finalized\n    modifier afterSaleSuccess() {\n        require(hasEnded() && isFinalized);\n        _;\n    }\n\n    /// @notice Claim token for msg.sender after token sale based on stake.\n    function claimToken() public afterSaleSuccess {\n        claimTokenFor(msg.sender);\n    }\n\n    /// @notice Claim token after token sale based on stake.\n    /// @dev Anyone can call this function and distribute tokens after successful token sale\n    /// @param _beneficiary Address of the beneficiary who gets the token\n    function claimTokenFor(address _beneficiary) public afterSaleSuccess whenNotPaused {\n        uint256 stake = stakesPerUser[_beneficiary];\n        require(stake > 0);\n\n        // calculate token count\n        uint256 tokens = stake.mul(rate);\n\n        // set the stake 0 for beneficiary\n        stakesPerUser[_beneficiary] = 0;\n\n        // decrease tokenBalance\n        tokenBalance = tokenBalance.sub(tokens);\n\n        // distribute hodlr stake\n        travelkoinController.addHodlerStake(_beneficiary, tokens);\n\n        // distribute token\n        require(travelkoinController.token().transfer(_beneficiary, tokens));\n        TokenClaimed(\n            msg.sender,\n            _beneficiary,\n            stake,\n            tokens\n        );\n    }\n\n\n    ////////////////\n    // Constant, helper functions\n    ////////////////\n\n    /// @notice How many wei can the msg.sender contribute now.\n    function howMuchCanIContributeNow() view public returns (uint256) {\n        return howMuchCanXContributeNow(msg.sender);\n    }\n\n    /// @notice How many wei can an ethereum address contribute now.\n    /// @dev This function can return 0 when the crowdsale is stopped\n    ///  or the address has maxed the current day's whitelist cap,\n    ///  it is possible, that next day he can contribute\n    /// @param _beneficiary Ethereum address\n    /// @return Number of wei the _beneficiary can contribute now.\n    function howMuchCanXContributeNow(address _beneficiary) view public returns (uint256) {\n        require(_beneficiary != address(0));\n\n        if (!hasStarted() || hasEnded()) {\n            return 0;\n        }\n\n        // wei to hard cap\n        uint256 weiToCap = cap.sub(weiRaised);\n\n        uint8 _saleDay = getSaleDayNow();\n        if (_saleDay <= whitelistDayCount) {\n            // address can't contribute if it is not whitelisted\n            if (!whitelist[_beneficiary]) {\n                return 0;\n            }\n\n            // personal cap is the daily whitelist limit minus the stakes the address already has\n            uint256 weiToPersonalCap = whitelistDayMaxStake[_saleDay].sub(stakesPerUser[_beneficiary]);\n\n            weiToCap = uint256Min(weiToCap, weiToPersonalCap);\n        }\n\n        return weiToCap;\n    }\n\n    /// @notice For a give date how many 24 hour blocks have elapsed since token sale start\n    /// @dev _time has to be bigger than the startTime of token sale, otherwise SafeMath's div will throw.\n    ///  Within 24 hours of token sale it will return 1, \n    ///  between 24 and 48 hours it will return 2, etc.\n    /// @param _time Date in seconds for which we want to know which sale day it is\n    /// @return Number of 24 hour blocks elapsing since token sale start starting from 1\n    function getSaleDay(uint256 _time) view public returns (uint8) {\n        return uint8(_time.sub(startTime).div(60 * 60 * 24).add(1));\n    }\n\n    /// @notice How many 24 hour blocks have ellapsed since token sale start\n    /// @return Number of 24 hour blocks ellapsing since token sale start starting from 1\n    function getSaleDayNow() view public returns (uint8) {\n        return getSaleDay(now);\n    }\n\n    ////////////////\n    // Test and contribution web app, NO audit is needed\n    ////////////////\n\n    /// @notice How many contributors we have.\n    /// @return Number of different contributor ethereum addresses\n    function getContributorsCount() view public returns (uint256) {\n        return contributorsKeys.length;\n    }\n\n    /// @notice Get contributor addresses to manage refunds or token claims.\n    /// @dev If the sale is not yet successful, then it searches in the TravelkoinRefundVault.\n    ///  If the sale is successful, it searches in contributors.\n    /// @param _pending If true, then returns addresses which didn't get refunded or their tokens distributed to them\n    /// @param _claimed If true, then returns already refunded or token distributed addresses\n    /// @return Array of addresses of contributors\n    function getContributors(bool _pending, bool _claimed) view public returns (address[] contributors) {\n        uint256 i = 0;\n        uint256 results = 0;\n        address[] memory _contributors = new address[](contributorsKeys.length);\n\n\n        for (i = 0; i < contributorsKeys.length; i++) {\n            if (_pending && stakesPerUser[contributorsKeys[i]] > 0 || _claimed && stakesPerUser[contributorsKeys[i]] == 0) {\n                _contributors[results] = contributorsKeys[i];\n                results++;\n            }\n        }\n\n        contributors = new address[](results);\n        for (i = 0; i < results; i++) {\n            contributors[i] = _contributors[i];\n        }\n\n        return contributors;\n    }\n\n    /// @notice How many TKT tokens does this contract have\n    function getTravelkoinBalance() view public returns (uint256) {\n        return travelkoinController.token().balanceOf(address(this));\n    }\n\n    /// @notice Minimum between two uint8 numbers\n    function uint8Min(uint8 a, uint8 b) pure internal returns (uint8) {\n        return a > b ? b : a;\n    }\n\n    /// @notice Minimum between two uint256 numbers\n    function uint256Min(uint256 a, uint256 b) pure internal returns (uint256) {\n        return a > b ? b : a;\n    }\n\n\n    /// @dev Overriding Crowdsale#validPurchase to add min contribution logic\n    /// @param _weiAmount Contribution amount in wei\n    /// @return true if contribution is okay\n    function validPurchase(uint256 _weiAmount) internal constant returns (bool) {\n        return super.validPurchase(_weiAmount) && _weiAmount >= minContribution;\n    }\n\n    /// @dev Extending RefundableCrowdsale#finalization sending back excess tokens to travelkoinController\n    function finalization() internal {\n        tokenSold = getTravelkoinBalance();\n\n        uint256 _sold = totalStakes.mul(rate);\n\n        if (tokenSold > _sold) {\n            uint256 _excess = tokenSold.sub(_sold);\n\n            tokenSold = _sold;\n\n            travelkoinController.token().transfer(travelkoinController.SALE(), _excess);\n        }\n\n        // unclaimed tokens\n        tokenBalance = tokenSold;\n\n        // hodler stake counting starts 14 days after closing normal sale\n        travelkoinController.setHodlerTime(now + 14 days);\n\n        super.finalization();\n    }\n\n    /// @dev Overriding Crowdsale#transferToken, which keeps track of contributions DURING token sale\n    /// @param _beneficiary Address of the recepient of the tokens\n    /// @param _weiAmount Contribution in wei\n    function transferToken(address _beneficiary, uint256 _weiAmount) internal {\n        require(_beneficiary != address(0));\n\n        uint256 _stake = _weiAmount;\n\n        // saving total stakes to be able to distribute tokens at the end\n        totalStakes = totalStakes.add(_stake);\n\n        if (stakesPerUser[_beneficiary] == 0) {\n            contributorsKeys.push(_beneficiary);\n        }\n\n        stakesPerUser[_beneficiary] = stakesPerUser[_beneficiary].add(_stake);\n\n        TokenPurchase(\n            msg.sender,\n            _beneficiary,\n            _weiAmount,\n            _stake,\n            contributorsKeys.length,\n            weiRaised\n        );\n    }\n\n    /// @dev Overriding Crowdsale#buyTokens to add partial refund\n    /// @param _beneficiary Beneficiary of the token purchase\n    function buyTokens(address _beneficiary) public payable whenNotPaused {\n        require(_beneficiary != address(0));\n\n        uint256 weiToCap = howMuchCanXContributeNow(_beneficiary);\n        uint256 weiAmount = uint256Min(weiToCap, msg.value);\n\n        require(weiAmount > 0);\n\n        buyTokens(_beneficiary, weiAmount);\n\n        // handle refund\n        uint256 refund = msg.value.sub(weiAmount);\n        if (refund > 0) {\n            msg.sender.transfer(refund);\n        }\n    }\n}",
  "sourcePath": "/Users/crash/git/travelkoin/travelkoin-contracts/contracts/TravelkoinNormalSale.sol",
  "compiler": {
    "name": "solc",
    "version": "0.4.19+commit.c4cbbb05.Emscripten.clang"
  },
  "schemaVersion": "1.0.1",
  "updatedAt": "2018-02-22T08:30:08.737Z"
}