{
  "contractName": "TravelkoinCrowdsale",
  "abi": [
    {
      "constant": true,
      "inputs": [],
      "name": "hasClosed",
      "outputs": [
        {
          "name": "",
          "type": "bool"
        }
      ],
      "payable": false,
      "stateMutability": "view",
      "type": "function"
    },
    {
      "constant": true,
      "inputs": [
        {
          "name": "",
          "type": "address"
        }
      ],
      "name": "balances",
      "outputs": [
        {
          "name": "",
          "type": "uint256"
        }
      ],
      "payable": false,
      "stateMutability": "view",
      "type": "function"
    },
    {
      "constant": true,
      "inputs": [],
      "name": "rate",
      "outputs": [
        {
          "name": "",
          "type": "uint256"
        }
      ],
      "payable": false,
      "stateMutability": "view",
      "type": "function"
    },
    {
      "constant": true,
      "inputs": [],
      "name": "cap",
      "outputs": [
        {
          "name": "",
          "type": "uint256"
        }
      ],
      "payable": false,
      "stateMutability": "view",
      "type": "function"
    },
    {
      "constant": true,
      "inputs": [],
      "name": "weiRaised",
      "outputs": [
        {
          "name": "",
          "type": "uint256"
        }
      ],
      "payable": false,
      "stateMutability": "view",
      "type": "function"
    },
    {
      "constant": true,
      "inputs": [],
      "name": "closingTime",
      "outputs": [
        {
          "name": "",
          "type": "uint256"
        }
      ],
      "payable": false,
      "stateMutability": "view",
      "type": "function"
    },
    {
      "constant": true,
      "inputs": [],
      "name": "capReached",
      "outputs": [
        {
          "name": "",
          "type": "bool"
        }
      ],
      "payable": false,
      "stateMutability": "view",
      "type": "function"
    },
    {
      "constant": true,
      "inputs": [],
      "name": "wallet",
      "outputs": [
        {
          "name": "",
          "type": "address"
        }
      ],
      "payable": false,
      "stateMutability": "view",
      "type": "function"
    },
    {
      "constant": true,
      "inputs": [],
      "name": "dayOneMaxContribution",
      "outputs": [
        {
          "name": "",
          "type": "uint256"
        }
      ],
      "payable": false,
      "stateMutability": "view",
      "type": "function"
    },
    {
      "constant": false,
      "inputs": [
        {
          "name": "_beneficiary",
          "type": "address"
        }
      ],
      "name": "removeFromWhitelist",
      "outputs": [],
      "payable": false,
      "stateMutability": "nonpayable",
      "type": "function"
    },
    {
      "constant": false,
      "inputs": [
        {
          "name": "_beneficiaries",
          "type": "address[]"
        }
      ],
      "name": "addManyToWhitelist",
      "outputs": [],
      "payable": false,
      "stateMutability": "nonpayable",
      "type": "function"
    },
    {
      "constant": false,
      "inputs": [],
      "name": "withdrawTokens",
      "outputs": [],
      "payable": false,
      "stateMutability": "nonpayable",
      "type": "function"
    },
    {
      "constant": true,
      "inputs": [],
      "name": "owner",
      "outputs": [
        {
          "name": "",
          "type": "address"
        }
      ],
      "payable": false,
      "stateMutability": "view",
      "type": "function"
    },
    {
      "constant": true,
      "inputs": [
        {
          "name": "",
          "type": "address"
        }
      ],
      "name": "whitelist",
      "outputs": [
        {
          "name": "",
          "type": "bool"
        }
      ],
      "payable": false,
      "stateMutability": "view",
      "type": "function"
    },
    {
      "constant": true,
      "inputs": [],
      "name": "minContribution",
      "outputs": [
        {
          "name": "",
          "type": "uint256"
        }
      ],
      "payable": false,
      "stateMutability": "view",
      "type": "function"
    },
    {
      "constant": true,
      "inputs": [],
      "name": "openingTime",
      "outputs": [
        {
          "name": "",
          "type": "uint256"
        }
      ],
      "payable": false,
      "stateMutability": "view",
      "type": "function"
    },
    {
      "constant": false,
      "inputs": [
        {
          "name": "_beneficiary",
          "type": "address"
        }
      ],
      "name": "addToWhitelist",
      "outputs": [],
      "payable": false,
      "stateMutability": "nonpayable",
      "type": "function"
    },
    {
      "constant": false,
      "inputs": [
        {
          "name": "_beneficiary",
          "type": "address"
        }
      ],
      "name": "buyTokens",
      "outputs": [],
      "payable": true,
      "stateMutability": "payable",
      "type": "function"
    },
    {
      "constant": false,
      "inputs": [
        {
          "name": "newOwner",
          "type": "address"
        }
      ],
      "name": "transferOwnership",
      "outputs": [],
      "payable": false,
      "stateMutability": "nonpayable",
      "type": "function"
    },
    {
      "constant": true,
      "inputs": [],
      "name": "token",
      "outputs": [
        {
          "name": "",
          "type": "address"
        }
      ],
      "payable": false,
      "stateMutability": "view",
      "type": "function"
    },
    {
      "inputs": [
        {
          "name": "_startTime",
          "type": "uint256"
        },
        {
          "name": "_endTime",
          "type": "uint256"
        },
        {
          "name": "_minContribution",
          "type": "uint256"
        },
        {
          "name": "_dayOneMaxContribution",
          "type": "uint256"
        },
        {
          "name": "_rate",
          "type": "uint256"
        },
        {
          "name": "_cap",
          "type": "uint256"
        },
        {
          "name": "_wallet",
          "type": "address"
        },
        {
          "name": "_token",
          "type": "address"
        }
      ],
      "payable": false,
      "stateMutability": "nonpayable",
      "type": "constructor"
    },
    {
      "payable": true,
      "stateMutability": "payable",
      "type": "fallback"
    },
    {
      "anonymous": false,
      "inputs": [
        {
          "indexed": true,
          "name": "previousOwner",
          "type": "address"
        },
        {
          "indexed": true,
          "name": "newOwner",
          "type": "address"
        }
      ],
      "name": "OwnershipTransferred",
      "type": "event"
    },
    {
      "anonymous": false,
      "inputs": [
        {
          "indexed": true,
          "name": "purchaser",
          "type": "address"
        },
        {
          "indexed": true,
          "name": "beneficiary",
          "type": "address"
        },
        {
          "indexed": false,
          "name": "value",
          "type": "uint256"
        },
        {
          "indexed": false,
          "name": "amount",
          "type": "uint256"
        }
      ],
      "name": "TokenPurchase",
      "type": "event"
    },
    {
      "constant": true,
      "inputs": [],
      "name": "howMuchCanIContributeNow",
      "outputs": [
        {
          "name": "",
          "type": "uint256"
        }
      ],
      "payable": false,
      "stateMutability": "view",
      "type": "function"
    }
  ],
  "bytecode": "0x606060405267016345785d8a0000600a55670de0b6b3a7640000600b55341561002757600080fd5b60405161010080610b5f8339810160405280805191906020018051919060200180519190602001805191906020018051919060200180519190602001805191906020018051915083905088888685856000831161008357600080fd5b600160a060020a038216151561009857600080fd5b600160a060020a03811615156100ad57600080fd5b60029290925560018054600160a060020a0319908116600160a060020a0393841617909155600080548216938316939093179092556004805490921633909116179055428210156100fd57600080fd5b8181101561010a57600080fd5b6006919091556007556000811161012057600080fd5b600955505050600a92909255600b55505050610a1e806101416000396000f30060606040526004361061011c5763ffffffff7c01000000000000000000000000000000000000000000000000000000006000350416631515bc2b811461012757806327e235e31461014e5780632c4e722e1461017f578063355274ea146101925780634042b66f146101a55780634b6753bc146101b85780634f935945146101cb578063521eb273146101de57806356afd6e31461020d5780636f2264d4146102205780638ab1d681146102335780638c10671c146102525780638d8f2adb146102705780638da5cb5b146102835780639b19251a14610296578063aaffadf3146102b5578063b7a8807c146102c8578063e43252d7146102db578063ec8ac4d8146102fa578063f2fde38b1461030e578063fc0c546a1461032d575b61012533610340565b005b341561013257600080fd5b61013a6103e8565b604051901515815260200160405180910390f35b341561015957600080fd5b61016d600160a060020a03600435166103f0565b60405190815260200160405180910390f35b341561018a57600080fd5b61016d610402565b341561019d57600080fd5b61016d610408565b34156101b057600080fd5b61016d61040e565b34156101c357600080fd5b61016d610414565b34156101d657600080fd5b61013a61041a565b34156101e957600080fd5b6101f1610425565b604051600160a060020a03909116815260200160405180910390f35b341561021857600080fd5b61016d610434565b341561022b57600080fd5b61016d610444565b341561023e57600080fd5b610125600160a060020a036004351661044a565b341561025d57600080fd5b6101256004803560248101910135610486565b341561027b57600080fd5b6101256104fb565b341561028e57600080fd5b6101f161055d565b34156102a157600080fd5b61013a600160a060020a036004351661056c565b34156102c057600080fd5b61016d610581565b34156102d357600080fd5b61016d610587565b34156102e657600080fd5b610125600160a060020a036004351661058d565b610125600160a060020a0360043516610340565b341561031957600080fd5b610125600160a060020a03600435166105cc565b341561033857600080fd5b6101f1610667565b34600061034d8383610676565b610356826106cc565b60035490915061036c908363ffffffff6106e916565b6003556103798382610703565b82600160a060020a031633600160a060020a03167f623b3804fa71d67900d064613da8f94b9617215ee90799290593e1745087ad18848460405191825260208201526040908101905180910390a36103d1838361074c565b6103d9610750565b6103e3838361074c565b505050565b600754421190565b60086020526000908152604090205481565b60025481565b60095481565b60035481565b60075481565b600954600354101590565b600154600160a060020a031681565b600061043f33610786565b905090565b600b5481565b60045433600160a060020a0390811691161461046557600080fd5b600160a060020a03166000908152600560205260409020805460ff19169055565b60045460009033600160a060020a039081169116146104a457600080fd5b5060005b818110156103e3576001600560008585858181106104c257fe5b60209081029290920135600160a060020a0316835250810191909152604001600020805460ff19169115159190911790556001016104a8565b60006105056103e8565b151561051057600080fd5b50600160a060020a03331660009081526008602052604081205490811161053657600080fd5b33600160a060020a03811660009081526008602052604081205561055a90826107fe565b50565b600454600160a060020a031681565b60056020526000908152604090205460ff1681565b600a5481565b60065481565b60045433600160a060020a039081169116146105a857600080fd5b600160a060020a03166000908152600560205260409020805460ff19166001179055565b60045433600160a060020a039081169116146105e757600080fd5b600160a060020a03811615156105fc57600080fd5b600454600160a060020a0380831691167f8be0079c531659141344cd1fd0a4f28419497f9722a3daafe3b4186f6b6457e060405160405180910390a36004805473ffffffffffffffffffffffffffffffffffffffff1916600160a060020a0392909216919091179055565b600054600160a060020a031681565b8181600a54811015151561068957600080fd5b838361069482610786565b600160a060020a038316600090815260086020526040902054820111156106ba57600080fd5b6106c48686610898565b505050505050565b60006106e3600254836108c390919063ffffffff16565b92915050565b6000828201838110156106f857fe5b8091505b5092915050565b600160a060020a03821660009081526008602052604090205461072c908263ffffffff6106e916565b600160a060020a0390921660009081526008602052604090209190915550565b5050565b600154600160a060020a03163480156108fc0290604051600060405180830381858888f19350505050151561078457600080fd5b565b6000806000806107a36003546009546108ee90919063ffffffff16565b92506107ad610900565b91508160ff16600114156107f557600160a060020a038516600090815260086020526040902054600b546107e69163ffffffff6108ee16565b90506107f2838261090b565b92505b50909392505050565b60008054600160a060020a03169063a9059cbb9084908490604051602001526040517c010000000000000000000000000000000000000000000000000000000063ffffffff8516028152600160a060020a0390921660048301526024820152604401602060405180830381600087803b151561087957600080fd5b6102c65a03f1151561088a57600080fd5b505050604051805150505050565b6108a28282610923565b6009546003546108b8908363ffffffff6106e916565b111561074c57600080fd5b6000808315156108d657600091506106fc565b508282028284828115156108e657fe5b04146106f857fe5b6000828211156108fa57fe5b50900390565b600061043f4261094c565b600081831161091a578261091c565b815b9392505050565b600654421015801561093757506007544211155b151561094257600080fd5b61074c8282610987565b60006106e3600161097b6201518061096f600654876108ee90919063ffffffff16565b9063ffffffff6109ba16565b9063ffffffff6106e916565b600160a060020a038216600090815260056020526040902054829060ff1615156109b057600080fd5b6103e383836109d1565b60008082848115156109c857fe5b04949350505050565b600160a060020a03821615156109e657600080fd5b80151561074c57600080fd00a165627a7a7230582060ad7d9f82f30e29a779efe36c2a0bc662c149554e5ea3415e2406b468f8f9a50029",
  "source": "pragma solidity ^0.4.18;\n\nimport \"zeppelin-solidity/contracts/crowdsale/distribution/PostDeliveryCrowdsale.sol\";\nimport \"zeppelin-solidity/contracts/crowdsale/validation/WhitelistedCrowdsale.sol\";\nimport \"zeppelin-solidity/contracts/crowdsale/validation/CappedCrowdsale.sol\";\nimport \"./TravelkoinToken.sol\";\n\n\n/**\n * @title TravelkoinNormalSale\n * @author Bjorn Harvold\n * @notice Travelkoin Token Sale round one normal sale contract, with softcap and hardcap (cap)\n * @dev This contract has to be finalized before refund or token claims are enabled\n */\ncontract TravelkoinCrowdsale is WhitelistedCrowdsale, PostDeliveryCrowdsale, CappedCrowdsale {\n    using SafeMath for uint256;\n\n    // minimum contribution, 0.1ETH\n    uint256 public minContribution = 0.1 ether;\n    uint256 public dayOneMaxContribution = 1 ether;\n\n    // makes sure the user is only sending the amount allowed for any given day\n    modifier minContributionOk(address _beneficiary, uint256 _weiAmount) {\n        require(_weiAmount >= minContribution);\n        _;\n    }\n\n    // makes sure the user is only sending the amount allowed for any given day\n    modifier amountOk(address _beneficiary, uint256 _weiAmount) {\n        require(balances[_beneficiary] + _weiAmount <= howMuchCanXContributeNow(_beneficiary));\n        _;\n    }\n\n    ////////////////\n    // Constructor and inherited function overrides\n    ////////////////\n\n    /// @notice Constructor to create TravelkoinNormalSale contract\n    /// @param _startTime The start time of token sale in seconds.\n    /// @param _endTime The end time of token sale in seconds.\n    /// @param _minContribution The minimum contribution per transaction in wei (0.1 ETH)\n    /// @param _dayOneMaxContribution The minimum contribution per transaction in wei (0.1 ETH)\n    /// @param _rate Number of TKT tokens per 1 ETH\n    /// @param _cap Maximum cap in wei, we can't raise more funds\n    /// @param _wallet Address of owner wallet\n    /// @param _token Our ERC20 token\n    function TravelkoinCrowdsale(\n        uint256 _startTime,\n        uint256 _endTime,\n        uint256 _minContribution,\n        uint256 _dayOneMaxContribution,\n        uint256 _rate,\n        uint256 _cap,\n        address _wallet,\n        TravelkoinToken _token\n    )\n    Crowdsale(_rate, _wallet, _token)\n    CappedCrowdsale(_cap)\n    TimedCrowdsale(_startTime, _endTime)\n    public\n    {\n        minContribution = _minContribution;\n        dayOneMaxContribution = _dayOneMaxContribution;\n    }\n\n    /// @notice How many wei can the msg.sender contribute now.\n    function howMuchCanIContributeNow() view public returns (uint256) {\n        return howMuchCanXContributeNow(msg.sender);\n    }\n\n    /// @notice How many wei can an Ethereum address contribute now.\n    /// @param _beneficiary Ethereum address\n    /// @return Number of wei the _beneficiary can contribute now.\n    function howMuchCanXContributeNow(address _beneficiary) view internal returns (uint256) {\n        // wei to hard cap\n        uint256 weiToCap = cap.sub(weiRaised);\n\n        uint8 _saleDay = getSaleDayNow();\n        // limit to 1 ETH for on the first day\n        if (_saleDay == 1) {\n\n            // personal cap is the daily whitelist limit minus the stakes the address already has\n            uint256 weiToPersonalCap = dayOneMaxContribution.sub(balances[_beneficiary]);\n\n            weiToCap = uint256Min(weiToCap, weiToPersonalCap);\n        }\n\n        return weiToCap;\n    }\n\n    /// @notice How many 24 hour blocks have ellapsed since token sale start\n    /// @return Number of 24 hour blocks elapsed since token sale start starting from 1\n    function getSaleDayNow() view internal returns (uint8) {\n        return getSaleDay(now);\n    }\n\n    /// @notice For a give date how many 24 hour blocks have elapsed since token sale start\n    /// @dev _time has to be bigger than the startTime of token sale, otherwise SafeMath's div will throw.\n    ///  Within 24 hours of token sale it will return 1, \n    ///  between 24 and 48 hours it will return 2, etc.\n    /// @param _time Date in seconds for which we want to know which sale day it is\n    /// @return Number of 24 hour blocks elapsing since token sale start starting from 1\n    function getSaleDay(uint256 _time) view internal returns (uint8) {\n        return uint8(_time.sub(openingTime).div(60 * 60 * 24).add(1));\n    }\n\n    /// @notice Minimum between two uint8 numbers\n    function uint8Min(uint8 a, uint8 b) pure internal returns (uint8) {\n        return a > b ? b : a;\n    }\n\n    /// @notice Minimum between two uint256 numbers\n    function uint256Min(uint256 a, uint256 b) pure internal returns (uint256) {\n        return a > b ? b : a;\n    }\n\n    /**\n   * @dev Override from Crowdsale to make sure the user sends the correct amount\n   * @param _beneficiary Token beneficiary\n   * @param _weiAmount Amount of wei contributed\n   */\n    function _preValidatePurchase(address _beneficiary, uint256 _weiAmount) internal minContributionOk(_beneficiary, _weiAmount) amountOk(_beneficiary, _weiAmount) {\n        super._preValidatePurchase(_beneficiary, _weiAmount);\n    }\n}",
  "sourcePath": "/Users/crash/git/travelkoin/travelkoin-contracts/contracts/TravelkoinCrowdsale.sol",
  "compiler": {
    "name": "solc",
    "version": "0.4.19+commit.c4cbbb05.Emscripten.clang"
  },
  "schemaVersion": "1.0.1",
  "updatedAt": "2018-02-24T07:43:54.006Z"
}