{
  "contractName": "TravelkoinRefundVault",
  "abi": [
    {
      "constant": false,
      "inputs": [],
      "name": "close",
      "outputs": [],
      "payable": false,
      "stateMutability": "nonpayable",
      "type": "function"
    },
    {
      "constant": true,
      "inputs": [],
      "name": "wallet",
      "outputs": [
        {
          "name": "",
          "type": "address"
        }
      ],
      "payable": false,
      "stateMutability": "view",
      "type": "function"
    },
    {
      "constant": false,
      "inputs": [],
      "name": "enableRefunds",
      "outputs": [],
      "payable": false,
      "stateMutability": "nonpayable",
      "type": "function"
    },
    {
      "constant": true,
      "inputs": [],
      "name": "owner",
      "outputs": [
        {
          "name": "",
          "type": "address"
        }
      ],
      "payable": false,
      "stateMutability": "view",
      "type": "function"
    },
    {
      "constant": true,
      "inputs": [],
      "name": "state",
      "outputs": [
        {
          "name": "",
          "type": "uint8"
        }
      ],
      "payable": false,
      "stateMutability": "view",
      "type": "function"
    },
    {
      "constant": true,
      "inputs": [
        {
          "name": "",
          "type": "address"
        }
      ],
      "name": "deposited",
      "outputs": [
        {
          "name": "",
          "type": "uint256"
        }
      ],
      "payable": false,
      "stateMutability": "view",
      "type": "function"
    },
    {
      "constant": false,
      "inputs": [
        {
          "name": "_token",
          "type": "address"
        },
        {
          "name": "_claimer",
          "type": "address"
        }
      ],
      "name": "extractTokens",
      "outputs": [],
      "payable": false,
      "stateMutability": "nonpayable",
      "type": "function"
    },
    {
      "constant": false,
      "inputs": [
        {
          "name": "newOwner",
          "type": "address"
        }
      ],
      "name": "transferOwnership",
      "outputs": [],
      "payable": false,
      "stateMutability": "nonpayable",
      "type": "function"
    },
    {
      "constant": false,
      "inputs": [
        {
          "name": "investor",
          "type": "address"
        }
      ],
      "name": "deposit",
      "outputs": [],
      "payable": true,
      "stateMutability": "payable",
      "type": "function"
    },
    {
      "constant": false,
      "inputs": [
        {
          "name": "investor",
          "type": "address"
        }
      ],
      "name": "refund",
      "outputs": [],
      "payable": false,
      "stateMutability": "nonpayable",
      "type": "function"
    },
    {
      "inputs": [
        {
          "name": "_wallet",
          "type": "address"
        }
      ],
      "payable": false,
      "stateMutability": "nonpayable",
      "type": "constructor"
    },
    {
      "anonymous": false,
      "inputs": [],
      "name": "Closed",
      "type": "event"
    },
    {
      "anonymous": false,
      "inputs": [],
      "name": "RefundsEnabled",
      "type": "event"
    },
    {
      "anonymous": false,
      "inputs": [
        {
          "indexed": true,
          "name": "beneficiary",
          "type": "address"
        },
        {
          "indexed": false,
          "name": "weiAmount",
          "type": "uint256"
        }
      ],
      "name": "Refunded",
      "type": "event"
    },
    {
      "anonymous": false,
      "inputs": [
        {
          "indexed": true,
          "name": "_token",
          "type": "address"
        },
        {
          "indexed": true,
          "name": "_claimer",
          "type": "address"
        },
        {
          "indexed": false,
          "name": "_amount",
          "type": "uint256"
        }
      ],
      "name": "ExtractedTokens",
      "type": "event"
    },
    {
      "anonymous": false,
      "inputs": [
        {
          "indexed": true,
          "name": "previousOwner",
          "type": "address"
        },
        {
          "indexed": true,
          "name": "newOwner",
          "type": "address"
        }
      ],
      "name": "OwnershipTransferred",
      "type": "event"
    }
  ],
  "bytecode": "0x6060604052341561000f57600080fd5b6040516020806107d08339810160405280805160008054600160a060020a03191633600160a060020a039081169190911790915590925082161515905061005557600080fd5b60028054600160a060020a031916600160a060020a03929092169190911760a060020a60ff02191690556107428061008e6000396000f30060606040526004361061008a5763ffffffff60e060020a60003504166343d726d6811461008f578063521eb273146100a45780638c52dc41146100d35780638da5cb5b146100e6578063c19d93fb146100f9578063cb13cddb14610130578063ed6b2d7d14610161578063f2fde38b14610186578063f340fa01146101a5578063fa89401a146101b9575b600080fd5b341561009a57600080fd5b6100a26101d8565b005b34156100af57600080fd5b6100b76102b3565b604051600160a060020a03909116815260200160405180910390f35b34156100de57600080fd5b6100a26102c2565b34156100f157600080fd5b6100b7610353565b341561010457600080fd5b61010c610362565b6040518082600281111561011c57fe5b60ff16815260200191505060405180910390f35b341561013b57600080fd5b61014f600160a060020a0360043516610372565b60405190815260200160405180910390f35b341561016c57600080fd5b6100a2600160a060020a0360043581169060243516610384565b341561019157600080fd5b6100a2600160a060020a0360043516610531565b6100a2600160a060020a03600435166105cc565b34156101c457600080fd5b6100a2600160a060020a0360043516610650565b60005433600160a060020a039081169116146101f357600080fd5b60006002805460a060020a900460ff169081111561020d57fe5b1461021757600080fd5b6002805474ff00000000000000000000000000000000000000001916740200000000000000000000000000000000000000001790557f1cdde67b72a90f19919ac732a437ac2f7a10fc128d28c2a6e525d89ce5cd9d3a60405160405180910390a1600254600160a060020a039081169030163180156108fc0290604051600060405180830381858888f1935050505015156102b157600080fd5b565b600254600160a060020a031681565b60005433600160a060020a039081169116146102dd57600080fd5b60006002805460a060020a900460ff16908111156102f757fe5b1461030157600080fd5b6002805474ff0000000000000000000000000000000000000000191660a060020a1790557f599d8e5a83cffb867d051598c4d70e805d59802d8081c1c7d6dffc5b6aca2b8960405160405180910390a1565b600054600160a060020a031681565b60025460a060020a900460ff1681565b60016020526000908152604090205481565b60008054819033600160a060020a039081169116146103a257600080fd5b600160a060020a03841615156103f45782600160a060020a03166108fc30600160a060020a0316319081150290604051600060405180830381858888f1935050505015156103ef57600080fd5b61052b565b83915081600160a060020a03166370a082313060006040516020015260405160e060020a63ffffffff8416028152600160a060020a039091166004820152602401602060405180830381600087803b151561044e57600080fd5b6102c65a03f1151561045f57600080fd5b5050506040518051915050600160a060020a03821663a9059cbb848360006040516020015260405160e060020a63ffffffff8516028152600160a060020a0390921660048301526024820152604401602060405180830381600087803b15156104c757600080fd5b6102c65a03f115156104d857600080fd5b505050604051805190505082600160a060020a031684600160a060020a03167f21e9b296e283cad208b551b3c383bb74e34086eb5691fee8392dcce6794521c28360405190815260200160405180910390a35b50505050565b60005433600160a060020a0390811691161461054c57600080fd5b600160a060020a038116151561056157600080fd5b600054600160a060020a0380831691167f8be0079c531659141344cd1fd0a4f28419497f9722a3daafe3b4186f6b6457e060405160405180910390a36000805473ffffffffffffffffffffffffffffffffffffffff1916600160a060020a0392909216919091179055565b60005433600160a060020a039081169116146105e757600080fd5b60006002805460a060020a900460ff169081111561060157fe5b1461060b57600080fd5b600160a060020a038116600090815260016020526040902054610634903463ffffffff61070016565b600160a060020a03909116600090815260016020526040902055565b600060016002805460a060020a900460ff169081111561066c57fe5b1461067657600080fd5b50600160a060020a038116600081815260016020526040808220805492905590919082156108fc0290839051600060405180830381858888f1935050505015156106bf57600080fd5b81600160a060020a03167fd7dee2702d63ad89917b6a4da9981c90c4d24f8c2bdfd64c604ecae57d8d06518260405190815260200160405180910390a25050565b60008282018381101561070f57fe5b93925050505600a165627a7a72305820139eb63c740181ff44d88a3ba731958dc35c9d3868c28304b739613a60bd10580029",
  "source": "pragma solidity ^0.4.18;\n\nimport \"zeppelin-solidity/contracts/math/SafeMath.sol\";\nimport \"zeppelin-solidity/contracts/ownership/Ownable.sol\";\nimport \"./TravelkoinHasNoTokens.sol\";\n\n\n/**\n * @title TravelkoinRefundVault\n * @dev This contract is used for storing funds while a crowdsale\n * is in progress. Supports refunding the money if crowdsale fails,\n * and forwarding it if crowdsale is successful.\n */\ncontract TravelkoinRefundVault is Ownable, TravelkoinHasNoTokens {\n    using SafeMath for uint256;\n\n    enum State {Active, Refunding, Closed}\n\n    mapping(address => uint256) public deposited;\n    address public wallet;\n    State public state;\n\n    event Closed();\n    event RefundsEnabled();\n    event Refunded(address indexed beneficiary, uint256 weiAmount);\n\n    function TravelkoinRefundVault(address _wallet) public {\n        require(_wallet != 0x0);\n        wallet = _wallet;\n        state = State.Active;\n    }\n\n    function deposit(address investor) onlyOwner public payable {\n        require(state == State.Active);\n        deposited[investor] = deposited[investor].add(msg.value);\n    }\n\n    function close() onlyOwner public {\n        require(state == State.Active);\n        state = State.Closed;\n        Closed();\n        wallet.transfer(this.balance);\n    }\n\n    function enableRefunds() onlyOwner public {\n        require(state == State.Active);\n        state = State.Refunding;\n        RefundsEnabled();\n    }\n\n    function refund(address investor) public {\n        require(state == State.Refunding);\n        uint256 depositedValue = deposited[investor];\n        deposited[investor] = 0;\n        investor.transfer(depositedValue);\n        Refunded(investor, depositedValue);\n    }\n}",
  "sourcePath": "/Users/crash/git/travelkoin/travelkoin-contracts/contracts/TravelkoinRefundVault.sol",
  "compiler": {
    "name": "solc",
    "version": "0.4.18+commit.9cf6e910.Emscripten.clang"
  },
  "schemaVersion": "1.0.1",
  "updatedAt": "2018-02-11T02:56:38.599Z"
}