{
  "contractName": "TravelkoinController",
  "abi": [
    {
      "constant": true,
      "inputs": [],
      "name": "TOKEN_HODL_6M",
      "outputs": [
        {
          "name": "",
          "type": "uint256"
        }
      ],
      "payable": false,
      "stateMutability": "view",
      "type": "function"
    },
    {
      "constant": true,
      "inputs": [],
      "name": "TOKEN_SALE2",
      "outputs": [
        {
          "name": "",
          "type": "uint256"
        }
      ],
      "payable": false,
      "stateMutability": "view",
      "type": "function"
    },
    {
      "constant": true,
      "inputs": [],
      "name": "TOKEN_HODL_9M",
      "outputs": [
        {
          "name": "",
          "type": "uint256"
        }
      ],
      "payable": false,
      "stateMutability": "view",
      "type": "function"
    },
    {
      "constant": true,
      "inputs": [],
      "name": "TOKEN_BOUNTY",
      "outputs": [
        {
          "name": "",
          "type": "uint256"
        }
      ],
      "payable": false,
      "stateMutability": "view",
      "type": "function"
    },
    {
      "constant": true,
      "inputs": [],
      "name": "MILLION",
      "outputs": [
        {
          "name": "",
          "type": "uint256"
        }
      ],
      "payable": false,
      "stateMutability": "view",
      "type": "function"
    },
    {
      "constant": true,
      "inputs": [],
      "name": "newController",
      "outputs": [
        {
          "name": "",
          "type": "address"
        }
      ],
      "payable": false,
      "stateMutability": "view",
      "type": "function"
    },
    {
      "constant": true,
      "inputs": [],
      "name": "hodler",
      "outputs": [
        {
          "name": "",
          "type": "address"
        }
      ],
      "payable": false,
      "stateMutability": "view",
      "type": "function"
    },
    {
      "constant": false,
      "inputs": [],
      "name": "unpause",
      "outputs": [],
      "payable": false,
      "stateMutability": "nonpayable",
      "type": "function"
    },
    {
      "constant": true,
      "inputs": [],
      "name": "VESTING_ADVISOR_DURATION",
      "outputs": [
        {
          "name": "",
          "type": "uint256"
        }
      ],
      "payable": false,
      "stateMutability": "view",
      "type": "function"
    },
    {
      "constant": true,
      "inputs": [],
      "name": "multiSigWallet",
      "outputs": [
        {
          "name": "",
          "type": "address"
        }
      ],
      "payable": false,
      "stateMutability": "view",
      "type": "function"
    },
    {
      "constant": true,
      "inputs": [],
      "name": "VESTING_ADVISOR_CLIFF",
      "outputs": [
        {
          "name": "",
          "type": "uint256"
        }
      ],
      "payable": false,
      "stateMutability": "view",
      "type": "function"
    },
    {
      "constant": true,
      "inputs": [],
      "name": "SALE",
      "outputs": [
        {
          "name": "",
          "type": "address"
        }
      ],
      "payable": false,
      "stateMutability": "view",
      "type": "function"
    },
    {
      "constant": true,
      "inputs": [],
      "name": "VESTING_TEAM_CLIFF",
      "outputs": [
        {
          "name": "",
          "type": "uint256"
        }
      ],
      "payable": false,
      "stateMutability": "view",
      "type": "function"
    },
    {
      "constant": true,
      "inputs": [],
      "name": "paused",
      "outputs": [
        {
          "name": "",
          "type": "bool"
        }
      ],
      "payable": false,
      "stateMutability": "view",
      "type": "function"
    },
    {
      "constant": true,
      "inputs": [],
      "name": "TOKEN_FOUNDERS",
      "outputs": [
        {
          "name": "",
          "type": "uint256"
        }
      ],
      "payable": false,
      "stateMutability": "view",
      "type": "function"
    },
    {
      "constant": true,
      "inputs": [
        {
          "name": "",
          "type": "uint256"
        }
      ],
      "name": "tokenGrants",
      "outputs": [
        {
          "name": "",
          "type": "address"
        }
      ],
      "payable": false,
      "stateMutability": "view",
      "type": "function"
    },
    {
      "constant": true,
      "inputs": [],
      "name": "TOKEN_SALE1_NORMAL",
      "outputs": [
        {
          "name": "",
          "type": "uint256"
        }
      ],
      "payable": false,
      "stateMutability": "view",
      "type": "function"
    },
    {
      "constant": false,
      "inputs": [],
      "name": "pause",
      "outputs": [],
      "payable": false,
      "stateMutability": "nonpayable",
      "type": "function"
    },
    {
      "constant": true,
      "inputs": [],
      "name": "THOUSAND",
      "outputs": [
        {
          "name": "",
          "type": "uint256"
        }
      ],
      "payable": false,
      "stateMutability": "view",
      "type": "function"
    },
    {
      "constant": true,
      "inputs": [],
      "name": "TOKEN_TEAM",
      "outputs": [
        {
          "name": "",
          "type": "uint256"
        }
      ],
      "payable": false,
      "stateMutability": "view",
      "type": "function"
    },
    {
      "constant": true,
      "inputs": [],
      "name": "owner",
      "outputs": [
        {
          "name": "",
          "type": "address"
        }
      ],
      "payable": false,
      "stateMutability": "view",
      "type": "function"
    },
    {
      "constant": true,
      "inputs": [],
      "name": "crowdsale",
      "outputs": [
        {
          "name": "",
          "type": "address"
        }
      ],
      "payable": false,
      "stateMutability": "view",
      "type": "function"
    },
    {
      "constant": true,
      "inputs": [],
      "name": "FOUNDER2",
      "outputs": [
        {
          "name": "",
          "type": "address"
        }
      ],
      "payable": false,
      "stateMutability": "view",
      "type": "function"
    },
    {
      "constant": true,
      "inputs": [],
      "name": "VESTING_TEAM_DURATION",
      "outputs": [
        {
          "name": "",
          "type": "uint256"
        }
      ],
      "payable": false,
      "stateMutability": "view",
      "type": "function"
    },
    {
      "constant": true,
      "inputs": [],
      "name": "TOKEN_INVESTORS",
      "outputs": [
        {
          "name": "",
          "type": "uint256"
        }
      ],
      "payable": false,
      "stateMutability": "view",
      "type": "function"
    },
    {
      "constant": true,
      "inputs": [],
      "name": "INVESTOR2",
      "outputs": [
        {
          "name": "",
          "type": "address"
        }
      ],
      "payable": false,
      "stateMutability": "view",
      "type": "function"
    },
    {
      "constant": true,
      "inputs": [],
      "name": "TOKEN_COMMUNITY",
      "outputs": [
        {
          "name": "",
          "type": "uint256"
        }
      ],
      "payable": false,
      "stateMutability": "view",
      "type": "function"
    },
    {
      "constant": true,
      "inputs": [],
      "name": "FOUNDER1",
      "outputs": [
        {
          "name": "",
          "type": "address"
        }
      ],
      "payable": false,
      "stateMutability": "view",
      "type": "function"
    },
    {
      "constant": false,
      "inputs": [
        {
          "name": "newOwner",
          "type": "address"
        }
      ],
      "name": "transferOwnership",
      "outputs": [],
      "payable": false,
      "stateMutability": "nonpayable",
      "type": "function"
    },
    {
      "constant": true,
      "inputs": [],
      "name": "INVESTOR1",
      "outputs": [
        {
          "name": "",
          "type": "address"
        }
      ],
      "payable": false,
      "stateMutability": "view",
      "type": "function"
    },
    {
      "constant": true,
      "inputs": [],
      "name": "TKT_UNIT",
      "outputs": [
        {
          "name": "",
          "type": "uint256"
        }
      ],
      "payable": false,
      "stateMutability": "view",
      "type": "function"
    },
    {
      "constant": true,
      "inputs": [],
      "name": "TOKEN_HODL_3M",
      "outputs": [
        {
          "name": "",
          "type": "uint256"
        }
      ],
      "payable": false,
      "stateMutability": "view",
      "type": "function"
    },
    {
      "constant": true,
      "inputs": [],
      "name": "token",
      "outputs": [
        {
          "name": "",
          "type": "address"
        }
      ],
      "payable": false,
      "stateMutability": "view",
      "type": "function"
    },
    {
      "inputs": [
        {
          "name": "_wallet",
          "type": "address"
        }
      ],
      "payable": false,
      "stateMutability": "nonpayable",
      "type": "constructor"
    },
    {
      "anonymous": false,
      "inputs": [
        {
          "indexed": true,
          "name": "_token",
          "type": "address"
        },
        {
          "indexed": true,
          "name": "_claimer",
          "type": "address"
        },
        {
          "indexed": false,
          "name": "_amount",
          "type": "uint256"
        }
      ],
      "name": "ExtractedTokens",
      "type": "event"
    },
    {
      "anonymous": false,
      "inputs": [],
      "name": "Pause",
      "type": "event"
    },
    {
      "anonymous": false,
      "inputs": [],
      "name": "Unpause",
      "type": "event"
    },
    {
      "anonymous": false,
      "inputs": [
        {
          "indexed": true,
          "name": "previousOwner",
          "type": "address"
        },
        {
          "indexed": true,
          "name": "newOwner",
          "type": "address"
        }
      ],
      "name": "OwnershipTransferred",
      "type": "event"
    },
    {
      "constant": false,
      "inputs": [
        {
          "name": "_token",
          "type": "address"
        },
        {
          "name": "_claimer",
          "type": "address"
        }
      ],
      "name": "extractTokens",
      "outputs": [],
      "payable": false,
      "stateMutability": "nonpayable",
      "type": "function"
    },
    {
      "constant": false,
      "inputs": [
        {
          "name": "_sale",
          "type": "address"
        },
        {
          "name": "_amount",
          "type": "uint256"
        }
      ],
      "name": "setCrowdsaleTransfer",
      "outputs": [],
      "payable": false,
      "stateMutability": "nonpayable",
      "type": "function"
    },
    {
      "constant": true,
      "inputs": [],
      "name": "isCrowdsaleOpen",
      "outputs": [
        {
          "name": "",
          "type": "bool"
        }
      ],
      "payable": false,
      "stateMutability": "view",
      "type": "function"
    },
    {
      "constant": false,
      "inputs": [
        {
          "name": "_beneficiary",
          "type": "address"
        },
        {
          "name": "_start",
          "type": "uint256"
        },
        {
          "name": "_amount",
          "type": "uint256"
        },
        {
          "name": "_revocable",
          "type": "bool"
        },
        {
          "name": "_advisor",
          "type": "bool"
        }
      ],
      "name": "createGrant",
      "outputs": [],
      "payable": false,
      "stateMutability": "nonpayable",
      "type": "function"
    },
    {
      "constant": false,
      "inputs": [
        {
          "name": "_id",
          "type": "uint256"
        },
        {
          "name": "_amount",
          "type": "uint256"
        }
      ],
      "name": "transferToGrant",
      "outputs": [],
      "payable": false,
      "stateMutability": "nonpayable",
      "type": "function"
    },
    {
      "constant": false,
      "inputs": [
        {
          "name": "_id",
          "type": "uint256"
        }
      ],
      "name": "revokeGrant",
      "outputs": [],
      "payable": false,
      "stateMutability": "nonpayable",
      "type": "function"
    },
    {
      "constant": true,
      "inputs": [],
      "name": "getGrantCount",
      "outputs": [
        {
          "name": "",
          "type": "uint256"
        }
      ],
      "payable": false,
      "stateMutability": "view",
      "type": "function"
    },
    {
      "constant": false,
      "inputs": [
        {
          "name": "_where",
          "type": "address"
        },
        {
          "name": "_amount",
          "type": "uint256"
        }
      ],
      "name": "burn",
      "outputs": [],
      "payable": false,
      "stateMutability": "nonpayable",
      "type": "function"
    },
    {
      "constant": false,
      "inputs": [
        {
          "name": "_controller",
          "type": "address"
        }
      ],
      "name": "setNewController",
      "outputs": [],
      "payable": false,
      "stateMutability": "nonpayable",
      "type": "function"
    },
    {
      "constant": false,
      "inputs": [
        {
          "name": "_wallet",
          "type": "address"
        }
      ],
      "name": "setNewMultisig",
      "outputs": [],
      "payable": false,
      "stateMutability": "nonpayable",
      "type": "function"
    },
    {
      "constant": false,
      "inputs": [
        {
          "name": "_token",
          "type": "address"
        },
        {
          "name": "_hodler",
          "type": "address"
        }
      ],
      "name": "setToken",
      "outputs": [],
      "payable": false,
      "stateMutability": "nonpayable",
      "type": "function"
    },
    {
      "constant": false,
      "inputs": [
        {
          "name": "_time",
          "type": "uint256"
        }
      ],
      "name": "setHodlerTime",
      "outputs": [],
      "payable": false,
      "stateMutability": "nonpayable",
      "type": "function"
    },
    {
      "constant": false,
      "inputs": [
        {
          "name": "_beneficiary",
          "type": "address"
        },
        {
          "name": "_stake",
          "type": "uint256"
        }
      ],
      "name": "addHodlerStake",
      "outputs": [],
      "payable": false,
      "stateMutability": "nonpayable",
      "type": "function"
    },
    {
      "constant": false,
      "inputs": [
        {
          "name": "_beneficiary",
          "type": "address"
        },
        {
          "name": "_stake",
          "type": "uint256"
        }
      ],
      "name": "setHodlerStake",
      "outputs": [],
      "payable": false,
      "stateMutability": "nonpayable",
      "type": "function"
    },
    {
      "constant": false,
      "inputs": [
        {
          "name": "_owner",
          "type": "address"
        }
      ],
      "name": "proxyPayment",
      "outputs": [
        {
          "name": "",
          "type": "bool"
        }
      ],
      "payable": true,
      "stateMutability": "payable",
      "type": "function"
    },
    {
      "constant": false,
      "inputs": [
        {
          "name": "_from",
          "type": "address"
        },
        {
          "name": "_to",
          "type": "address"
        },
        {
          "name": "_amount",
          "type": "uint256"
        }
      ],
      "name": "onTransfer",
      "outputs": [
        {
          "name": "",
          "type": "bool"
        }
      ],
      "payable": false,
      "stateMutability": "nonpayable",
      "type": "function"
    },
    {
      "constant": false,
      "inputs": [
        {
          "name": "_owner",
          "type": "address"
        },
        {
          "name": "_spender",
          "type": "address"
        },
        {
          "name": "_amount",
          "type": "uint256"
        }
      ],
      "name": "onApprove",
      "outputs": [
        {
          "name": "",
          "type": "bool"
        }
      ],
      "payable": false,
      "stateMutability": "nonpayable",
      "type": "function"
    },
    {
      "constant": false,
      "inputs": [
        {
          "name": "_token",
          "type": "address"
        }
      ],
      "name": "claimTokenTokens",
      "outputs": [],
      "payable": false,
      "stateMutability": "nonpayable",
      "type": "function"
    }
  ],
  "bytecode": "0x60606040526000805460a060020a60ff021916905560058054600160a060020a03199081166001178255600680548216600217905560078054821660031790556008805482166004179055600980549091169091179055341561006157600080fd5b604051602080613ac18339810160405280805160008054600160a060020a03191633600160a060020a03908116919091179091559092508216151590506100a757600080fd5b6000805460a060020a60ff02191674010000000000000000000000000000000000000000179055600a8054600160a060020a03909216600160a060020a03199092169190911790556139c3806100fe6000396000f300606060405260043610620002805763ffffffff60e060020a600035041662346b5781146200028557806304c80c3c14620002ac5780631b8b478714620002d45780631d33267a14620002ea5780631da26a8b146200030357806328262dd1146200032b578063299c55f7146200034157806332bc934c146200035757806332f402c5146200036d5780633a02263c146200039f5780633bc5853214620003d15780633f4ba83a14620003e7578063471b37cf14620003fd5780634a39314914620004135780634b8feb4f14620004525780634bc1aa4214620004685780634db08aea146200047e57806356c2c1f6146200049457806359baef4014620004aa5780635a3320ff14620004cc5780635c975abb14620004e25780636330278914620004f85780636fc559bb146200050e5780637a4690fb14620005275780637c1b6afe146200053d5780638456cb591462000553578063851cad9014620005695780638cac193914620002d45780638da5cb5b146200057f57806393a378da14620005955780639c1e03a014620005ba5780639dc29fac14620005d05780639f95de6414620005f5578063a804903a1462000611578063aebb25401462000627578063b0e9a1ef1462000649578063b2cb0a3d1462000662578063b3922c421462000678578063b5c7b1fe146200068e578063b8a4b85814620006b0578063bd1fac0014620006c6578063ca94452d14620006dc578063d16c4cf51462000701578063da682aeb1462000717578063ed6b2d7d1462000742578063f2fde38b146200076a578063f48c3054146200078c578063f5459d6b14620007a2578063f751366514620007b8578063fbd7d08114620007ce578063fc0c546a14620007e4575b600080fd5b34156200029157600080fd5b620002aa600160a060020a0360043516602435620007fa565b005b3415620002b857600080fd5b620002c262000885565b60405190815260200160405180910390f35b3415620002e057600080fd5b620002c262000893565b3415620002f657600080fd5b620002aa600435620008a2565b34156200030f57600080fd5b620002aa600160a060020a036004358116906024351662000955565b34156200033757600080fd5b620002c262000f6b565b34156200034d57600080fd5b620002c262000f7a565b34156200036357600080fd5b620002c262000f88565b34156200037957600080fd5b620002aa600160a060020a03600435166024356044356064351515608435151562000f8f565b3415620003ab57600080fd5b620003b562001155565b604051600160a060020a03909116815260200160405180910390f35b3415620003dd57600080fd5b620003b562001164565b3415620003f357600080fd5b620002aa62001173565b34156200040957600080fd5b620002c2620011f4565b34156200041f57600080fd5b6200043e600160a060020a0360043581169060243516604435620011fb565b604051901515815260200160405180910390f35b34156200045e57600080fd5b620003b5620012e7565b34156200047457600080fd5b620002c2620012f6565b34156200048a57600080fd5b620003b5620012fd565b3415620004a057600080fd5b620002c26200130c565b3415620004b657600080fd5b620002aa600160a060020a036004351662001314565b3415620004d857600080fd5b6200043e62001570565b3415620004ee57600080fd5b6200043e62001664565b34156200050457600080fd5b620002c262001674565b34156200051a57600080fd5b620003b560043562001683565b34156200053357600080fd5b620002c2620016ac565b34156200054957600080fd5b620002c2620016bb565b34156200055f57600080fd5b620002aa620016c1565b34156200057557600080fd5b620002c262001747565b34156200058b57600080fd5b620003b56200174d565b3415620005a157600080fd5b620002aa600160a060020a03600435166024356200175c565b3415620005c657600080fd5b620003b5620017cf565b3415620005dc57600080fd5b620002aa600160a060020a0360043516602435620017de565b34156200060157600080fd5b620002aa600435602435620018bc565b34156200061d57600080fd5b620003b562001a05565b34156200063357600080fd5b620002aa600160a060020a036004351662001a14565b34156200065557600080fd5b620002aa60043562001a68565b34156200066e57600080fd5b620002c262001acd565b34156200068457600080fd5b620002c262001ad5565b34156200069a57600080fd5b620002aa600160a060020a036004351662001ae4565b3415620006bc57600080fd5b620003b562001b6d565b3415620006d257600080fd5b620002c262001b7c565b3415620006e857600080fd5b620002aa600160a060020a036004351660243562001b8b565b34156200070d57600080fd5b620003b562001c76565b34156200072357600080fd5b6200043e600160a060020a036004358116906024351660443562001c85565b34156200074e57600080fd5b620002aa600160a060020a036004358116906024351662001c9a565b34156200077657600080fd5b620002aa600160a060020a036004351662001cf6565b6200043e600160a060020a036004351662001d86565b3415620007ae57600080fd5b620003b562001d8d565b3415620007c457600080fd5b620002c262001d9c565b3415620007da57600080fd5b620002c262001da8565b3415620007f057600080fd5b620003b562001db6565b600b5433600160a060020a039081169116146200081657600080fd5b600c54600160a060020a031662346b57838360405160e060020a63ffffffff8516028152600160a060020a0390921660048301526024820152604401600060405180830381600087803b15156200086c57600080fd5b6102c65a03f115156200087e57600080fd5b5050505050565b697f0e10af47c1c700000081565b6a09ed194db19b238c00000081565b60005433600160a060020a03908116911614620008be57600080fd5b600d548110620008cd57600080fd5b600d805482908110620008dc57fe5b600091825260209091200154600454600160a060020a03918216916374a8f103911660405160e060020a63ffffffff8416028152600160a060020a039091166004820152602401600060405180830381600087803b15156200093d57600080fd5b6102c65a03f115156200094f57600080fd5b50505050565b60005433600160a060020a039081169116146200097157600080fd5b60005460a060020a900460ff1615156200098a57600080fd5b600160a060020a0382161515620009a057600080fd5b60048054600160a060020a031916600160a060020a0384811691909117909155811615620009e957600c8054600160a060020a031916600160a060020a03831617905562000a78565b600c54600160a060020a0316151562000a7857693f870857a3e0e3800000697f0e10af47c1c70000006a01bcb13a657b263880000062000a2862001fee565b808481526020018381526020018281526020019350505050604051809103906000f080151562000a5757600080fd5b600c8054600160a060020a031916600160a060020a03929092169190911790555b600454600160a060020a03166318160ddd6000604051602001526040518163ffffffff1660e060020a028152600401602060405180830381600087803b151562000ac157600080fd5b6102c65a03f1151562000ad357600080fd5b50505060405180511515905062000f6757600454600554600160a060020a039182169163827f32c0911662000b256a19a4815e0ad0c67f0000006a09ed194db19b238c00000063ffffffff62001dc516565b60006040516020015260405160e060020a63ffffffff8516028152600160a060020a0390921660048301526024820152604401602060405180830381600087803b151562000b7257600080fd5b6102c65a03f1151562000b8457600080fd5b50505060405180515050600454600c54600160a060020a039182169163827f32c0911662000bea6a01bcb13a657b263880000062000bdd693f870857a3e0e3800000697f0e10af47c1c700000063ffffffff62001dc516565b9063ffffffff62001dc516565b60006040516020015260405160e060020a63ffffffff8516028152600160a060020a0390921660048301526024820152604401602060405180830381600087803b151562000c3757600080fd5b6102c65a03f1151562000c4957600080fd5b5050506040518051505060045460008054600160a060020a039283169263827f32c0929116906969e10de76676d0800000906040516020015260405160e060020a63ffffffff8516028152600160a060020a0390921660048301526024820152604401602060405180830381600087803b151562000cc657600080fd5b6102c65a03f1151562000cd857600080fd5b50505060405180515050600454600a54600160a060020a039182169163827f32c091166a0e0fe3d8bb9bc7b100000060006040516020015260405160e060020a63ffffffff8516028152600160a060020a0390921660048301526024820152604401602060405180830381600087803b151562000d5457600080fd5b6102c65a03f1151562000d6657600080fd5b50505060405180515050600454600160a060020a031663827f32c03062000daa6a04f68ca6d8cd91c60000006a09ed194db19b238c00000063ffffffff62001dc516565b60006040516020015260405160e060020a63ffffffff8516028152600160a060020a0390921660048301526024820152604401602060405180830381600087803b151562000df757600080fd5b6102c65a03f1151562000e0957600080fd5b50505060405180515050600454600854600160a060020a039182169163827f32c0911662000e5d600262000e506a027b46536c66c8e3000000600363ffffffff62001de016565b9063ffffffff62001df816565b60006040516020015260405160e060020a63ffffffff8516028152600160a060020a0390921660048301526024820152604401602060405180830381600087803b151562000eaa57600080fd5b6102c65a03f1151562000ebc57600080fd5b50505060405180515050600454600954600160a060020a039182169163827f32c0911662000efd6a027b46536c66c8e3000000600363ffffffff62001de016565b60006040516020015260405160e060020a63ffffffff8516028152600160a060020a0390921660048301526024820152604401602060405180830381600087803b151562000f4a57600080fd5b6102c65a03f1151562000f5c57600080fd5b505050604051805150505b5050565b6a01bcb13a657b263880000081565b6969e10de76676d080000081565b620f424081565b60005433600160a060020a0390811691161462000fab57600080fd5b600160a060020a0385161580159062000fc45750600083115b801562000fd15750428410155b151562000fdd57600080fd5b80156200108d57600d80546001810162000ff8838262001fff565b9160005260206000209001600087876276a70062ed4e00886200101a6200202b565b600160a060020a03909516855260208501939093526040808501929092526060840152901515608083015260a09091019051809103906000f08015156200106057600080fd5b909190916101000a815481600160a060020a030219169083600160a060020a031602179055505062001133565b600d805460018101620010a1838262001fff565b9160005260206000209001600087876301e13380630784ce0088620010c56200202b565b600160a060020a03909516855260208501939093526040808501929092526060840152901515608083015260a09091019051809103906000f08015156200110b57600080fd5b909190916101000a815481600160a060020a030219169083600160a060020a03160217905550505b600d546200087e906200114e90600163ffffffff62001e2716565b84620018bc565b600354600160a060020a031681565b600c54600160a060020a031681565b60005433600160a060020a039081169116146200118f57600080fd5b60005460a060020a900460ff161515620011a857600080fd5b6000805474ff0000000000000000000000000000000000000000191690557f7805862f689e2f13df9f062ff482ad3ad112aca9e0847911ed832e158c525b3360405160405180910390a1565b62ed4e0081565b600c54600090600160a060020a03166337a3931f8560405160e060020a63ffffffff8416028152600160a060020a039091166004820152602401600060405180830381600087803b15156200124f57600080fd5b6102c65a03f115156200126157600080fd5b505060005460a060020a900460ff161590508062001290575030600160a060020a031684600160a060020a0316145b80620012ad575030600160a060020a031683600160a060020a0316145b80620012c65750600b54600160a060020a038581169116145b80620012df5750600b54600160a060020a038481169116145b949350505050565b600a54600160a060020a031681565b6276a70081565b600554600160a060020a031681565b6301e1338081565b600a5460009033600160a060020a039081169116146200133357600080fd5b600160a060020a03821615801590620013555750600354600160a060020a0316155b15156200136157600080fd5b60038054600160a060020a031916600160a060020a038481169190911790915560045416633cebb8238360405160e060020a63ffffffff8416028152600160a060020a039091166004820152602401600060405180830381600087803b1515620013ca57600080fd5b6102c65a03f11515620013dc57600080fd5b5050600c54600160a060020a0316905063f2fde38b8360405160e060020a63ffffffff8416028152600160a060020a039091166004820152602401600060405180830381600087803b15156200143157600080fd5b6102c65a03f115156200144357600080fd5b50505030600160a060020a031631905060008111156200148f57600160a060020a03821681156108fc0282604051600060405180830381858888f1935050505015156200148f57600080fd5b600454600160a060020a03166370a082313060006040516020015260405160e060020a63ffffffff8416028152600160a060020a039091166004820152602401602060405180830381600087803b1515620014e957600080fd5b6102c65a03f11515620014fb57600080fd5b5050506040518051915050600081111562000f6757600454600160a060020a031663a9059cbb838360006040516020015260405160e060020a63ffffffff8516028152600160a060020a0390921660048301526024820152604401602060405180830381600087803b151562000f4a57600080fd5b600b54600090600160a060020a031615801590620015f05750600b54600160a060020a031663ecb70fb76000604051602001526040518163ffffffff1660e060020a028152600401602060405180830381600087803b1515620015d257600080fd5b6102c65a03f11515620015e457600080fd5b50505060405180519050155b80156200165e5750600b54600160a060020a03166344691f7e6000604051602001526040518163ffffffff1660e060020a028152600401602060405180830381600087803b15156200164157600080fd5b6102c65a03f115156200165357600080fd5b505050604051805190505b90505b90565b60005460a060020a900460ff1681565b6a04f68ca6d8cd91c600000081565b600d8054829081106200169257fe5b600091825260209091200154600160a060020a0316905081565b6a19a4815e0ad0c67f00000081565b600d5490565b60005433600160a060020a03908116911614620016dd57600080fd5b60005460a060020a900460ff1615620016f557600080fd5b6000805474ff0000000000000000000000000000000000000000191660a060020a1790557f6985a02210a168e66602d3235cb6db0e70f92b3ba4d376a33c0f3d9434bff62560405160405180910390a1565b6103e881565b600054600160a060020a031681565b600b5433600160a060020a039081169116146200177857600080fd5b600c54600160a060020a03166393a378da838360405160e060020a63ffffffff8516028152600160a060020a0390921660048301526024820152604401600060405180830381600087803b15156200086c57600080fd5b600b54600160a060020a031681565b600a5433600160a060020a03908116911614620017fa57600080fd5b30600160a060020a031682600160a060020a03161480620018285750600554600160a060020a038381169116145b15156200183457600080fd5b600454600160a060020a031663d3ce77fe838360006040516020015260405160e060020a63ffffffff8516028152600160a060020a0390921660048301526024820152604401602060405180830381600087803b15156200189457600080fd5b6102c65a03f11515620018a657600080fd5b50505060405180519050151562000f6757600080fd5b60005433600160a060020a03908116911614620018d857600080fd5b600d5482108015620018ea5750600081115b8015620019725750600d8054839081106200190157fe5b6000918252602082200154600160a060020a03169063be9a655590604051602001526040518163ffffffff1660e060020a028152600401602060405180830381600087803b15156200195257600080fd5b6102c65a03f115156200196457600080fd5b505050604051805190504211155b15156200197e57600080fd5b600454600d8054600160a060020a039092169163a9059cbb919085908110620019a357fe5b6000918252602082200154600160a060020a03169084906040516020015260405160e060020a63ffffffff8516028152600160a060020a0390921660048301526024820152604401602060405180830381600087803b15156200189457600080fd5b600754600160a060020a031681565b600a5433600160a060020a0390811691161462001a3057600080fd5b600160a060020a038116151562001a4657600080fd5b600a8054600160a060020a031916600160a060020a0392909216919091179055565b600b5433600160a060020a0390811691161462001a8457600080fd5b600c54600160a060020a031663b0e9a1ef8260405160e060020a63ffffffff84160281526004810191909152602401600060405180830381600087803b15156200093d57600080fd5b630784ce0081565b6a027b46536c66c8e300000081565b60005433600160a060020a0390811691161462001b0057600080fd5b600454600160a060020a038281169116141562001b1c57600080fd5b600454600160a060020a031663df8de3e78260405160e060020a63ffffffff8416028152600160a060020a039091166004820152602401600060405180830381600087803b15156200093d57600080fd5b600954600160a060020a031681565b6a0e0fe3d8bb9bc7b100000081565b60005433600160a060020a0390811691161462001ba757600080fd5b600160a060020a0382161580159062001bc7575062001bc562001570565b155b801562001bde5750600454600160a060020a031615155b151562001bea57600080fd5b600b8054600160a060020a031916600160a060020a0384811691909117909155600454600554908216916323b872dd9116848460006040516020015260405160e060020a63ffffffff8616028152600160a060020a0393841660048201529190921660248201526044810191909152606401602060405180830381600087803b15156200189457600080fd5b600654600160a060020a031681565b505060005460a060020a900460ff1615919050565b60005433600160a060020a0390811691161462001cb657600080fd5b600354600160a060020a031615158062001cde5750600454600160a060020a03838116911614155b151562001cea57600080fd5b62000f67828262001e3a565b60005433600160a060020a0390811691161462001d1257600080fd5b600160a060020a038116151562001d2857600080fd5b600054600160a060020a0380831691167f8be0079c531659141344cd1fd0a4f28419497f9722a3daafe3b4186f6b6457e060405160405180910390a360008054600160a060020a031916600160a060020a0392909216919091179055565b6000806000fd5b600854600160a060020a031681565b670de0b6b3a764000081565b693f870857a3e0e380000081565b600454600160a060020a031681565b60008282018381101562001dd557fe5b8091505b5092915050565b600080828481151562001def57fe5b04949350505050565b60008083151562001e0d576000915062001dd9565b5082820282848281151562001e1e57fe5b041462001dd557fe5b60008282111562001e3457fe5b50900390565b60008054819033600160a060020a0390811691161462001e5957600080fd5b600160a060020a038416151562001eae5782600160a060020a03166108fc30600160a060020a0316319081150290604051600060405180830381858888f19350505050151562001ea857600080fd5b6200094f565b83915081600160a060020a03166370a082313060006040516020015260405160e060020a63ffffffff8416028152600160a060020a039091166004820152602401602060405180830381600087803b151562001f0957600080fd5b6102c65a03f1151562001f1b57600080fd5b5050506040518051915050600160a060020a03821663a9059cbb848360006040516020015260405160e060020a63ffffffff8516028152600160a060020a0390921660048301526024820152604401602060405180830381600087803b151562001f8457600080fd5b6102c65a03f1151562001f9657600080fd5b505050604051805190505082600160a060020a031684600160a060020a03167f21e9b296e283cad208b551b3c383bb74e34086eb5691fee8392dcce6794521c28360405190815260200160405180910390a350505050565b604051611020806200205e83390190565b8154818355818115116200202657600083815260209020620020269181019083016200203c565b505050565b60405161091a806200307e83390190565b6200166191905b8082111562002059576000815560010162002043565b509056006060604052341561000f57600080fd5b60405160608061102083398101604052808051919060200180519190602001805160008054600160a060020a033316600160a060020a0319909116179055600b949094555050600c55600d55610fb68061006a6000396000f3006060604052600436106101235763ffffffff60e060020a600035041662346b57811461012857806304c80c3c1461014c5780630d92e3e8146101715780630eb6f5431461018457806326c43d8f1461019757806328262dd1146101aa57806337a3931f146101bd57806342ef4c1a146101dc5780634a48314f146101ef5780634b86faba14610202578063685a73e0146102155780638da5cb5b1461023357806391e79c721461026257806393a378da14610275578063b0e9a1ef14610297578063b40d8d58146102ad578063be2b1047146102c0578063c899fa77146102d3578063d228cfc5146102e6578063d43a0b4c14610305578063d6192c6c14610318578063e2c208361461036e578063f2fde38b14610381578063fbd7d081146103a0575b600080fd5b341561013357600080fd5b61014a600160a060020a03600435166024356103b3565b005b341561015757600080fd5b61015f6105cc565b60405190815260200160405180910390f35b341561017c57600080fd5b61015f6105d2565b341561018f57600080fd5b61015f6105d8565b34156101a257600080fd5b61015f6105de565b34156101b557600080fd5b61015f6105e4565b34156101c857600080fd5b61014a600160a060020a03600435166105ea565b34156101e757600080fd5b61015f6106b1565b34156101fa57600080fd5b61015f6106b7565b341561020d57600080fd5b61014a6106bd565b341561022057600080fd5b61014a60048035602481019101356106c8565b341561023e57600080fd5b6102466106ff565b604051600160a060020a03909116815260200160405180910390f35b341561026d57600080fd5b61015f61070e565b341561028057600080fd5b61014a600160a060020a0360043516602435610714565b34156102a257600080fd5b61014a600435610848565b34156102b857600080fd5b61015f61090f565b34156102cb57600080fd5b61015f610915565b34156102de57600080fd5b61015f61091b565b34156102f157600080fd5b61014a600160a060020a0360043516610921565b341561031057600080fd5b61015f610cc6565b341561032357600080fd5b610337600160a060020a0360043516610ccc565b60405194855292151560208501529015156040808501919091529015156060840152901515608083015260a0909101905180910390f35b341561037957600080fd5b61015f610d04565b341561038c57600080fd5b61014a600160a060020a0360043516610e7b565b34156103ab57600080fd5b61015f610f16565b6000805433600160a060020a039081169116146103cf57600080fd5b60075415806103e057506007544211155b156105c757600160a060020a0383166000908152600160205260409020548214806104125750600160a060020a038316155b1561041c576105c7565b600160a060020a0383166000908152600160205260409020541580156104425750600082115b156104635760035461045b90600163ffffffff610f1c16565b6003556104a4565b600160a060020a038316600090815260016020526040812054118015610487575081155b156104a4576003546104a090600163ffffffff610f3616565b6003555b600160a060020a03831660009081526001602052604090205482116104f157600160a060020a0383166000908152600160205260409020546104ec908363ffffffff610f3616565b61051b565b600160a060020a03831660009081526001602052604090205461051b90839063ffffffff610f3616565b600160a060020a03841660009081526001602052604090205490915082111561055957600254610551908263ffffffff610f1c16565b600255610570565b60025461056c908263ffffffff610f3616565b6002555b600160a060020a038084166000818152600160205260409081902085905590913316907f531b6d98182f354ef73d680007a0fa84a81fa4a320e289e4f826150ad104fb1a9085905190815260200160405180910390a35b505050565b600c5481565b600e5481565b60055481565b60035481565b600d5481565b60005433600160a060020a0390811691161461060557600080fd5b600160a060020a0381166000908152600160205260408120541180156106485750600160a060020a0381166000908152600160208190526040909120015460ff16155b156106a557600160a060020a0381166000908152600160208190526040909120808201805460ff19169092179091555460025461068a9163ffffffff610f3616565b6002556003546106a190600163ffffffff610f3616565b6003555b6106ad610d04565b5050565b60095481565b60085481565b6106c633610921565b565b60005b818110156105c7576106f78383838181106106e257fe5b90506020020135600160a060020a0316610921565b6001016106cb565b600054600160a060020a031681565b60025481565b60005433600160a060020a0390811691161461072f57600080fd5b600754158061074057506007544211155b156106ad578015806107595750600160a060020a038216155b15610763576106ad565b600160a060020a038216600090815260016020526040902054151561079a5760035461079690600163ffffffff610f1c16565b6003555b600160a060020a0382166000908152600160205260409020546107c3908263ffffffff610f1c16565b600160a060020a0383166000908152600160205260409020556002546107ef908263ffffffff610f1c16565b600255600160a060020a03808316600081815260016020526040908190205491923316917f531b6d98182f354ef73d680007a0fa84a81fa4a320e289e4f826150ad104fb1a915190815260200160405180910390a35050565b60005433600160a060020a0390811691161461086357600080fd5b600754158061087457506007544211155b1561090c574281101561088657600080fd5b600781905561089e816276a70063ffffffff610f1c16565b6008556108b48162ed4e0063ffffffff610f1c16565b6009556108cb81630163f50063ffffffff610f1c16565b600a55600160a060020a0333167fc7ad31b0c99a40aa43822fbc49a68cf7f3eb3d52152a5c01a7f636e4481cf43f8260405190815260200160405180910390a25b50565b600a5481565b60075481565b60045481565b600160a060020a03811660009081526001602052604081205481901180156109665750600160a060020a0382166000908152600160208190526040909120015460ff16155b151561097157600080fd5b50600061097c610d04565b50600160a060020a03821660009081526001602081905260409091200154610100900460ff161580156109b157506008544210155b15610a3357600454600b54600160a060020a038416600090815260016020526040902054610a07926109fa9290916109ee9163ffffffff610f4816565b9063ffffffff610f7316565b829063ffffffff610f1c16565b600160a060020a038316600090815260016020819052604090912001805461ff00191661010017905590505b600160a060020a0382166000908152600160208190526040909120015462010000900460ff16158015610a6857506009544210155b15610ad357600554600c54600160a060020a038416600090815260016020526040902054610aa5926109fa9290916109ee9163ffffffff610f4816565b600160a060020a038316600090815260016020819052604090912001805462ff000019166201000017905590505b600160a060020a038216600090815260016020819052604090912001546301000000900460ff16158015610b095750600a544210155b15610b7657600654600d54600160a060020a038416600090815260016020526040902054610b46926109fa9290916109ee9163ffffffff610f4816565b600160a060020a038316600090815260016020819052604090912001805463ff0000001916630100000017905590505b60008111156106ad57600e54610b92908263ffffffff610f1c16565b600e5560008054600160a060020a03169063fc0c546a90604051602001526040518163ffffffff1660e060020a028152600401602060405180830381600087803b1515610bde57600080fd5b6102c65a03f11515610bef57600080fd5b50505060405180519050600160a060020a031663a9059cbb838360006040516020015260405160e060020a63ffffffff8516028152600160a060020a0390921660048301526024820152604401602060405180830381600087803b1515610c5557600080fd5b6102c65a03f11515610c6657600080fd5b505050604051805190501515610c7b57600080fd5b81600160a060020a031633600160a060020a03167fd06980f1b54006ca63e8ddd2f4dafe76e8bcd6e7d7f333296f778781626af4268360405190815260200160405180910390a35050565b60065481565b6001602081905260009182526040909120805491015460ff808216916101008104821691620100008204811691630100000090041685565b60006008544210158015610d185750600454155b15610d24576002546004555b6009544210158015610d365750600554155b15610d42576002546005555b600a544210158015610d545750600654155b15610e7457600254600655600e54600c54600b5460008054610e709493610e64939092610e5892600160a060020a03169063fc0c546a90604051602001526040518163ffffffff1660e060020a028152600401602060405180830381600087803b1515610dc057600080fd5b6102c65a03f11515610dd157600080fd5b50505060405180519050600160a060020a03166370a082313060006040516020015260405160e060020a63ffffffff8416028152600160a060020a039091166004820152602401602060405180830381600087803b1515610e3157600080fd5b6102c65a03f11515610e4257600080fd5b505050604051805191905063ffffffff610f3616565b9063ffffffff610f3616565b9063ffffffff610f1c16565b600d555b5060025490565b60005433600160a060020a03908116911614610e9657600080fd5b600160a060020a0381161515610eab57600080fd5b600054600160a060020a0380831691167f8be0079c531659141344cd1fd0a4f28419497f9722a3daafe3b4186f6b6457e060405160405180910390a36000805473ffffffffffffffffffffffffffffffffffffffff1916600160a060020a0392909216919091179055565b600b5481565b600082820183811015610f2b57fe5b8091505b5092915050565b600082821115610f4257fe5b50900390565b600080831515610f5b5760009150610f2f565b50828202828482811515610f6b57fe5b0414610f2b57fe5b6000808284811515610f8157fe5b049493505050505600a165627a7a7230582078b023b154c7c147a67205d933cec5556dd3e9e86ba254555f363c18cfeeae4a00296060604052341561000f57600080fd5b60405160a08061091a833981016040528080519190602001805191906020018051919060200180519190602001805160008054600160a060020a03191633600160a060020a039081169190911790915590925086161515905061007157600080fd5b8183111561007e57600080fd5b60018054600160a060020a031916600160a060020a0387161790556005805460ff191682151517905560048290556100c384846401000000006100d2810261079b1704565b600255505050600355506100e8565b6000828201838110156100e157fe5b9392505050565b610823806100f76000396000f3006060604052600436106100ab5763ffffffff60e060020a6000350416630fb5a6b481146100b057806313d033c0146100d55780631726cbc8146100e85780631916558714610107578063384711cc1461012857806338af3eed1461014757806374a8f10314610176578063872a7810146101955780638da5cb5b146101bc5780639852595c146101cf578063be9a6555146101ee578063f2fde38b14610201578063fa01dc0614610220575b600080fd5b34156100bb57600080fd5b6100c361023f565b60405190815260200160405180910390f35b34156100e057600080fd5b6100c3610245565b34156100f357600080fd5b6100c3600160a060020a036004351661024b565b341561011257600080fd5b610126600160a060020a0360043516610283565b005b341561013357600080fd5b6100c3600160a060020a036004351661039c565b341561015257600080fd5b61015a6104dd565b604051600160a060020a03909116815260200160405180910390f35b341561018157600080fd5b610126600160a060020a03600435166104ec565b34156101a057600080fd5b6101a86106a9565b604051901515815260200160405180910390f35b34156101c757600080fd5b61015a6106b2565b34156101da57600080fd5b6100c3600160a060020a03600435166106c1565b34156101f957600080fd5b6100c36106d3565b341561020c57600080fd5b610126600160a060020a03600435166106d9565b341561022b57600080fd5b6101a8600160a060020a0360043516610774565b60045481565b60025481565b600160a060020a03811660009081526006602052604081205461027d906102718461039c565b9063ffffffff61078916565b92915050565b600061028e8261024b565b90506000811161029d57600080fd5b600160a060020a0382166000908152600660205260409020546102c6908263ffffffff61079b16565b600160a060020a0380841660008181526006602052604080822094909455600154919363a9059cbb939290921691859190516020015260405160e060020a63ffffffff8516028152600160a060020a0390921660048301526024820152604401602060405180830381600087803b151561033f57600080fd5b6102c65a03f1151561035057600080fd5b50505060405180519050151561036557600080fd5b7ffb81f9b30d73d830c3544b34d827c08142579ee75710b490bab0b3995468c5658160405190815260200160405180910390a15050565b600080600083600160a060020a03166370a082313060006040516020015260405160e060020a63ffffffff8416028152600160a060020a039091166004820152602401602060405180830381600087803b15156103f857600080fd5b6102c65a03f1151561040957600080fd5b5050506040518051600160a060020a03861660009081526006602052604090205490935061043f9150839063ffffffff61079b16565b905060025442101561045457600092506104d6565b6004546003546104699163ffffffff61079b16565b4210158061048f5750600160a060020a03841660009081526007602052604090205460ff165b1561049c578092506104d6565b6104d36004546104c76104ba6003544261078990919063ffffffff16565b849063ffffffff6107b516565b9063ffffffff6107e016565b92505b5050919050565b600154600160a060020a031681565b600080548190819033600160a060020a0390811691161461050c57600080fd5b60055460ff16151561051d57600080fd5b600160a060020a03841660009081526007602052604090205460ff161561054357600080fd5b83600160a060020a03166370a082313060006040516020015260405160e060020a63ffffffff8416028152600160a060020a039091166004820152602401602060405180830381600087803b151561059a57600080fd5b6102c65a03f115156105ab57600080fd5b5050506040518051905092506105c08461024b565b91506105d2838363ffffffff61078916565b600160a060020a03808616600081815260076020526040808220805460ff191660011790558154949550919363a9059cbb931691859190516020015260405160e060020a63ffffffff8516028152600160a060020a0390921660048301526024820152604401602060405180830381600087803b151561065157600080fd5b6102c65a03f1151561066257600080fd5b50505060405180519050151561067757600080fd5b7f44825a4b2df8acb19ce4e1afba9aa850c8b65cdb7942e2078f27d0b0960efee660405160405180910390a150505050565b60055460ff1681565b600054600160a060020a031681565b60066020526000908152604090205481565b60035481565b60005433600160a060020a039081169116146106f457600080fd5b600160a060020a038116151561070957600080fd5b600054600160a060020a0380831691167f8be0079c531659141344cd1fd0a4f28419497f9722a3daafe3b4186f6b6457e060405160405180910390a36000805473ffffffffffffffffffffffffffffffffffffffff1916600160a060020a0392909216919091179055565b60076020526000908152604090205460ff1681565b60008282111561079557fe5b50900390565b6000828201838110156107aa57fe5b8091505b5092915050565b6000808315156107c857600091506107ae565b508282028284828115156107d857fe5b04146107aa57fe5b60008082848115156107ee57fe5b049493505050505600a165627a7a72305820ff764f24cfbe32918ffa82ddf902f499e0adc798d08e9067f6a5cf654cdd61070029a165627a7a72305820b4212df97d31a192352509e521de14090c7ef00b546cf5f2eb9085bfd31377db0029",
  "source": "pragma solidity ^0.4.18;\n\nimport \"zeppelin-solidity/contracts/math/SafeMath.sol\";\nimport \"zeppelin-solidity/contracts/lifecycle/Pausable.sol\";\nimport \"./minime_0.2.0/ERC20MiniMe.sol\";\nimport \"./minime_0.2.0/TokenController.sol\";\nimport \"./TravelkoinMiniMeCrowdsale.sol\";\nimport \"./TravelkoinHodler.sol\";\nimport \"./TravelkoinTokenVesting.sol\";\nimport \"./TravelkoinHasNoTokens.sol\";\n\n\n/**\n * @title TravelkoinController\n * @author Bjorn Harvold\n * @notice Controller of the Travelkoin Token\n * @dev Crowdsale can be only replaced when no active crowdsale is running.\n *  The contract is paused by default. It has to be unpaused to enable token transfer.\n */\ncontract TravelkoinController is Pausable, TravelkoinHasNoTokens, TokenController {\n    using SafeMath for uint;\n\n    // when migrating this contains the address of the new controller\n    TokenController public newController;\n\n    // token contract\n    ERC20MiniMe public token;\n\n    // distribution of tokens\n    uint256 public constant TKT_UNIT = 10 ** 18;\n    uint256 public constant THOUSAND = 10 ** 3;\n    uint256 public constant MILLION = 10 ** 6;\n    uint256 public constant TOKEN_SALE1_NORMAL = 31 * MILLION * TKT_UNIT;\n    uint256 public constant TOKEN_SALE2 = 12 * MILLION * TKT_UNIT;\n    uint256 public constant TOKEN_HODL_3M = 300 * THOUSAND * TKT_UNIT;\n    uint256 public constant TOKEN_HODL_6M = 600 * THOUSAND * TKT_UNIT;\n    uint256 public constant TOKEN_HODL_9M = 2100 * THOUSAND * TKT_UNIT;\n    uint256 public constant TOKEN_BOUNTY = 500 * THOUSAND * TKT_UNIT;\n    uint256 public constant TOKEN_COMMUNITY = 17 * MILLION * TKT_UNIT;\n    uint256 public constant TOKEN_TEAM = 12 * MILLION * TKT_UNIT;\n    uint256 public constant TOKEN_FOUNDERS = 6 * MILLION * TKT_UNIT;\n    uint256 public constant TOKEN_INVESTORS = 3 * MILLION * TKT_UNIT;\n\n    // addresses only SALE will remain, the others will be real eth addresses\n    address public SALE = 0x1;\n    address public FOUNDER1 = 0x2;\n    address public FOUNDER2 = 0x3;\n    address public INVESTOR1 = 0x4;\n    address public INVESTOR2 = 0x5;\n\n    // addresses for multisig and crowdsale\n    address public multiSigWallet;\n    TravelkoinMiniMeCrowdsale public crowdsale;\n\n    // hodler reward contract\n    TravelkoinHodler public hodler;\n\n    // token grants\n    TravelkoinTokenVesting[] public tokenGrants;\n    uint256 public constant VESTING_TEAM_CLIFF = 365 days;\n    uint256 public constant VESTING_TEAM_DURATION = 4 * 365 days;\n    uint256 public constant VESTING_ADVISOR_CLIFF = 3 * 30 days;\n    uint256 public constant VESTING_ADVISOR_DURATION = 6 * 30 days;\n\n\n    /// @dev only the crowdsale can call it\n    modifier onlyCrowdsale() {\n        require(msg.sender == address(crowdsale));\n        _;\n    }\n\n    /// @dev only the crowdsale can call it\n    modifier onlyMultiSig() {\n        require(msg.sender == address(multiSigWallet));\n        _;\n    }\n\n\n    ////////////////\n    // Constructor, overrides\n    ////////////////\n\n    /// @notice Constructor for Travelkoin Controller\n    function TravelkoinController(address _wallet) public {\n        require(_wallet != address(0));\n\n        paused = true;\n        multiSigWallet = _wallet;\n    }\n\n    /// @dev overrides HasNoTokens#extractTokens to make it possible to extract any tokens after migration or before that any tokens except travelkoin\n    function extractTokens(address _token, address _claimer) onlyOwner public {\n        require(newController != address(0) || _token != address(token));\n\n        super.extractTokens(_token, _claimer);\n    }\n\n\n    ////////////////\n    // Manage crowdsale\n    ////////////////\n\n    /// @notice Set crowdsale address and transfer TKT tokens from travelkoinController's SALE address\n    /// @dev Crowdsale can be only set when the current crowdsale is not active and token is set\n    function setCrowdsaleTransfer(address _sale, uint256 _amount) public onlyOwner {\n        require(_sale != address(0) && !isCrowdsaleOpen() && address(token) != address(0));\n\n        crowdsale = TravelkoinMiniMeCrowdsale(_sale);\n\n        // transfer TKT tokens to crowdsale account from the account of controller\n        require(token.transferFrom(SALE, _sale, _amount));\n    }\n\n    /// @notice Is there a not ended crowdsale?\n    /// @return true if there is no crowdsale or the current crowdsale is not yet ended but started\n    function isCrowdsaleOpen() public view returns (bool) {\n        return address(crowdsale) != address(0) && !crowdsale.hasEnded() && crowdsale.hasStarted();\n    }\n\n\n    ////////////////\n    // Manage grants\n    ////////////////\n\n    /// @notice Grant vesting token to an address\n    function createGrant(\n        address _beneficiary,\n        uint256 _start,\n        uint256 _amount,\n        bool _revocable,\n        bool _advisor)\n    public\n    onlyOwner\n    {\n        require(_beneficiary != address(0) && _amount > 0 && _start >= now);\n\n        // create token grant\n        if (_advisor) {\n            tokenGrants.push(new TravelkoinTokenVesting(_beneficiary, _start, VESTING_ADVISOR_CLIFF, VESTING_ADVISOR_DURATION, _revocable));\n        } else {\n            tokenGrants.push(new TravelkoinTokenVesting(_beneficiary, _start, VESTING_TEAM_CLIFF, VESTING_TEAM_DURATION, _revocable));\n        }\n\n        // transfer funds to the grant\n        transferToGrant(tokenGrants.length.sub(1), _amount);\n    }\n\n    /// @notice Transfer tokens to a grant until it is starting\n    function transferToGrant(uint256 _id, uint256 _amount) public onlyOwner {\n        require(_id < tokenGrants.length && _amount > 0 && now <= tokenGrants[_id].start());\n\n        // transfer funds to the grant\n        require(token.transfer(address(tokenGrants[_id]), _amount));\n    }\n\n    /// @dev Revoking grant\n    function revokeGrant(uint256 _id) public onlyOwner {\n        require(_id < tokenGrants.length);\n\n        tokenGrants[_id].revoke(token);\n    }\n\n    /// @notice Returns the token grant count\n    function getGrantCount() view public returns (uint) {\n        return tokenGrants.length;\n    }\n\n\n    ////////////////\n    // BURN, handle ownership - only multsig can call these functions!\n    ////////////////\n\n    /// @notice contract can burn its own or its sale tokens\n    function burn(address _where, uint256 _amount) public onlyMultiSig {\n        require(_where == address(this) || _where == SALE);\n\n        require(token.destroyTokens(_where, _amount));\n    }\n\n    /// @notice replaces controller when it was not yet replaced, only multisig can do it\n    function setNewController(address _controller) public onlyMultiSig {\n        require(_controller != address(0) && newController == address(0));\n\n        newController = TokenController(_controller);\n        token.changeController(_controller);\n        hodler.transferOwnership(_controller);\n\n        // send eth\n        uint256 _stake = this.balance;\n        if (_stake > 0)\n            _controller.transfer(_stake);\n\n        // send tokens\n        _stake = token.balanceOf(this);\n        if (_stake > 0)\n            token.transfer(_controller, _stake);\n    }\n\n    /// @notice Set new multisig wallet, to make it upgradable.\n    function setNewMultisig(address _wallet) public onlyMultiSig {\n        require(_wallet != address(0));\n\n        multiSigWallet = _wallet;\n    }\n\n\n    ////////////////\n    // When PAUSED\n    ////////////////\n\n    /// @notice set the token, if no hodler provided then creates a hodler reward contract\n    function setToken(address _token, address _hodler) public onlyOwner whenPaused {\n        require(_token != address(0));\n\n        token = ERC20MiniMe(_token);\n\n\n        if (_hodler != address(0)) {\n            // set hodler reward contract if provided\n            hodler = TravelkoinHodler(_hodler);\n        } else if (hodler == address(0)) {\n            // create hodler reward contract if not yet created\n            hodler = new TravelkoinHodler(TOKEN_HODL_3M, TOKEN_HODL_6M, TOKEN_HODL_9M);\n        }\n\n        // MINT tokens if not minted yet\n        if (token.totalSupply() == 0) {\n            // sale\n            token.generateTokens(SALE, TOKEN_SALE1_NORMAL.add(TOKEN_SALE2));\n            // hodler reward\n            token.generateTokens(address(hodler), TOKEN_HODL_3M.add(TOKEN_HODL_6M).add(TOKEN_HODL_9M));\n            // bounty + referral\n            token.generateTokens(owner, TOKEN_BOUNTY);\n            // community fund\n            token.generateTokens(address(multiSigWallet), TOKEN_COMMUNITY);\n            // team -> grantable\n            token.generateTokens(address(this), TOKEN_FOUNDERS.add(TOKEN_TEAM));\n            // investors\n            token.generateTokens(INVESTOR1, TOKEN_INVESTORS.div(3).mul(2));\n            token.generateTokens(INVESTOR2, TOKEN_INVESTORS.div(3));\n        }\n    }\n\n\n    ////////////////\n    // Proxy for TravelkoinHodler contract\n    ////////////////\n\n    /// @notice Proxy call for setting hodler start time\n    function setHodlerTime(uint256 _time) public onlyCrowdsale {\n        hodler.setHodlerTime(_time);\n    }\n\n    /// @notice Proxy call for adding hodler stake\n    function addHodlerStake(address _beneficiary, uint256 _stake) public onlyCrowdsale {\n        hodler.addHodlerStake(_beneficiary, _stake);\n    }\n\n    /// @notice Proxy call for setting hodler stake\n    function setHodlerStake(address _beneficiary, uint256 _stake) public onlyCrowdsale {\n        hodler.setHodlerStake(_beneficiary, _stake);\n    }\n\n\n    ////////////////\n    // MiniMe Controller functions\n    ////////////////\n\n    /// @notice No eth payment to the token contract\n    function proxyPayment(address _owner) payable public returns (bool) {\n        revert();\n    }\n\n    /// @notice Before transfers are enabled for everyone, only this and the crowdsale contract is allowed to distribute TKT\n    function onTransfer(address _from, address _to, uint256 _amount) public returns (bool) {\n        // moving any funds makes hodl participation invalid\n        hodler.invalidate(_from);\n\n        return !paused || _from == address(this) || _to == address(this) || _from == address(crowdsale) || _to == address(crowdsale);\n    }\n\n    function onApprove(address _owner, address _spender, uint256 _amount) public returns (bool) {\n        return !paused;\n    }\n\n    /// @notice Retrieve mistakenly sent tokens (other than the travelkoin token) from the token contract\n    function claimTokenTokens(address _token) public onlyOwner {\n        require(_token != address(token));\n\n        token.claimTokens(_token);\n    }\n}",
  "sourcePath": "/Users/crash/git/travelkoin/travelkoin-contracts/contracts/TravelkoinController.sol",
  "compiler": {
    "name": "solc",
    "version": "0.4.19+commit.c4cbbb05.Emscripten.clang"
  },
  "schemaVersion": "1.0.1",
  "updatedAt": "2018-02-13T11:16:19.578Z"
}