{
  "contractName": "TravelkoinCrowdsale",
  "abi": [
    {
      "constant": true,
      "inputs": [],
      "name": "hasClosed",
      "outputs": [
        {
          "name": "",
          "type": "bool"
        }
      ],
      "payable": false,
      "stateMutability": "view",
      "type": "function"
    },
    {
      "constant": true,
      "inputs": [
        {
          "name": "",
          "type": "address"
        }
      ],
      "name": "balances",
      "outputs": [
        {
          "name": "",
          "type": "uint256"
        }
      ],
      "payable": false,
      "stateMutability": "view",
      "type": "function"
    },
    {
      "constant": true,
      "inputs": [],
      "name": "rate",
      "outputs": [
        {
          "name": "",
          "type": "uint256"
        }
      ],
      "payable": false,
      "stateMutability": "view",
      "type": "function"
    },
    {
      "constant": true,
      "inputs": [],
      "name": "cap",
      "outputs": [
        {
          "name": "",
          "type": "uint256"
        }
      ],
      "payable": false,
      "stateMutability": "view",
      "type": "function"
    },
    {
      "constant": true,
      "inputs": [],
      "name": "weiRaised",
      "outputs": [
        {
          "name": "",
          "type": "uint256"
        }
      ],
      "payable": false,
      "stateMutability": "view",
      "type": "function"
    },
    {
      "constant": true,
      "inputs": [],
      "name": "closingTime",
      "outputs": [
        {
          "name": "",
          "type": "uint256"
        }
      ],
      "payable": false,
      "stateMutability": "view",
      "type": "function"
    },
    {
      "constant": true,
      "inputs": [],
      "name": "capReached",
      "outputs": [
        {
          "name": "",
          "type": "bool"
        }
      ],
      "payable": false,
      "stateMutability": "view",
      "type": "function"
    },
    {
      "constant": true,
      "inputs": [],
      "name": "wallet",
      "outputs": [
        {
          "name": "",
          "type": "address"
        }
      ],
      "payable": false,
      "stateMutability": "view",
      "type": "function"
    },
    {
      "constant": true,
      "inputs": [],
      "name": "dayOneMaxContribution",
      "outputs": [
        {
          "name": "",
          "type": "uint256"
        }
      ],
      "payable": false,
      "stateMutability": "view",
      "type": "function"
    },
    {
      "constant": false,
      "inputs": [
        {
          "name": "_beneficiary",
          "type": "address"
        }
      ],
      "name": "removeFromWhitelist",
      "outputs": [],
      "payable": false,
      "stateMutability": "nonpayable",
      "type": "function"
    },
    {
      "constant": false,
      "inputs": [
        {
          "name": "_beneficiaries",
          "type": "address[]"
        }
      ],
      "name": "addManyToWhitelist",
      "outputs": [],
      "payable": false,
      "stateMutability": "nonpayable",
      "type": "function"
    },
    {
      "constant": false,
      "inputs": [],
      "name": "withdrawTokens",
      "outputs": [],
      "payable": false,
      "stateMutability": "nonpayable",
      "type": "function"
    },
    {
      "constant": true,
      "inputs": [],
      "name": "owner",
      "outputs": [
        {
          "name": "",
          "type": "address"
        }
      ],
      "payable": false,
      "stateMutability": "view",
      "type": "function"
    },
    {
      "constant": true,
      "inputs": [
        {
          "name": "",
          "type": "address"
        }
      ],
      "name": "whitelist",
      "outputs": [
        {
          "name": "",
          "type": "bool"
        }
      ],
      "payable": false,
      "stateMutability": "view",
      "type": "function"
    },
    {
      "constant": true,
      "inputs": [],
      "name": "minContribution",
      "outputs": [
        {
          "name": "",
          "type": "uint256"
        }
      ],
      "payable": false,
      "stateMutability": "view",
      "type": "function"
    },
    {
      "constant": true,
      "inputs": [],
      "name": "openingTime",
      "outputs": [
        {
          "name": "",
          "type": "uint256"
        }
      ],
      "payable": false,
      "stateMutability": "view",
      "type": "function"
    },
    {
      "constant": false,
      "inputs": [
        {
          "name": "_beneficiary",
          "type": "address"
        }
      ],
      "name": "addToWhitelist",
      "outputs": [],
      "payable": false,
      "stateMutability": "nonpayable",
      "type": "function"
    },
    {
      "constant": false,
      "inputs": [
        {
          "name": "_beneficiary",
          "type": "address"
        }
      ],
      "name": "buyTokens",
      "outputs": [],
      "payable": true,
      "stateMutability": "payable",
      "type": "function"
    },
    {
      "constant": false,
      "inputs": [
        {
          "name": "newOwner",
          "type": "address"
        }
      ],
      "name": "transferOwnership",
      "outputs": [],
      "payable": false,
      "stateMutability": "nonpayable",
      "type": "function"
    },
    {
      "constant": true,
      "inputs": [],
      "name": "token",
      "outputs": [
        {
          "name": "",
          "type": "address"
        }
      ],
      "payable": false,
      "stateMutability": "view",
      "type": "function"
    },
    {
      "inputs": [
        {
          "name": "_startTime",
          "type": "uint256"
        },
        {
          "name": "_endTime",
          "type": "uint256"
        },
        {
          "name": "_minContribution",
          "type": "uint256"
        },
        {
          "name": "_dayOneMaxContribution",
          "type": "uint256"
        },
        {
          "name": "_rate",
          "type": "uint256"
        },
        {
          "name": "_cap",
          "type": "uint256"
        },
        {
          "name": "_wallet",
          "type": "address"
        },
        {
          "name": "_token",
          "type": "address"
        }
      ],
      "payable": false,
      "stateMutability": "nonpayable",
      "type": "constructor"
    },
    {
      "payable": true,
      "stateMutability": "payable",
      "type": "fallback"
    },
    {
      "anonymous": false,
      "inputs": [
        {
          "indexed": true,
          "name": "_beneficiary",
          "type": "address"
        },
        {
          "indexed": false,
          "name": "_amount",
          "type": "uint256"
        }
      ],
      "name": "InsufficientAmount",
      "type": "event"
    },
    {
      "anonymous": false,
      "inputs": [
        {
          "indexed": true,
          "name": "_beneficiary",
          "type": "address"
        },
        {
          "indexed": false,
          "name": "_amount",
          "type": "uint256"
        }
      ],
      "name": "ExceededAmount",
      "type": "event"
    },
    {
      "anonymous": false,
      "inputs": [
        {
          "indexed": true,
          "name": "previousOwner",
          "type": "address"
        },
        {
          "indexed": true,
          "name": "newOwner",
          "type": "address"
        }
      ],
      "name": "OwnershipTransferred",
      "type": "event"
    },
    {
      "anonymous": false,
      "inputs": [
        {
          "indexed": true,
          "name": "purchaser",
          "type": "address"
        },
        {
          "indexed": true,
          "name": "beneficiary",
          "type": "address"
        },
        {
          "indexed": false,
          "name": "value",
          "type": "uint256"
        },
        {
          "indexed": false,
          "name": "amount",
          "type": "uint256"
        }
      ],
      "name": "TokenPurchase",
      "type": "event"
    },
    {
      "constant": true,
      "inputs": [],
      "name": "howMuchCanIContributeNow",
      "outputs": [
        {
          "name": "",
          "type": "uint256"
        }
      ],
      "payable": false,
      "stateMutability": "view",
      "type": "function"
    },
    {
      "constant": true,
      "inputs": [],
      "name": "getSaleDayNow",
      "outputs": [
        {
          "name": "",
          "type": "uint8"
        }
      ],
      "payable": false,
      "stateMutability": "view",
      "type": "function"
    }
  ],
  "bytecode": "0x606060405267016345785d8a0000600a55670de0b6b3a7640000600b55341561002757600080fd5b60405161010080610c6a8339810160405280805191906020018051919060200180519190602001805191906020018051919060200180519190602001805191906020018051915083905088888685856000831161008357600080fd5b600160a060020a038216151561009857600080fd5b600160a060020a03811615156100ad57600080fd5b60029290925560018054600160a060020a0319908116600160a060020a0393841617909155600080548216938316939093179092556004805490921633909116179055428210156100fd57600080fd5b8181101561010a57600080fd5b6006919091556007556000811161012057600080fd5b600955505050600a92909255600b55505050610b29806101416000396000f3006060604052600436106101275763ffffffff7c01000000000000000000000000000000000000000000000000000000006000350416631515bc2b811461013257806327e235e3146101595780632c4e722e1461018a578063355274ea1461019d5780634042b66f146101b05780634b6753bc146101c35780634f935945146101d6578063521eb273146101e957806356afd6e3146102185780636f2264d41461022b5780638ab1d6811461023e5780638c10671c1461025d5780638d8f2adb1461027b5780638da5cb5b1461028e5780639b19251a146102a1578063a7a957ff146102c0578063aaffadf3146102e9578063b7a8807c146102fc578063e43252d71461030f578063ec8ac4d81461032e578063f2fde38b14610342578063fc0c546a14610361575b61013033610374565b005b341561013d57600080fd5b61014561041c565b604051901515815260200160405180910390f35b341561016457600080fd5b610178600160a060020a0360043516610424565b60405190815260200160405180910390f35b341561019557600080fd5b610178610436565b34156101a857600080fd5b61017861043c565b34156101bb57600080fd5b610178610442565b34156101ce57600080fd5b610178610448565b34156101e157600080fd5b61014561044e565b34156101f457600080fd5b6101fc610459565b604051600160a060020a03909116815260200160405180910390f35b341561022357600080fd5b610178610468565b341561023657600080fd5b6101786104a2565b341561024957600080fd5b610130600160a060020a03600435166104a8565b341561026857600080fd5b61013060048035602481019101356104e4565b341561028657600080fd5b610130610559565b341561029957600080fd5b6101fc6105bb565b34156102ac57600080fd5b610145600160a060020a03600435166105ca565b34156102cb57600080fd5b6102d36105df565b60405160ff909116815260200160405180910390f35b34156102f457600080fd5b6101786105ef565b341561030757600080fd5b6101786105f5565b341561031a57600080fd5b610130600160a060020a03600435166105fb565b610130600160a060020a0360043516610374565b341561034d57600080fd5b610130600160a060020a036004351661063a565b341561036c57600080fd5b6101fc6106d5565b34600061038183836106e4565b61038a826107b4565b6003549091506103a0908363ffffffff6107d116565b6003556103ad83826107eb565b82600160a060020a031633600160a060020a03167f623b3804fa71d67900d064613da8f94b9617215ee90799290593e1745087ad18848460405191825260208201526040908101905180910390a36104058383610834565b61040d610838565b6104178383610834565b505050565b600754421190565b60086020526000908152604090205481565b60025481565b60095481565b60035481565b60075481565b600954600354101590565b600154600160a060020a031681565b33600160a060020a03811660009081526005602052604081205490919060ff16151561049357600080fd5b61049c3361086e565b91505090565b600b5481565b60045433600160a060020a039081169116146104c357600080fd5b600160a060020a03166000908152600560205260409020805460ff19169055565b60045460009033600160a060020a0390811691161461050257600080fd5b5060005b818110156104175760016005600085858581811061052057fe5b60209081029290920135600160a060020a0316835250810191909152604001600020805460ff1916911515919091179055600101610506565b600061056361041c565b151561056e57600080fd5b50600160a060020a03331660009081526008602052604081205490811161059457600080fd5b33600160a060020a0381166000908152600860205260408120556105b8908261091e565b50565b600454600160a060020a031681565b60056020526000908152604090205460ff1681565b60006105ea426109b8565b905090565b600a5481565b60065481565b60045433600160a060020a0390811691161461061657600080fd5b600160a060020a03166000908152600560205260409020805460ff19166001179055565b60045433600160a060020a0390811691161461065557600080fd5b600160a060020a038116151561066a57600080fd5b600454600160a060020a0380831691167f8be0079c531659141344cd1fd0a4f28419497f9722a3daafe3b4186f6b6457e060405160405180910390a36004805473ffffffffffffffffffffffffffffffffffffffff1916600160a060020a0392909216919091179055565b600054600160a060020a031681565b8181600a5481101561072e5781600160a060020a03167fdce8ba41991be5c19d38b7de7f9fbcb004ee89536c92c1a3c642e7a8fdfea8808260405190815260200160405180910390a25b600a5481101561073d57600080fd5b83836107488261086e565b81111561078d5781600160a060020a03167f2295db571c8530cc038e78ad2066423749fe0518fe18624eafaee812b91890478260405190815260200160405180910390a25b6107968261086e565b8111156107a257600080fd5b6107ac86866109f3565b505050505050565b60006107cb60025483610a1e90919063ffffffff16565b92915050565b6000828201838110156107e057fe5b8091505b5092915050565b600160a060020a038216600090815260086020526040902054610814908263ffffffff6107d116565b600160a060020a0390921660009081526008602052604090209190915550565b5050565b600154600160a060020a03163480156108fc0290604051600060405180830381858888f19350505050151561086c57600080fd5b565b600080600080600061088d600354600954610a4990919063ffffffff16565b9350610898426109b8565b92508260ff166001141561091457600160a060020a038616600090815260086020526040812054111561090557600254600160a060020a0387166000908152600860205260409020548115156108ea57fe5b04915081600b540390506108fe8482610a5b565b9350610914565b61091184600b54610a5b565b93505b5091949350505050565b60008054600160a060020a03169063a9059cbb9084908490604051602001526040517c010000000000000000000000000000000000000000000000000000000063ffffffff8516028152600160a060020a0390921660048301526024820152604401602060405180830381600087803b151561099957600080fd5b6102c65a03f115156109aa57600080fd5b505050604051805150505050565b60006107cb60016109e7620151806109db60065487610a4990919063ffffffff16565b9063ffffffff610a7316565b9063ffffffff6107d116565b6109fd8282610a8a565b600954600354610a13908363ffffffff6107d116565b111561083457600080fd5b600080831515610a3157600091506107e4565b50828202828482811515610a4157fe5b04146107e057fe5b600082821115610a5557fe5b50900390565b6000818311610a6a5782610a6c565b815b9392505050565b6000808284811515610a8157fe5b04949350505050565b6006544210158015610a9e57506007544211155b1515610aa957600080fd5b6108348282600160a060020a038216600090815260056020526040902054829060ff161515610ad757600080fd5b6104178383600160a060020a0382161515610af157600080fd5b80151561083457600080fd00a165627a7a72305820d0f7f228e2f9a531b402112cf5f0f5977f5f71809f4a7dad1ea2806e69a5c85a0029",
  "source": "pragma solidity ^0.4.18;\n\nimport \"zeppelin-solidity/contracts/crowdsale/distribution/PostDeliveryCrowdsale.sol\";\nimport \"zeppelin-solidity/contracts/crowdsale/validation/WhitelistedCrowdsale.sol\";\nimport \"zeppelin-solidity/contracts/crowdsale/validation/CappedCrowdsale.sol\";\nimport \"./TravelkoinToken.sol\";\n\n\n/**\n * @title TravelkoinCrowdsale\n * @author Bjorn Harvold\n * @notice Travelkoin Token Sale round one normal sale contract with hard cap\n */\ncontract TravelkoinCrowdsale is WhitelistedCrowdsale, PostDeliveryCrowdsale, CappedCrowdsale {\n    using SafeMath for uint256;\n\n    // minimum contribution, 0.1ETH\n    uint256 public minContribution = 0.1 ether;\n    uint256 public dayOneMaxContribution = 1 ether;\n\n    event InsufficientAmount(address indexed _beneficiary, uint256 _amount);\n    event ExceededAmount(address indexed _beneficiary, uint256 _amount);\n\n    // makes sure the user is only sending the amount allowed for any given day\n    modifier minContributionOk(address _beneficiary, uint256 _weiAmount) {\n        if (_weiAmount < minContribution) {\n            InsufficientAmount(_beneficiary, _weiAmount);\n        }\n        require(_weiAmount >= minContribution);\n        _;\n    }\n\n    // makes sure the user is only sending the amount allowed for any given day\n    modifier amountOk(address _beneficiary, uint256 _weiAmount) {\n        if (_weiAmount > _howMuchCanXContributeNow(_beneficiary)) {\n            ExceededAmount(_beneficiary, _weiAmount);\n        }\n        require(_weiAmount <= _howMuchCanXContributeNow(_beneficiary));\n        _;\n    }\n\n    ////////////////\n    // Constructor and inherited function overrides\n    ////////////////\n\n    /// @notice Constructor to create TravelkoinNormalSale contract\n    /// @param _startTime The start time of token sale in seconds.\n    /// @param _endTime The end time of token sale in seconds.\n    /// @param _minContribution The minimum contribution per transaction in wei (0.1 ETH)\n    /// @param _dayOneMaxContribution The minimum contribution per transaction in wei (0.1 ETH)\n    /// @param _rate Number of TKT tokens per 1 ETH\n    /// @param _cap Maximum cap in wei, we can't raise more funds\n    /// @param _wallet Address of owner wallet\n    /// @param _token Our ERC20 token\n    function TravelkoinCrowdsale(\n        uint256 _startTime,\n        uint256 _endTime,\n        uint256 _minContribution,\n        uint256 _dayOneMaxContribution,\n        uint256 _rate,\n        uint256 _cap,\n        address _wallet,\n        TravelkoinToken _token\n    )\n    Crowdsale(_rate, _wallet, _token)\n    CappedCrowdsale(_cap)\n    TimedCrowdsale(_startTime, _endTime)\n    public\n    {\n        minContribution = _minContribution;\n        dayOneMaxContribution = _dayOneMaxContribution;\n    }\n\n    /// @notice How many wei can the msg.sender contribute now.\n    function howMuchCanIContributeNow() view public isWhitelisted(msg.sender) returns (uint256) {\n        return _howMuchCanXContributeNow(msg.sender);\n    }\n\n    /// @notice How many 24 hour blocks have elapsed since token sale start\n    /// @return Number of 24 hour blocks elapsed since token sale start starting from 1\n    function getSaleDayNow() view public returns (uint8) {\n        return _getSaleDay(now);\n    }\n\n    /// @notice How many wei can an Ethereum address contribute now.\n    /// @param _beneficiary Ethereum address\n    /// @return Number of wei the _beneficiary can contribute now.\n    function _howMuchCanXContributeNow(address _beneficiary) view internal returns (uint256) {\n        // wei to hard cap\n        uint256 weiToCap = cap.sub(weiRaised);\n\n        uint8 _saleDay = _getSaleDay(now);\n        // limit to 1 ETH for the first day\n        if (_saleDay == 1) {\n\n            if (balances[_beneficiary] > 0) {\n                // personal cap is the daily whitelist limit minus the stakes the address already has\n                uint256 tokenAmount = balances[_beneficiary] / rate;\n                uint256 weiToPersonalCap = dayOneMaxContribution - tokenAmount;\n                weiToCap = uint256Min(weiToCap, weiToPersonalCap);\n            } else {\n                weiToCap = uint256Min(weiToCap, dayOneMaxContribution);\n            }\n        }\n\n        return weiToCap;\n    }\n\n    /// @notice For a give date how many 24 hour blocks have elapsed since token sale start\n    /// @dev _time has to be bigger than the startTime of token sale, otherwise SafeMath's div will throw.\n    ///  Within 24 hours of token sale it will return 1, \n    ///  between 24 and 48 hours it will return 2, etc.\n    /// @param _time Date in seconds for which we want to know which sale day it is\n    /// @return Number of 24 hour blocks elapsing since token sale start starting from 1\n    function _getSaleDay(uint256 _time) view internal returns (uint8) {\n        return uint8(_time.sub(openingTime).div(60 * 60 * 24).add(1));\n    }\n\n    /// @notice Minimum between two uint256 numbers\n    function uint256Min(uint256 a, uint256 b) pure internal returns (uint256) {\n        return a > b ? b : a;\n    }\n\n    /**\n   * @dev Override from Crowdsale to make sure the user sends the correct amount\n   * @param _beneficiary Token beneficiary\n   * @param _weiAmount Amount of wei contributed\n   */\n    function _preValidatePurchase(address _beneficiary, uint256 _weiAmount) internal minContributionOk(_beneficiary, _weiAmount) amountOk(_beneficiary, _weiAmount) {\n        super._preValidatePurchase(_beneficiary, _weiAmount);\n    }\n}",
  "sourcePath": "/Users/crash/git/travelkoin/travelkoin-contracts/contracts/TravelkoinCrowdsale.sol",
  "compiler": {
    "name": "solc",
    "version": "0.4.19+commit.c4cbbb05.Emscripten.clang"
  },
  "schemaVersion": "2.0.0",
  "updatedAt": "2018-03-02T04:15:20.203Z"
}