{
  "contractName": "TravelkoinPreSale",
  "abi": [
    {
      "constant": true,
      "inputs": [],
      "name": "softCapTime",
      "outputs": [
        {
          "name": "",
          "type": "uint256"
        }
      ],
      "payable": false,
      "stateMutability": "view",
      "type": "function"
    },
    {
      "constant": true,
      "inputs": [
        {
          "name": "",
          "type": "address"
        }
      ],
      "name": "stakes",
      "outputs": [
        {
          "name": "",
          "type": "uint256"
        }
      ],
      "payable": false,
      "stateMutability": "view",
      "type": "function"
    },
    {
      "constant": true,
      "inputs": [],
      "name": "travelkoinController",
      "outputs": [
        {
          "name": "",
          "type": "address"
        }
      ],
      "payable": false,
      "stateMutability": "view",
      "type": "function"
    },
    {
      "constant": true,
      "inputs": [],
      "name": "maxGasPricePenalty",
      "outputs": [
        {
          "name": "",
          "type": "uint256"
        }
      ],
      "payable": false,
      "stateMutability": "view",
      "type": "function"
    },
    {
      "constant": true,
      "inputs": [],
      "name": "getTravelkoinBalance",
      "outputs": [
        {
          "name": "",
          "type": "uint256"
        }
      ],
      "payable": false,
      "stateMutability": "view",
      "type": "function"
    },
    {
      "constant": false,
      "inputs": [
        {
          "name": "_startTime",
          "type": "uint256"
        },
        {
          "name": "_endTime",
          "type": "uint256"
        }
      ],
      "name": "setTimes",
      "outputs": [],
      "payable": false,
      "stateMutability": "nonpayable",
      "type": "function"
    },
    {
      "constant": true,
      "inputs": [],
      "name": "rate",
      "outputs": [
        {
          "name": "",
          "type": "uint256"
        }
      ],
      "payable": false,
      "stateMutability": "view",
      "type": "function"
    },
    {
      "constant": false,
      "inputs": [
        {
          "name": "_add",
          "type": "address[]"
        },
        {
          "name": "_remove",
          "type": "address[]"
        },
        {
          "name": "_whitelistLimits",
          "type": "uint256[]"
        }
      ],
      "name": "setWhitelist",
      "outputs": [],
      "payable": false,
      "stateMutability": "nonpayable",
      "type": "function"
    },
    {
      "constant": true,
      "inputs": [],
      "name": "endTime",
      "outputs": [
        {
          "name": "",
          "type": "uint256"
        }
      ],
      "payable": false,
      "stateMutability": "view",
      "type": "function"
    },
    {
      "constant": true,
      "inputs": [
        {
          "name": "_pending",
          "type": "bool"
        },
        {
          "name": "_claimed",
          "type": "bool"
        }
      ],
      "name": "getContributors",
      "outputs": [
        {
          "name": "contributors",
          "type": "address[]"
        }
      ],
      "payable": false,
      "stateMutability": "view",
      "type": "function"
    },
    {
      "constant": false,
      "inputs": [
        {
          "name": "_rate",
          "type": "uint256"
        }
      ],
      "name": "setRate",
      "outputs": [],
      "payable": false,
      "stateMutability": "nonpayable",
      "type": "function"
    },
    {
      "constant": true,
      "inputs": [],
      "name": "cap",
      "outputs": [
        {
          "name": "",
          "type": "uint256"
        }
      ],
      "payable": false,
      "stateMutability": "view",
      "type": "function"
    },
    {
      "constant": true,
      "inputs": [],
      "name": "maxGasPrice",
      "outputs": [
        {
          "name": "",
          "type": "uint256"
        }
      ],
      "payable": false,
      "stateMutability": "view",
      "type": "function"
    },
    {
      "constant": false,
      "inputs": [],
      "name": "unpause",
      "outputs": [],
      "payable": false,
      "stateMutability": "nonpayable",
      "type": "function"
    },
    {
      "constant": true,
      "inputs": [],
      "name": "goal",
      "outputs": [
        {
          "name": "",
          "type": "uint256"
        }
      ],
      "payable": false,
      "stateMutability": "view",
      "type": "function"
    },
    {
      "constant": true,
      "inputs": [],
      "name": "weiRaised",
      "outputs": [
        {
          "name": "",
          "type": "uint256"
        }
      ],
      "payable": false,
      "stateMutability": "view",
      "type": "function"
    },
    {
      "constant": false,
      "inputs": [],
      "name": "claimToken",
      "outputs": [],
      "payable": false,
      "stateMutability": "nonpayable",
      "type": "function"
    },
    {
      "constant": true,
      "inputs": [],
      "name": "hasStarted",
      "outputs": [
        {
          "name": "",
          "type": "bool"
        }
      ],
      "payable": false,
      "stateMutability": "view",
      "type": "function"
    },
    {
      "constant": true,
      "inputs": [
        {
          "name": "",
          "type": "uint256"
        }
      ],
      "name": "contributorsKeys",
      "outputs": [
        {
          "name": "",
          "type": "address"
        }
      ],
      "payable": false,
      "stateMutability": "view",
      "type": "function"
    },
    {
      "constant": false,
      "inputs": [
        {
          "name": "_minContribution",
          "type": "uint256"
        }
      ],
      "name": "setMinContribution",
      "outputs": [],
      "payable": false,
      "stateMutability": "nonpayable",
      "type": "function"
    },
    {
      "constant": false,
      "inputs": [],
      "name": "finalize",
      "outputs": [],
      "payable": false,
      "stateMutability": "nonpayable",
      "type": "function"
    },
    {
      "constant": true,
      "inputs": [],
      "name": "tokenSold",
      "outputs": [
        {
          "name": "",
          "type": "uint256"
        }
      ],
      "payable": false,
      "stateMutability": "view",
      "type": "function"
    },
    {
      "constant": true,
      "inputs": [],
      "name": "wallet",
      "outputs": [
        {
          "name": "",
          "type": "address"
        }
      ],
      "payable": false,
      "stateMutability": "view",
      "type": "function"
    },
    {
      "constant": false,
      "inputs": [],
      "name": "howMuchCanIContributeNow",
      "outputs": [
        {
          "name": "",
          "type": "uint256"
        }
      ],
      "payable": true,
      "stateMutability": "payable",
      "type": "function"
    },
    {
      "constant": true,
      "inputs": [],
      "name": "paused",
      "outputs": [
        {
          "name": "",
          "type": "bool"
        }
      ],
      "payable": false,
      "stateMutability": "view",
      "type": "function"
    },
    {
      "constant": true,
      "inputs": [],
      "name": "startTime",
      "outputs": [
        {
          "name": "",
          "type": "uint256"
        }
      ],
      "payable": false,
      "stateMutability": "view",
      "type": "function"
    },
    {
      "constant": true,
      "inputs": [],
      "name": "goalReached",
      "outputs": [
        {
          "name": "",
          "type": "bool"
        }
      ],
      "payable": false,
      "stateMutability": "view",
      "type": "function"
    },
    {
      "constant": false,
      "inputs": [
        {
          "name": "_beneficiaries",
          "type": "address[]"
        }
      ],
      "name": "claimRefundsFor",
      "outputs": [],
      "payable": false,
      "stateMutability": "nonpayable",
      "type": "function"
    },
    {
      "constant": false,
      "inputs": [
        {
          "name": "_goal",
          "type": "uint256"
        },
        {
          "name": "_softCap",
          "type": "uint256"
        },
        {
          "name": "_softCapTime",
          "type": "uint256"
        },
        {
          "name": "_cap",
          "type": "uint256"
        }
      ],
      "name": "setCaps",
      "outputs": [],
      "payable": false,
      "stateMutability": "nonpayable",
      "type": "function"
    },
    {
      "constant": false,
      "inputs": [],
      "name": "pause",
      "outputs": [],
      "payable": false,
      "stateMutability": "nonpayable",
      "type": "function"
    },
    {
      "constant": false,
      "inputs": [
        {
          "name": "_beneficiaries",
          "type": "address[]"
        }
      ],
      "name": "claimTokensFor",
      "outputs": [],
      "payable": false,
      "stateMutability": "nonpayable",
      "type": "function"
    },
    {
      "constant": true,
      "inputs": [],
      "name": "whitelistDayCount",
      "outputs": [
        {
          "name": "",
          "type": "uint8"
        }
      ],
      "payable": false,
      "stateMutability": "view",
      "type": "function"
    },
    {
      "constant": true,
      "inputs": [],
      "name": "isFinalized",
      "outputs": [
        {
          "name": "",
          "type": "bool"
        }
      ],
      "payable": false,
      "stateMutability": "view",
      "type": "function"
    },
    {
      "constant": true,
      "inputs": [],
      "name": "owner",
      "outputs": [
        {
          "name": "",
          "type": "address"
        }
      ],
      "payable": false,
      "stateMutability": "view",
      "type": "function"
    },
    {
      "constant": true,
      "inputs": [],
      "name": "softCap",
      "outputs": [
        {
          "name": "",
          "type": "uint256"
        }
      ],
      "payable": false,
      "stateMutability": "view",
      "type": "function"
    },
    {
      "constant": true,
      "inputs": [],
      "name": "wasSuccess",
      "outputs": [
        {
          "name": "",
          "type": "bool"
        }
      ],
      "payable": false,
      "stateMutability": "view",
      "type": "function"
    },
    {
      "constant": true,
      "inputs": [
        {
          "name": "",
          "type": "address"
        }
      ],
      "name": "whitelist",
      "outputs": [
        {
          "name": "",
          "type": "bool"
        }
      ],
      "payable": false,
      "stateMutability": "view",
      "type": "function"
    },
    {
      "constant": true,
      "inputs": [],
      "name": "tokenBalance",
      "outputs": [
        {
          "name": "",
          "type": "uint256"
        }
      ],
      "payable": false,
      "stateMutability": "view",
      "type": "function"
    },
    {
      "constant": false,
      "inputs": [
        {
          "name": "_beneficiary",
          "type": "address"
        }
      ],
      "name": "claimRefundFor",
      "outputs": [],
      "payable": false,
      "stateMutability": "nonpayable",
      "type": "function"
    },
    {
      "constant": true,
      "inputs": [],
      "name": "getSaleDayNow",
      "outputs": [
        {
          "name": "",
          "type": "uint8"
        }
      ],
      "payable": false,
      "stateMutability": "view",
      "type": "function"
    },
    {
      "constant": true,
      "inputs": [],
      "name": "minContribution",
      "outputs": [
        {
          "name": "",
          "type": "uint256"
        }
      ],
      "payable": false,
      "stateMutability": "view",
      "type": "function"
    },
    {
      "constant": true,
      "inputs": [],
      "name": "softCapClose",
      "outputs": [
        {
          "name": "",
          "type": "uint256"
        }
      ],
      "payable": false,
      "stateMutability": "view",
      "type": "function"
    },
    {
      "constant": false,
      "inputs": [],
      "name": "claimRefund",
      "outputs": [],
      "payable": false,
      "stateMutability": "nonpayable",
      "type": "function"
    },
    {
      "constant": false,
      "inputs": [
        {
          "name": "_maxGas",
          "type": "uint256"
        },
        {
          "name": "_penalty",
          "type": "uint256"
        }
      ],
      "name": "setMaxGas",
      "outputs": [],
      "payable": false,
      "stateMutability": "nonpayable",
      "type": "function"
    },
    {
      "constant": false,
      "inputs": [
        {
          "name": "_beneficiary",
          "type": "address"
        }
      ],
      "name": "howMuchCanXContributeNow",
      "outputs": [
        {
          "name": "",
          "type": "uint256"
        }
      ],
      "payable": true,
      "stateMutability": "payable",
      "type": "function"
    },
    {
      "constant": true,
      "inputs": [
        {
          "name": "_time",
          "type": "uint256"
        }
      ],
      "name": "getSaleDay",
      "outputs": [
        {
          "name": "",
          "type": "uint8"
        }
      ],
      "payable": false,
      "stateMutability": "view",
      "type": "function"
    },
    {
      "constant": false,
      "inputs": [
        {
          "name": "_beneficiary",
          "type": "address"
        }
      ],
      "name": "claimTokenFor",
      "outputs": [],
      "payable": false,
      "stateMutability": "nonpayable",
      "type": "function"
    },
    {
      "constant": true,
      "inputs": [
        {
          "name": "",
          "type": "uint8"
        }
      ],
      "name": "whitelistDayMaxStake",
      "outputs": [
        {
          "name": "",
          "type": "uint256"
        }
      ],
      "payable": false,
      "stateMutability": "view",
      "type": "function"
    },
    {
      "constant": false,
      "inputs": [
        {
          "name": "_beneficiary",
          "type": "address"
        }
      ],
      "name": "buyTokens",
      "outputs": [],
      "payable": true,
      "stateMutability": "payable",
      "type": "function"
    },
    {
      "constant": true,
      "inputs": [],
      "name": "hasEnded",
      "outputs": [
        {
          "name": "",
          "type": "bool"
        }
      ],
      "payable": false,
      "stateMutability": "view",
      "type": "function"
    },
    {
      "constant": false,
      "inputs": [
        {
          "name": "newOwner",
          "type": "address"
        }
      ],
      "name": "transferOwnership",
      "outputs": [],
      "payable": false,
      "stateMutability": "nonpayable",
      "type": "function"
    },
    {
      "constant": false,
      "inputs": [
        {
          "name": "_token",
          "type": "address"
        },
        {
          "name": "_claimer",
          "type": "address"
        }
      ],
      "name": "extractVaultTokens",
      "outputs": [],
      "payable": false,
      "stateMutability": "nonpayable",
      "type": "function"
    },
    {
      "constant": true,
      "inputs": [],
      "name": "vault",
      "outputs": [
        {
          "name": "",
          "type": "address"
        }
      ],
      "payable": false,
      "stateMutability": "view",
      "type": "function"
    },
    {
      "constant": true,
      "inputs": [],
      "name": "token",
      "outputs": [
        {
          "name": "",
          "type": "address"
        }
      ],
      "payable": false,
      "stateMutability": "view",
      "type": "function"
    },
    {
      "constant": true,
      "inputs": [],
      "name": "getContributorsCount",
      "outputs": [
        {
          "name": "",
          "type": "uint256"
        }
      ],
      "payable": false,
      "stateMutability": "view",
      "type": "function"
    },
    {
      "inputs": [
        {
          "name": "_travelkoinController",
          "type": "address"
        },
        {
          "name": "_startTime",
          "type": "uint256"
        },
        {
          "name": "_endTime",
          "type": "uint256"
        },
        {
          "name": "_minContribution",
          "type": "uint256"
        },
        {
          "name": "_rate",
          "type": "uint256"
        },
        {
          "name": "_goal",
          "type": "uint256"
        },
        {
          "name": "_softCap",
          "type": "uint256"
        },
        {
          "name": "_softCapTime",
          "type": "uint256"
        },
        {
          "name": "_cap",
          "type": "uint256"
        },
        {
          "name": "_gasPrice",
          "type": "uint256"
        },
        {
          "name": "_gasPenalty",
          "type": "uint256"
        },
        {
          "name": "_wallet",
          "type": "address"
        }
      ],
      "payable": false,
      "stateMutability": "nonpayable",
      "type": "constructor"
    },
    {
      "payable": true,
      "stateMutability": "payable",
      "type": "fallback"
    },
    {
      "anonymous": false,
      "inputs": [
        {
          "indexed": true,
          "name": "_claimer",
          "type": "address"
        },
        {
          "indexed": true,
          "name": "_beneficiary",
          "type": "address"
        },
        {
          "indexed": false,
          "name": "_stake",
          "type": "uint256"
        },
        {
          "indexed": false,
          "name": "_amount",
          "type": "uint256"
        }
      ],
      "name": "TokenClaimed",
      "type": "event"
    },
    {
      "anonymous": false,
      "inputs": [
        {
          "indexed": true,
          "name": "_purchaser",
          "type": "address"
        },
        {
          "indexed": true,
          "name": "_beneficiary",
          "type": "address"
        },
        {
          "indexed": false,
          "name": "_value",
          "type": "uint256"
        },
        {
          "indexed": false,
          "name": "_stake",
          "type": "uint256"
        },
        {
          "indexed": false,
          "name": "_amount",
          "type": "uint256"
        },
        {
          "indexed": false,
          "name": "_participants",
          "type": "uint256"
        },
        {
          "indexed": false,
          "name": "_weiRaised",
          "type": "uint256"
        }
      ],
      "name": "TokenPurchase",
      "type": "event"
    },
    {
      "anonymous": false,
      "inputs": [],
      "name": "TokenGoalReached",
      "type": "event"
    },
    {
      "anonymous": false,
      "inputs": [
        {
          "indexed": false,
          "name": "_closeTime",
          "type": "uint256"
        }
      ],
      "name": "TokenSoftCapReached",
      "type": "event"
    },
    {
      "anonymous": false,
      "inputs": [
        {
          "indexed": true,
          "name": "_whitelister",
          "type": "address"
        },
        {
          "indexed": true,
          "name": "_beneficiary",
          "type": "address"
        }
      ],
      "name": "WhitelistAddressAdded",
      "type": "event"
    },
    {
      "anonymous": false,
      "inputs": [
        {
          "indexed": true,
          "name": "_whitelister",
          "type": "address"
        },
        {
          "indexed": true,
          "name": "_beneficiary",
          "type": "address"
        }
      ],
      "name": "WhitelistAddressRemoved",
      "type": "event"
    },
    {
      "anonymous": false,
      "inputs": [
        {
          "indexed": true,
          "name": "_whitelister",
          "type": "address"
        },
        {
          "indexed": false,
          "name": "_day",
          "type": "uint8"
        },
        {
          "indexed": false,
          "name": "_maxStake",
          "type": "uint256"
        }
      ],
      "name": "WhitelistSetDay",
      "type": "event"
    },
    {
      "anonymous": false,
      "inputs": [],
      "name": "Finalized",
      "type": "event"
    },
    {
      "anonymous": false,
      "inputs": [],
      "name": "Pause",
      "type": "event"
    },
    {
      "anonymous": false,
      "inputs": [],
      "name": "Unpause",
      "type": "event"
    },
    {
      "anonymous": false,
      "inputs": [
        {
          "indexed": true,
          "name": "previousOwner",
          "type": "address"
        },
        {
          "indexed": true,
          "name": "newOwner",
          "type": "address"
        }
      ],
      "name": "OwnershipTransferred",
      "type": "event"
    },
    {
      "anonymous": false,
      "inputs": [
        {
          "indexed": true,
          "name": "purchaser",
          "type": "address"
        },
        {
          "indexed": true,
          "name": "beneficiary",
          "type": "address"
        },
        {
          "indexed": false,
          "name": "value",
          "type": "uint256"
        },
        {
          "indexed": false,
          "name": "amount",
          "type": "uint256"
        }
      ],
      "name": "TokenPurchase",
      "type": "event"
    }
  ],
  "bytecode": "0x60606040526006805460a060020a60ff02191690556008805460ff191690556104e2600c5568120d4da7b0bd140000600d5568c328093e61ee400000600e5562069780600f5569018650127cc3dc80000060115564174876e800601455605060155567016345785d8a000060165534156200007957600080fd5b6040516101808062002f0e8339810160405280805191906020018051919060200180519190602001805191906020018051919060200180519190602001805191906020018051919060200180519190602001805191906020018051919060200180519150879050848c8c8b8542841015620000f357600080fd5b838310156200010157600080fd5b600082116200010f57600080fd5b600160a060020a03811615156200012557600080fd5b60019390935560029190915560045560038054600160a060020a0319908116600160a060020a03938416179091556006805490911633909216919091179055600081116200017257600080fd5b600755600081116200018357600080fd5b600354600160a060020a03166200019962000257565b600160a060020a039091168152602001604051809103906000f0801515620001c057600080fd5b600a8054600160a060020a031916600160a060020a039283161790556009919091558c161515620001f057600080fd5b600b8054600160a060020a031916600160a060020a038e161790558587118015906200021c5750838611155b15156200022857600080fd5b50600e94909455600f92909255601155600d92909255600c929092556014556015556016555062000268915050565b6040516107d0806200273e83390190565b6124c680620002786000396000f3006060604052600436106102795763ffffffff60e060020a60003504166314cf12d5811461028457806316934fc4146102a95780631a6fbf7c146102c85780631f3dcc8d146102f757806321c8f5e01461030a578063224348361461031d5780632c4e722e146103365780632e1e786d146103495780633197cbb614610418578063332e1a811461042b57806334fcf4371461049b578063355274ea146104b15780633de39c11146104c45780633f4ba83a146104d757806340193883146104ea5780634042b66f146104fd5780634451d89f1461051057806344691f7e1461052357806344a2d0d21461054a578063473b0d46146105605780634bb278f314610576578063519ee19e14610589578063521eb2731461059c57806356afd6e3146105af5780635c975abb146105b757806378e97925146105ca5780637d3d6522146105dd5780638028ce6b146105f0578063828724911461060e5780638456cb591461062d57806384a1f5a5146106405780638ac97efb1461065e5780638d4e4083146106875780638da5cb5b1461069a578063906a26e0146106ad5780639615ecb2146106c05780639b19251a146106d35780639e1a4d19146106f2578063a5beb4e514610705578063a7a957ff14610724578063aaffadf314610737578063ad1be7c11461074a578063b5545a3c1461075d578063b7c4b77514610770578063bdcbd9d114610789578063c7efa6891461079d578063c83261bd146107b3578063da5e9c62146107d2578063ec8ac4d8146107eb578063ecb70fb7146107ff578063f2fde38b14610812578063fb222d4814610831578063fbfa77cf14610856578063fc0c546a14610869578063feed55611461087c575b6102823361088f565b005b341561028f57600080fd5b610297610a00565b60405190815260200160405180910390f35b34156102b457600080fd5b610297600160a060020a0360043516610a06565b34156102d357600080fd5b6102db610a18565b604051600160a060020a03909116815260200160405180910390f35b341561030257600080fd5b610297610a27565b341561031557600080fd5b610297610a2d565b341561032857600080fd5b610282600435602435610b08565b341561034157600080fd5b610297610b59565b341561035457600080fd5b61028260046024813581810190830135806020818102016040519081016040528093929190818152602001838360200280828437820191505050505050919080359060200190820180359060200190808060200260200160405190810160405280939291908181526020018383602002808284378201915050505050509190803590602001908201803590602001908080602002602001604051908101604052809392919081815260200183836020028082843750949650610b5f95505050505050565b341561042357600080fd5b610297610ed5565b341561043657600080fd5b61044860043515156024351515610edb565b60405160208082528190810183818151815260200191508051906020019060200280838360005b8381101561048757808201518382015260200161046f565b505050509050019250505060405180910390f35b34156104a657600080fd5b610282600435611255565b34156104bc57600080fd5b610297611294565b34156104cf57600080fd5b61029761129a565b34156104e257600080fd5b6102826112a0565b34156104f557600080fd5b61029761131f565b341561050857600080fd5b610297611325565b341561051b57600080fd5b61028261132b565b341561052e57600080fd5b610536611357565b604051901515815260200160405180910390f35b341561055557600080fd5b6102db600435611360565b341561056b57600080fd5b610282600435611388565b341561058157600080fd5b6102826113ba565b341561059457600080fd5b61029761143b565b34156105a757600080fd5b6102db611441565b610297611450565b34156105c257600080fd5b610536611460565b34156105d557600080fd5b610297611470565b34156105e857600080fd5b610536611476565b34156105fb57600080fd5b6102826004803560248101910135611481565b341561061957600080fd5b6102826004356024356044356064356114e2565b341561063857600080fd5b61028261154a565b341561064b57600080fd5b61028260048035602481019101356115ce565b341561066957600080fd5b610671611629565b60405160ff909116815260200160405180910390f35b341561069257600080fd5b610536611632565b34156106a557600080fd5b6102db61163b565b34156106b857600080fd5b61029761164a565b34156106cb57600080fd5b610536611650565b34156106de57600080fd5b610536600160a060020a0360043516611669565b34156106fd57600080fd5b61029761167e565b341561071057600080fd5b610282600160a060020a0360043516611684565b341561072f57600080fd5b610671611733565b341561074257600080fd5b61029761173e565b341561075557600080fd5b610297611744565b341561076857600080fd5b61028261174a565b341561077b57600080fd5b610282600435602435611753565b610297600160a060020a036004351661178b565b34156107a857600080fd5b6106716004356118c7565b34156107be57600080fd5b610282600160a060020a03600435166118fc565b34156107dd57600080fd5b61029760ff60043516611b46565b610282600160a060020a036004351661088f565b341561080a57600080fd5b610536611b58565b341561081d57600080fd5b610282600160a060020a0360043516611b7e565b341561083c57600080fd5b610282600160a060020a0360043581169060243516611c19565b341561086157600080fd5b6102db611cc3565b341561087457600080fd5b6102db611cd2565b341561088757600080fd5b610297611ce1565b6006546000908190819060a060020a900460ff16156108ad57600080fd5b600160a060020a03841615156108c257600080fd5b6108cb8461178b565b92506108d78334611ce7565b9150600d546005541080156109005750600d546005546108fd908463ffffffff611cff16565b10155b15610932577fe0e4731a8ffe9ddd276cd8aa5302d916423f039ee8ff945adda9e5e13bbe8f1360405160405180910390a15b61093c8483611d19565b600e54600554101580156109505750601054155b156109ae57600f5461096990429063ffffffff611cff16565b60108190556002547f8061a159b48a33a206e3cc24cce73cc3a0f5004baf555a87beb12402203bc18c9161099c91611ce7565b60405190815260200160405180910390a15b6109be348363ffffffff611d6f16565b905060008111156109fa57600160a060020a03331681156108fc0282604051600060405180830381858888f1935050505015156109fa57600080fd5b50505050565b600f5481565b601a6020526000908152604090205481565b600b54600160a060020a031681565b60155481565b600b54600090600160a060020a031663fc0c546a82604051602001526040518163ffffffff1660e060020a028152600401602060405180830381600087803b1515610a7757600080fd5b6102c65a03f11515610a8857600080fd5b50505060405180519050600160a060020a03166370a082313060006040516020015260405160e060020a63ffffffff8416028152600160a060020a039091166004820152602401602060405180830381600087803b1515610ae857600080fd5b6102c65a03f11515610af957600080fd5b50505060405180519150505b90565b60065433600160a060020a03908116911614610b2357600080fd5b610b2b611357565b15610b3557600080fd5b4282118015610b4357508082105b1515610b4e57600080fd5b600191909155600255565b600c5481565b600654600090819033600160a060020a03908116911614610b7f57600080fd5b610b87611357565b15610b9157600080fd5b5060009050808083511115610c975782516017805460ff191660ff92909216919091179055600091505b8251821015610c9757610bd582600163ffffffff611cff16565b9050828281518110610be357fe5b9060200190602002015160ff821660009081526019602052604090205414610c8c57828281518110610c1157fe5b9060200190602002015160ff8216600090815260196020526040902055600160a060020a0333167fd5687efd49db15a67bba2e8f383f2231ff233c261ccd6e759a2527d80380d93c82858581518110610c6657fe5b9060200190602002015160405160ff909216825260208201526040908101905180910390a25b600190910190610bbb565b600091505b8451821015610db3576000858381518110610cb357fe5b90602001906020020151600160a060020a03161415610cd157600080fd5b60186000868481518110610ce157fe5b90602001906020020151600160a060020a0316815260208101919091526040016000205460ff161515610da857600160186000878581518110610d2057fe5b90602001906020020151600160a060020a031681526020810191909152604001600020805460ff1916911515919091179055848281518110610d5e57fe5b90602001906020020151600160a060020a031633600160a060020a03167f989ceab15151ad117c420bf6c2f17f42cab53f8a72c3d259d61de6af2ab74c7360405160405180910390a35b600190910190610c9c565b600091505b8351821015610ece576000848381518110610dcf57fe5b90602001906020020151600160a060020a03161415610ded57600080fd5b60186000858481518110610dfd57fe5b90602001906020020151600160a060020a0316815260208101919091526040016000205460ff1615610ec357600060186000868581518110610e3b57fe5b90602001906020020151600160a060020a031681526020810191909152604001600020805460ff1916911515919091179055838281518110610e7957fe5b90602001906020020151600160a060020a031633600160a060020a03167feaddf568a5d6071d7c0ec91f9652fed569ad6bb5a976a93ab8f671e3d7eab95760405160405180910390a35b600190910190610db8565b5050505050565b60025481565b610ee361244b565b600080610eee61244b565b601b5460009350839250604051805910610f055750595b90808252806020026020018201604052509050610f20611476565b1561102257600092505b601b5483101561101d57858015610f7857506000601a6000601b86815481101515610f5157fe5b6000918252602080832090910154600160a060020a03168352820192909252604001902054115b80610fc05750848015610fc05750601a6000601b85815481101515610f9957fe5b6000918252602080832090910154600160a060020a03168352820192909252604001902054155b1561101257601b805484908110610fd357fe5b600091825260209091200154600160a060020a0316818381518110610ff457fe5b600160a060020a039092166020928302909101909101526001909101905b600190920191610f2a565b6111da565b600092505b601b548310156111da578580156110d45750600a54601b8054600092600160a060020a03169163cb13cddb918790811061105d57fe5b6000918252602082200154600160a060020a0316906040516020015260405160e060020a63ffffffff8416028152600160a060020a039091166004820152602401602060405180830381600087803b15156110b757600080fd5b6102c65a03f115156110c857600080fd5b50505060405180519050115b8061117d575084801561117d5750600a54601b8054600160a060020a039092169163cb13cddb91908690811061110657fe5b6000918252602082200154600160a060020a0316906040516020015260405160e060020a63ffffffff8416028152600160a060020a039091166004820152602401602060405180830381600087803b151561116057600080fd5b6102c65a03f1151561117157600080fd5b50505060405180511590505b156111cf57601b80548490811061119057fe5b600091825260209091200154600160a060020a03168183815181106111b157fe5b600160a060020a039092166020928302909101909101526001909101905b600190920191611027565b816040518059106111e85750595b90808252806020026020018201604052509350600092505b8183101561124c5780838151811061121457fe5b9060200190602002015184848151811061122a57fe5b600160a060020a03909216602092830290910190910152600190920191611200565b50505092915050565b60065433600160a060020a0390811691161461127057600080fd5b611278611357565b1561128257600080fd5b6000811161128f57600080fd5b600c55565b60115481565b60145481565b60065433600160a060020a039081169116146112bb57600080fd5b60065460a060020a900460ff1615156112d357600080fd5b6006805474ff0000000000000000000000000000000000000000191690557f7805862f689e2f13df9f062ff482ad3ad112aca9e0847911ed832e158c525b3360405160405180910390a1565b600d5481565b60055481565b611333611476565b8015611341575060085460ff165b151561134c57600080fd5b611355336118fc565b565b60015442101590565b601b80548290811061136e57fe5b600091825260209091200154600160a060020a0316905081565b60065433600160a060020a039081169116146113a357600080fd5b6113ab611357565b156113b557600080fd5b601655565b60065433600160a060020a039081169116146113d557600080fd5b60085460ff16156113e557600080fd5b6113ed611b58565b15156113f857600080fd5b611400611d81565b7f6823b073d48d6e3a7d385eeb601452d680e74bb46afe3255a7d778f3a9b1768160405160405180910390a16008805460ff19166001179055565b60135481565b600354600160a060020a031681565b600061145b3361178b565b905090565b60065460a060020a900460ff1681565b60015481565b600954600554101590565b600061148b611476565b15801561149a575060085460ff165b15156114a557600080fd5b5060005b818110156114dd576114d58383838181106114c057fe5b90506020020135600160a060020a0316611684565b6001016114a9565b505050565b60065433600160a060020a039081169116146114fd57600080fd5b611505611357565b1561150f57600080fd5b83600010801561151f5750828411155b801561152b5750808311155b151561153657600080fd5b600d93909355600e91909155600f55601155565b60065433600160a060020a0390811691161461156557600080fd5b60065460a060020a900460ff161561157c57600080fd5b6006805474ff0000000000000000000000000000000000000000191660a060020a1790557f6985a02210a168e66602d3235cb6db0e70f92b3ba4d376a33c0f3d9434bff62560405160405180910390a1565b60006115d8611476565b80156115e6575060085460ff165b15156115f157600080fd5b5060005b818110156114dd5761162183838381811061160c57fe5b90506020020135600160a060020a03166118fc565b6001016115f5565b60175460ff1681565b60085460ff1681565b600654600160a060020a031681565b600e5481565b600061165a611b58565b801561145b575061145b611476565b60186020526000908152604090205460ff1681565b60125481565b61168c611476565b15801561169b575060085460ff165b15156116a657600080fd5b60065460a060020a900460ff16156116bd57600080fd5b600160a060020a03811615156116d257600080fd5b600a54600160a060020a031663fa89401a8260405160e060020a63ffffffff8416028152600160a060020a039091166004820152602401600060405180830381600087803b151561172257600080fd5b6102c65a03f115156109fa57600080fd5b600061145b426118c7565b60165481565b60105481565b61135533611684565b60065433600160a060020a0390811691161461176e57600080fd5b611776611357565b1561178057600080fd5b601491909155601555565b6000808080600160a060020a03851615156117a557600080fd5b6117ad611357565b15806117bc57506117bc611b58565b156117ca57600093506118bf565b6005546011546117df9163ffffffff611d6f16565b92506117e9611733565b60175490925060ff908116908316116118bb57600160a060020a03851660009081526018602052604090205460ff16151561182757600093506118bf565b600160a060020a0385166000908152601a602090815260408083205460ff861684526019909252909120546118619163ffffffff611d6f16565b905060003411801561187557506000601454115b801561188257506014543a115b156118ae576015546118ab9061189f83606463ffffffff61205e16565b9063ffffffff61208916565b90505b6118b88382611ce7565b92505b8293505b505050919050565b60006118f660016118ea6201518061189f60015487611d6f90919063ffffffff16565b9063ffffffff611cff16565b92915050565b600080611907611476565b8015611915575060085460ff165b151561192057600080fd5b60065460a060020a900460ff161561193757600080fd5b600160a060020a0383166000908152601a60205260408120549250821161195d57600080fd5b600160a060020a0383166000908152601a6020526040812055600c5461198a90839063ffffffff61205e16565b6012549091506119a0908263ffffffff611d6f16565b601255600b54600160a060020a03166393a378da848360405160e060020a63ffffffff8516028152600160a060020a0390921660048301526024820152604401600060405180830381600087803b15156119f957600080fd5b6102c65a03f11515611a0a57600080fd5b5050600b54600160a060020a0316905063fc0c546a6000604051602001526040518163ffffffff1660e060020a028152600401602060405180830381600087803b1515611a5657600080fd5b6102c65a03f11515611a6757600080fd5b50505060405180519050600160a060020a031663a9059cbb848360006040516020015260405160e060020a63ffffffff8516028152600160a060020a0390921660048301526024820152604401602060405180830381600087803b1515611acd57600080fd5b6102c65a03f11515611ade57600080fd5b505050604051805190501515611af357600080fd5b82600160a060020a031633600160a060020a03167f29842d15961c304dad3345dcde04db3059d13a4455ed0646e5daf7c993a04bc6848460405191825260208201526040908101905180910390a3505050565b60196020526000908152604090205481565b6000611b626120a0565b8061145b5750600060105411801561145b575050601054421190565b60065433600160a060020a03908116911614611b9957600080fd5b600160a060020a0381161515611bae57600080fd5b600654600160a060020a0380831691167f8be0079c531659141344cd1fd0a4f28419497f9722a3daafe3b4186f6b6457e060405160405180910390a36006805473ffffffffffffffffffffffffffffffffffffffff1916600160a060020a0392909216919091179055565b60065433600160a060020a03908116911614611c3457600080fd5b60085460ff161515611c4557600080fd5b600160a060020a0381161515611c5a57600080fd5b600a54600160a060020a031663ed6b2d7d838360405160e060020a63ffffffff8516028152600160a060020a03928316600482015291166024820152604401600060405180830381600087803b1515611cb257600080fd5b6102c65a03f11515610ece57600080fd5b600a54600160a060020a031681565b600054600160a060020a031681565b601b5490565b6000818311611cf65782611cf8565b815b9392505050565b600082820183811015611d0e57fe5b8091505b5092915050565b600160a060020a0382161515611d2e57600080fd5b611d37816120b8565b1515611d4257600080fd5b611d4c82826120d4565b600554611d5f908263ffffffff611cff16565b600555611d6b8161227f565b5050565b600082821115611d7b57fe5b50900390565b6000611d8b610a2d565b9050611d95611476565b15611efa576012546013819055811115611ef557600b54600160a060020a031663fc0c546a6000604051602001526040518163ffffffff1660e060020a028152600401602060405180830381600087803b1515611df157600080fd5b6102c65a03f11515611e0257600080fd5b5050506040518051600b54600160a060020a03918216925063a9059cbb9116634db08aea6000604051602001526040518163ffffffff1660e060020a028152600401602060405180830381600087803b1515611e5d57600080fd5b6102c65a03f11515611e6e57600080fd5b50505060405180519050611e8d60125485611d6f90919063ffffffff16565b60006040516020015260405160e060020a63ffffffff8516028152600160a060020a0390921660048301526024820152604401602060405180830381600087803b1515611ed957600080fd5b6102c65a03f11515611eea57600080fd5b505050604051805150505b612053565b611f02611476565b158015611f0f5750600081115b156120535760006012819055600b54600160a060020a03169063fc0c546a90604051602001526040518163ffffffff1660e060020a028152600401602060405180830381600087803b1515611f6357600080fd5b6102c65a03f11515611f7457600080fd5b5050506040518051600b54600160a060020a03918216925063a9059cbb9116634db08aea6000604051602001526040518163ffffffff1660e060020a028152600401602060405180830381600087803b1515611fcf57600080fd5b6102c65a03f11515611fe057600080fd5b505050604051805190508360006040516020015260405160e060020a63ffffffff8516028152600160a060020a0390921660048301526024820152604401602060405180830381600087803b151561203757600080fd5b6102c65a03f1151561204857600080fd5b505050604051805150505b61205b612325565b50565b6000808315156120715760009150611d12565b5082820282848281151561208157fe5b0414611d0e57fe5b600080828481151561209757fe5b04949350505050565b60006120aa6123e6565b8061145b575061145b6123ee565b60006120c3826123f9565b80156118f657505060165490101590565b600080600160a060020a03841615156120ec57600080fd5b829150600060145411801561210257506014543a115b1561212457612121606461189f6015548561205e90919063ffffffff16565b91505b600c5461213890839063ffffffff61205e16565b60125490915061214e908263ffffffff611cff16565b601255600160a060020a0384166000908152601a602052604090205415156121b557601b805460018101612182838261245d565b506000918252602090912001805473ffffffffffffffffffffffffffffffffffffffff1916600160a060020a0386161790555b600160a060020a0384166000908152601a60205260409020546121de908363ffffffff611cff16565b601a600086600160a060020a0316600160a060020a031681526020019081526020016000208190555083600160a060020a031633600160a060020a03167f9512243e3d18d9c1f77e221ae9290827447d5a5a7da1d3df4d7e6b9995b0ad87858585601b80549050600554604051808681526020018581526020018481526020018381526020018281526020019550505050505060405180910390a350505050565b612287611476565b156122c457600354600160a060020a031681156108fc0282604051600060405180830381858888f1935050505015156122bf57600080fd5b61205b565b600a54600160a060020a031663f340fa01823360405160e060020a63ffffffff8516028152600160a060020a0390911660048201526024016000604051808303818588803b151561231457600080fd5b6125ee5a03f11515610ece57600080fd5b61232d611476565b1561238a57600a54600160a060020a03166343d726d66040518163ffffffff1660e060020a028152600401600060405180830381600087803b151561237157600080fd5b6102c65a03f1151561238257600080fd5b5050506123de565b600a54600160a060020a0316638c52dc416040518163ffffffff1660e060020a028152600401600060405180830381600087803b15156123c957600080fd5b6102c65a03f115156123da57600080fd5b5050505b611355611355565b600254421190565b600754600554101590565b60006124048261241a565b80156118f657506124136123ee565b1592915050565b6000806000600154421015801561243357506002544211155b9150508215158180156124435750805b949350505050565b60206040519081016040526000815290565b8154818355818115116114dd576000838152602090206114dd918101908301610b0591905b808211156124965760008155600101612482565b50905600a165627a7a72305820c4ccdbd9c858cc94e40a8d968fdbe1b1a3d39ada545ca86934e57c83a3b3ad1b00296060604052341561000f57600080fd5b6040516020806107d08339810160405280805160008054600160a060020a03191633600160a060020a039081169190911790915590925082161515905061005557600080fd5b60028054600160a060020a031916600160a060020a03929092169190911760a060020a60ff02191690556107428061008e6000396000f30060606040526004361061008a5763ffffffff60e060020a60003504166343d726d6811461008f578063521eb273146100a45780638c52dc41146100d35780638da5cb5b146100e6578063c19d93fb146100f9578063cb13cddb14610130578063ed6b2d7d14610161578063f2fde38b14610186578063f340fa01146101a5578063fa89401a146101b9575b600080fd5b341561009a57600080fd5b6100a26101d8565b005b34156100af57600080fd5b6100b76102b3565b604051600160a060020a03909116815260200160405180910390f35b34156100de57600080fd5b6100a26102c2565b34156100f157600080fd5b6100b7610353565b341561010457600080fd5b61010c610362565b6040518082600281111561011c57fe5b60ff16815260200191505060405180910390f35b341561013b57600080fd5b61014f600160a060020a0360043516610372565b60405190815260200160405180910390f35b341561016c57600080fd5b6100a2600160a060020a0360043581169060243516610384565b341561019157600080fd5b6100a2600160a060020a0360043516610531565b6100a2600160a060020a03600435166105cc565b34156101c457600080fd5b6100a2600160a060020a0360043516610650565b60005433600160a060020a039081169116146101f357600080fd5b60006002805460a060020a900460ff169081111561020d57fe5b1461021757600080fd5b6002805474ff00000000000000000000000000000000000000001916740200000000000000000000000000000000000000001790557f1cdde67b72a90f19919ac732a437ac2f7a10fc128d28c2a6e525d89ce5cd9d3a60405160405180910390a1600254600160a060020a039081169030163180156108fc0290604051600060405180830381858888f1935050505015156102b157600080fd5b565b600254600160a060020a031681565b60005433600160a060020a039081169116146102dd57600080fd5b60006002805460a060020a900460ff16908111156102f757fe5b1461030157600080fd5b6002805474ff0000000000000000000000000000000000000000191660a060020a1790557f599d8e5a83cffb867d051598c4d70e805d59802d8081c1c7d6dffc5b6aca2b8960405160405180910390a1565b600054600160a060020a031681565b60025460a060020a900460ff1681565b60016020526000908152604090205481565b60008054819033600160a060020a039081169116146103a257600080fd5b600160a060020a03841615156103f45782600160a060020a03166108fc30600160a060020a0316319081150290604051600060405180830381858888f1935050505015156103ef57600080fd5b61052b565b83915081600160a060020a03166370a082313060006040516020015260405160e060020a63ffffffff8416028152600160a060020a039091166004820152602401602060405180830381600087803b151561044e57600080fd5b6102c65a03f1151561045f57600080fd5b5050506040518051915050600160a060020a03821663a9059cbb848360006040516020015260405160e060020a63ffffffff8516028152600160a060020a0390921660048301526024820152604401602060405180830381600087803b15156104c757600080fd5b6102c65a03f115156104d857600080fd5b505050604051805190505082600160a060020a031684600160a060020a03167f21e9b296e283cad208b551b3c383bb74e34086eb5691fee8392dcce6794521c28360405190815260200160405180910390a35b50505050565b60005433600160a060020a0390811691161461054c57600080fd5b600160a060020a038116151561056157600080fd5b600054600160a060020a0380831691167f8be0079c531659141344cd1fd0a4f28419497f9722a3daafe3b4186f6b6457e060405160405180910390a36000805473ffffffffffffffffffffffffffffffffffffffff1916600160a060020a0392909216919091179055565b60005433600160a060020a039081169116146105e757600080fd5b60006002805460a060020a900460ff169081111561060157fe5b1461060b57600080fd5b600160a060020a038116600090815260016020526040902054610634903463ffffffff61070016565b600160a060020a03909116600090815260016020526040902055565b600060016002805460a060020a900460ff169081111561066c57fe5b1461067657600080fd5b50600160a060020a038116600081815260016020526040808220805492905590919082156108fc0290839051600060405180830381858888f1935050505015156106bf57600080fd5b81600160a060020a03167fd7dee2702d63ad89917b6a4da9981c90c4d24f8c2bdfd64c604ecae57d8d06518260405190815260200160405180910390a25050565b60008282018381101561070f57fe5b93925050505600a165627a7a72305820139eb63c740181ff44d88a3ba731958dc35c9d3868c28304b739613a60bd10580029",
  "source": "pragma solidity ^0.4.18;\n\nimport \"zeppelin-solidity/contracts/lifecycle/Pausable.sol\";\nimport \"./minime_0.2.0/TokenController.sol\";\nimport \"./minime_0.2.0/ERC20MiniMe.sol\";\nimport \"./TravelkoinCappedCrowdsale.sol\";\nimport \"./TravelkoinRefundableCrowdsale.sol\";\n\n\n/**\n * @title TravelkoinPreSale\n * @author Bjorn Harvold\n * @notice Travelkoin Token Sale round one presale contract, with mincap (goal), softcap and hardcap (cap)\n * @dev This contract has to be finalized before refund or token claims are enabled\n */\ncontract TravelkoinPreSale is Pausable, TravelkoinCappedCrowdsale, TravelkoinRefundableCrowdsale {\n    // the token is here\n    TokenController public travelkoinController;\n\n    // after reaching {weiRaised} >= {softCap}, there is {softCapTime} seconds until the sale closes\n    // {softCapClose} contains the closing time\n    uint256 public rate = 1250;\n    uint256 public goal = 333 ether;\n    uint256 public softCap = 3600 ether;\n    uint256 public softCapTime = 120 hours;\n    uint256 public softCapClose;\n    uint256 public cap = 7200 ether;\n\n    // how many token is sold and not claimed, used for refunding to token controller\n    uint256 public tokenBalance;\n\n    // total token sold\n    uint256 public tokenSold;\n\n    // contributing above {maxGasPrice} results in \n    // calculating stakes on {maxGasPricePenalty} / 100\n    // eg. 80 {maxGasPricePenalty} means 80%, sending 5 ETH with more than 100gwei gas price will be calculated as 4 ETH\n    uint256 public maxGasPrice = 100 * 10 ** 9;\n    uint256 public maxGasPricePenalty = 80;\n\n    // minimum contribution, 0.1ETH\n    uint256 public minContribution = 0.1 ether;\n\n    // first {whitelistDayCount} days of token sale is exclusive for whitelisted addresses\n    // {whitelistDayMaxStake} contains the max stake limits per address for each whitelist sales day\n    // {whitelist} contains who can contribute during whitelist period\n    uint8 public whitelistDayCount;\n    mapping(address => bool) public whitelist;\n    mapping(uint8 => uint256) public whitelistDayMaxStake;\n\n    // stakes contains contribution stake in wei\n    // contributed ETH is calculated on 80% when sending funds with gasprice above maxGasPrice\n    mapping(address => uint256) public stakes;\n\n    // addresses of contributors to handle finalization after token sale end (refunds or token claims)\n    address[] public contributorsKeys;\n\n    // events for token purchase during sale and claiming tokens after sale\n    event TokenClaimed(address indexed _claimer, address indexed _beneficiary, uint256 _stake, uint256 _amount);\n    event TokenPurchase(address indexed _purchaser, address indexed _beneficiary, uint256 _value, uint256 _stake, uint256 _amount, uint256 _participants, uint256 _weiRaised);\n    event TokenGoalReached();\n    event TokenSoftCapReached(uint256 _closeTime);\n\n    // whitelist events for adding days with maximum stakes and addresses\n    event WhitelistAddressAdded(address indexed _whitelister, address indexed _beneficiary);\n    event WhitelistAddressRemoved(address indexed _whitelister, address indexed _beneficiary);\n    event WhitelistSetDay(address indexed _whitelister, uint8 _day, uint256 _maxStake);\n\n\n    ////////////////\n    // Constructor and inherited function overrides\n    ////////////////\n\n    /// @notice Constructor to create PreSale contract\n    /// @param _travelkoinController Address of travelkoinController\n    /// @param _startTime The start time of token sale in seconds.\n    /// @param _endTime The end time of token sale in seconds.\n    /// @param _minContribution The minimum contribution per transaction in wei (0.1 ETH)\n    /// @param _rate Number of TKT tokens per 1 ETH\n    /// @param _goal Minimum funding in wei, below that EVERYONE gets back ALL their\n    ///  contributions regardless of maxGasPrice penalty. \n    ///  Eg. someone contributes with 5 ETH, but gets only 4 ETH stakes because\n    ///  sending funds with gasprice over 100Gwei, he will still get back >>5 ETH<<\n    ///  in case of unsuccessful token sale\n    /// @param _softCap Softcap in wei, reaching it ends the sale in _softCapTime seconds\n    /// @param _softCapTime Seconds until the sale remains open after reaching _softCap\n    /// @param _cap Maximum cap in wei, we can't raise more funds\n    /// @param _gasPrice Maximum gas price\n    /// @param _gasPenalty Penalty in percentage points for calculating stakes, eg. 80 means calculating \n    ///  stakes on 80% if gasprice was higher than _gasPrice\n    /// @param _wallet Address of multisig wallet, which will get all the funds after successful sale\n    function TravelkoinPreSale(\n        address _travelkoinController,\n        uint256 _startTime,\n        uint256 _endTime,\n        uint256 _minContribution,\n        uint256 _rate,\n        uint256 _goal,\n        uint256 _softCap,\n        uint256 _softCapTime,\n        uint256 _cap,\n        uint256 _gasPrice,\n        uint256 _gasPenalty,\n        address _wallet\n    )\n    TravelkoinCappedCrowdsale(_cap)\n    TravelkoinRefundableCrowdsale(_goal)\n    TravelkoinMiniMeCrowdsale(_startTime, _endTime, _rate, _wallet)\n    TravelkoinFinalizableCrowdsale()\n    public\n    {\n        // travelkoinController must be valid\n        require(_travelkoinController != address(0));\n        travelkoinController = TokenController(_travelkoinController);\n\n        // caps have to be consistent with each other\n        require(_goal <= _softCap && _softCap <= _cap);\n\n        softCap = _softCap;\n        softCapTime = _softCapTime;\n\n        // this is needed since super constructor wont overwite overriden variables\n        cap = _cap;\n        goal = _goal;\n        rate = _rate;\n\n        maxGasPrice = _gasPrice;\n        maxGasPricePenalty = _gasPenalty;\n\n        minContribution = _minContribution;\n    }\n\n    /// @notice Refund several addresses with one call\n    /// @param _beneficiaries Array of addresses we want to refund\n    function claimRefundsFor(address[] _beneficiaries) external afterSaleFail {\n        for (uint256 i = 0; i < _beneficiaries.length; i++) {\n            claimRefundFor(_beneficiaries[i]);\n        }\n    }\n\n    /// @notice claimToken() for multiple addresses\n    /// @dev Anyone can call this function and distribute tokens after successful token sale\n    /// @param _beneficiaries Array of addresses for which we want to claim tokens\n    function claimTokensFor(address[] _beneficiaries) external afterSaleSuccess {\n        for (uint256 i = 0; i < _beneficiaries.length; i++) {\n            claimTokenFor(_beneficiaries[i]);\n        }\n    }\n\n    /// @dev Overriding Crowdsale#buyTokens to add partial refund and softcap logic \n    /// @param _beneficiary Beneficiary of the token purchase\n    function buyTokens(address _beneficiary) public payable whenNotPaused {\n        require(_beneficiary != address(0));\n\n        uint256 weiToCap = howMuchCanXContributeNow(_beneficiary);\n        uint256 weiAmount = uint256Min(weiToCap, msg.value);\n\n        // goal is reached\n        if (weiRaised < goal && weiRaised.add(weiAmount) >= goal)\n            TokenGoalReached();\n\n        // call the Crowdsale#buyTokens internal function\n        buyTokens(_beneficiary, weiAmount);\n\n        // close sale in softCapTime seconds after reaching softCap\n        if (weiRaised >= softCap && softCapClose == 0) {\n            softCapClose = now.add(softCapTime);\n            TokenSoftCapReached(uint256Min(softCapClose, endTime));\n        }\n\n        // handle refund\n        uint256 refund = msg.value.sub(weiAmount);\n        if (refund > 0) {\n            msg.sender.transfer(refund);\n        }\n    }\n\n    /// @dev Overriding Crowdsale#hasEnded to add soft cap logic\n    /// @return true if crowdsale event has ended or a softCapClose time is set and passed\n    function hasEnded() public constant returns (bool) {\n        return super.hasEnded() || softCapClose > 0 && now > softCapClose;\n    }\n\n    /// @dev Overriding RefundableCrowdsale#claimRefund to enable anyone to call for any address\n    ///  which enables us to refund anyone and also anyone can refund themselves\n    function claimRefund() public {\n        claimRefundFor(msg.sender);\n    }\n\n    ////////////////\n    // BEFORE token sale\n    ////////////////\n\n    /// @notice Modifier for before sale cases\n    modifier beforeSale() {\n        require(!hasStarted());\n        _;\n    }\n\n    /// @notice Sets whitelist\n    /// @dev The length of _whitelistLimits says that the first X days of token sale is \n    ///  closed, meaning only for whitelisted addresses.\n    /// @param _add Array of addresses to add to whitelisted ethereum accounts\n    /// @param _remove Array of addresses to remove from whitelisted ethereum accounts\n    /// @param _whitelistLimits Array of limits in wei, where _whitelistLimits[0] = 10 ETH means\n    ///  whitelisted addresses can contribute maximum 10 ETH stakes on the first day\n    ///  After _whitelistLimits.length days, there will be no limits per address (besides hard cap)\n    function setWhitelist(address[] _add, address[] _remove, uint256[] _whitelistLimits) public onlyOwner beforeSale {\n        uint256 i = 0;\n        uint8 j = 0;\n        // access max daily stakes\n\n        // we override whiteListLimits only if it was supplied as an argument\n        if (_whitelistLimits.length > 0) {\n            // saving whitelist max stake limits for each day -> uint256 maxStakeLimit\n            whitelistDayCount = uint8(_whitelistLimits.length);\n\n            for (i = 0; i < _whitelistLimits.length; i++) {\n                j = uint8(i.add(1));\n                if (whitelistDayMaxStake[j] != _whitelistLimits[i]) {\n                    whitelistDayMaxStake[j] = _whitelistLimits[i];\n                    WhitelistSetDay(msg.sender, j, _whitelistLimits[i]);\n                }\n            }\n        }\n\n        // adding whitelist addresses\n        for (i = 0; i < _add.length; i++) {\n            require(_add[i] != address(0));\n\n            if (!whitelist[_add[i]]) {\n                whitelist[_add[i]] = true;\n                WhitelistAddressAdded(msg.sender, _add[i]);\n            }\n        }\n\n        // removing whitelist addresses\n        for (i = 0; i < _remove.length; i++) {\n            require(_remove[i] != address(0));\n\n            if (whitelist[_remove[i]]) {\n                whitelist[_remove[i]] = false;\n                WhitelistAddressRemoved(msg.sender, _remove[i]);\n            }\n        }\n    }\n\n    /// @notice Sets max gas price and penalty before sale\n    function setMaxGas(uint256 _maxGas, uint256 _penalty) public onlyOwner beforeSale {\n        maxGasPrice = _maxGas;\n        maxGasPricePenalty = _penalty;\n    }\n\n    /// @notice Sets min contribution before sale\n    function setMinContribution(uint256 _minContribution) public onlyOwner beforeSale {\n        minContribution = _minContribution;\n    }\n\n    /// @notice Sets minimum goal, soft cap and max cap\n    function setCaps(\n        uint256 _goal,\n        uint256 _softCap,\n        uint256 _softCapTime,\n        uint256 _cap\n    ) public onlyOwner beforeSale\n    {\n        require(0 < _goal && _goal <= _softCap && _softCap <= _cap);\n        goal = _goal;\n        softCap = _softCap;\n        softCapTime = _softCapTime;\n        cap = _cap;\n    }\n\n    /// @notice Sets crowdsale start and end time\n    function setTimes(uint256 _startTime, uint256 _endTime) public onlyOwner beforeSale {\n        require(_startTime > now && _startTime < _endTime);\n        startTime = _startTime;\n        endTime = _endTime;\n    }\n\n    /// @notice Set rate\n    function setRate(uint256 _rate) public onlyOwner beforeSale {\n        require(_rate > 0);\n        rate = _rate;\n    }\n\n\n    ////////////////\n    // AFTER token sale\n    ////////////////\n\n    /// @notice Modifier for cases where sale is failed\n    /// @dev It checks whether we haven't reach the minimum goal AND whether the contract is finalized\n    modifier afterSaleFail() {\n        require(!goalReached() && isFinalized);\n        _;\n    }\n\n    /// @notice Modifier for cases where sale is closed and was successful.\n    /// @dev It checks whether\n    ///  the sale has ended \n    ///  and we have reached our goal\n    ///  AND whether the contract is finalized\n    modifier afterSaleSuccess() {\n        require(goalReached() && isFinalized);\n        _;\n    }\n\n    /// @notice Modifier for after sale finalization\n    modifier afterSale() {\n        require(isFinalized);\n        _;\n    }\n\n\n    /// @notice Refund an ethereum address\n    /// @param _beneficiary Address we want to refund\n    function claimRefundFor(address _beneficiary) public afterSaleFail whenNotPaused {\n        require(_beneficiary != address(0));\n        vault.refund(_beneficiary);\n    }\n\n    /// @notice Claim token for msg.sender after token sale based on stake.\n    function claimToken() public afterSaleSuccess {\n        claimTokenFor(msg.sender);\n    }\n\n    /// @notice Claim token after token sale based on stake.\n    /// @dev Anyone can call this function and distribute tokens after successful token sale\n    /// @param _beneficiary Address of the beneficiary who gets the token\n    function claimTokenFor(address _beneficiary) public afterSaleSuccess whenNotPaused {\n        uint256 stake = stakes[_beneficiary];\n        require(stake > 0);\n\n        // set the stake 0 for beneficiary\n        stakes[_beneficiary] = 0;\n\n        // calculate token count\n        uint256 tokens = stake.mul(rate);\n\n        // decrease tokenBalance, to make it possible to withdraw excess TKT funds\n        tokenBalance = tokenBalance.sub(tokens);\n\n        // distribute hodlr stake\n        travelkoinController.addHodlerStake(_beneficiary, tokens);\n\n        // distribute token\n        require(travelkoinController.token().transfer(_beneficiary, tokens));\n        TokenClaimed(\n            msg.sender,\n            _beneficiary,\n            stake,\n            tokens\n        );\n    }\n\n    /// @notice Get back accidentally sent token from the vault\n    function extractVaultTokens(address _token, address _claimer) public onlyOwner afterSale {\n        require(_claimer != address(0));\n\n        vault.extractTokens(_token, _claimer);\n    }\n\n\n    ////////////////\n    // Constant, helper functions\n    ////////////////\n\n    /// @notice How many wei can the msg.sender contribute now.\n    function howMuchCanIContributeNow() public payable returns (uint256) {\n        return howMuchCanXContributeNow(msg.sender);\n    }\n\n    /// @notice How many wei can an ethereum address contribute now.\n    /// @dev This function can return 0 when the crowdsale is stopped\n    ///  or the address has maxed the current day's whitelist cap,\n    ///  it is possible, that next day he can contribute\n    /// @param _beneficiary Ethereum address\n    /// @return Number of wei the _beneficiary can contribute now.\n    function howMuchCanXContributeNow(address _beneficiary) public payable returns (uint256) {\n        require(_beneficiary != address(0));\n\n        if (!hasStarted() || hasEnded()) {\n            return 0;\n        }\n\n        // wei to hard cap\n        uint256 weiToCap = cap.sub(weiRaised);\n\n        // if this is a whitelist limited period\n        uint8 _saleDay = getSaleDayNow();\n        if (_saleDay <= whitelistDayCount) {\n            // address can't contribute if\n            //  it is not whitelisted\n            if (!whitelist[_beneficiary]) {\n                return 0;\n            }\n\n            // personal cap is the daily whitelist limit minus the stakes the address already has\n            uint256 weiToPersonalCap = whitelistDayMaxStake[_saleDay].sub(stakes[_beneficiary]);\n\n            // calculate for maxGasPrice penalty\n            if (msg.value > 0 && maxGasPrice > 0 && tx.gasprice > maxGasPrice) {\n                weiToPersonalCap = weiToPersonalCap.mul(100).div(maxGasPricePenalty);\n            }\n\n            weiToCap = uint256Min(weiToCap, weiToPersonalCap);\n        }\n\n        return weiToCap;\n    }\n\n    /// @notice For a give date how many 24 hour blocks have ellapsed since token sale start\n    /// @dev _time has to be bigger than the startTime of token sale, otherwise SafeMath's div will throw.\n    ///  Within 24 hours of token sale it will return 1, \n    ///  between 24 and 48 hours it will return 2, etc.\n    /// @param _time Date in seconds for which we want to know which sale day it is\n    /// @return Number of 24 hour blocks ellapsing since token sale start starting from 1\n    function getSaleDay(uint256 _time) view public returns (uint8) {\n        return uint8(_time.sub(startTime).div(60 * 60 * 24).add(1));\n    }\n\n    /// @notice How many 24 hour blocks have ellapsed since token sale start\n    /// @return Number of 24 hour blocks ellapsing since token sale start starting from 1\n    function getSaleDayNow() view public returns (uint8) {\n        return getSaleDay(now);\n    }\n\n    ////////////////\n    // Test and contribution web app, NO audit is needed\n    ////////////////\n\n    /// @notice Was this token sale successful?\n    /// @return true if the sale is over and we have reached the minimum goal\n    function wasSuccess() view public returns (bool) {\n        return hasEnded() && goalReached();\n    }\n\n    /// @notice How many contributors we have.\n    /// @return Number of different contributor ethereum addresses\n    function getContributorsCount() view public returns (uint256) {\n        return contributorsKeys.length;\n    }\n\n    /// @notice Get contributor addresses to manage refunds or token claims.\n    /// @dev If the sale is not yet successful, then it searches in the TravelkoinRefundVault.\n    ///  If the sale is successful, it searches in contributors.\n    /// @param _pending If true, then returns addresses which didn't get refunded or their tokens distributed to them\n    /// @param _claimed If true, then returns already refunded or token distributed addresses\n    /// @return Array of addresses of contributors\n    function getContributors(bool _pending, bool _claimed) view public returns (address[] contributors) {\n        uint256 i = 0;\n        uint256 results = 0;\n        address[] memory _contributors = new address[](contributorsKeys.length);\n\n        // if we have reached our goal, then search in contributors, since this is what we want to monitor\n        if (goalReached()) {\n            for (i = 0; i < contributorsKeys.length; i++) {\n                if (_pending && stakes[contributorsKeys[i]] > 0 || _claimed && stakes[contributorsKeys[i]] == 0) {\n                    _contributors[results] = contributorsKeys[i];\n                    results++;\n                }\n            }\n        } else {\n            // otherwise search in the refund vault\n            for (i = 0; i < contributorsKeys.length; i++) {\n                if (_pending && vault.deposited(contributorsKeys[i]) > 0 || _claimed && vault.deposited(contributorsKeys[i]) == 0) {\n                    _contributors[results] = contributorsKeys[i];\n                    results++;\n                }\n            }\n        }\n\n        contributors = new address[](results);\n        for (i = 0; i < results; i++) {\n            contributors[i] = _contributors[i];\n        }\n\n        return contributors;\n    }\n\n    /// @notice How many TKT tokens do this contract have\n    function getTravelkoinBalance() view public returns (uint256) {\n        return travelkoinController.token().balanceOf(address(this));\n    }\n\n\n    /// @dev Overriding Crowdsale#transferToken, which keeps track of contributions DURING token sale\n    /// @param _beneficiary Address of the recepient of the tokens\n    /// @param _weiAmount Contribution in wei\n    function transferToken(address _beneficiary, uint256 _weiAmount) internal {\n        require(_beneficiary != address(0));\n\n        uint256 weiAmount = _weiAmount;\n        // check maxGasPricePenalty\n        if (maxGasPrice > 0 && tx.gasprice > maxGasPrice) {\n            weiAmount = weiAmount.mul(maxGasPricePenalty).div(100);\n        }\n\n        // calculate tokens, so we can refund excess tokens to TravelkoinController after token sale\n        uint256 tokens = weiAmount.mul(rate);\n        tokenBalance = tokenBalance.add(tokens);\n\n        if (stakes[_beneficiary] == 0)\n            contributorsKeys.push(_beneficiary);\n\n        stakes[_beneficiary] = stakes[_beneficiary].add(weiAmount);\n\n        TokenPurchase(\n            msg.sender,\n            _beneficiary,\n            _weiAmount,\n            weiAmount,\n            tokens,\n            contributorsKeys.length,\n            weiRaised\n        );\n    }\n\n    /// @notice Minimum between two uint8 numbers\n    function uint8Min(uint8 a, uint8 b) pure internal returns (uint8) {\n        return a > b ? b : a;\n    }\n\n    /// @notice Minimum between two uint256 numbers\n    function uint256Min(uint256 a, uint256 b) pure internal returns (uint256) {\n        return a > b ? b : a;\n    }\n\n    /// @dev Overriding Crowdsale#validPurchase to add min contribution logic\n    /// @param _weiAmount Contribution amount in wei\n    /// @return true if contribution is okay\n    function validPurchase(uint256 _weiAmount) internal constant returns (bool) {\n        return super.validPurchase(_weiAmount) && _weiAmount >= minContribution;\n    }\n\n    /// @dev Extending RefundableCrowdsale#finalization sending back excess tokens to travelkoinController\n    function finalization() internal {\n        uint256 _balance = getTravelkoinBalance();\n\n        // if token sale was successful send back excess funds\n        if (goalReached()) {\n            // saving token balance for future reference\n            tokenSold = tokenBalance;\n\n            // send back the excess token to travelkoinController\n            if (_balance > tokenBalance) {\n                travelkoinController.token().transfer(travelkoinController.SALE(), _balance.sub(tokenBalance));\n            }\n        } else if (!goalReached() && _balance > 0) {\n            // if token sale is failed, then send back all tokens to travelkoinController's sale address\n            tokenBalance = 0;\n            travelkoinController.token().transfer(travelkoinController.SALE(), _balance);\n        }\n\n        super.finalization();\n    }\n\n}",
  "sourcePath": "/Users/crash/git/travelkoin/travelkoin-contracts/contracts/TravelkoinPreSale.sol",
  "compiler": {
    "name": "solc",
    "version": "0.4.18+commit.9cf6e910.Emscripten.clang"
  },
  "schemaVersion": "1.0.1",
  "updatedAt": "2018-02-12T03:14:21.399Z"
}