{
  "contractName": "TravelkoinNormalSale",
  "abi": [
    {
      "constant": true,
      "inputs": [],
      "name": "travelkoinController",
      "outputs": [
        {
          "name": "",
          "type": "address"
        }
      ],
      "payable": false,
      "stateMutability": "view",
      "type": "function"
    },
    {
      "constant": true,
      "inputs": [],
      "name": "rate",
      "outputs": [
        {
          "name": "",
          "type": "uint256"
        }
      ],
      "payable": false,
      "stateMutability": "view",
      "type": "function"
    },
    {
      "constant": true,
      "inputs": [],
      "name": "endTime",
      "outputs": [
        {
          "name": "",
          "type": "uint256"
        }
      ],
      "payable": false,
      "stateMutability": "view",
      "type": "function"
    },
    {
      "constant": true,
      "inputs": [],
      "name": "cap",
      "outputs": [
        {
          "name": "",
          "type": "uint256"
        }
      ],
      "payable": false,
      "stateMutability": "view",
      "type": "function"
    },
    {
      "constant": false,
      "inputs": [],
      "name": "unpause",
      "outputs": [],
      "payable": false,
      "stateMutability": "nonpayable",
      "type": "function"
    },
    {
      "constant": true,
      "inputs": [],
      "name": "weiRaised",
      "outputs": [
        {
          "name": "",
          "type": "uint256"
        }
      ],
      "payable": false,
      "stateMutability": "view",
      "type": "function"
    },
    {
      "constant": true,
      "inputs": [],
      "name": "hasStarted",
      "outputs": [
        {
          "name": "",
          "type": "bool"
        }
      ],
      "payable": false,
      "stateMutability": "view",
      "type": "function"
    },
    {
      "constant": true,
      "inputs": [
        {
          "name": "",
          "type": "uint256"
        }
      ],
      "name": "contributorsKeys",
      "outputs": [
        {
          "name": "",
          "type": "address"
        }
      ],
      "payable": false,
      "stateMutability": "view",
      "type": "function"
    },
    {
      "constant": false,
      "inputs": [],
      "name": "finalize",
      "outputs": [],
      "payable": false,
      "stateMutability": "nonpayable",
      "type": "function"
    },
    {
      "constant": true,
      "inputs": [],
      "name": "tokenSold",
      "outputs": [
        {
          "name": "",
          "type": "uint256"
        }
      ],
      "payable": false,
      "stateMutability": "view",
      "type": "function"
    },
    {
      "constant": true,
      "inputs": [],
      "name": "wallet",
      "outputs": [
        {
          "name": "",
          "type": "address"
        }
      ],
      "payable": false,
      "stateMutability": "view",
      "type": "function"
    },
    {
      "constant": true,
      "inputs": [],
      "name": "paused",
      "outputs": [
        {
          "name": "",
          "type": "bool"
        }
      ],
      "payable": false,
      "stateMutability": "view",
      "type": "function"
    },
    {
      "constant": true,
      "inputs": [],
      "name": "startTime",
      "outputs": [
        {
          "name": "",
          "type": "uint256"
        }
      ],
      "payable": false,
      "stateMutability": "view",
      "type": "function"
    },
    {
      "constant": false,
      "inputs": [],
      "name": "pause",
      "outputs": [],
      "payable": false,
      "stateMutability": "nonpayable",
      "type": "function"
    },
    {
      "constant": true,
      "inputs": [],
      "name": "whitelistDayCount",
      "outputs": [
        {
          "name": "",
          "type": "uint8"
        }
      ],
      "payable": false,
      "stateMutability": "view",
      "type": "function"
    },
    {
      "constant": true,
      "inputs": [],
      "name": "isFinalized",
      "outputs": [
        {
          "name": "",
          "type": "bool"
        }
      ],
      "payable": false,
      "stateMutability": "view",
      "type": "function"
    },
    {
      "constant": true,
      "inputs": [],
      "name": "owner",
      "outputs": [
        {
          "name": "",
          "type": "address"
        }
      ],
      "payable": false,
      "stateMutability": "view",
      "type": "function"
    },
    {
      "constant": true,
      "inputs": [
        {
          "name": "",
          "type": "address"
        }
      ],
      "name": "whitelist",
      "outputs": [
        {
          "name": "",
          "type": "bool"
        }
      ],
      "payable": false,
      "stateMutability": "view",
      "type": "function"
    },
    {
      "constant": true,
      "inputs": [],
      "name": "tokenBalance",
      "outputs": [
        {
          "name": "",
          "type": "uint256"
        }
      ],
      "payable": false,
      "stateMutability": "view",
      "type": "function"
    },
    {
      "constant": true,
      "inputs": [],
      "name": "minContribution",
      "outputs": [
        {
          "name": "",
          "type": "uint256"
        }
      ],
      "payable": false,
      "stateMutability": "view",
      "type": "function"
    },
    {
      "constant": true,
      "inputs": [
        {
          "name": "",
          "type": "address"
        }
      ],
      "name": "stakesPerUser",
      "outputs": [
        {
          "name": "",
          "type": "uint256"
        }
      ],
      "payable": false,
      "stateMutability": "view",
      "type": "function"
    },
    {
      "constant": true,
      "inputs": [
        {
          "name": "",
          "type": "uint8"
        }
      ],
      "name": "whitelistDayMaxStake",
      "outputs": [
        {
          "name": "",
          "type": "uint256"
        }
      ],
      "payable": false,
      "stateMutability": "view",
      "type": "function"
    },
    {
      "constant": true,
      "inputs": [],
      "name": "hasEnded",
      "outputs": [
        {
          "name": "",
          "type": "bool"
        }
      ],
      "payable": false,
      "stateMutability": "view",
      "type": "function"
    },
    {
      "constant": false,
      "inputs": [
        {
          "name": "newOwner",
          "type": "address"
        }
      ],
      "name": "transferOwnership",
      "outputs": [],
      "payable": false,
      "stateMutability": "nonpayable",
      "type": "function"
    },
    {
      "constant": true,
      "inputs": [],
      "name": "token",
      "outputs": [
        {
          "name": "",
          "type": "address"
        }
      ],
      "payable": false,
      "stateMutability": "view",
      "type": "function"
    },
    {
      "inputs": [
        {
          "name": "_travelkoinController",
          "type": "address"
        },
        {
          "name": "_startTime",
          "type": "uint256"
        },
        {
          "name": "_endTime",
          "type": "uint256"
        },
        {
          "name": "_minContribution",
          "type": "uint256"
        },
        {
          "name": "_rate",
          "type": "uint256"
        },
        {
          "name": "_cap",
          "type": "uint256"
        },
        {
          "name": "_wallet",
          "type": "address"
        }
      ],
      "payable": false,
      "stateMutability": "nonpayable",
      "type": "constructor"
    },
    {
      "payable": true,
      "stateMutability": "payable",
      "type": "fallback"
    },
    {
      "anonymous": false,
      "inputs": [
        {
          "indexed": true,
          "name": "_claimer",
          "type": "address"
        },
        {
          "indexed": true,
          "name": "_beneficiary",
          "type": "address"
        },
        {
          "indexed": false,
          "name": "_stake",
          "type": "uint256"
        },
        {
          "indexed": false,
          "name": "_amount",
          "type": "uint256"
        }
      ],
      "name": "TokenClaimed",
      "type": "event"
    },
    {
      "anonymous": false,
      "inputs": [
        {
          "indexed": true,
          "name": "_purchaser",
          "type": "address"
        },
        {
          "indexed": true,
          "name": "_beneficiary",
          "type": "address"
        },
        {
          "indexed": false,
          "name": "_value",
          "type": "uint256"
        },
        {
          "indexed": false,
          "name": "_stake",
          "type": "uint256"
        },
        {
          "indexed": false,
          "name": "_participants",
          "type": "uint256"
        },
        {
          "indexed": false,
          "name": "_weiRaised",
          "type": "uint256"
        }
      ],
      "name": "TokenPurchase",
      "type": "event"
    },
    {
      "anonymous": false,
      "inputs": [
        {
          "indexed": true,
          "name": "_whitelister",
          "type": "address"
        },
        {
          "indexed": true,
          "name": "_beneficiary",
          "type": "address"
        }
      ],
      "name": "WhitelistAddressAdded",
      "type": "event"
    },
    {
      "anonymous": false,
      "inputs": [
        {
          "indexed": true,
          "name": "_whitelister",
          "type": "address"
        },
        {
          "indexed": true,
          "name": "_beneficiary",
          "type": "address"
        }
      ],
      "name": "WhitelistAddressRemoved",
      "type": "event"
    },
    {
      "anonymous": false,
      "inputs": [
        {
          "indexed": true,
          "name": "_whitelister",
          "type": "address"
        },
        {
          "indexed": false,
          "name": "_day",
          "type": "uint8"
        },
        {
          "indexed": false,
          "name": "_maxStake",
          "type": "uint256"
        }
      ],
      "name": "WhitelistSetDay",
      "type": "event"
    },
    {
      "anonymous": false,
      "inputs": [],
      "name": "Finalized",
      "type": "event"
    },
    {
      "anonymous": false,
      "inputs": [],
      "name": "Pause",
      "type": "event"
    },
    {
      "anonymous": false,
      "inputs": [],
      "name": "Unpause",
      "type": "event"
    },
    {
      "anonymous": false,
      "inputs": [
        {
          "indexed": true,
          "name": "previousOwner",
          "type": "address"
        },
        {
          "indexed": true,
          "name": "newOwner",
          "type": "address"
        }
      ],
      "name": "OwnershipTransferred",
      "type": "event"
    },
    {
      "anonymous": false,
      "inputs": [
        {
          "indexed": true,
          "name": "purchaser",
          "type": "address"
        },
        {
          "indexed": true,
          "name": "beneficiary",
          "type": "address"
        },
        {
          "indexed": false,
          "name": "value",
          "type": "uint256"
        },
        {
          "indexed": false,
          "name": "amount",
          "type": "uint256"
        }
      ],
      "name": "TokenPurchase",
      "type": "event"
    },
    {
      "constant": false,
      "inputs": [
        {
          "name": "_beneficiaries",
          "type": "address[]"
        }
      ],
      "name": "claimTokensFor",
      "outputs": [],
      "payable": false,
      "stateMutability": "nonpayable",
      "type": "function"
    },
    {
      "constant": false,
      "inputs": [
        {
          "name": "_add",
          "type": "address[]"
        },
        {
          "name": "_remove",
          "type": "address[]"
        },
        {
          "name": "_whitelistLimits",
          "type": "uint256[]"
        }
      ],
      "name": "setWhitelist",
      "outputs": [],
      "payable": false,
      "stateMutability": "nonpayable",
      "type": "function"
    },
    {
      "constant": false,
      "inputs": [
        {
          "name": "_minContribution",
          "type": "uint256"
        }
      ],
      "name": "setMinContribution",
      "outputs": [],
      "payable": false,
      "stateMutability": "nonpayable",
      "type": "function"
    },
    {
      "constant": false,
      "inputs": [
        {
          "name": "_cap",
          "type": "uint256"
        }
      ],
      "name": "setCap",
      "outputs": [],
      "payable": false,
      "stateMutability": "nonpayable",
      "type": "function"
    },
    {
      "constant": false,
      "inputs": [
        {
          "name": "_startTime",
          "type": "uint256"
        },
        {
          "name": "_endTime",
          "type": "uint256"
        }
      ],
      "name": "setTimes",
      "outputs": [],
      "payable": false,
      "stateMutability": "nonpayable",
      "type": "function"
    },
    {
      "constant": false,
      "inputs": [
        {
          "name": "_rate",
          "type": "uint256"
        }
      ],
      "name": "setRate",
      "outputs": [],
      "payable": false,
      "stateMutability": "nonpayable",
      "type": "function"
    },
    {
      "constant": false,
      "inputs": [],
      "name": "claimToken",
      "outputs": [],
      "payable": false,
      "stateMutability": "nonpayable",
      "type": "function"
    },
    {
      "constant": false,
      "inputs": [
        {
          "name": "_beneficiary",
          "type": "address"
        }
      ],
      "name": "claimTokenFor",
      "outputs": [],
      "payable": false,
      "stateMutability": "nonpayable",
      "type": "function"
    },
    {
      "constant": true,
      "inputs": [],
      "name": "howMuchCanIContributeNow",
      "outputs": [
        {
          "name": "",
          "type": "uint256"
        }
      ],
      "payable": false,
      "stateMutability": "view",
      "type": "function"
    },
    {
      "constant": true,
      "inputs": [
        {
          "name": "_beneficiary",
          "type": "address"
        }
      ],
      "name": "howMuchCanXContributeNow",
      "outputs": [
        {
          "name": "",
          "type": "uint256"
        }
      ],
      "payable": false,
      "stateMutability": "view",
      "type": "function"
    },
    {
      "constant": true,
      "inputs": [
        {
          "name": "_time",
          "type": "uint256"
        }
      ],
      "name": "getSaleDay",
      "outputs": [
        {
          "name": "",
          "type": "uint8"
        }
      ],
      "payable": false,
      "stateMutability": "view",
      "type": "function"
    },
    {
      "constant": true,
      "inputs": [],
      "name": "getSaleDayNow",
      "outputs": [
        {
          "name": "",
          "type": "uint8"
        }
      ],
      "payable": false,
      "stateMutability": "view",
      "type": "function"
    },
    {
      "constant": true,
      "inputs": [],
      "name": "getContributorsCount",
      "outputs": [
        {
          "name": "",
          "type": "uint256"
        }
      ],
      "payable": false,
      "stateMutability": "view",
      "type": "function"
    },
    {
      "constant": true,
      "inputs": [
        {
          "name": "_pending",
          "type": "bool"
        },
        {
          "name": "_claimed",
          "type": "bool"
        }
      ],
      "name": "getContributors",
      "outputs": [
        {
          "name": "contributors",
          "type": "address[]"
        }
      ],
      "payable": false,
      "stateMutability": "view",
      "type": "function"
    },
    {
      "constant": true,
      "inputs": [],
      "name": "getTravelkoinBalance",
      "outputs": [
        {
          "name": "",
          "type": "uint256"
        }
      ],
      "payable": false,
      "stateMutability": "view",
      "type": "function"
    },
    {
      "constant": false,
      "inputs": [
        {
          "name": "_beneficiary",
          "type": "address"
        }
      ],
      "name": "buyTokens",
      "outputs": [],
      "payable": true,
      "stateMutability": "payable",
      "type": "function"
    }
  ],
  "bytecode": "0x60606040526006805460a060020a61ffff02191690556103e8600955690bc3a4806cfeba2c0000600a5567016345785d8a0000600d55341561004057600080fd5b60405160e080611b76833981016040528080519190602001805191906020018051919060200180519190602001805191906020018051919060200180519150829050868685844284101561009357600080fd5b838310156100a057600080fd5b600082116100ad57600080fd5b600160a060020a03811615156100c257600080fd5b60019390935560029190915560045560038054600160a060020a0319908116600160a060020a039384161790915560068054909116339092169190911790556000811161010e57600080fd5b600755600160a060020a038716151561012657600080fd5b5060088054600160a060020a031916600160a060020a039790971696909617909555600a949094556009939093555050600d55611a0e806101686000396000f3006060604052600436106101df5763ffffffff60e060020a6000350416631a6fbf7c81146101ea57806321c8f5e014610219578063224348361461023e5780632c4e722e146102575780632e1e786d1461026a5780633197cbb614610339578063332e1a811461034c57806334fcf437146103bc578063355274ea146103d25780633f4ba83a146103e55780634042b66f146103f85780634451d89f1461040b57806344691f7e1461041e57806344a2d0d214610445578063473b0d461461045b57806347786d37146104715780634bb278f314610487578063519ee19e1461049a578063521eb273146104ad57806356afd6e3146104c05780635c975abb146104d357806378e97925146104e65780638456cb59146104f957806384a1f5a51461050c5780638ac97efb1461052a5780638d4e4083146105535780638da5cb5b146105665780639b19251a146105795780639e1a4d1914610598578063a7a957ff146105ab578063aaffadf3146105be578063bdcbd9d1146105d1578063be22bca6146105f0578063c7efa6891461060f578063c83261bd14610625578063da5e9c6214610644578063ec8ac4d81461065d578063ecb70fb714610671578063f2fde38b14610684578063fc0c546a146106a3578063feed5561146106b6575b6101e8336106c9565b005b34156101f557600080fd5b6101fd61077c565b604051600160a060020a03909116815260200160405180910390f35b341561022457600080fd5b61022c61078b565b60405190815260200160405180910390f35b341561024957600080fd5b6101e8600435602435610866565b341561026257600080fd5b61022c6108b7565b341561027557600080fd5b6101e8600460248135818101908301358060208181020160405190810160405280939291908181526020018383602002808284378201915050505050509190803590602001908201803590602001908080602002602001604051908101604052809392919081815260200183836020028082843782019150505050505091908035906020019082018035906020019080806020026020016040519081016040528093929190818152602001838360200280828437509496506108bd95505050505050565b341561034457600080fd5b61022c610c33565b341561035757600080fd5b61036960043515156024351515610c39565b60405160208082528190810183818151815260200191508051906020019060200280838360005b838110156103a8578082015183820152602001610390565b505050509050019250505060405180910390f35b34156103c757600080fd5b6101e8600435610de9565b34156103dd57600080fd5b61022c610e28565b34156103f057600080fd5b6101e8610e2e565b341561040357600080fd5b61022c610ead565b341561041657600080fd5b6101e8610eb3565b341561042957600080fd5b610431610ee6565b604051901515815260200160405180910390f35b341561045057600080fd5b6101fd600435610eef565b341561046657600080fd5b6101e8600435610f17565b341561047c57600080fd5b6101e8600435610f49565b341561049257600080fd5b6101e8610f89565b34156104a557600080fd5b61022c611029565b34156104b857600080fd5b6101fd61102f565b34156104cb57600080fd5b61022c61103e565b34156104de57600080fd5b61043161104e565b34156104f157600080fd5b61022c61105e565b341561050457600080fd5b6101e8611064565b341561051757600080fd5b6101e860048035602481019101356110e8565b341561053557600080fd5b61053d61114f565b60405160ff909116815260200160405180910390f35b341561055e57600080fd5b610431611158565b341561057157600080fd5b6101fd611168565b341561058457600080fd5b610431600160a060020a0360043516611177565b34156105a357600080fd5b61022c61118c565b34156105b657600080fd5b61053d611192565b34156105c957600080fd5b61022c61119d565b34156105dc57600080fd5b61022c600160a060020a03600435166111a3565b34156105fb57600080fd5b61022c600160a060020a0360043516611294565b341561061a57600080fd5b61053d6004356112a6565b341561063057600080fd5b6101e8600160a060020a03600435166112e7565b341561064f57600080fd5b61022c60ff60043516611558565b6101e8600160a060020a03600435166106c9565b341561067c57600080fd5b61043161156a565b341561068f57600080fd5b6101e8600160a060020a0360043516611582565b34156106ae57600080fd5b6101fd61161d565b34156106c157600080fd5b61022c61162c565b6006546000908190819060a060020a900460ff16156106e757600080fd5b600160a060020a03841615156106fc57600080fd5b610705846111a3565b92506107118334611632565b91506000821161072057600080fd5b61072a848361164a565b61073a348363ffffffff6116a016565b9050600081111561077657600160a060020a03331681156108fc0282604051600060405180830381858888f19350505050151561077657600080fd5b50505050565b600854600160a060020a031681565b600854600090600160a060020a031663fc0c546a82604051602001526040518163ffffffff1660e060020a028152600401602060405180830381600087803b15156107d557600080fd5b6102c65a03f115156107e657600080fd5b50505060405180519050600160a060020a03166370a082313060006040516020015260405160e060020a63ffffffff8416028152600160a060020a039091166004820152602401602060405180830381600087803b151561084657600080fd5b6102c65a03f1151561085757600080fd5b50505060405180519150505b90565b60065433600160a060020a0390811691161461088157600080fd5b610889610ee6565b1561089357600080fd5b42821180156108a157508082105b15156108ac57600080fd5b600191909155600255565b60095481565b600654600090819033600160a060020a039081169116146108dd57600080fd5b6108e5610ee6565b156108ef57600080fd5b50600090508080835111156109f55782516010805460ff191660ff92909216919091179055600091505b82518210156109f55761093382600163ffffffff6116b216565b905082828151811061094157fe5b9060200190602002015160ff8216600090815260126020526040902054146109ea5782828151811061096f57fe5b9060200190602002015160ff8216600090815260126020526040902055600160a060020a0333167fd5687efd49db15a67bba2e8f383f2231ff233c261ccd6e759a2527d80380d93c828585815181106109c457fe5b9060200190602002015160405160ff909216825260208201526040908101905180910390a25b600190910190610919565b600091505b8451821015610b11576000858381518110610a1157fe5b90602001906020020151600160a060020a03161415610a2f57600080fd5b60116000868481518110610a3f57fe5b90602001906020020151600160a060020a0316815260208101919091526040016000205460ff161515610b0657600160116000878581518110610a7e57fe5b90602001906020020151600160a060020a031681526020810191909152604001600020805460ff1916911515919091179055848281518110610abc57fe5b90602001906020020151600160a060020a031633600160a060020a03167f989ceab15151ad117c420bf6c2f17f42cab53f8a72c3d259d61de6af2ab74c7360405160405180910390a35b6001909101906109fa565b600091505b8351821015610c2c576000848381518110610b2d57fe5b90602001906020020151600160a060020a03161415610b4b57600080fd5b60116000858481518110610b5b57fe5b90602001906020020151600160a060020a0316815260208101919091526040016000205460ff1615610c2157600060116000868581518110610b9957fe5b90602001906020020151600160a060020a031681526020810191909152604001600020805460ff1916911515919091179055838281518110610bd757fe5b90602001906020020151600160a060020a031633600160a060020a03167feaddf568a5d6071d7c0ec91f9652fed569ad6bb5a976a93ab8f671e3d7eab95760405160405180910390a35b600190910190610b16565b5050505050565b60025481565b610c41611993565b600080610c4c611993565b60135460009350839250604051805910610c635750595b90808252806020026020018201604052509050600092505b601354831015610d6e57858015610cc957506000600e6000601386815481101515610ca257fe5b6000918252602080832090910154600160a060020a03168352820192909252604001902054115b80610d115750848015610d115750600e6000601385815481101515610cea57fe5b6000918252602080832090910154600160a060020a03168352820192909252604001902054155b15610d63576013805484908110610d2457fe5b600091825260209091200154600160a060020a0316818381518110610d4557fe5b600160a060020a039092166020928302909101909101526001909101905b600190920191610c7b565b81604051805910610d7c5750595b90808252806020026020018201604052509350600092505b81831015610de057808381518110610da857fe5b90602001906020020151848481518110610dbe57fe5b600160a060020a03909216602092830290910190910152600190920191610d94565b50505092915050565b60065433600160a060020a03908116911614610e0457600080fd5b610e0c610ee6565b15610e1657600080fd5b60008111610e2357600080fd5b600955565b600a5481565b60065433600160a060020a03908116911614610e4957600080fd5b60065460a060020a900460ff161515610e6157600080fd5b6006805474ff0000000000000000000000000000000000000000191690557f7805862f689e2f13df9f062ff482ad3ad112aca9e0847911ed832e158c525b3360405160405180910390a1565b60055481565b610ebb61156a565b8015610ed0575060065460a860020a900460ff165b1515610edb57600080fd5b610ee4336112e7565b565b60015442101590565b6013805482908110610efd57fe5b600091825260209091200154600160a060020a0316905081565b60065433600160a060020a03908116911614610f3257600080fd5b610f3a610ee6565b15610f4457600080fd5b600d55565b60065433600160a060020a03908116911614610f6457600080fd5b610f6c610ee6565b15610f7657600080fd5b6000819010610f8457600080fd5b600a55565b60065433600160a060020a03908116911614610fa457600080fd5b60065460a860020a900460ff1615610fbb57600080fd5b610fc361156a565b1515610fce57600080fd5b610fd66116cc565b7f6823b073d48d6e3a7d385eeb601452d680e74bb46afe3255a7d778f3a9b1768160405160405180910390a16006805475ff000000000000000000000000000000000000000000191660a860020a179055565b600b5481565b600354600160a060020a031681565b6000611049336111a3565b905090565b60065460a060020a900460ff1681565b60015481565b60065433600160a060020a0390811691161461107f57600080fd5b60065460a060020a900460ff161561109657600080fd5b6006805474ff0000000000000000000000000000000000000000191660a060020a1790557f6985a02210a168e66602d3235cb6db0e70f92b3ba4d376a33c0f3d9434bff62560405160405180910390a1565b60006110f261156a565b8015611107575060065460a860020a900460ff165b151561111257600080fd5b5060005b8181101561114a5761114283838381811061112d57fe5b90506020020135600160a060020a03166112e7565b600101611116565b505050565b60105460ff1681565b60065460a860020a900460ff1681565b600654600160a060020a031681565b60116020526000908152604090205460ff1681565b600c5481565b6000611049426112a6565b600d5481565b6000808080600160a060020a03851615156111bd57600080fd5b6111c5610ee6565b15806111d457506111d461156a565b156111e2576000935061128c565b600554600a546111f79163ffffffff6116a016565b9250611201611192565b60105490925060ff9081169083161161128857600160a060020a03851660009081526011602052604090205460ff16151561123f576000935061128c565b600160a060020a0385166000908152600e602090815260408083205460ff861684526012909252909120546112799163ffffffff6116a016565b90506112858382611632565b92505b8293505b505050919050565b600e6020526000908152604090205481565b60006112e160016112d5620151806112c9600154876116a090919063ffffffff16565b9063ffffffff61174516565b9063ffffffff6116b216565b92915050565b6000806112f261156a565b8015611307575060065460a860020a900460ff165b151561131257600080fd5b60065460a060020a900460ff161561132957600080fd5b600160a060020a0383166000908152600e60205260408120549250821161134f57600080fd5b600f54600160a060020a0384166000908152600e6020526040902054600b5461138392916112c9919063ffffffff61175c16565b600160a060020a0384166000908152600e6020526040812055600c549091506113b2908263ffffffff6116a016565b600c55600854600160a060020a03166393a378da848360405160e060020a63ffffffff8516028152600160a060020a0390921660048301526024820152604401600060405180830381600087803b151561140b57600080fd5b6102c65a03f1151561141c57600080fd5b5050600854600160a060020a0316905063fc0c546a6000604051602001526040518163ffffffff1660e060020a028152600401602060405180830381600087803b151561146857600080fd5b6102c65a03f1151561147957600080fd5b50505060405180519050600160a060020a031663a9059cbb848360006040516020015260405160e060020a63ffffffff8516028152600160a060020a0390921660048301526024820152604401602060405180830381600087803b15156114df57600080fd5b6102c65a03f115156114f057600080fd5b50505060405180519050151561150557600080fd5b82600160a060020a031633600160a060020a03167f29842d15961c304dad3345dcde04db3059d13a4455ed0646e5daf7c993a04bc6848460405191825260208201526040908101905180910390a3505050565b60126020526000908152604090205481565b6000611574611787565b80611049575061104961178f565b60065433600160a060020a0390811691161461159d57600080fd5b600160a060020a03811615156115b257600080fd5b600654600160a060020a0380831691167f8be0079c531659141344cd1fd0a4f28419497f9722a3daafe3b4186f6b6457e060405160405180910390a36006805473ffffffffffffffffffffffffffffffffffffffff1916600160a060020a0392909216919091179055565b600054600160a060020a031681565b60135490565b60008183116116415782611643565b815b9392505050565b600160a060020a038216151561165f57600080fd5b6116688161179a565b151561167357600080fd5b61167d82826117b6565b600554611690908263ffffffff6116b216565b60055561169c8161190b565b5050565b6000828211156116ac57fe5b50900390565b6000828201838110156116c157fe5b8091505b5092915050565b6116d461078b565b600b819055600c55600854600160a060020a031663b0e9a1ef62127500420160405160e060020a63ffffffff84160281526004810191909152602401600060405180830381600087803b151561172957600080fd5b6102c65a03f1151561173a57600080fd5b505050610ee4610ee4565b600080828481151561175357fe5b04949350505050565b60008083151561176f57600091506116c5565b5082820282848281151561177f57fe5b04146116c157fe5b600254421190565b600754600554101590565b60006117a582611941565b80156112e1575050600d5490101590565b6000600160a060020a03831615156117cd57600080fd5b50600f5481906117e3908263ffffffff6116b216565b600f55600160a060020a0383166000908152600e6020526040902054151561184a57601380546001810161181783826119a5565b506000918252602090912001805473ffffffffffffffffffffffffffffffffffffffff1916600160a060020a0385161790555b600160a060020a0383166000908152600e6020526040902054611873908263ffffffff6116b216565b600e600085600160a060020a0316600160a060020a031681526020019081526020016000208190555082600160a060020a031633600160a060020a03167fc29b8032387f267ddc010037627574acbf3b1a65a6022ca8ba6c25f0ba85ee7584846013805490506005546040518085815260200184815260200183815260200182815260200194505050505060405180910390a3505050565b600354600160a060020a031681156108fc0282604051600060405180830381858888f19350505050151561193e57600080fd5b50565b600061194c82611962565b80156112e1575061195b61178f565b1592915050565b6000806000600154421015801561197b57506002544211155b91505082151581801561198b5750805b949350505050565b60206040519081016040526000815290565b81548183558181151161114a5760008381526020902061114a91810190830161086391905b808211156119de57600081556001016119ca565b50905600a165627a7a72305820059d5f4d877998ea6922a7c9637ed25c651aa64ca1c1b25230c6bff300f2543a0029",
  "source": "pragma solidity ^0.4.18;\n\nimport \"./minime_0.2.0/ERC20MiniMe.sol\";\nimport \"./minime_0.2.0/TokenController.sol\";\nimport \"zeppelin-solidity/contracts/lifecycle/Pausable.sol\";\nimport \"./TravelkoinCappedCrowdsale.sol\";\nimport \"./TravelkoinFinalizableCrowdsale.sol\";\n\n\n/**\n * @title TravelkoinNormalSale\n * @author Bjorn Harvold\n * @notice Travelkoin Token Sale round one normal sale contract, with softcap and hardcap (cap)\n * @dev This contract has to be finalized before refund or token claims are enabled\n */\ncontract TravelkoinNormalSale is Pausable, TravelkoinFinalizableCrowdsale, TravelkoinCappedCrowdsale {\n    // the token is here\n    TokenController public travelkoinController;\n\n    uint256 public rate = 1000;\n    uint256 public cap = 55555 ether;\n\n    // total token sold and undistributed token count\n    uint256 public tokenSold;\n    uint256 public tokenBalance;\n\n    // minimum contribution, 0.1ETH\n    uint256 public minContribution = 0.1 ether;\n\n    // stakes contains contribution stake in wei\n    mapping(address => uint256) public stakesPerUser;\n    uint256 totalStakes;\n\n    // first {whitelistDayCount} days of token sale is exclusive for whitelisted addresses\n    // {whitelistDayMaxStake} contains the max stake limits per address for each whitelist sales day\n    // {whitelist} contains who can contribute during whitelist period\n    uint8 public whitelistDayCount;\n    mapping (address => bool) public whitelist;\n    mapping (uint8 => uint256) public whitelistDayMaxStake;\n\n    // addresses of contributors to handle finalization after token sale end (refunds or token claims)\n    address[] public contributorsKeys;\n\n    // events for token purchase during sale and claiming tokens after sale\n    event TokenClaimed(address indexed _claimer, address indexed _beneficiary, uint256 _stake, uint256 _amount);\n    event TokenPurchase(address indexed _purchaser, address indexed _beneficiary, uint256 _value, uint256 _stake, uint256 _participants, uint256 _weiRaised);\n\n    event WhitelistAddressAdded(address indexed _whitelister, address indexed _beneficiary);\n    event WhitelistAddressRemoved(address indexed _whitelister, address indexed _beneficiary);\n    event WhitelistSetDay(address indexed _whitelister, uint8 _day, uint256 _maxStake);\n\n\n    ////////////////\n    // Constructor and inherited function overrides\n    ////////////////\n\n    /// @notice Constructor to create TravelkoinNormalSale contract\n    /// @param _travelkoinController Address of travelkoinController\n    /// @param _startTime The start time of token sale in seconds.\n    /// @param _endTime The end time of token sale in seconds.\n    /// @param _minContribution The minimum contribution per transaction in wei (0.1 ETH)\n    /// @param _rate Number of TKT tokens per 1 ETH\n    /// @param _cap Maximum cap in wei, we can't raise more funds\n    /// @param _wallet Address of multisig wallet, which will get all the funds after successful sale\n    function TravelkoinNormalSale(\n        address _travelkoinController,\n        uint256 _startTime,\n        uint256 _endTime,\n        uint256 _minContribution,\n        uint256 _rate,\n        uint256 _cap,\n        address _wallet\n    )\n    TravelkoinCappedCrowdsale(_cap)\n    TravelkoinMiniMeCrowdsale(_startTime, _endTime, _rate, _wallet)\n    TravelkoinFinalizableCrowdsale()\n    public\n    {\n        // travelkoinController must be valid\n        require(_travelkoinController != address(0));\n        travelkoinController = TokenController(_travelkoinController);\n\n        // this is needed since super constructor wont overwrite overridden variables\n        cap = _cap;\n        rate = _rate;\n\n        minContribution = _minContribution;\n    }\n\n    /// @notice claimToken() for multiple addresses\n    /// @dev Anyone can call this function and distribute tokens after successful token sale\n    /// @param _beneficiaries Array of addresses for which we want to claim tokens\n    function claimTokensFor(address[] _beneficiaries) external afterSaleSuccess {\n        for (uint256 i = 0; i < _beneficiaries.length; i++) {\n            claimTokenFor(_beneficiaries[i]);\n        }\n    }\n\n    /// @notice Modifier for before sale cases\n    modifier beforeSale() {\n        require(!hasStarted());\n        _;\n    }\n\n    /// @notice Sets whitelist\n    /// @dev The length of _whitelistLimits says that the first X days of token sale is\n    ///  closed, meaning only for whitelisted addresses.\n    /// @param _add Array of addresses to add to whitelisted ethereum accounts\n    /// @param _remove Array of addresses to remove to whitelisted ethereum accounts\n    /// @param _whitelistLimits Array of limits in wei, where _whitelistLimits[0] = 10 ETH means\n    ///  whitelisted addresses can contribute maximum 10 ETH stakes on the first day\n    ///  After _whitelistLimits.length days, there will be no limits per address (besides hard cap)\n    function setWhitelist(address[] _add, address[] _remove, uint256[] _whitelistLimits) public onlyOwner beforeSale {\n        uint256 i = 0;\n        uint8 j = 0; // access max daily stakes\n\n        // we override whiteListLimits only if it was supplied as an argument\n        if (_whitelistLimits.length > 0) {\n            // saving whitelist max stake limits for each day -> uint256 maxStakeLimit\n            whitelistDayCount = uint8(_whitelistLimits.length);\n\n            for (i = 0; i < _whitelistLimits.length; i++) {\n                // instead of making the array day value 0-based we make it more logical so Day 1 = 1.\n                j = uint8(i.add(1));\n                if (whitelistDayMaxStake[j] != _whitelistLimits[i]) {\n                    whitelistDayMaxStake[j] = _whitelistLimits[i];\n                    WhitelistSetDay(msg.sender, j, _whitelistLimits[i]);\n                }\n            }\n        }\n\n        // adding whitelist addresses\n        for (i = 0; i < _add.length; i++) {\n            require(_add[i] != address(0));\n\n            if (!whitelist[_add[i]]) {\n                whitelist[_add[i]] = true;\n                WhitelistAddressAdded(msg.sender, _add[i]);\n            }\n        }\n\n        // removing whitelist addresses\n        for (i = 0; i < _remove.length; i++) {\n            require(_remove[i] != address(0));\n\n            if (whitelist[_remove[i]]) {\n                whitelist[_remove[i]] = false;\n                WhitelistAddressRemoved(msg.sender, _remove[i]);\n            }\n        }\n    }\n\n    /// @notice Sets min contribution before sale\n    function setMinContribution(uint256 _minContribution) public onlyOwner beforeSale {\n        minContribution = _minContribution;\n    }\n\n    /// @notice Sets soft and max cap\n    function setCap(uint256 _cap) public onlyOwner beforeSale {\n        require(0 < _cap);\n        cap = _cap;\n    }\n\n    /// @notice Sets crowdsale start and end time\n    function setTimes(uint256 _startTime, uint256 _endTime) public onlyOwner beforeSale {\n        require(_startTime > now && _startTime < _endTime);\n        startTime = _startTime;\n        endTime = _endTime;\n    }\n\n    /// @notice Set rate\n    function setRate(uint256 _rate) public onlyOwner beforeSale {\n        require(_rate > 0);\n        rate = _rate;\n    }\n\n\n    ////////////////\n    // AFTER token sale\n    ////////////////\n\n    /// @notice Modifier for cases where sale is closed and was successful.\n    /// @dev It checks whether the sale has ended AND whether the contract is finalized\n    modifier afterSaleSuccess() {\n        require(hasEnded() && isFinalized);\n        _;\n    }\n\n    /// @notice Claim token for msg.sender after token sale based on stake.\n    function claimToken() public afterSaleSuccess {\n        claimTokenFor(msg.sender);\n    }\n\n    /// @notice Claim token after token sale based on stake.\n    /// @dev Anyone can call this function and distribute tokens after successful token sale\n    /// @param _beneficiary Address of the beneficiary who gets the token\n    function claimTokenFor(address _beneficiary) public afterSaleSuccess whenNotPaused {\n        uint256 stake = stakesPerUser[_beneficiary];\n        require(stake > 0);\n\n        // calculate token count\n        uint256 tokens = tokenSold.mul(stakesPerUser[_beneficiary]).div(totalStakes);\n\n        // set the stake 0 for beneficiary\n        stakesPerUser[_beneficiary] = 0;\n\n        // decrease tokenBalance\n        tokenBalance = tokenBalance.sub(tokens);\n\n        // distribute hodlr stake\n        travelkoinController.addHodlerStake(_beneficiary, tokens);\n\n        // distribute token\n        require(travelkoinController.token().transfer(_beneficiary, tokens));\n        TokenClaimed(\n            msg.sender,\n            _beneficiary,\n            stake,\n            tokens\n        );\n    }\n\n\n    ////////////////\n    // Constant, helper functions\n    ////////////////\n\n    /// @notice How many wei can the msg.sender contribute now.\n    function howMuchCanIContributeNow() view public returns (uint256) {\n        return howMuchCanXContributeNow(msg.sender);\n    }\n\n    /// @notice How many wei can an ethereum address contribute now.\n    /// @dev This function can return 0 when the crowdsale is stopped\n    ///  or the address has maxed the current day's whitelist cap,\n    ///  it is possible, that next day he can contribute\n    /// @param _beneficiary Ethereum address\n    /// @return Number of wei the _beneficiary can contribute now.\n    function howMuchCanXContributeNow(address _beneficiary) view public returns (uint256) {\n        require(_beneficiary != address(0));\n\n        if (!hasStarted() || hasEnded()) {\n            return 0;\n        }\n\n        // wei to hard cap\n        uint256 weiToCap = cap.sub(weiRaised);\n\n        uint8 _saleDay = getSaleDayNow();\n        if (_saleDay <= whitelistDayCount) {\n            // address can't contribute if it is not whitelisted\n            if (!whitelist[_beneficiary]) {\n                return 0;\n            }\n\n            // personal cap is the daily whitelist limit minus the stakes the address already has\n            uint256 weiToPersonalCap = whitelistDayMaxStake[_saleDay].sub(stakesPerUser[_beneficiary]);\n\n            weiToCap = uint256Min(weiToCap, weiToPersonalCap);\n        }\n\n        return weiToCap;\n    }\n\n    /// @notice For a give date how many 24 hour blocks have elapsed since token sale start\n    /// @dev _time has to be bigger than the startTime of token sale, otherwise SafeMath's div will throw.\n    ///  Within 24 hours of token sale it will return 1, \n    ///  between 24 and 48 hours it will return 2, etc.\n    /// @param _time Date in seconds for which we want to know which sale day it is\n    /// @return Number of 24 hour blocks elapsing since token sale start starting from 1\n    function getSaleDay(uint256 _time) view public returns (uint8) {\n        return uint8(_time.sub(startTime).div(60 * 60 * 24).add(1));\n    }\n\n    /// @notice How many 24 hour blocks have ellapsed since token sale start\n    /// @return Number of 24 hour blocks ellapsing since token sale start starting from 1\n    function getSaleDayNow() view public returns (uint8) {\n        return getSaleDay(now);\n    }\n\n    ////////////////\n    // Test and contribution web app, NO audit is needed\n    ////////////////\n\n    /// @notice How many contributors we have.\n    /// @return Number of different contributor ethereum addresses\n    function getContributorsCount() view public returns (uint256) {\n        return contributorsKeys.length;\n    }\n\n    /// @notice Get contributor addresses to manage refunds or token claims.\n    /// @dev If the sale is not yet successful, then it searches in the TravelkoinRefundVault.\n    ///  If the sale is successful, it searches in contributors.\n    /// @param _pending If true, then returns addresses which didn't get refunded or their tokens distributed to them\n    /// @param _claimed If true, then returns already refunded or token distributed addresses\n    /// @return Array of addresses of contributors\n    function getContributors(bool _pending, bool _claimed) view public returns (address[] contributors) {\n        uint256 i = 0;\n        uint256 results = 0;\n        address[] memory _contributors = new address[](contributorsKeys.length);\n\n\n        for (i = 0; i < contributorsKeys.length; i++) {\n            if (_pending && stakesPerUser[contributorsKeys[i]] > 0 || _claimed && stakesPerUser[contributorsKeys[i]] == 0) {\n                _contributors[results] = contributorsKeys[i];\n                results++;\n            }\n        }\n\n        contributors = new address[](results);\n        for (i = 0; i < results; i++) {\n            contributors[i] = _contributors[i];\n        }\n\n        return contributors;\n    }\n\n    /// @notice How many TKT tokens do this contract have\n    function getTravelkoinBalance() view public returns (uint256) {\n        return travelkoinController.token().balanceOf(address(this));\n    }\n\n    /// @notice Minimum between two uint8 numbers\n    function uint8Min(uint8 a, uint8 b) pure internal returns (uint8) {\n        return a > b ? b : a;\n    }\n\n    /// @notice Minimum between two uint256 numbers\n    function uint256Min(uint256 a, uint256 b) pure internal returns (uint256) {\n        return a > b ? b : a;\n    }\n\n\n    /// @dev Overriding Crowdsale#validPurchase to add min contribution logic\n    /// @param _weiAmount Contribution amount in wei\n    /// @return true if contribution is okay\n    function validPurchase(uint256 _weiAmount) internal constant returns (bool) {\n        return super.validPurchase(_weiAmount) && _weiAmount >= minContribution;\n    }\n\n    /// @dev Extending RefundableCrowdsale#finalization sending back excess tokens to travelkoinController\n    function finalization() internal {\n        tokenSold = getTravelkoinBalance();\n\n        // unclaimed tokens\n        tokenBalance = tokenSold;\n\n        // hodler stake counting starts 14 days after closing normal sale\n        travelkoinController.setHodlerTime(now + 14 days);\n\n        super.finalization();\n    }\n\n    /// @dev Overriding Crowdsale#transferToken, which keeps track of contributions DURING token sale\n    /// @param _beneficiary Address of the recepient of the tokens\n    /// @param _weiAmount Contribution in wei\n    function transferToken(address _beneficiary, uint256 _weiAmount) internal {\n        require(_beneficiary != address(0));\n\n        uint256 _stake = _weiAmount;\n\n        // saving total stakes to be able to distribute tokens at the end\n        totalStakes = totalStakes.add(_stake);\n\n        if (stakesPerUser[_beneficiary] == 0) {\n            contributorsKeys.push(_beneficiary);\n        }\n\n        stakesPerUser[_beneficiary] = stakesPerUser[_beneficiary].add(_stake);\n\n        TokenPurchase(\n            msg.sender,\n            _beneficiary,\n            _weiAmount,\n            _stake,\n            contributorsKeys.length,\n            weiRaised\n        );\n    }\n\n    /// @dev Overriding Crowdsale#buyTokens to add partial refund\n    /// @param _beneficiary Beneficiary of the token purchase\n    function buyTokens(address _beneficiary) public payable whenNotPaused {\n        require(_beneficiary != address(0));\n\n        uint256 weiToCap = howMuchCanXContributeNow(_beneficiary);\n        uint256 weiAmount = uint256Min(weiToCap, msg.value);\n\n        require(weiAmount > 0);\n\n        buyTokens(_beneficiary, weiAmount);\n\n        // handle refund\n        uint256 refund = msg.value.sub(weiAmount);\n        if (refund > 0) {\n            msg.sender.transfer(refund);\n        }\n    }\n}",
  "sourcePath": "/Users/crash/git/travelkoin/travelkoin-contracts/contracts/TravelkoinNormalSale.sol",
  "compiler": {
    "name": "solc",
    "version": "0.4.19+commit.c4cbbb05.Emscripten.clang"
  },
  "schemaVersion": "1.0.1",
  "updatedAt": "2018-02-18T06:18:39.496Z"
}