{
  "contractName": "TravelkoinCrowdsale",
  "abi": [
    {
      "constant": true,
      "inputs": [],
      "name": "hasClosed",
      "outputs": [
        {
          "name": "",
          "type": "bool"
        }
      ],
      "payable": false,
      "stateMutability": "view",
      "type": "function"
    },
    {
      "constant": true,
      "inputs": [],
      "name": "rate",
      "outputs": [
        {
          "name": "",
          "type": "uint256"
        }
      ],
      "payable": false,
      "stateMutability": "view",
      "type": "function"
    },
    {
      "constant": true,
      "inputs": [],
      "name": "cap",
      "outputs": [
        {
          "name": "",
          "type": "uint256"
        }
      ],
      "payable": false,
      "stateMutability": "view",
      "type": "function"
    },
    {
      "constant": true,
      "inputs": [],
      "name": "weiRaised",
      "outputs": [
        {
          "name": "",
          "type": "uint256"
        }
      ],
      "payable": false,
      "stateMutability": "view",
      "type": "function"
    },
    {
      "constant": true,
      "inputs": [],
      "name": "closingTime",
      "outputs": [
        {
          "name": "",
          "type": "uint256"
        }
      ],
      "payable": false,
      "stateMutability": "view",
      "type": "function"
    },
    {
      "constant": true,
      "inputs": [],
      "name": "capReached",
      "outputs": [
        {
          "name": "",
          "type": "bool"
        }
      ],
      "payable": false,
      "stateMutability": "view",
      "type": "function"
    },
    {
      "constant": true,
      "inputs": [],
      "name": "wallet",
      "outputs": [
        {
          "name": "",
          "type": "address"
        }
      ],
      "payable": false,
      "stateMutability": "view",
      "type": "function"
    },
    {
      "constant": true,
      "inputs": [],
      "name": "dayOneMaxContribution",
      "outputs": [
        {
          "name": "",
          "type": "uint256"
        }
      ],
      "payable": false,
      "stateMutability": "view",
      "type": "function"
    },
    {
      "constant": false,
      "inputs": [
        {
          "name": "_beneficiary",
          "type": "address"
        }
      ],
      "name": "removeFromWhitelist",
      "outputs": [],
      "payable": false,
      "stateMutability": "nonpayable",
      "type": "function"
    },
    {
      "constant": false,
      "inputs": [
        {
          "name": "_beneficiaries",
          "type": "address[]"
        }
      ],
      "name": "addManyToWhitelist",
      "outputs": [],
      "payable": false,
      "stateMutability": "nonpayable",
      "type": "function"
    },
    {
      "constant": true,
      "inputs": [],
      "name": "owner",
      "outputs": [
        {
          "name": "",
          "type": "address"
        }
      ],
      "payable": false,
      "stateMutability": "view",
      "type": "function"
    },
    {
      "constant": true,
      "inputs": [
        {
          "name": "",
          "type": "address"
        }
      ],
      "name": "whitelist",
      "outputs": [
        {
          "name": "",
          "type": "bool"
        }
      ],
      "payable": false,
      "stateMutability": "view",
      "type": "function"
    },
    {
      "constant": true,
      "inputs": [],
      "name": "minContribution",
      "outputs": [
        {
          "name": "",
          "type": "uint256"
        }
      ],
      "payable": false,
      "stateMutability": "view",
      "type": "function"
    },
    {
      "constant": true,
      "inputs": [],
      "name": "openingTime",
      "outputs": [
        {
          "name": "",
          "type": "uint256"
        }
      ],
      "payable": false,
      "stateMutability": "view",
      "type": "function"
    },
    {
      "constant": false,
      "inputs": [
        {
          "name": "_beneficiary",
          "type": "address"
        }
      ],
      "name": "addToWhitelist",
      "outputs": [],
      "payable": false,
      "stateMutability": "nonpayable",
      "type": "function"
    },
    {
      "constant": false,
      "inputs": [
        {
          "name": "_beneficiary",
          "type": "address"
        }
      ],
      "name": "buyTokens",
      "outputs": [],
      "payable": true,
      "stateMutability": "payable",
      "type": "function"
    },
    {
      "constant": false,
      "inputs": [
        {
          "name": "newOwner",
          "type": "address"
        }
      ],
      "name": "transferOwnership",
      "outputs": [],
      "payable": false,
      "stateMutability": "nonpayable",
      "type": "function"
    },
    {
      "constant": true,
      "inputs": [],
      "name": "token",
      "outputs": [
        {
          "name": "",
          "type": "address"
        }
      ],
      "payable": false,
      "stateMutability": "view",
      "type": "function"
    },
    {
      "inputs": [
        {
          "name": "_startTime",
          "type": "uint256"
        },
        {
          "name": "_endTime",
          "type": "uint256"
        },
        {
          "name": "_minContribution",
          "type": "uint256"
        },
        {
          "name": "_dayOneMaxContribution",
          "type": "uint256"
        },
        {
          "name": "_rate",
          "type": "uint256"
        },
        {
          "name": "_cap",
          "type": "uint256"
        },
        {
          "name": "_wallet",
          "type": "address"
        },
        {
          "name": "_token",
          "type": "address"
        }
      ],
      "payable": false,
      "stateMutability": "nonpayable",
      "type": "constructor"
    },
    {
      "payable": true,
      "stateMutability": "payable",
      "type": "fallback"
    },
    {
      "anonymous": false,
      "inputs": [
        {
          "indexed": true,
          "name": "_beneficiary",
          "type": "address"
        },
        {
          "indexed": false,
          "name": "_amount",
          "type": "uint256"
        }
      ],
      "name": "InsufficientAmount",
      "type": "event"
    },
    {
      "anonymous": false,
      "inputs": [
        {
          "indexed": true,
          "name": "_beneficiary",
          "type": "address"
        },
        {
          "indexed": false,
          "name": "_amount",
          "type": "uint256"
        }
      ],
      "name": "ExceededAmount",
      "type": "event"
    },
    {
      "anonymous": false,
      "inputs": [
        {
          "indexed": true,
          "name": "previousOwner",
          "type": "address"
        },
        {
          "indexed": true,
          "name": "newOwner",
          "type": "address"
        }
      ],
      "name": "OwnershipTransferred",
      "type": "event"
    },
    {
      "anonymous": false,
      "inputs": [
        {
          "indexed": true,
          "name": "purchaser",
          "type": "address"
        },
        {
          "indexed": true,
          "name": "beneficiary",
          "type": "address"
        },
        {
          "indexed": false,
          "name": "value",
          "type": "uint256"
        },
        {
          "indexed": false,
          "name": "amount",
          "type": "uint256"
        }
      ],
      "name": "TokenPurchase",
      "type": "event"
    },
    {
      "constant": true,
      "inputs": [],
      "name": "howMuchCanIContributeNow",
      "outputs": [
        {
          "name": "",
          "type": "uint256"
        }
      ],
      "payable": false,
      "stateMutability": "view",
      "type": "function"
    },
    {
      "constant": true,
      "inputs": [],
      "name": "getSaleDayNow",
      "outputs": [
        {
          "name": "",
          "type": "uint8"
        }
      ],
      "payable": false,
      "stateMutability": "view",
      "type": "function"
    }
  ],
  "bytecode": "0x606060405267016345785d8a0000600955670de0b6b3a7640000600a55341561002757600080fd5b60405161010080610bf58339810160405280805191906020018051919060200180519190602001805191906020018051919060200180519190602001805191906020018051915083905088888685856000831161008357600080fd5b600160a060020a038216151561009857600080fd5b600160a060020a03811615156100ad57600080fd5b60029290925560018054600160a060020a0319908116600160a060020a0393841617909155600080548216938316939093179092556004805490921633909116179055428210156100fd57600080fd5b8181101561010a57600080fd5b6006919091556007556000811161012057600080fd5b600855505050600992909255600a55505050610ab4806101416000396000f3006060604052600436106100f85763ffffffff60e060020a6000350416631515bc2b81146101035780632c4e722e1461012a578063355274ea1461014f5780634042b66f146101625780634b6753bc146101755780634f93594514610188578063521eb2731461019b57806356afd6e3146101ca5780636f2264d4146101dd5780638ab1d681146101f05780638c10671c1461020f5780638da5cb5b1461022d5780639b19251a14610240578063a7a957ff1461025f578063aaffadf314610288578063b7a8807c1461029b578063e43252d7146102ae578063ec8ac4d8146102cd578063f2fde38b146102e1578063fc0c546a14610300575b61010133610313565b005b341561010e57600080fd5b6101166103bb565b604051901515815260200160405180910390f35b341561013557600080fd5b61013d6103c3565b60405190815260200160405180910390f35b341561015a57600080fd5b61013d6103c9565b341561016d57600080fd5b61013d6103cf565b341561018057600080fd5b61013d6103d5565b341561019357600080fd5b6101166103db565b34156101a657600080fd5b6101ae6103e6565b604051600160a060020a03909116815260200160405180910390f35b34156101d557600080fd5b61013d6103f5565b34156101e857600080fd5b61013d61042f565b34156101fb57600080fd5b610101600160a060020a0360043516610435565b341561021a57600080fd5b6101016004803560248101910135610471565b341561023857600080fd5b6101ae6104e6565b341561024b57600080fd5b610116600160a060020a03600435166104f5565b341561026a57600080fd5b61027261050a565b60405160ff909116815260200160405180910390f35b341561029357600080fd5b61013d61051a565b34156102a657600080fd5b61013d610520565b34156102b957600080fd5b610101600160a060020a0360043516610526565b610101600160a060020a0360043516610313565b34156102ec57600080fd5b610101600160a060020a0360043516610565565b341561030b57600080fd5b6101ae610600565b346000610320838361060f565b610329826106df565b60035490915061033f908363ffffffff6106fc16565b60035561034c8382610716565b82600160a060020a031633600160a060020a03167f623b3804fa71d67900d064613da8f94b9617215ee90799290593e1745087ad18848460405191825260208201526040908101905180910390a36103a48383610720565b6103ac610724565b6103b68383610720565b505050565b600754421190565b60025481565b60085481565b60035481565b60075481565b600854600354101590565b600154600160a060020a031681565b33600160a060020a03811660009081526005602052604081205490919060ff16151561042057600080fd5b6104293361075a565b91505090565b600a5481565b60045433600160a060020a0390811691161461045057600080fd5b600160a060020a03166000908152600560205260409020805460ff19169055565b60045460009033600160a060020a0390811691161461048f57600080fd5b5060005b818110156103b6576001600560008585858181106104ad57fe5b60209081029290920135600160a060020a0316835250810191909152604001600020805460ff1916911515919091179055600101610493565b600454600160a060020a031681565b60056020526000908152604090205460ff1681565b6000610515426108c2565b905090565b60095481565b60065481565b60045433600160a060020a0390811691161461054157600080fd5b600160a060020a03166000908152600560205260409020805460ff19166001179055565b60045433600160a060020a0390811691161461058057600080fd5b600160a060020a038116151561059557600080fd5b600454600160a060020a0380831691167f8be0079c531659141344cd1fd0a4f28419497f9722a3daafe3b4186f6b6457e060405160405180910390a36004805473ffffffffffffffffffffffffffffffffffffffff1916600160a060020a0392909216919091179055565b600054600160a060020a031681565b81816009548110156106595781600160a060020a03167fdce8ba41991be5c19d38b7de7f9fbcb004ee89536c92c1a3c642e7a8fdfea8808260405190815260200160405180910390a25b60095481101561066857600080fd5b83836106738261075a565b8111156106b85781600160a060020a03167f2295db571c8530cc038e78ad2066423749fe0518fe18624eafaee812b91890478260405190815260200160405180910390a25b6106c18261075a565b8111156106cd57600080fd5b6106d786866108fd565b505050505050565b60006106f66002548361092890919063ffffffff16565b92915050565b60008282018381101561070b57fe5b8091505b5092915050565b6107208282610953565b5050565b600154600160a060020a03163480156108fc0290604051600060405180830381858888f19350505050151561075857600080fd5b565b60008060008060006107796003546008546109d490919063ffffffff16565b9350610784426108c2565b92508260ff16600114156108b85760008054600160a060020a03166370a0823188836040516020015260405160e060020a63ffffffff8416028152600160a060020a039091166004820152602401602060405180830381600087803b15156107eb57600080fd5b6102c65a03f115156107fc57600080fd5b5050506040518051905011156108a95760025460008054600160a060020a0316906370a082319089906040516020015260405160e060020a63ffffffff8416028152600160a060020a039091166004820152602401602060405180830381600087803b151561086a57600080fd5b6102c65a03f1151561087b57600080fd5b5050506040518051905081151561088e57fe5b04915081600a540390506108a284826109e6565b93506108b8565b6108b584600a546109e6565b93505b5091949350505050565b60006106f660016108f1620151806108e5600654876109d490919063ffffffff16565b9063ffffffff6109fe16565b9063ffffffff6106fc16565b6109078282610a15565b60085460035461091d908363ffffffff6106fc16565b111561072057600080fd5b60008083151561093b576000915061070f565b5082820282848281151561094b57fe5b041461070b57fe5b60008054600160a060020a03169063a9059cbb90849084906040516020015260405160e060020a63ffffffff8516028152600160a060020a0390921660048301526024820152604401602060405180830381600087803b15156109b557600080fd5b6102c65a03f115156109c657600080fd5b505050604051805150505050565b6000828211156109e057fe5b50900390565b60008183116109f557826109f7565b815b9392505050565b6000808284811515610a0c57fe5b04949350505050565b6006544210158015610a2957506007544211155b1515610a3457600080fd5b6107208282600160a060020a038216600090815260056020526040902054829060ff161515610a6257600080fd5b6103b68383600160a060020a0382161515610a7c57600080fd5b80151561072057600080fd00a165627a7a723058204fb9d3324bd6af986793e4f0ef99b96b56524112cadbead4287c7aee2f7101090029",
  "source": "pragma solidity ^0.4.18;\n\nimport \"zeppelin-solidity/contracts/crowdsale/validation/WhitelistedCrowdsale.sol\";\nimport \"zeppelin-solidity/contracts/crowdsale/validation/CappedCrowdsale.sol\";\nimport \"zeppelin-solidity/contracts/crowdsale/validation/TimedCrowdsale.sol\";\nimport \"./TravelkoinToken.sol\";\n\n\n/**\n * @title TravelkoinCrowdsale\n * @author Bjorn Harvold\n * @notice Travelkoin Token Sale round one normal sale contract with hard cap\n */\ncontract TravelkoinCrowdsale is WhitelistedCrowdsale, TimedCrowdsale, CappedCrowdsale {\n    using SafeMath for uint256;\n\n    // minimum contribution, 0.1ETH\n    uint256 public minContribution = 0.1 ether;\n    uint256 public dayOneMaxContribution = 1 ether;\n\n    event InsufficientAmount(address indexed _beneficiary, uint256 _amount);\n    event ExceededAmount(address indexed _beneficiary, uint256 _amount);\n\n    // makes sure the user is only sending the amount allowed for any given day\n    modifier minContributionOk(address _beneficiary, uint256 _weiAmount) {\n        if (_weiAmount < minContribution) {\n            InsufficientAmount(_beneficiary, _weiAmount);\n        }\n        require(_weiAmount >= minContribution);\n        _;\n    }\n\n    // makes sure the user is only sending the amount allowed for any given day\n    modifier amountOk(address _beneficiary, uint256 _weiAmount) {\n        if (_weiAmount > _howMuchCanXContributeNow(_beneficiary)) {\n            ExceededAmount(_beneficiary, _weiAmount);\n        }\n        require(_weiAmount <= _howMuchCanXContributeNow(_beneficiary));\n        _;\n    }\n\n    ////////////////\n    // Constructor and inherited function overrides\n    ////////////////\n\n    /// @notice Constructor to create TravelkoinNormalSale contract\n    /// @param _startTime The start time of token sale in seconds.\n    /// @param _endTime The end time of token sale in seconds.\n    /// @param _minContribution The minimum contribution per transaction in wei (0.1 ETH)\n    /// @param _dayOneMaxContribution The minimum contribution per transaction in wei (0.1 ETH)\n    /// @param _rate Number of TKT tokens per 1 ETH\n    /// @param _cap Maximum cap in wei, we can't raise more funds\n    /// @param _wallet Address of owner wallet\n    /// @param _token Our ERC20 token\n    function TravelkoinCrowdsale(\n        uint256 _startTime,\n        uint256 _endTime,\n        uint256 _minContribution,\n        uint256 _dayOneMaxContribution,\n        uint256 _rate,\n        uint256 _cap,\n        address _wallet,\n        TravelkoinToken _token\n    )\n    public\n    CappedCrowdsale(_cap)\n    TimedCrowdsale(_startTime, _endTime)\n    Crowdsale(_rate, _wallet, _token)\n    {\n        minContribution = _minContribution;\n        dayOneMaxContribution = _dayOneMaxContribution;\n    }\n\n    /// @notice How many wei can the msg.sender contribute now.\n    function howMuchCanIContributeNow() view public isWhitelisted(msg.sender) returns (uint256) {\n        return _howMuchCanXContributeNow(msg.sender);\n    }\n\n    /// @notice How many 24 hour blocks have elapsed since token sale start\n    /// @return Number of 24 hour blocks elapsed since token sale start starting from 1\n    function getSaleDayNow() view public returns (uint8) {\n        return _getSaleDay(now);\n    }\n\n    /// @notice How many wei can an Ethereum address contribute now.\n    /// @param _beneficiary Ethereum address\n    /// @return Number of wei the _beneficiary can contribute now.\n    function _howMuchCanXContributeNow(address _beneficiary) view internal returns (uint256) {\n        // wei to hard cap\n        uint256 weiToCap = cap.sub(weiRaised);\n\n        uint8 _saleDay = _getSaleDay(now);\n        // limit to 1 ETH for the first day\n        if (_saleDay == 1) {\n\n            if (token.balanceOf(_beneficiary) > 0) {\n                // personal cap is the daily whitelist limit minus the stakes the address already has\n                uint256 tokenAmount = token.balanceOf(_beneficiary) / rate;\n                uint256 weiToPersonalCap = dayOneMaxContribution - tokenAmount;\n                weiToCap = uint256Min(weiToCap, weiToPersonalCap);\n            } else {\n                weiToCap = uint256Min(weiToCap, dayOneMaxContribution);\n            }\n        }\n\n        return weiToCap;\n    }\n\n    /// @notice For a give date how many 24 hour blocks have elapsed since token sale start\n    /// @dev _time has to be bigger than the startTime of token sale, otherwise SafeMath's div will throw.\n    ///  Within 24 hours of token sale it will return 1, \n    ///  between 24 and 48 hours it will return 2, etc.\n    /// @param _time Date in seconds for which we want to know which sale day it is\n    /// @return Number of 24 hour blocks elapsing since token sale start starting from 1\n    function _getSaleDay(uint256 _time) view internal returns (uint8) {\n        return uint8(_time.sub(openingTime).div(60 * 60 * 24).add(1));\n    }\n\n    /// @notice Minimum between two uint256 numbers\n    function uint256Min(uint256 a, uint256 b) pure internal returns (uint256) {\n        return a > b ? b : a;\n    }\n\n    /**\n   * @dev Override from Crowdsale to make sure the user sends the correct amount\n   * @param _beneficiary Token beneficiary\n   * @param _weiAmount Amount of wei contributed\n   */\n    function _preValidatePurchase(address _beneficiary, uint256 _weiAmount) internal minContributionOk(_beneficiary, _weiAmount) amountOk(_beneficiary, _weiAmount) {\n        super._preValidatePurchase(_beneficiary, _weiAmount);\n    }\n}",
  "sourcePath": "/Users/crash/git/travelkoin/travelkoin-contracts/contracts/TravelkoinCrowdsale.sol",
  "compiler": {
    "name": "solc",
    "version": "0.4.19+commit.c4cbbb05.Emscripten.clang"
  },
  "schemaVersion": "2.0.0",
  "updatedAt": "2018-03-09T15:39:36.204Z"
}