{
  "contractName": "TravelkoinNormalSale",
  "abi": [
    {
      "constant": true,
      "inputs": [],
      "name": "softCapTime",
      "outputs": [
        {
          "name": "",
          "type": "uint256"
        }
      ],
      "payable": false,
      "stateMutability": "view",
      "type": "function"
    },
    {
      "constant": true,
      "inputs": [
        {
          "name": "",
          "type": "address"
        }
      ],
      "name": "stakes",
      "outputs": [
        {
          "name": "",
          "type": "uint256"
        }
      ],
      "payable": false,
      "stateMutability": "view",
      "type": "function"
    },
    {
      "constant": true,
      "inputs": [],
      "name": "travelkoinController",
      "outputs": [
        {
          "name": "",
          "type": "address"
        }
      ],
      "payable": false,
      "stateMutability": "view",
      "type": "function"
    },
    {
      "constant": true,
      "inputs": [],
      "name": "maxGasPricePenalty",
      "outputs": [
        {
          "name": "",
          "type": "uint256"
        }
      ],
      "payable": false,
      "stateMutability": "view",
      "type": "function"
    },
    {
      "constant": true,
      "inputs": [],
      "name": "getTravelkoinBalance",
      "outputs": [
        {
          "name": "",
          "type": "uint256"
        }
      ],
      "payable": false,
      "stateMutability": "view",
      "type": "function"
    },
    {
      "constant": false,
      "inputs": [
        {
          "name": "_startTime",
          "type": "uint256"
        },
        {
          "name": "_endTime",
          "type": "uint256"
        }
      ],
      "name": "setTimes",
      "outputs": [],
      "payable": false,
      "stateMutability": "nonpayable",
      "type": "function"
    },
    {
      "constant": true,
      "inputs": [],
      "name": "rate",
      "outputs": [
        {
          "name": "",
          "type": "uint256"
        }
      ],
      "payable": false,
      "stateMutability": "view",
      "type": "function"
    },
    {
      "constant": false,
      "inputs": [
        {
          "name": "_add",
          "type": "address[]"
        },
        {
          "name": "_remove",
          "type": "address[]"
        },
        {
          "name": "_whitelistLimits",
          "type": "uint256[]"
        }
      ],
      "name": "setWhitelist",
      "outputs": [],
      "payable": false,
      "stateMutability": "nonpayable",
      "type": "function"
    },
    {
      "constant": true,
      "inputs": [],
      "name": "endTime",
      "outputs": [
        {
          "name": "",
          "type": "uint256"
        }
      ],
      "payable": false,
      "stateMutability": "view",
      "type": "function"
    },
    {
      "constant": true,
      "inputs": [
        {
          "name": "_pending",
          "type": "bool"
        },
        {
          "name": "_claimed",
          "type": "bool"
        }
      ],
      "name": "getContributors",
      "outputs": [
        {
          "name": "contributors",
          "type": "address[]"
        }
      ],
      "payable": false,
      "stateMutability": "view",
      "type": "function"
    },
    {
      "constant": false,
      "inputs": [
        {
          "name": "_rate",
          "type": "uint256"
        }
      ],
      "name": "setRate",
      "outputs": [],
      "payable": false,
      "stateMutability": "nonpayable",
      "type": "function"
    },
    {
      "constant": true,
      "inputs": [],
      "name": "cap",
      "outputs": [
        {
          "name": "",
          "type": "uint256"
        }
      ],
      "payable": false,
      "stateMutability": "view",
      "type": "function"
    },
    {
      "constant": true,
      "inputs": [],
      "name": "maxGasPrice",
      "outputs": [
        {
          "name": "",
          "type": "uint256"
        }
      ],
      "payable": false,
      "stateMutability": "view",
      "type": "function"
    },
    {
      "constant": false,
      "inputs": [],
      "name": "unpause",
      "outputs": [],
      "payable": false,
      "stateMutability": "nonpayable",
      "type": "function"
    },
    {
      "constant": true,
      "inputs": [],
      "name": "weiRaised",
      "outputs": [
        {
          "name": "",
          "type": "uint256"
        }
      ],
      "payable": false,
      "stateMutability": "view",
      "type": "function"
    },
    {
      "constant": false,
      "inputs": [],
      "name": "claimToken",
      "outputs": [],
      "payable": false,
      "stateMutability": "nonpayable",
      "type": "function"
    },
    {
      "constant": true,
      "inputs": [],
      "name": "hasStarted",
      "outputs": [
        {
          "name": "",
          "type": "bool"
        }
      ],
      "payable": false,
      "stateMutability": "view",
      "type": "function"
    },
    {
      "constant": true,
      "inputs": [
        {
          "name": "",
          "type": "uint256"
        }
      ],
      "name": "contributorsKeys",
      "outputs": [
        {
          "name": "",
          "type": "address"
        }
      ],
      "payable": false,
      "stateMutability": "view",
      "type": "function"
    },
    {
      "constant": false,
      "inputs": [
        {
          "name": "_minContribution",
          "type": "uint256"
        }
      ],
      "name": "setMinContribution",
      "outputs": [],
      "payable": false,
      "stateMutability": "nonpayable",
      "type": "function"
    },
    {
      "constant": false,
      "inputs": [],
      "name": "finalize",
      "outputs": [],
      "payable": false,
      "stateMutability": "nonpayable",
      "type": "function"
    },
    {
      "constant": true,
      "inputs": [],
      "name": "tokenSold",
      "outputs": [
        {
          "name": "",
          "type": "uint256"
        }
      ],
      "payable": false,
      "stateMutability": "view",
      "type": "function"
    },
    {
      "constant": true,
      "inputs": [],
      "name": "wallet",
      "outputs": [
        {
          "name": "",
          "type": "address"
        }
      ],
      "payable": false,
      "stateMutability": "view",
      "type": "function"
    },
    {
      "constant": true,
      "inputs": [],
      "name": "howMuchCanIContributeNow",
      "outputs": [
        {
          "name": "",
          "type": "uint256"
        }
      ],
      "payable": false,
      "stateMutability": "view",
      "type": "function"
    },
    {
      "constant": true,
      "inputs": [],
      "name": "paused",
      "outputs": [
        {
          "name": "",
          "type": "bool"
        }
      ],
      "payable": false,
      "stateMutability": "view",
      "type": "function"
    },
    {
      "constant": true,
      "inputs": [],
      "name": "startTime",
      "outputs": [
        {
          "name": "",
          "type": "uint256"
        }
      ],
      "payable": false,
      "stateMutability": "view",
      "type": "function"
    },
    {
      "constant": false,
      "inputs": [],
      "name": "pause",
      "outputs": [],
      "payable": false,
      "stateMutability": "nonpayable",
      "type": "function"
    },
    {
      "constant": false,
      "inputs": [
        {
          "name": "_beneficiaries",
          "type": "address[]"
        }
      ],
      "name": "claimTokensFor",
      "outputs": [],
      "payable": false,
      "stateMutability": "nonpayable",
      "type": "function"
    },
    {
      "constant": true,
      "inputs": [],
      "name": "whitelistDayCount",
      "outputs": [
        {
          "name": "",
          "type": "uint8"
        }
      ],
      "payable": false,
      "stateMutability": "view",
      "type": "function"
    },
    {
      "constant": true,
      "inputs": [],
      "name": "isFinalized",
      "outputs": [
        {
          "name": "",
          "type": "bool"
        }
      ],
      "payable": false,
      "stateMutability": "view",
      "type": "function"
    },
    {
      "constant": true,
      "inputs": [],
      "name": "owner",
      "outputs": [
        {
          "name": "",
          "type": "address"
        }
      ],
      "payable": false,
      "stateMutability": "view",
      "type": "function"
    },
    {
      "constant": true,
      "inputs": [],
      "name": "softCap",
      "outputs": [
        {
          "name": "",
          "type": "uint256"
        }
      ],
      "payable": false,
      "stateMutability": "view",
      "type": "function"
    },
    {
      "constant": true,
      "inputs": [],
      "name": "getStakeMultiplyerNow",
      "outputs": [
        {
          "name": "",
          "type": "uint256"
        }
      ],
      "payable": false,
      "stateMutability": "view",
      "type": "function"
    },
    {
      "constant": true,
      "inputs": [
        {
          "name": "",
          "type": "address"
        }
      ],
      "name": "whitelist",
      "outputs": [
        {
          "name": "",
          "type": "bool"
        }
      ],
      "payable": false,
      "stateMutability": "view",
      "type": "function"
    },
    {
      "constant": true,
      "inputs": [],
      "name": "tokenBalance",
      "outputs": [
        {
          "name": "",
          "type": "uint256"
        }
      ],
      "payable": false,
      "stateMutability": "view",
      "type": "function"
    },
    {
      "constant": true,
      "inputs": [],
      "name": "getSaleDayNow",
      "outputs": [
        {
          "name": "",
          "type": "uint8"
        }
      ],
      "payable": false,
      "stateMutability": "view",
      "type": "function"
    },
    {
      "constant": true,
      "inputs": [],
      "name": "minContribution",
      "outputs": [
        {
          "name": "",
          "type": "uint256"
        }
      ],
      "payable": false,
      "stateMutability": "view",
      "type": "function"
    },
    {
      "constant": true,
      "inputs": [],
      "name": "softCapClose",
      "outputs": [
        {
          "name": "",
          "type": "uint256"
        }
      ],
      "payable": false,
      "stateMutability": "view",
      "type": "function"
    },
    {
      "constant": false,
      "inputs": [
        {
          "name": "_maxGas",
          "type": "uint256"
        },
        {
          "name": "_penalty",
          "type": "uint256"
        }
      ],
      "name": "setMaxGas",
      "outputs": [],
      "payable": false,
      "stateMutability": "nonpayable",
      "type": "function"
    },
    {
      "constant": true,
      "inputs": [
        {
          "name": "_beneficiary",
          "type": "address"
        }
      ],
      "name": "howMuchCanXContributeNow",
      "outputs": [
        {
          "name": "",
          "type": "uint256"
        }
      ],
      "payable": false,
      "stateMutability": "view",
      "type": "function"
    },
    {
      "constant": true,
      "inputs": [
        {
          "name": "_time",
          "type": "uint256"
        }
      ],
      "name": "getSaleDay",
      "outputs": [
        {
          "name": "",
          "type": "uint8"
        }
      ],
      "payable": false,
      "stateMutability": "view",
      "type": "function"
    },
    {
      "constant": false,
      "inputs": [
        {
          "name": "_beneficiary",
          "type": "address"
        }
      ],
      "name": "claimTokenFor",
      "outputs": [],
      "payable": false,
      "stateMutability": "nonpayable",
      "type": "function"
    },
    {
      "constant": false,
      "inputs": [
        {
          "name": "_softCap",
          "type": "uint256"
        },
        {
          "name": "_softCapTime",
          "type": "uint256"
        },
        {
          "name": "_cap",
          "type": "uint256"
        }
      ],
      "name": "setCaps",
      "outputs": [],
      "payable": false,
      "stateMutability": "nonpayable",
      "type": "function"
    },
    {
      "constant": true,
      "inputs": [
        {
          "name": "",
          "type": "uint8"
        }
      ],
      "name": "whitelistDayMaxStake",
      "outputs": [
        {
          "name": "",
          "type": "uint256"
        }
      ],
      "payable": false,
      "stateMutability": "view",
      "type": "function"
    },
    {
      "constant": true,
      "inputs": [
        {
          "name": "_time",
          "type": "uint256"
        }
      ],
      "name": "getStakeMultiplyer",
      "outputs": [
        {
          "name": "_multiply",
          "type": "uint256"
        }
      ],
      "payable": false,
      "stateMutability": "view",
      "type": "function"
    },
    {
      "constant": false,
      "inputs": [
        {
          "name": "_beneficiary",
          "type": "address"
        }
      ],
      "name": "buyTokens",
      "outputs": [],
      "payable": true,
      "stateMutability": "payable",
      "type": "function"
    },
    {
      "constant": true,
      "inputs": [],
      "name": "hasEnded",
      "outputs": [
        {
          "name": "",
          "type": "bool"
        }
      ],
      "payable": false,
      "stateMutability": "view",
      "type": "function"
    },
    {
      "constant": false,
      "inputs": [
        {
          "name": "newOwner",
          "type": "address"
        }
      ],
      "name": "transferOwnership",
      "outputs": [],
      "payable": false,
      "stateMutability": "nonpayable",
      "type": "function"
    },
    {
      "constant": true,
      "inputs": [],
      "name": "token",
      "outputs": [
        {
          "name": "",
          "type": "address"
        }
      ],
      "payable": false,
      "stateMutability": "view",
      "type": "function"
    },
    {
      "constant": true,
      "inputs": [],
      "name": "getContributorsCount",
      "outputs": [
        {
          "name": "",
          "type": "uint256"
        }
      ],
      "payable": false,
      "stateMutability": "view",
      "type": "function"
    },
    {
      "inputs": [
        {
          "name": "_travelkoinController",
          "type": "address"
        },
        {
          "name": "_startTime",
          "type": "uint256"
        },
        {
          "name": "_endTime",
          "type": "uint256"
        },
        {
          "name": "_minContribution",
          "type": "uint256"
        },
        {
          "name": "_rate",
          "type": "uint256"
        },
        {
          "name": "_softCap",
          "type": "uint256"
        },
        {
          "name": "_softCapTime",
          "type": "uint256"
        },
        {
          "name": "_cap",
          "type": "uint256"
        },
        {
          "name": "_gasPrice",
          "type": "uint256"
        },
        {
          "name": "_gasPenalty",
          "type": "uint256"
        },
        {
          "name": "_wallet",
          "type": "address"
        }
      ],
      "payable": false,
      "stateMutability": "nonpayable",
      "type": "constructor"
    },
    {
      "payable": true,
      "stateMutability": "payable",
      "type": "fallback"
    },
    {
      "anonymous": false,
      "inputs": [
        {
          "indexed": true,
          "name": "_claimer",
          "type": "address"
        },
        {
          "indexed": true,
          "name": "_beneficiary",
          "type": "address"
        },
        {
          "indexed": false,
          "name": "_stake",
          "type": "uint256"
        },
        {
          "indexed": false,
          "name": "_amount",
          "type": "uint256"
        }
      ],
      "name": "TokenClaimed",
      "type": "event"
    },
    {
      "anonymous": false,
      "inputs": [
        {
          "indexed": true,
          "name": "_purchaser",
          "type": "address"
        },
        {
          "indexed": true,
          "name": "_beneficiary",
          "type": "address"
        },
        {
          "indexed": false,
          "name": "_value",
          "type": "uint256"
        },
        {
          "indexed": false,
          "name": "_stake",
          "type": "uint256"
        },
        {
          "indexed": false,
          "name": "_participants",
          "type": "uint256"
        },
        {
          "indexed": false,
          "name": "_weiRaised",
          "type": "uint256"
        }
      ],
      "name": "TokenPurchase",
      "type": "event"
    },
    {
      "anonymous": false,
      "inputs": [
        {
          "indexed": false,
          "name": "_closeTime",
          "type": "uint256"
        }
      ],
      "name": "TokenSoftCapReached",
      "type": "event"
    },
    {
      "anonymous": false,
      "inputs": [
        {
          "indexed": true,
          "name": "_whitelister",
          "type": "address"
        },
        {
          "indexed": true,
          "name": "_beneficiary",
          "type": "address"
        }
      ],
      "name": "WhitelistAddressAdded",
      "type": "event"
    },
    {
      "anonymous": false,
      "inputs": [
        {
          "indexed": true,
          "name": "_whitelister",
          "type": "address"
        },
        {
          "indexed": true,
          "name": "_beneficiary",
          "type": "address"
        }
      ],
      "name": "WhitelistAddressRemoved",
      "type": "event"
    },
    {
      "anonymous": false,
      "inputs": [
        {
          "indexed": true,
          "name": "_whitelister",
          "type": "address"
        },
        {
          "indexed": false,
          "name": "_day",
          "type": "uint8"
        },
        {
          "indexed": false,
          "name": "_maxStake",
          "type": "uint256"
        }
      ],
      "name": "WhitelistSetDay",
      "type": "event"
    },
    {
      "anonymous": false,
      "inputs": [],
      "name": "Finalized",
      "type": "event"
    },
    {
      "anonymous": false,
      "inputs": [],
      "name": "Pause",
      "type": "event"
    },
    {
      "anonymous": false,
      "inputs": [],
      "name": "Unpause",
      "type": "event"
    },
    {
      "anonymous": false,
      "inputs": [
        {
          "indexed": true,
          "name": "previousOwner",
          "type": "address"
        },
        {
          "indexed": true,
          "name": "newOwner",
          "type": "address"
        }
      ],
      "name": "OwnershipTransferred",
      "type": "event"
    },
    {
      "anonymous": false,
      "inputs": [
        {
          "indexed": true,
          "name": "purchaser",
          "type": "address"
        },
        {
          "indexed": true,
          "name": "beneficiary",
          "type": "address"
        },
        {
          "indexed": false,
          "name": "value",
          "type": "uint256"
        },
        {
          "indexed": false,
          "name": "amount",
          "type": "uint256"
        }
      ],
      "name": "TokenPurchase",
      "type": "event"
    }
  ],
  "bytecode": "0x60606040526006805460a060020a61ffff02191690556103e860095569012d231c7c593eec0000600a5562069780600b55690bc3a4806cfeba2c0000600d5564174876e800601055605060115567016345785d8a000060125534156200006457600080fd5b604051610160806200214f833981016040528080519190602001805191906020018051919060200180519190602001805191906020018051919060200180519190602001805191906020018051919060200180519190602001805191508490508a8a898442841015620000d657600080fd5b83831015620000e457600080fd5b60008211620000f257600080fd5b600160a060020a03811615156200010857600080fd5b60019390935560029190915560045560038054600160a060020a0319908116600160a060020a03938416179091556006805490911633909216919091179055600081116200015557600080fd5b600755600160a060020a038b1615156200016e57600080fd5b60088054600160a060020a031916600160a060020a038d16179055838611156200019757600080fd5b50600a94909455600b92909255600d55600992909255601091909155601155601255505050611f8380620001cc6000396000f3006060604052600436106102375763ffffffff60e060020a60003504166314cf12d5811461024257806316934fc4146102675780631a6fbf7c146102865780631f3dcc8d146102b557806321c8f5e0146102c857806322434836146102db5780632c4e722e146102f45780632e1e786d146103075780633197cbb6146103d6578063332e1a81146103e957806334fcf43714610459578063355274ea1461046f5780633de39c11146104825780633f4ba83a146104955780634042b66f146104a85780634451d89f146104bb57806344691f7e146104ce57806344a2d0d2146104f5578063473b0d461461050b5780634bb278f314610521578063519ee19e14610534578063521eb2731461054757806356afd6e31461055a5780635c975abb1461056d57806378e97925146105805780638456cb591461059357806384a1f5a5146105a65780638ac97efb146105c45780638d4e4083146105ed5780638da5cb5b14610600578063906a26e014610613578063949c3efa146106265780639b19251a146106395780639e1a4d1914610658578063a7a957ff1461066b578063aaffadf31461067e578063ad1be7c114610691578063b7c4b775146106a4578063bdcbd9d1146106bd578063c7efa689146106dc578063c83261bd146106f2578063caefb79e14610711578063da5e9c621461072d578063e1e904ba14610746578063ec8ac4d81461075c578063ecb70fb714610770578063f2fde38b14610783578063fc0c546a146107a2578063feed5561146107b5575b610240336107c8565b005b341561024d57600080fd5b6102556108e0565b60405190815260200160405180910390f35b341561027257600080fd5b610255600160a060020a03600435166108e6565b341561029157600080fd5b6102996108f8565b604051600160a060020a03909116815260200160405180910390f35b34156102c057600080fd5b610255610907565b34156102d357600080fd5b61025561090d565b34156102e657600080fd5b6102406004356024356109e8565b34156102ff57600080fd5b610255610a39565b341561031257600080fd5b61024060046024813581810190830135806020818102016040519081016040528093929190818152602001838360200280828437820191505050505050919080359060200190820180359060200190808060200260200160405190810160405280939291908181526020018383602002808284378201915050505050509190803590602001908201803590602001908080602002602001604051908101604052809392919081815260200183836020028082843750949650610a3f95505050505050565b34156103e157600080fd5b610255610db5565b34156103f457600080fd5b61040660043515156024351515610dbb565b60405160208082528190810183818151815260200191508051906020019060200280838360005b8381101561044557808201518382015260200161042d565b505050509050019250505060405180910390f35b341561046457600080fd5b610240600435610f6b565b341561047a57600080fd5b610255610faa565b341561048d57600080fd5b610255610fb0565b34156104a057600080fd5b610240610fb6565b34156104b357600080fd5b610255611035565b34156104c657600080fd5b61024061103b565b34156104d957600080fd5b6104e161106e565b604051901515815260200160405180910390f35b341561050057600080fd5b610299600435611077565b341561051657600080fd5b61024060043561109f565b341561052c57600080fd5b6102406110d1565b341561053f57600080fd5b610255611171565b341561055257600080fd5b610299611177565b341561056557600080fd5b610255611186565b341561057857600080fd5b6104e1611196565b341561058b57600080fd5b6102556111a6565b341561059e57600080fd5b6102406111ac565b34156105b157600080fd5b6102406004803560248101910135611230565b34156105cf57600080fd5b6105d7611297565b60405160ff909116815260200160405180910390f35b34156105f857600080fd5b6104e16112a0565b341561060b57600080fd5b6102996112b0565b341561061e57600080fd5b6102556112bf565b341561063157600080fd5b6102556112c5565b341561064457600080fd5b6104e1600160a060020a03600435166112d0565b341561066357600080fd5b6102556112e5565b341561067657600080fd5b6105d76112eb565b341561068957600080fd5b6102556112f6565b341561069c57600080fd5b6102556112fc565b34156106af57600080fd5b610240600435602435611302565b34156106c857600080fd5b610255600160a060020a036004351661133a565b34156106e757600080fd5b6105d7600435611463565b34156106fd57600080fd5b610240600160a060020a0360043516611498565b341561071c57600080fd5b610240600435602435604435611730565b341561073857600080fd5b61025560ff60043516611786565b341561075157600080fd5b610255600435611798565b610240600160a060020a03600435166107c8565b341561077b57600080fd5b6104e1611909565b341561078e57600080fd5b610240600160a060020a036004351661192f565b34156107ad57600080fd5b6102996119ca565b34156107c057600080fd5b6102556119d9565b6006546000908190819060a060020a900460ff16156107e657600080fd5b600160a060020a03841615156107fb57600080fd5b6108048461133a565b925061081083346119df565b915061081c84836119f7565b600a54600554101580156108305750600c54155b1561088e57600b5461084990429063ffffffff611a4d16565b600c8190556002547f8061a159b48a33a206e3cc24cce73cc3a0f5004baf555a87beb12402203bc18c9161087c916119df565b60405190815260200160405180910390a15b61089e348363ffffffff611a6716565b905060008111156108da57600160a060020a03331681156108fc0282604051600060405180830381858888f1935050505015156108da57600080fd5b50505050565b600b5481565b60166020526000908152604090205481565b600854600160a060020a031681565b60115481565b600854600090600160a060020a031663fc0c546a82604051602001526040518163ffffffff1660e060020a028152600401602060405180830381600087803b151561095757600080fd5b6102c65a03f1151561096857600080fd5b50505060405180519050600160a060020a03166370a082313060006040516020015260405160e060020a63ffffffff8416028152600160a060020a039091166004820152602401602060405180830381600087803b15156109c857600080fd5b6102c65a03f115156109d957600080fd5b50505060405180519150505b90565b60065433600160a060020a03908116911614610a0357600080fd5b610a0b61106e565b15610a1557600080fd5b4282118015610a2357508082105b1515610a2e57600080fd5b600191909155600255565b60095481565b600654600090819033600160a060020a03908116911614610a5f57600080fd5b610a6761106e565b15610a7157600080fd5b5060009050808083511115610b775782516013805460ff191660ff92909216919091179055600091505b8251821015610b7757610ab582600163ffffffff611a4d16565b9050828281518110610ac357fe5b9060200190602002015160ff821660009081526015602052604090205414610b6c57828281518110610af157fe5b9060200190602002015160ff8216600090815260156020526040902055600160a060020a0333167fd5687efd49db15a67bba2e8f383f2231ff233c261ccd6e759a2527d80380d93c82858581518110610b4657fe5b9060200190602002015160405160ff909216825260208201526040908101905180910390a25b600190910190610a9b565b600091505b8451821015610c93576000858381518110610b9357fe5b90602001906020020151600160a060020a03161415610bb157600080fd5b60146000868481518110610bc157fe5b90602001906020020151600160a060020a0316815260208101919091526040016000205460ff161515610c8857600160146000878581518110610c0057fe5b90602001906020020151600160a060020a031681526020810191909152604001600020805460ff1916911515919091179055848281518110610c3e57fe5b90602001906020020151600160a060020a031633600160a060020a03167f989ceab15151ad117c420bf6c2f17f42cab53f8a72c3d259d61de6af2ab74c7360405160405180910390a35b600190910190610b7c565b600091505b8351821015610dae576000848381518110610caf57fe5b90602001906020020151600160a060020a03161415610ccd57600080fd5b60146000858481518110610cdd57fe5b90602001906020020151600160a060020a0316815260208101919091526040016000205460ff1615610da357600060146000868581518110610d1b57fe5b90602001906020020151600160a060020a031681526020810191909152604001600020805460ff1916911515919091179055838281518110610d5957fe5b90602001906020020151600160a060020a031633600160a060020a03167feaddf568a5d6071d7c0ec91f9652fed569ad6bb5a976a93ab8f671e3d7eab95760405160405180910390a35b600190910190610c98565b5050505050565b60025481565b610dc3611f08565b600080610dce611f08565b60185460009350839250604051805910610de55750595b90808252806020026020018201604052509050600092505b601854831015610ef057858015610e4b5750600060166000601886815481101515610e2457fe5b6000918252602080832090910154600160a060020a03168352820192909252604001902054115b80610e935750848015610e93575060166000601885815481101515610e6c57fe5b6000918252602080832090910154600160a060020a03168352820192909252604001902054155b15610ee5576018805484908110610ea657fe5b600091825260209091200154600160a060020a0316818381518110610ec757fe5b600160a060020a039092166020928302909101909101526001909101905b600190920191610dfd565b81604051805910610efe5750595b90808252806020026020018201604052509350600092505b81831015610f6257808381518110610f2a57fe5b90602001906020020151848481518110610f4057fe5b600160a060020a03909216602092830290910190910152600190920191610f16565b50505092915050565b60065433600160a060020a03908116911614610f8657600080fd5b610f8e61106e565b15610f9857600080fd5b60008111610fa557600080fd5b600955565b600d5481565b60105481565b60065433600160a060020a03908116911614610fd157600080fd5b60065460a060020a900460ff161515610fe957600080fd5b6006805474ff0000000000000000000000000000000000000000191690557f7805862f689e2f13df9f062ff482ad3ad112aca9e0847911ed832e158c525b3360405160405180910390a1565b60055481565b611043611909565b8015611058575060065460a860020a900460ff165b151561106357600080fd5b61106c33611498565b565b60015442101590565b601880548290811061108557fe5b600091825260209091200154600160a060020a0316905081565b60065433600160a060020a039081169116146110ba57600080fd5b6110c261106e565b156110cc57600080fd5b601255565b60065433600160a060020a039081169116146110ec57600080fd5b60065460a860020a900460ff161561110357600080fd5b61110b611909565b151561111657600080fd5b61111e611a79565b7f6823b073d48d6e3a7d385eeb601452d680e74bb46afe3255a7d778f3a9b1768160405160405180910390a16006805475ff000000000000000000000000000000000000000000191660a860020a179055565b600e5481565b600354600160a060020a031681565b60006111913361133a565b905090565b60065460a060020a900460ff1681565b60015481565b60065433600160a060020a039081169116146111c757600080fd5b60065460a060020a900460ff16156111de57600080fd5b6006805474ff0000000000000000000000000000000000000000191660a060020a1790557f6985a02210a168e66602d3235cb6db0e70f92b3ba4d376a33c0f3d9434bff62560405160405180910390a1565b600061123a611909565b801561124f575060065460a860020a900460ff165b151561125a57600080fd5b5060005b818110156112925761128a83838381811061127557fe5b90506020020135600160a060020a0316611498565b60010161125e565b505050565b60135460ff1681565b60065460a860020a900460ff1681565b600654600160a060020a031681565b600a5481565b600061119142611798565b60146020526000908152604090205460ff1681565b600f5481565b600061119142611463565b60125481565b600c5481565b60065433600160a060020a0390811691161461131d57600080fd5b61132561106e565b1561132f57600080fd5b601091909155601155565b600080808080600160a060020a038616151561135557600080fd5b61135d61106e565b158061136c575061136c611909565b1561137a576000945061145a565b600554600d5461138f9163ffffffff611a6716565b93506113996112eb565b60135490935060ff9081169084161161145657600160a060020a03861660009081526014602052604090205460ff1615156113d7576000945061145a565b600160a060020a03861660009081526016602090815260408083205460ff871684526015909252909120546114119163ffffffff611a6716565b915061141b6112c5565b905060648114611449576114468161143a84606463ffffffff611c7616565b9063ffffffff611ca116565b91505b61145384836119df565b93505b8394505b50505050919050565b600061149260016114866201518061143a60015487611a6790919063ffffffff16565b9063ffffffff611a4d16565b92915050565b6000806114a3611909565b80156114b8575060065460a860020a900460ff165b15156114c357600080fd5b60065460a060020a900460ff16156114da57600080fd5b600160a060020a0383166000908152601660205260408120549250821161150057600080fd5b600a5460055410156115275760095461152090839063ffffffff611c7616565b905061155e565b601754600160a060020a038416600090815260166020526040902054600e5461155b929161143a919063ffffffff611c7616565b90505b600160a060020a038316600090815260166020526040812055600f5461158a908263ffffffff611a6716565b600f55600854600160a060020a03166393a378da848360405160e060020a63ffffffff8516028152600160a060020a0390921660048301526024820152604401600060405180830381600087803b15156115e357600080fd5b6102c65a03f115156115f457600080fd5b5050600854600160a060020a0316905063fc0c546a6000604051602001526040518163ffffffff1660e060020a028152600401602060405180830381600087803b151561164057600080fd5b6102c65a03f1151561165157600080fd5b50505060405180519050600160a060020a031663a9059cbb848360006040516020015260405160e060020a63ffffffff8516028152600160a060020a0390921660048301526024820152604401602060405180830381600087803b15156116b757600080fd5b6102c65a03f115156116c857600080fd5b5050506040518051905015156116dd57600080fd5b82600160a060020a031633600160a060020a03167f29842d15961c304dad3345dcde04db3059d13a4455ed0646e5daf7c993a04bc6848460405191825260208201526040908101905180910390a3505050565b60065433600160a060020a0390811691161461174b57600080fd5b61175361106e565b1561175d57600080fd5b80600010801561176d5750808311155b151561177857600080fd5b600a92909255600b55600d55565b60156020526000908152604090205481565b6000806064915060006010541180156117b257506010543a115b156117d4576117d1606461143a60115485611c7690919063ffffffff16565b91505b6117dd83611463565b60135460ff9182169250600091161180156117fd575060135460ff168111155b1561180a57506001611834565b601354600060ff90911611156118345760135461183190829060ff1663ffffffff611a6716565b90505b806001141561185a57611853606461143a84608c63ffffffff611c7616565b9150611903565b806002141561187957611853606461143a84607863ffffffff611c7616565b8060031115801561188b575060078111155b156118a657611853606461143a84607363ffffffff611c7616565b806008111580156118b85750600e8111155b156118d357611853606461143a84606e63ffffffff611c7616565b80600f111580156118e5575060158111155b1561190357611900606461143a84606963ffffffff611c7616565b91505b50919050565b6000611913611cb8565b8061119157506000600c54118015611191575050600c54421190565b60065433600160a060020a0390811691161461194a57600080fd5b600160a060020a038116151561195f57600080fd5b600654600160a060020a0380831691167f8be0079c531659141344cd1fd0a4f28419497f9722a3daafe3b4186f6b6457e060405160405180910390a36006805473ffffffffffffffffffffffffffffffffffffffff1916600160a060020a0392909216919091179055565b600054600160a060020a031681565b60185490565b60008183116119ee57826119f0565b815b9392505050565b600160a060020a0382161515611a0c57600080fd5b611a1581611cd0565b1515611a2057600080fd5b611a2a8282611cec565b600554611a3d908263ffffffff611a4d16565b600555611a4981611e6d565b5050565b600082820183811015611a5c57fe5b8091505b5092915050565b600082821115611a7357fe5b50900390565b600080611a8461090d565b600e55600a546005541015611c0757600954601754611aa89163ffffffff611c7616565b915081600e541115611c0757600e54611ac7908363ffffffff611a6716565b600e839055600854909150600160a060020a031663fc0c546a6000604051602001526040518163ffffffff1660e060020a028152600401602060405180830381600087803b1515611b1757600080fd5b6102c65a03f11515611b2857600080fd5b5050506040518051600854600160a060020a03918216925063a9059cbb9116634db08aea6000604051602001526040518163ffffffff1660e060020a028152600401602060405180830381600087803b1515611b8357600080fd5b6102c65a03f11515611b9457600080fd5b505050604051805190508360006040516020015260405160e060020a63ffffffff8516028152600160a060020a0390921660048301526024820152604401602060405180830381600087803b1515611beb57600080fd5b6102c65a03f11515611bfc57600080fd5b505050604051805150505b600e54600f55600854600160a060020a031663b0e9a1ef62127500420160405160e060020a63ffffffff84160281526004810191909152602401600060405180830381600087803b1515611c5a57600080fd5b6102c65a03f11515611c6b57600080fd5b505050611a4961106c565b600080831515611c895760009150611a60565b50828202828482811515611c9957fe5b0414611a5c57fe5b6000808284811515611caf57fe5b04949350505050565b6000611cc2611ea3565b806111915750611191611eab565b6000611cdb82611eb6565b801561149257505060125490101590565b600080600160a060020a0384161515611d0457600080fd5b829150611d0f6112c5565b905060648114611d3157611d2e606461143a848463ffffffff611c7616565b91505b601754611d44908363ffffffff611a4d16565b601755600160a060020a0384166000908152601660205260409020541515611dab576018805460018101611d788382611f1a565b506000918252602090912001805473ffffffffffffffffffffffffffffffffffffffff1916600160a060020a0386161790555b600160a060020a038416600090815260166020526040902054611dd4908363ffffffff611a4d16565b6016600086600160a060020a0316600160a060020a031681526020019081526020016000208190555083600160a060020a031633600160a060020a03167fc29b8032387f267ddc010037627574acbf3b1a65a6022ca8ba6c25f0ba85ee7585856018805490506005546040518085815260200184815260200183815260200182815260200194505050505060405180910390a350505050565b600354600160a060020a031681156108fc0282604051600060405180830381858888f193505050501515611ea057600080fd5b50565b600254421190565b600754600554101590565b6000611ec182611ed7565b80156114925750611ed0611eab565b1592915050565b60008060006001544210158015611ef057506002544211155b915050821515818015611f005750805b949350505050565b60206040519081016040526000815290565b815481835581811511611292576000838152602090206112929181019083016109e591905b80821115611f535760008155600101611f3f565b50905600a165627a7a723058204c46ae21fb13b0a682c60321aba8dfae7b168509f637c6f24704cefa23d03a6c0029",
  "source": "pragma solidity ^0.4.18;\n\nimport \"./minime_0.2.0/ERC20MiniMe.sol\";\nimport \"./minime_0.2.0/TokenController.sol\";\nimport \"zeppelin-solidity/contracts/lifecycle/Pausable.sol\";\nimport \"./TravelkoinCappedCrowdsale.sol\";\nimport \"./TravelkoinFinalizableCrowdsale.sol\";\n\n/**\n * @title TravelkoinNormalSale\n * @author Bjorn Harvold\n * @notice Travelkoin Token Sale round one normal sale contract, with softcap and hardcap (cap)\n * @dev This contract has to be finalized before refund or token claims are enabled\n */\ncontract TravelkoinNormalSale is Pausable, TravelkoinFinalizableCrowdsale, TravelkoinCappedCrowdsale {\n    // the token is here\n    TokenController public travelkoinController;\n\n    // after reaching {weiRaised} >= {softCap}, there is {softCapTime} seconds until the sale closes\n    // {softCapClose} contains the closing time\n    uint256 public rate = 1000;\n    uint256 public softCap = 5555 ether;\n    uint256 public softCapTime = 120 hours;\n    uint256 public softCapClose;\n    uint256 public cap = 55555 ether;\n\n    // total token sold and undistributed token count\n    uint256 public tokenSold;\n    uint256 public tokenBalance;\n\n    // contributing above {maxGasPrice} results in \n    // calculating stakes on {maxGasPricePenalty} / 100\n    // eg. 80 {maxGasPricePenalty} means 80%, sending 5 ETH with more than 100gwei gas price will be calculated as 4 ETH\n    uint256 public maxGasPrice = 100 * 10 ** 9;\n    uint256 public maxGasPricePenalty = 80;\n\n    // minimum contribution, 0.1ETH\n    uint256 public minContribution = 0.1 ether;\n\n    // first {whitelistDayCount} days of token sale is exclusive for whitelisted addresses\n    // {whitelistDayMaxStake} contains the max stake limits per address for each whitelist sales day\n    // {whitelist} contains who can contribute during whitelist period\n    uint8 public whitelistDayCount;\n    mapping(address => bool) public whitelist;\n    mapping(uint8 => uint256) public whitelistDayMaxStake;\n\n    // stakes contains contribution stake in wei\n    // contributed ETH is calculated on 80% when sending funds with gasprice above maxGasPrice\n    mapping(address => uint256) public stakes;\n    uint256 totalStakes;\n\n    // addresses of contributors to handle finalization after token sale end (refunds or token claims)\n    address[] public contributorsKeys;\n\n    // events for token purchase during sale and claiming tokens after sale\n    event TokenClaimed(address indexed _claimer, address indexed _beneficiary, uint256 _stake, uint256 _amount);\n    event TokenPurchase(address indexed _purchaser, address indexed _beneficiary, uint256 _value, uint256 _stake, uint256 _participants, uint256 _weiRaised);\n    event TokenSoftCapReached(uint256 _closeTime);\n\n    // whitelist events for adding days with maximum stakes and addresses\n    event WhitelistAddressAdded(address indexed _whitelister, address indexed _beneficiary);\n    event WhitelistAddressRemoved(address indexed _whitelister, address indexed _beneficiary);\n    event WhitelistSetDay(address indexed _whitelister, uint8 _day, uint256 _maxStake);\n\n\n    ////////////////\n    // Constructor and inherited function overrides\n    ////////////////\n\n    /// @notice Constructor to create PreSale contract\n    /// @param _travelkoinController Address of travelkoinController\n    /// @param _startTime The start time of token sale in seconds.\n    /// @param _endTime The end time of token sale in seconds.\n    /// @param _minContribution The minimum contribution per transaction in wei (0.1 ETH)\n    /// @param _rate Number of TKT tokens per 1 ETH\n    /// @param _softCap Softcap in wei, reaching it ends the sale in _softCapTime seconds\n    /// @param _softCapTime Seconds until the sale remains open after reaching _softCap\n    /// @param _cap Maximum cap in wei, we can't raise more funds\n    /// @param _gasPrice Maximum gas price\n    /// @param _gasPenalty Penalty in percentage points for calculating stakes, eg. 80 means calculating \n    ///  stakes on 80% if gasprice was higher than _gasPrice\n    /// @param _wallet Address of multisig wallet, which will get all the funds after successful sale\n    function TravelkoinNormalSale(\n        address _travelkoinController,\n        uint256 _startTime,\n        uint256 _endTime,\n        uint256 _minContribution,\n        uint256 _rate,\n        uint256 _softCap,\n        uint256 _softCapTime,\n        uint256 _cap,\n        uint256 _gasPrice,\n        uint256 _gasPenalty,\n        address _wallet\n    )\n    TravelkoinCappedCrowdsale(_cap)\n    TravelkoinMiniMeCrowdsale(_startTime, _endTime, _rate, _wallet)\n    TravelkoinFinalizableCrowdsale()\n    public\n    {\n        // travelkoinController must be valid\n        require(_travelkoinController != address(0));\n        travelkoinController = TokenController(_travelkoinController);\n\n        // caps have to be consistent with each other\n        require(_softCap <= _cap);\n\n        softCap = _softCap;\n        softCapTime = _softCapTime;\n\n        // this is needed since super constructor wont overwrite overriden variables\n        cap = _cap;\n        rate = _rate;\n\n        maxGasPrice = _gasPrice;\n        maxGasPricePenalty = _gasPenalty;\n\n        minContribution = _minContribution;\n    }\n\n    /// @notice claimToken() for multiple addresses\n    /// @dev Anyone can call this function and distribute tokens after successful token sale\n    /// @param _beneficiaries Array of addresses for which we want to claim tokens\n    function claimTokensFor(address[] _beneficiaries) external afterSaleSuccess {\n        for (uint256 i = 0; i < _beneficiaries.length; i++) {\n            claimTokenFor(_beneficiaries[i]);\n        }\n    }\n\n    /// @dev Overriding Crowdsale#buyTokens to add partial refund and softcap logic \n    /// @param _beneficiary Beneficiary of the token purchase\n    function buyTokens(address _beneficiary) public payable whenNotPaused {\n        require(_beneficiary != address(0));\n\n        uint256 weiToCap = howMuchCanXContributeNow(_beneficiary);\n        uint256 weiAmount = uint256Min(weiToCap, msg.value);\n\n        buyTokens(_beneficiary, weiAmount);\n\n        // close sale in softCapTime seconds after reaching softCap\n        if (weiRaised >= softCap && softCapClose == 0) {\n            softCapClose = now.add(softCapTime);\n            TokenSoftCapReached(uint256Min(softCapClose, endTime));\n        }\n\n        // handle refund\n        uint256 refund = msg.value.sub(weiAmount);\n        if (refund > 0) {\n            msg.sender.transfer(refund);\n        }\n    }\n\n    /// @dev Overriding Crowdsale#hasEnded to add soft cap logic\n    /// @return true if crowdsale event has ended or a softCapClose time is set and passed\n    function hasEnded() public constant returns (bool) {\n        return super.hasEnded() || softCapClose > 0 && now > softCapClose;\n    }\n\n    ////////////////\n    // BEFORE token sale\n    ////////////////\n\n    /// @notice Modifier for before sale cases\n    modifier beforeSale() {\n        require(!hasStarted());\n        _;\n    }\n\n    /// @notice Sets whitelist\n    /// @dev The length of _whitelistLimits says that the first X days of token sale is \n    ///  closed, meaning only for whitelisted addresses.\n    /// @param _add Array of addresses to add to whitelisted ethereum accounts\n    /// @param _remove Array of addresses to remove to whitelisted ethereum accounts\n    /// @param _whitelistLimits Array of limits in wei, where _whitelistLimits[0] = 10 ETH means\n    ///  whitelisted addresses can contribute maximum 10 ETH stakes on the first day\n    ///  After _whitelistLimits.length days, there will be no limits per address (besides hard cap)\n    function setWhitelist(address[] _add, address[] _remove, uint256[] _whitelistLimits) public onlyOwner beforeSale {\n        uint256 i = 0;\n        uint8 j = 0;\n        // access max daily stakes\n\n        // we override whiteListLimits only if it was supplied as an argument\n        if (_whitelistLimits.length > 0) {\n            // saving whitelist max stake limits for each day -> uint256 maxStakeLimit\n            whitelistDayCount = uint8(_whitelistLimits.length);\n\n            for (i = 0; i < _whitelistLimits.length; i++) {\n                j = uint8(i.add(1));\n                if (whitelistDayMaxStake[j] != _whitelistLimits[i]) {\n                    whitelistDayMaxStake[j] = _whitelistLimits[i];\n                    WhitelistSetDay(msg.sender, j, _whitelistLimits[i]);\n                }\n            }\n        }\n\n        // adding whitelist addresses\n        for (i = 0; i < _add.length; i++) {\n            require(_add[i] != address(0));\n\n            if (!whitelist[_add[i]]) {\n                whitelist[_add[i]] = true;\n                WhitelistAddressAdded(msg.sender, _add[i]);\n            }\n        }\n\n        // removing whitelist addresses\n        for (i = 0; i < _remove.length; i++) {\n            require(_remove[i] != address(0));\n\n            if (whitelist[_remove[i]]) {\n                whitelist[_remove[i]] = false;\n                WhitelistAddressRemoved(msg.sender, _remove[i]);\n            }\n        }\n    }\n\n    /// @notice Sets max gas price and penalty before sale\n    function setMaxGas(uint256 _maxGas, uint256 _penalty) public onlyOwner beforeSale {\n        maxGasPrice = _maxGas;\n        maxGasPricePenalty = _penalty;\n    }\n\n    /// @notice Sets min contribution before sale\n    function setMinContribution(uint256 _minContribution) public onlyOwner beforeSale {\n        minContribution = _minContribution;\n    }\n\n    /// @notice Sets soft and max cap\n    function setCaps(uint256 _softCap, uint256 _softCapTime, uint256 _cap) public onlyOwner beforeSale {\n        require(0 < _cap && _softCap <= _cap);\n        softCap = _softCap;\n        softCapTime = _softCapTime;\n        cap = _cap;\n    }\n\n    /// @notice Sets crowdsale start and end time\n    function setTimes(uint256 _startTime, uint256 _endTime) public onlyOwner beforeSale {\n        require(_startTime > now && _startTime < _endTime);\n        startTime = _startTime;\n        endTime = _endTime;\n    }\n\n    /// @notice Set rate\n    function setRate(uint256 _rate) public onlyOwner beforeSale {\n        require(_rate > 0);\n        rate = _rate;\n    }\n\n\n    ////////////////\n    // AFTER token sale\n    ////////////////\n\n    /// @notice Modifier for cases where sale is closed and was successful.\n    /// @dev It checks whether the sale has ended AND whether the contract is finalized\n    modifier afterSaleSuccess() {\n        require(hasEnded() && isFinalized);\n        _;\n    }\n\n    /// @notice Claim token for msg.sender after token sale based on stake.\n    function claimToken() public afterSaleSuccess {\n        claimTokenFor(msg.sender);\n    }\n\n    /// @notice Claim token after token sale based on stake.\n    /// @dev Anyone can call this function and distribute tokens after successful token sale\n    /// @param _beneficiary Address of the beneficiary who gets the token\n    function claimTokenFor(address _beneficiary) public afterSaleSuccess whenNotPaused {\n        uint256 stake = stakes[_beneficiary];\n        require(stake > 0);\n\n        // calculate token count\n        uint256 tokens;\n        if (weiRaised < softCap) {\n            // not reaching softcap means we sell for fixed rate of 1000 heal / eth\n            tokens = stake.mul(rate);\n        } else {\n            // we sell all tokens based on stakes\n            tokens = tokenSold.mul(stakes[_beneficiary]).div(totalStakes);\n        }\n\n        // set the stake 0 for beneficiary\n        stakes[_beneficiary] = 0;\n\n        // decrease tokenBalance, to make it possible to withdraw excess TKT funds\n        tokenBalance = tokenBalance.sub(tokens);\n\n        // distribute hodlr stake\n        travelkoinController.addHodlerStake(_beneficiary, tokens);\n\n        // distribute token\n        require(travelkoinController.token().transfer(_beneficiary, tokens));\n        TokenClaimed(\n            msg.sender,\n            _beneficiary,\n            stake,\n            tokens\n        );\n    }\n\n\n    ////////////////\n    // Constant, helper functions\n    ////////////////\n\n    /// @notice Returns stake multiplyer for now\n    function getStakeMultiplyerNow() view public returns (uint256) {\n        return getStakeMultiplyer(now);\n    }\n\n    /// @notice Returns the stake multiplyer in percentage, eg 80 means 80%\n    function getStakeMultiplyer(uint256 _time) view public returns (uint256 _multiply) {\n        _multiply = 100;\n\n        // gas price penalty\n        if (maxGasPrice > 0 && tx.gasprice > maxGasPrice) {\n            _multiply = _multiply.mul(maxGasPricePenalty).div(100);\n        }\n\n        // calculate bonus based on sale day\n        uint256 _day = uint256(getSaleDay(_time));\n\n        // adjust for whitelist days\n        if (whitelistDayCount > 0 && _day <= whitelistDayCount) {\n            // if it is currently a whitelist day, we calculate as it is the first sale day\n            _day = 1;\n        } else if (whitelistDayCount > 0) {\n            // after whitelist days are over, we start counting days from 1\n            _day = _day.sub(whitelistDayCount);\n        }\n\n        // 40% bonus for first day, 20% for second, 15% for rest of the first week, 10% for second week, 5% for third week\n        if (_day == 1) {\n            _multiply = _multiply.mul(140).div(100);\n        } else if (_day == 2) {\n            _multiply = _multiply.mul(120).div(100);\n        } else if (3 <= _day && _day <= 7) {\n            _multiply = _multiply.mul(115).div(100);\n        } else if (8 <= _day && _day <= 14) {\n            _multiply = _multiply.mul(110).div(100);\n        } else if (15 <= _day && _day <= 21) {\n            _multiply = _multiply.mul(105).div(100);\n        }\n    }\n\n    /// @notice How many wei can the msg.sender contribute now.\n    function howMuchCanIContributeNow() view public returns (uint256) {\n        return howMuchCanXContributeNow(msg.sender);\n    }\n\n    /// @notice How many wei can an ethereum address contribute now.\n    /// @dev This function can return 0 when the crowdsale is stopped\n    ///  or the address has maxed the current day's whitelist cap,\n    ///  it is possible, that next day he can contribute\n    /// @param _beneficiary Ethereum address\n    /// @return Number of wei the _beneficiary can contribute now.\n    function howMuchCanXContributeNow(address _beneficiary) view public returns (uint256) {\n        require(_beneficiary != address(0));\n\n        if (!hasStarted() || hasEnded())\n            return 0;\n\n        // wei to hard cap\n        uint256 weiToCap = cap.sub(weiRaised);\n\n        // if this is a whitelist limited period\n        uint8 _saleDay = getSaleDayNow();\n        if (_saleDay <= whitelistDayCount) {\n            // address can't contribute if it is not whitelisted\n            if (!whitelist[_beneficiary])\n                return 0;\n\n            // personal cap is the daily whitelist limit minus the stakes the address already has\n            uint256 weiToPersonalCap = whitelistDayMaxStake[_saleDay].sub(stakes[_beneficiary]);\n\n            // calculate for maxGasPrice penalty and sale bonus\n            uint256 _mul = getStakeMultiplyerNow();\n            if (_mul != 100)\n                weiToPersonalCap = weiToPersonalCap.mul(100).div(_mul);\n\n            weiToCap = uint256Min(weiToCap, weiToPersonalCap);\n        }\n\n        return weiToCap;\n    }\n\n    /// @notice For a give date how many 24 hour blocks have ellapsed since token sale start\n    /// @dev _time has to be bigger than the startTime of token sale, otherwise SafeMath's div will throw.\n    ///  Within 24 hours of token sale it will return 1, \n    ///  between 24 and 48 hours it will return 2, etc.\n    /// @param _time Date in seconds for which we want to know which sale day it is\n    /// @return Number of 24 hour blocks ellapsing since token sale start starting from 1\n    function getSaleDay(uint256 _time) view public returns (uint8) {\n        return uint8(_time.sub(startTime).div(60 * 60 * 24).add(1));\n    }\n\n    /// @notice How many 24 hour blocks have ellapsed since token sale start\n    /// @return Number of 24 hour blocks ellapsing since token sale start starting from 1\n    function getSaleDayNow() view public returns (uint8) {\n        return getSaleDay(now);\n    }\n\n    ////////////////\n    // Test and contribution web app, NO audit is needed\n    ////////////////\n\n    /// @notice How many contributors we have.\n    /// @return Number of different contributor ethereum addresses\n    function getContributorsCount() view public returns (uint256) {\n        return contributorsKeys.length;\n    }\n\n    /// @notice Get contributor addresses to manage refunds or token claims.\n    /// @dev If the sale is not yet successful, then it searches in the TravelkoinRefundVault.\n    ///  If the sale is successful, it searches in contributors.\n    /// @param _pending If true, then returns addresses which didn't get refunded or their tokens distributed to them\n    /// @param _claimed If true, then returns already refunded or token distributed addresses\n    /// @return Array of addresses of contributors\n    function getContributors(bool _pending, bool _claimed) view public returns (address[] contributors) {\n        uint256 i = 0;\n        uint256 results = 0;\n        address[] memory _contributors = new address[](contributorsKeys.length);\n\n\n        for (i = 0; i < contributorsKeys.length; i++) {\n            if (_pending && stakes[contributorsKeys[i]] > 0 || _claimed && stakes[contributorsKeys[i]] == 0) {\n                _contributors[results] = contributorsKeys[i];\n                results++;\n            }\n        }\n\n        contributors = new address[](results);\n        for (i = 0; i < results; i++) {\n            contributors[i] = _contributors[i];\n        }\n\n        return contributors;\n    }\n\n    /// @notice How many TKT tokens do this contract have\n    function getTravelkoinBalance() view public returns (uint256) {\n        return travelkoinController.token().balanceOf(address(this));\n    }\n\n    /// @notice Minimum between two uint8 numbers\n    function uint8Min(uint8 a, uint8 b) pure internal returns (uint8) {\n        return a > b ? b : a;\n    }\n\n    /// @notice Minimum between two uint256 numbers\n    function uint256Min(uint256 a, uint256 b) pure internal returns (uint256) {\n        return a > b ? b : a;\n    }\n\n\n    /// @dev Overriding Crowdsale#validPurchase to add min contribution logic\n    /// @param _weiAmount Contribution amount in wei\n    /// @return true if contribution is okay\n    function validPurchase(uint256 _weiAmount) internal constant returns (bool) {\n        return super.validPurchase(_weiAmount) && _weiAmount >= minContribution;\n    }\n\n    /// @dev Extending RefundableCrowdsale#finalization sending back excess tokens to travelkoinController\n    function finalization() internal {\n        tokenSold = getTravelkoinBalance();\n\n        // if didn't reach the soft cap we refund excess tokens\n        if (weiRaised < softCap) {\n            uint256 _sold = totalStakes.mul(rate);\n\n            if (tokenSold > _sold) {\n                uint256 _excess = tokenSold.sub(_sold);\n\n                tokenSold = _sold;\n\n                travelkoinController.token().transfer(travelkoinController.SALE(), _excess);\n            }\n        }\n\n        // unclaimed tokens\n        tokenBalance = tokenSold;\n\n        // hodler stake counting starts 14 days after closing normal sale\n        travelkoinController.setHodlerTime(now + 14 days);\n\n        super.finalization();\n    }\n\n    /// @dev Overriding Crowdsale#transferToken, which keeps track of contributions DURING token sale\n    /// @param _beneficiary Address of the recepient of the tokens\n    /// @param _weiAmount Contribution in wei\n    function transferToken(address _beneficiary, uint256 _weiAmount) internal {\n        require(_beneficiary != address(0));\n\n        uint256 _stake = _weiAmount;\n        // adjust with stake multiplyer\n        uint256 _mul = getStakeMultiplyerNow();\n        if (_mul != 100)\n            _stake = _stake.mul(_mul).div(100);\n\n        // saving total stakes to be able to distribute tokens at the end\n        totalStakes = totalStakes.add(_stake);\n\n        if (stakes[_beneficiary] == 0)\n            contributorsKeys.push(_beneficiary);\n\n        stakes[_beneficiary] = stakes[_beneficiary].add(_stake);\n\n        TokenPurchase(\n            msg.sender,\n            _beneficiary,\n            _weiAmount,\n            _stake,\n            contributorsKeys.length,\n            weiRaised\n        );\n    }\n}",
  "sourcePath": "/Users/crash/git/travelkoin/travelkoin-contracts/contracts/TravelkoinNormalSale.sol",
  "compiler": {
    "name": "solc",
    "version": "0.4.18+commit.9cf6e910.Emscripten.clang"
  },
  "schemaVersion": "1.0.1",
  "updatedAt": "2018-02-11T02:56:38.742Z"
}