{
  "contractName": "TravelkoinToken",
  "abi": [
    {
      "constant": true,
      "inputs": [],
      "name": "name",
      "outputs": [
        {
          "name": "",
          "type": "string"
        }
      ],
      "payable": false,
      "stateMutability": "view",
      "type": "function"
    },
    {
      "constant": false,
      "inputs": [
        {
          "name": "_spender",
          "type": "address"
        },
        {
          "name": "_value",
          "type": "uint256"
        }
      ],
      "name": "approve",
      "outputs": [
        {
          "name": "",
          "type": "bool"
        }
      ],
      "payable": false,
      "stateMutability": "nonpayable",
      "type": "function"
    },
    {
      "constant": true,
      "inputs": [],
      "name": "totalSupply",
      "outputs": [
        {
          "name": "",
          "type": "uint256"
        }
      ],
      "payable": false,
      "stateMutability": "view",
      "type": "function"
    },
    {
      "constant": false,
      "inputs": [
        {
          "name": "_from",
          "type": "address"
        },
        {
          "name": "_to",
          "type": "address"
        },
        {
          "name": "_value",
          "type": "uint256"
        }
      ],
      "name": "transferFrom",
      "outputs": [
        {
          "name": "",
          "type": "bool"
        }
      ],
      "payable": false,
      "stateMutability": "nonpayable",
      "type": "function"
    },
    {
      "constant": true,
      "inputs": [],
      "name": "decimals",
      "outputs": [
        {
          "name": "",
          "type": "uint8"
        }
      ],
      "payable": false,
      "stateMutability": "view",
      "type": "function"
    },
    {
      "constant": false,
      "inputs": [
        {
          "name": "_value",
          "type": "uint256"
        }
      ],
      "name": "burn",
      "outputs": [],
      "payable": false,
      "stateMutability": "nonpayable",
      "type": "function"
    },
    {
      "constant": false,
      "inputs": [
        {
          "name": "_spender",
          "type": "address"
        },
        {
          "name": "_subtractedValue",
          "type": "uint256"
        }
      ],
      "name": "decreaseApproval",
      "outputs": [
        {
          "name": "",
          "type": "bool"
        }
      ],
      "payable": false,
      "stateMutability": "nonpayable",
      "type": "function"
    },
    {
      "constant": true,
      "inputs": [
        {
          "name": "_owner",
          "type": "address"
        }
      ],
      "name": "balanceOf",
      "outputs": [
        {
          "name": "balance",
          "type": "uint256"
        }
      ],
      "payable": false,
      "stateMutability": "view",
      "type": "function"
    },
    {
      "constant": true,
      "inputs": [],
      "name": "owner",
      "outputs": [
        {
          "name": "",
          "type": "address"
        }
      ],
      "payable": false,
      "stateMutability": "view",
      "type": "function"
    },
    {
      "constant": true,
      "inputs": [],
      "name": "symbol",
      "outputs": [
        {
          "name": "",
          "type": "string"
        }
      ],
      "payable": false,
      "stateMutability": "view",
      "type": "function"
    },
    {
      "constant": false,
      "inputs": [
        {
          "name": "_to",
          "type": "address"
        },
        {
          "name": "_value",
          "type": "uint256"
        }
      ],
      "name": "transfer",
      "outputs": [
        {
          "name": "",
          "type": "bool"
        }
      ],
      "payable": false,
      "stateMutability": "nonpayable",
      "type": "function"
    },
    {
      "constant": false,
      "inputs": [
        {
          "name": "_spender",
          "type": "address"
        },
        {
          "name": "_addedValue",
          "type": "uint256"
        }
      ],
      "name": "increaseApproval",
      "outputs": [
        {
          "name": "",
          "type": "bool"
        }
      ],
      "payable": false,
      "stateMutability": "nonpayable",
      "type": "function"
    },
    {
      "constant": true,
      "inputs": [
        {
          "name": "_owner",
          "type": "address"
        },
        {
          "name": "_spender",
          "type": "address"
        }
      ],
      "name": "allowance",
      "outputs": [
        {
          "name": "",
          "type": "uint256"
        }
      ],
      "payable": false,
      "stateMutability": "view",
      "type": "function"
    },
    {
      "constant": false,
      "inputs": [
        {
          "name": "newOwner",
          "type": "address"
        }
      ],
      "name": "transferOwnership",
      "outputs": [],
      "payable": false,
      "stateMutability": "nonpayable",
      "type": "function"
    },
    {
      "inputs": [
        {
          "name": "name",
          "type": "string"
        },
        {
          "name": "symbol",
          "type": "string"
        },
        {
          "name": "decimals",
          "type": "uint8"
        },
        {
          "name": "initialSupply",
          "type": "uint256"
        }
      ],
      "payable": false,
      "stateMutability": "nonpayable",
      "type": "constructor"
    },
    {
      "anonymous": false,
      "inputs": [
        {
          "indexed": true,
          "name": "burner",
          "type": "address"
        },
        {
          "indexed": false,
          "name": "value",
          "type": "uint256"
        }
      ],
      "name": "Burn",
      "type": "event"
    },
    {
      "anonymous": false,
      "inputs": [
        {
          "indexed": true,
          "name": "owner",
          "type": "address"
        },
        {
          "indexed": true,
          "name": "spender",
          "type": "address"
        },
        {
          "indexed": false,
          "name": "value",
          "type": "uint256"
        }
      ],
      "name": "Approval",
      "type": "event"
    },
    {
      "anonymous": false,
      "inputs": [
        {
          "indexed": true,
          "name": "from",
          "type": "address"
        },
        {
          "indexed": true,
          "name": "to",
          "type": "address"
        },
        {
          "indexed": false,
          "name": "value",
          "type": "uint256"
        }
      ],
      "name": "Transfer",
      "type": "event"
    },
    {
      "anonymous": false,
      "inputs": [
        {
          "indexed": true,
          "name": "previousOwner",
          "type": "address"
        },
        {
          "indexed": true,
          "name": "newOwner",
          "type": "address"
        }
      ],
      "name": "OwnershipTransferred",
      "type": "event"
    }
  ],
  "bytecode": "0x6060604052341561000f57600080fd5b604051610c6f380380610c6f833981016040528080518201919060200180518201919060200180519190602001805160008054600160a060020a03191633600160a060020a03161790559150849050838360048380516100739291602001906100fb565b5060058280516100879291602001906100fb565b506006805460ff191660ff929092169190911790555050600281905533600160a060020a03166000818152600160205260408082208490557fddf252ad1be2c89b69c2b068fc378daa952ba7f163c4a11628f55a4df523b3ef9084905190815260200160405180910390a350505050610196565b828054600181600116156101000203166002900490600052602060002090601f016020900481019282601f1061013c57805160ff1916838001178555610169565b82800160010185558215610169579182015b8281111561016957825182559160200191906001019061014e565b50610175929150610179565b5090565b61019391905b80821115610175576000815560010161017f565b90565b610aca806101a56000396000f3006060604052600436106100cf5763ffffffff7c010000000000000000000000000000000000000000000000000000000060003504166306fdde0381146100d4578063095ea7b31461015e57806318160ddd1461019457806323b872dd146101b9578063313ce567146101e157806342966c681461020a578063661884631461022257806370a08231146102445780638da5cb5b1461026357806395d89b4114610292578063a9059cbb146102a5578063d73dd623146102c7578063dd62ed3e146102e9578063f2fde38b1461030e575b600080fd5b34156100df57600080fd5b6100e761032d565b60405160208082528190810183818151815260200191508051906020019080838360005b8381101561012357808201518382015260200161010b565b50505050905090810190601f1680156101505780820380516001836020036101000a031916815260200191505b509250505060405180910390f35b341561016957600080fd5b610180600160a060020a03600435166024356103cb565b604051901515815260200160405180910390f35b341561019f57600080fd5b6101a7610437565b60405190815260200160405180910390f35b34156101c457600080fd5b610180600160a060020a036004358116906024351660443561043d565b34156101ec57600080fd5b6101f46105bf565b60405160ff909116815260200160405180910390f35b341561021557600080fd5b6102206004356105c8565b005b341561022d57600080fd5b610180600160a060020a0360043516602435610682565b341561024f57600080fd5b6101a7600160a060020a036004351661077c565b341561026e57600080fd5b610276610797565b604051600160a060020a03909116815260200160405180910390f35b341561029d57600080fd5b6100e76107a6565b34156102b057600080fd5b610180600160a060020a0360043516602435610811565b34156102d257600080fd5b610180600160a060020a036004351660243561090c565b34156102f457600080fd5b6101a7600160a060020a03600435811690602435166109b0565b341561031957600080fd5b610220600160a060020a03600435166109db565b60048054600181600116156101000203166002900480601f0160208091040260200160405190810160405280929190818152602001828054600181600116156101000203166002900480156103c35780601f10610398576101008083540402835291602001916103c3565b820191906000526020600020905b8154815290600101906020018083116103a657829003601f168201915b505050505081565b600160a060020a03338116600081815260036020908152604080832094871680845294909152808220859055909291907f8c5be1e5ebec7d5bd14f71427d1e84f3dd0314c0f7b2291e5b200ac8c7c3b9259085905190815260200160405180910390a350600192915050565b60025490565b6000600160a060020a038316151561045457600080fd5b600160a060020a03841660009081526001602052604090205482111561047957600080fd5b600160a060020a03808516600090815260036020908152604080832033909416835292905220548211156104ac57600080fd5b600160a060020a0384166000908152600160205260409020546104d5908363ffffffff610a7616565b600160a060020a03808616600090815260016020526040808220939093559085168152205461050a908363ffffffff610a8816565b600160a060020a03808516600090815260016020908152604080832094909455878316825260038152838220339093168252919091522054610552908363ffffffff610a7616565b600160a060020a03808616600081815260036020908152604080832033861684529091529081902093909355908516917fddf252ad1be2c89b69c2b068fc378daa952ba7f163c4a11628f55a4df523b3ef9085905190815260200160405180910390a35060019392505050565b60065460ff1681565b600160a060020a0333166000908152600160205260408120548211156105ed57600080fd5b5033600160a060020a0381166000908152600160205260409020546106129083610a76565b600160a060020a03821660009081526001602052604090205560025461063e908363ffffffff610a7616565b600255600160a060020a0381167fcc16f5dbb4873280815c1ee09dbd06736cffcc184412cf7a71a0fdb75d397ca58360405190815260200160405180910390a25050565b600160a060020a033381166000908152600360209081526040808320938616835292905290812054808311156106df57600160a060020a033381166000908152600360209081526040808320938816835292905290812055610716565b6106ef818463ffffffff610a7616565b600160a060020a033381166000908152600360209081526040808320938916835292905220555b600160a060020a0333811660008181526003602090815260408083209489168084529490915290819020547f8c5be1e5ebec7d5bd14f71427d1e84f3dd0314c0f7b2291e5b200ac8c7c3b925915190815260200160405180910390a35060019392505050565b600160a060020a031660009081526001602052604090205490565b600054600160a060020a031681565b60058054600181600116156101000203166002900480601f0160208091040260200160405190810160405280929190818152602001828054600181600116156101000203166002900480156103c35780601f10610398576101008083540402835291602001916103c3565b6000600160a060020a038316151561082857600080fd5b600160a060020a03331660009081526001602052604090205482111561084d57600080fd5b600160a060020a033316600090815260016020526040902054610876908363ffffffff610a7616565b600160a060020a0333811660009081526001602052604080822093909355908516815220546108ab908363ffffffff610a8816565b600160a060020a0380851660008181526001602052604090819020939093559133909116907fddf252ad1be2c89b69c2b068fc378daa952ba7f163c4a11628f55a4df523b3ef9085905190815260200160405180910390a350600192915050565b600160a060020a033381166000908152600360209081526040808320938616835292905290812054610944908363ffffffff610a8816565b600160a060020a0333811660008181526003602090815260408083209489168084529490915290819020849055919290917f8c5be1e5ebec7d5bd14f71427d1e84f3dd0314c0f7b2291e5b200ac8c7c3b92591905190815260200160405180910390a350600192915050565b600160a060020a03918216600090815260036020908152604080832093909416825291909152205490565b60005433600160a060020a039081169116146109f657600080fd5b600160a060020a0381161515610a0b57600080fd5b600054600160a060020a0380831691167f8be0079c531659141344cd1fd0a4f28419497f9722a3daafe3b4186f6b6457e060405160405180910390a36000805473ffffffffffffffffffffffffffffffffffffffff1916600160a060020a0392909216919091179055565b600082821115610a8257fe5b50900390565b600082820183811015610a9757fe5b93925050505600a165627a7a7230582065d3e3697ce246b774aed4816b813a73719cc471b80890cb05dc550c71fa12fe0029",
  "source": "pragma solidity ^0.4.18;\n\nimport \"zeppelin-solidity/contracts/token/ERC20/BurnableToken.sol\";\nimport \"zeppelin-solidity/contracts/token/ERC20/StandardToken.sol\";\nimport \"zeppelin-solidity/contracts/token/ERC20/DetailedERC20.sol\";\nimport \"zeppelin-solidity/contracts/ownership/Ownable.sol\";\n\n\n/**\n * @title TravelkoinMiniMeToken\n * @dev Basic MiniMe token\n */\ncontract TravelkoinToken is Ownable, BurnableToken, StandardToken, DetailedERC20 {\n    function TravelkoinToken(\n        string name,\n        string symbol,\n        uint8 decimals,\n        uint256 initialSupply\n    )\n    DetailedERC20(name, symbol, decimals)\n    public\n    {\n        totalSupply_ = initialSupply;\n        balances[msg.sender] = initialSupply;\n        Transfer(0x0, msg.sender, initialSupply);\n    }\n}",
  "sourcePath": "/Users/crash/git/travelkoin/travelkoin-contracts/contracts/TravelkoinToken.sol",
  "compiler": {
    "name": "solc",
    "version": "0.4.19+commit.c4cbbb05.Emscripten.clang"
  },
  "schemaVersion": "2.0.0",
  "updatedAt": "2018-03-01T06:11:35.438Z"
}