{
  "contractName": "TravelkoinNormalSale",
  "abi": [
    {
      "constant": true,
      "inputs": [
        {
          "name": "",
          "type": "address"
        }
      ],
      "name": "stakes",
      "outputs": [
        {
          "name": "",
          "type": "uint256"
        }
      ],
      "payable": false,
      "stateMutability": "view",
      "type": "function"
    },
    {
      "constant": true,
      "inputs": [],
      "name": "travelkoinController",
      "outputs": [
        {
          "name": "",
          "type": "address"
        }
      ],
      "payable": false,
      "stateMutability": "view",
      "type": "function"
    },
    {
      "constant": true,
      "inputs": [],
      "name": "rate",
      "outputs": [
        {
          "name": "",
          "type": "uint256"
        }
      ],
      "payable": false,
      "stateMutability": "view",
      "type": "function"
    },
    {
      "constant": true,
      "inputs": [],
      "name": "endTime",
      "outputs": [
        {
          "name": "",
          "type": "uint256"
        }
      ],
      "payable": false,
      "stateMutability": "view",
      "type": "function"
    },
    {
      "constant": true,
      "inputs": [],
      "name": "cap",
      "outputs": [
        {
          "name": "",
          "type": "uint256"
        }
      ],
      "payable": false,
      "stateMutability": "view",
      "type": "function"
    },
    {
      "constant": false,
      "inputs": [],
      "name": "unpause",
      "outputs": [],
      "payable": false,
      "stateMutability": "nonpayable",
      "type": "function"
    },
    {
      "constant": true,
      "inputs": [],
      "name": "weiRaised",
      "outputs": [
        {
          "name": "",
          "type": "uint256"
        }
      ],
      "payable": false,
      "stateMutability": "view",
      "type": "function"
    },
    {
      "constant": true,
      "inputs": [],
      "name": "hasStarted",
      "outputs": [
        {
          "name": "",
          "type": "bool"
        }
      ],
      "payable": false,
      "stateMutability": "view",
      "type": "function"
    },
    {
      "constant": true,
      "inputs": [
        {
          "name": "",
          "type": "uint256"
        }
      ],
      "name": "contributorsKeys",
      "outputs": [
        {
          "name": "",
          "type": "address"
        }
      ],
      "payable": false,
      "stateMutability": "view",
      "type": "function"
    },
    {
      "constant": false,
      "inputs": [],
      "name": "finalize",
      "outputs": [],
      "payable": false,
      "stateMutability": "nonpayable",
      "type": "function"
    },
    {
      "constant": true,
      "inputs": [],
      "name": "tokenSold",
      "outputs": [
        {
          "name": "",
          "type": "uint256"
        }
      ],
      "payable": false,
      "stateMutability": "view",
      "type": "function"
    },
    {
      "constant": true,
      "inputs": [],
      "name": "wallet",
      "outputs": [
        {
          "name": "",
          "type": "address"
        }
      ],
      "payable": false,
      "stateMutability": "view",
      "type": "function"
    },
    {
      "constant": true,
      "inputs": [],
      "name": "paused",
      "outputs": [
        {
          "name": "",
          "type": "bool"
        }
      ],
      "payable": false,
      "stateMutability": "view",
      "type": "function"
    },
    {
      "constant": true,
      "inputs": [],
      "name": "startTime",
      "outputs": [
        {
          "name": "",
          "type": "uint256"
        }
      ],
      "payable": false,
      "stateMutability": "view",
      "type": "function"
    },
    {
      "constant": false,
      "inputs": [],
      "name": "pause",
      "outputs": [],
      "payable": false,
      "stateMutability": "nonpayable",
      "type": "function"
    },
    {
      "constant": true,
      "inputs": [],
      "name": "isFinalized",
      "outputs": [
        {
          "name": "",
          "type": "bool"
        }
      ],
      "payable": false,
      "stateMutability": "view",
      "type": "function"
    },
    {
      "constant": true,
      "inputs": [],
      "name": "owner",
      "outputs": [
        {
          "name": "",
          "type": "address"
        }
      ],
      "payable": false,
      "stateMutability": "view",
      "type": "function"
    },
    {
      "constant": true,
      "inputs": [],
      "name": "tokenBalance",
      "outputs": [
        {
          "name": "",
          "type": "uint256"
        }
      ],
      "payable": false,
      "stateMutability": "view",
      "type": "function"
    },
    {
      "constant": true,
      "inputs": [],
      "name": "minContribution",
      "outputs": [
        {
          "name": "",
          "type": "uint256"
        }
      ],
      "payable": false,
      "stateMutability": "view",
      "type": "function"
    },
    {
      "constant": true,
      "inputs": [],
      "name": "maxContributionFirstTwentyFourHours",
      "outputs": [
        {
          "name": "",
          "type": "uint256"
        }
      ],
      "payable": false,
      "stateMutability": "view",
      "type": "function"
    },
    {
      "constant": true,
      "inputs": [],
      "name": "hasEnded",
      "outputs": [
        {
          "name": "",
          "type": "bool"
        }
      ],
      "payable": false,
      "stateMutability": "view",
      "type": "function"
    },
    {
      "constant": false,
      "inputs": [
        {
          "name": "newOwner",
          "type": "address"
        }
      ],
      "name": "transferOwnership",
      "outputs": [],
      "payable": false,
      "stateMutability": "nonpayable",
      "type": "function"
    },
    {
      "constant": true,
      "inputs": [],
      "name": "token",
      "outputs": [
        {
          "name": "",
          "type": "address"
        }
      ],
      "payable": false,
      "stateMutability": "view",
      "type": "function"
    },
    {
      "inputs": [
        {
          "name": "_travelkoinController",
          "type": "address"
        },
        {
          "name": "_startTime",
          "type": "uint256"
        },
        {
          "name": "_endTime",
          "type": "uint256"
        },
        {
          "name": "_minContribution",
          "type": "uint256"
        },
        {
          "name": "_maxContributionFirstTwentyFourHours",
          "type": "uint256"
        },
        {
          "name": "_rate",
          "type": "uint256"
        },
        {
          "name": "_cap",
          "type": "uint256"
        },
        {
          "name": "_wallet",
          "type": "address"
        }
      ],
      "payable": false,
      "stateMutability": "nonpayable",
      "type": "constructor"
    },
    {
      "payable": true,
      "stateMutability": "payable",
      "type": "fallback"
    },
    {
      "anonymous": false,
      "inputs": [
        {
          "indexed": true,
          "name": "_claimer",
          "type": "address"
        },
        {
          "indexed": true,
          "name": "_beneficiary",
          "type": "address"
        },
        {
          "indexed": false,
          "name": "_stake",
          "type": "uint256"
        },
        {
          "indexed": false,
          "name": "_amount",
          "type": "uint256"
        }
      ],
      "name": "TokenClaimed",
      "type": "event"
    },
    {
      "anonymous": false,
      "inputs": [
        {
          "indexed": true,
          "name": "_purchaser",
          "type": "address"
        },
        {
          "indexed": true,
          "name": "_beneficiary",
          "type": "address"
        },
        {
          "indexed": false,
          "name": "_value",
          "type": "uint256"
        },
        {
          "indexed": false,
          "name": "_stake",
          "type": "uint256"
        },
        {
          "indexed": false,
          "name": "_participants",
          "type": "uint256"
        },
        {
          "indexed": false,
          "name": "_weiRaised",
          "type": "uint256"
        }
      ],
      "name": "TokenPurchase",
      "type": "event"
    },
    {
      "anonymous": false,
      "inputs": [],
      "name": "Finalized",
      "type": "event"
    },
    {
      "anonymous": false,
      "inputs": [],
      "name": "Pause",
      "type": "event"
    },
    {
      "anonymous": false,
      "inputs": [],
      "name": "Unpause",
      "type": "event"
    },
    {
      "anonymous": false,
      "inputs": [
        {
          "indexed": true,
          "name": "previousOwner",
          "type": "address"
        },
        {
          "indexed": true,
          "name": "newOwner",
          "type": "address"
        }
      ],
      "name": "OwnershipTransferred",
      "type": "event"
    },
    {
      "anonymous": false,
      "inputs": [
        {
          "indexed": true,
          "name": "purchaser",
          "type": "address"
        },
        {
          "indexed": true,
          "name": "beneficiary",
          "type": "address"
        },
        {
          "indexed": false,
          "name": "value",
          "type": "uint256"
        },
        {
          "indexed": false,
          "name": "amount",
          "type": "uint256"
        }
      ],
      "name": "TokenPurchase",
      "type": "event"
    },
    {
      "constant": false,
      "inputs": [
        {
          "name": "_beneficiaries",
          "type": "address[]"
        }
      ],
      "name": "claimTokensFor",
      "outputs": [],
      "payable": false,
      "stateMutability": "nonpayable",
      "type": "function"
    },
    {
      "constant": false,
      "inputs": [
        {
          "name": "_minContribution",
          "type": "uint256"
        }
      ],
      "name": "setMinContribution",
      "outputs": [],
      "payable": false,
      "stateMutability": "nonpayable",
      "type": "function"
    },
    {
      "constant": false,
      "inputs": [
        {
          "name": "_maxContributionFirstTwentyFourHours",
          "type": "uint256"
        }
      ],
      "name": "setMaxContributionFirstTwentyFourHours",
      "outputs": [],
      "payable": false,
      "stateMutability": "nonpayable",
      "type": "function"
    },
    {
      "constant": false,
      "inputs": [
        {
          "name": "_cap",
          "type": "uint256"
        }
      ],
      "name": "setCap",
      "outputs": [],
      "payable": false,
      "stateMutability": "nonpayable",
      "type": "function"
    },
    {
      "constant": false,
      "inputs": [
        {
          "name": "_startTime",
          "type": "uint256"
        },
        {
          "name": "_endTime",
          "type": "uint256"
        }
      ],
      "name": "setTimes",
      "outputs": [],
      "payable": false,
      "stateMutability": "nonpayable",
      "type": "function"
    },
    {
      "constant": false,
      "inputs": [
        {
          "name": "_rate",
          "type": "uint256"
        }
      ],
      "name": "setRate",
      "outputs": [],
      "payable": false,
      "stateMutability": "nonpayable",
      "type": "function"
    },
    {
      "constant": false,
      "inputs": [],
      "name": "claimToken",
      "outputs": [],
      "payable": false,
      "stateMutability": "nonpayable",
      "type": "function"
    },
    {
      "constant": false,
      "inputs": [
        {
          "name": "_beneficiary",
          "type": "address"
        }
      ],
      "name": "claimTokenFor",
      "outputs": [],
      "payable": false,
      "stateMutability": "nonpayable",
      "type": "function"
    },
    {
      "constant": true,
      "inputs": [],
      "name": "howMuchCanIContributeNow",
      "outputs": [
        {
          "name": "",
          "type": "uint256"
        }
      ],
      "payable": false,
      "stateMutability": "view",
      "type": "function"
    },
    {
      "constant": true,
      "inputs": [
        {
          "name": "_beneficiary",
          "type": "address"
        }
      ],
      "name": "howMuchCanXContributeNow",
      "outputs": [
        {
          "name": "",
          "type": "uint256"
        }
      ],
      "payable": false,
      "stateMutability": "view",
      "type": "function"
    },
    {
      "constant": true,
      "inputs": [
        {
          "name": "_time",
          "type": "uint256"
        }
      ],
      "name": "getSaleDay",
      "outputs": [
        {
          "name": "",
          "type": "uint8"
        }
      ],
      "payable": false,
      "stateMutability": "view",
      "type": "function"
    },
    {
      "constant": true,
      "inputs": [],
      "name": "getSaleDayNow",
      "outputs": [
        {
          "name": "",
          "type": "uint8"
        }
      ],
      "payable": false,
      "stateMutability": "view",
      "type": "function"
    },
    {
      "constant": true,
      "inputs": [],
      "name": "getContributorsCount",
      "outputs": [
        {
          "name": "",
          "type": "uint256"
        }
      ],
      "payable": false,
      "stateMutability": "view",
      "type": "function"
    },
    {
      "constant": true,
      "inputs": [
        {
          "name": "_pending",
          "type": "bool"
        },
        {
          "name": "_claimed",
          "type": "bool"
        }
      ],
      "name": "getContributors",
      "outputs": [
        {
          "name": "contributors",
          "type": "address[]"
        }
      ],
      "payable": false,
      "stateMutability": "view",
      "type": "function"
    },
    {
      "constant": true,
      "inputs": [],
      "name": "getTravelkoinBalance",
      "outputs": [
        {
          "name": "",
          "type": "uint256"
        }
      ],
      "payable": false,
      "stateMutability": "view",
      "type": "function"
    },
    {
      "constant": false,
      "inputs": [
        {
          "name": "_beneficiary",
          "type": "address"
        }
      ],
      "name": "buyTokens",
      "outputs": [],
      "payable": true,
      "stateMutability": "payable",
      "type": "function"
    }
  ],
  "bytecode": "0x60606040526006805460a060020a61ffff02191690556103e8600955690bc3a4806cfeba2c0000600a5567016345785d8a0000600d55670de0b6b3a7640000600e55341561004c57600080fd5b604051610100806116ab8339810160405280805191906020018051919060200180519190602001805191906020018051919060200180519190602001805191906020018051915082905087878584428410156100a757600080fd5b838310156100b457600080fd5b600082116100c157600080fd5b600160a060020a03811615156100d657600080fd5b60019390935560029190915560045560038054600160a060020a0319908116600160a060020a039384161790915560068054909116339092169190911790556000811161012257600080fd5b600755600160a060020a038816151561013a57600080fd5b5060088054600160a060020a031916600160a060020a039890981697909717909655600a95909555600994909455600d555050600e5561152c8061017f6000396000f3006060604052600436106101c95763ffffffff60e060020a60003504166316934fc481146101d45780631a6fbf7c1461020557806321c8f5e01461023457806322434836146102475780632c4e722e146102605780633197cbb614610273578063332e1a811461028657806334fcf437146102f6578063355274ea1461030c5780633f4ba83a1461031f5780634042b66f146103325780634451d89f1461034557806344691f7e1461035857806344a2d0d21461037f578063473b0d461461039557806347786d37146103ab5780634bb278f3146103c1578063519ee19e146103d4578063521eb273146103e757806356afd6e3146103fa5780635c975abb1461040d57806378e97925146104205780638456cb591461043357806384a1f5a5146104465780638d4e4083146104645780638da5cb5b146104775780639e1a4d191461048a578063a7a957ff1461049d578063aaffadf3146104c6578063bbe32ee2146104d9578063bdcbd9d1146104ec578063c7efa6891461050b578063c83261bd14610521578063ec8ac4d814610540578063ecb70fb714610554578063f2fde38b14610567578063fad6a4a914610586578063fc0c546a1461059c578063feed5561146105af575b6101d2336105c2565b005b34156101df57600080fd5b6101f3600160a060020a0360043516610675565b60405190815260200160405180910390f35b341561021057600080fd5b610218610687565b604051600160a060020a03909116815260200160405180910390f35b341561023f57600080fd5b6101f3610696565b341561025257600080fd5b6101d2600435602435610771565b341561026b57600080fd5b6101f36107c2565b341561027e57600080fd5b6101f36107c8565b341561029157600080fd5b6102a3600435151560243515156107ce565b60405160208082528190810183818151815260200191508051906020019060200280838360005b838110156102e25780820151838201526020016102ca565b505050509050019250505060405180910390f35b341561030157600080fd5b6101d260043561097e565b341561031757600080fd5b6101f36109bd565b341561032a57600080fd5b6101d26109c3565b341561033d57600080fd5b6101f3610a42565b341561035057600080fd5b6101d2610a48565b341561036357600080fd5b61036b610a7b565b604051901515815260200160405180910390f35b341561038a57600080fd5b610218600435610a84565b34156103a057600080fd5b6101d2600435610aac565b34156103b657600080fd5b6101d2600435610ade565b34156103cc57600080fd5b6101d2610b1e565b34156103df57600080fd5b6101f3610bbe565b34156103f257600080fd5b610218610bc4565b341561040557600080fd5b6101f3610bd3565b341561041857600080fd5b61036b610be3565b341561042b57600080fd5b6101f3610bf3565b341561043e57600080fd5b6101d2610bf9565b341561045157600080fd5b6101d26004803560248101910135610c7d565b341561046f57600080fd5b61036b610ce4565b341561048257600080fd5b610218610cf4565b341561049557600080fd5b6101f3610d03565b34156104a857600080fd5b6104b0610d09565b60405160ff909116815260200160405180910390f35b34156104d157600080fd5b6101f3610d14565b34156104e457600080fd5b6101f3610d1a565b34156104f757600080fd5b6101f3600160a060020a0360043516610d20565b341561051657600080fd5b6104b0600435610daa565b341561052c57600080fd5b6101d2600160a060020a0360043516610deb565b6101d2600160a060020a03600435166105c2565b341561055f57600080fd5b61036b61105c565b341561057257600080fd5b6101d2600160a060020a0360043516611074565b341561059157600080fd5b6101d260043561110f565b34156105a757600080fd5b610218611141565b34156105ba57600080fd5b6101f3611150565b6006546000908190819060a060020a900460ff16156105e057600080fd5b600160a060020a03841615156105f557600080fd5b6105fe84610d20565b925061060a8334611156565b91506000821161061957600080fd5b610623848361116e565b610633348363ffffffff6111c416565b9050600081111561066f57600160a060020a03331681156108fc0282604051600060405180830381858888f19350505050151561066f57600080fd5b50505050565b600f6020526000908152604090205481565b600854600160a060020a031681565b600854600090600160a060020a031663fc0c546a82604051602001526040518163ffffffff1660e060020a028152600401602060405180830381600087803b15156106e057600080fd5b6102c65a03f115156106f157600080fd5b50505060405180519050600160a060020a03166370a082313060006040516020015260405160e060020a63ffffffff8416028152600160a060020a039091166004820152602401602060405180830381600087803b151561075157600080fd5b6102c65a03f1151561076257600080fd5b50505060405180519150505b90565b60065433600160a060020a0390811691161461078c57600080fd5b610794610a7b565b1561079e57600080fd5b42821180156107ac57508082105b15156107b757600080fd5b600191909155600255565b60095481565b60025481565b6107d66114b1565b6000806107e16114b1565b601154600093508392506040518059106107f85750595b90808252806020026020018201604052509050600092505b6011548310156109035785801561085e57506000600f600060118681548110151561083757fe5b6000918252602080832090910154600160a060020a03168352820192909252604001902054115b806108a657508480156108a65750600f600060118581548110151561087f57fe5b6000918252602080832090910154600160a060020a03168352820192909252604001902054155b156108f85760118054849081106108b957fe5b600091825260209091200154600160a060020a03168183815181106108da57fe5b600160a060020a039092166020928302909101909101526001909101905b600190920191610810565b816040518059106109115750595b90808252806020026020018201604052509350600092505b818310156109755780838151811061093d57fe5b9060200190602002015184848151811061095357fe5b600160a060020a03909216602092830290910190910152600190920191610929565b50505092915050565b60065433600160a060020a0390811691161461099957600080fd5b6109a1610a7b565b156109ab57600080fd5b600081116109b857600080fd5b600955565b600a5481565b60065433600160a060020a039081169116146109de57600080fd5b60065460a060020a900460ff1615156109f657600080fd5b6006805474ff0000000000000000000000000000000000000000191690557f7805862f689e2f13df9f062ff482ad3ad112aca9e0847911ed832e158c525b3360405160405180910390a1565b60055481565b610a5061105c565b8015610a65575060065460a860020a900460ff165b1515610a7057600080fd5b610a7933610deb565b565b60015442101590565b6011805482908110610a9257fe5b600091825260209091200154600160a060020a0316905081565b60065433600160a060020a03908116911614610ac757600080fd5b610acf610a7b565b15610ad957600080fd5b600d55565b60065433600160a060020a03908116911614610af957600080fd5b610b01610a7b565b15610b0b57600080fd5b6000819010610b1957600080fd5b600a55565b60065433600160a060020a03908116911614610b3957600080fd5b60065460a860020a900460ff1615610b5057600080fd5b610b5861105c565b1515610b6357600080fd5b610b6b6111d6565b7f6823b073d48d6e3a7d385eeb601452d680e74bb46afe3255a7d778f3a9b1768160405160405180910390a16006805475ff000000000000000000000000000000000000000000191660a860020a179055565b600b5481565b600354600160a060020a031681565b6000610bde33610d20565b905090565b60065460a060020a900460ff1681565b60015481565b60065433600160a060020a03908116911614610c1457600080fd5b60065460a060020a900460ff1615610c2b57600080fd5b6006805474ff0000000000000000000000000000000000000000191660a060020a1790557f6985a02210a168e66602d3235cb6db0e70f92b3ba4d376a33c0f3d9434bff62560405160405180910390a1565b6000610c8761105c565b8015610c9c575060065460a860020a900460ff165b1515610ca757600080fd5b5060005b81811015610cdf57610cd7838383818110610cc257fe5b90506020020135600160a060020a0316610deb565b600101610cab565b505050565b60065460a860020a900460ff1681565b600654600160a060020a031681565b600c5481565b6000610bde42610daa565b600d5481565b600e5481565b60008080600160a060020a0384161515610d3957600080fd5b610d41610a7b565b1580610d505750610d5061105c565b15610d5e5760009250610da3565b600554600a54610d739163ffffffff6111c416565b9150610d7d610d09565b905060018160ff1611158015610d945750600e5482115b15610d9f57600e5491505b8192505b5050919050565b6000610de56001610dd962015180610dcd600154876111c490919063ffffffff16565b9063ffffffff61124f16565b9063ffffffff61126b16565b92915050565b600080610df661105c565b8015610e0b575060065460a860020a900460ff165b1515610e1657600080fd5b60065460a060020a900460ff1615610e2d57600080fd5b600160a060020a0383166000908152600f602052604081205492508211610e5357600080fd5b601054600160a060020a0384166000908152600f6020526040902054600b54610e879291610dcd919063ffffffff61127a16565b600160a060020a0384166000908152600f6020526040812055600c54909150610eb6908263ffffffff6111c416565b600c55600854600160a060020a03166393a378da848360405160e060020a63ffffffff8516028152600160a060020a0390921660048301526024820152604401600060405180830381600087803b1515610f0f57600080fd5b6102c65a03f11515610f2057600080fd5b5050600854600160a060020a0316905063fc0c546a6000604051602001526040518163ffffffff1660e060020a028152600401602060405180830381600087803b1515610f6c57600080fd5b6102c65a03f11515610f7d57600080fd5b50505060405180519050600160a060020a031663a9059cbb848360006040516020015260405160e060020a63ffffffff8516028152600160a060020a0390921660048301526024820152604401602060405180830381600087803b1515610fe357600080fd5b6102c65a03f11515610ff457600080fd5b50505060405180519050151561100957600080fd5b82600160a060020a031633600160a060020a03167f29842d15961c304dad3345dcde04db3059d13a4455ed0646e5daf7c993a04bc6848460405191825260208201526040908101905180910390a3505050565b60006110666112a5565b80610bde5750610bde6112ad565b60065433600160a060020a0390811691161461108f57600080fd5b600160a060020a03811615156110a457600080fd5b600654600160a060020a0380831691167f8be0079c531659141344cd1fd0a4f28419497f9722a3daafe3b4186f6b6457e060405160405180910390a36006805473ffffffffffffffffffffffffffffffffffffffff1916600160a060020a0392909216919091179055565b60065433600160a060020a0390811691161461112a57600080fd5b611132610a7b565b1561113c57600080fd5b600e55565b600054600160a060020a031681565b60115490565b60008183116111655782611167565b815b9392505050565b600160a060020a038216151561118357600080fd5b61118c816112b8565b151561119757600080fd5b6111a182826112d4565b6005546111b4908263ffffffff61126b16565b6005556111c081611429565b5050565b6000828211156111d057fe5b50900390565b6111de610696565b600b819055600c55600854600160a060020a031663b0e9a1ef62127500420160405160e060020a63ffffffff84160281526004810191909152602401600060405180830381600087803b151561123357600080fd5b6102c65a03f1151561124457600080fd5b505050610a79610a79565b600080828481151561125d57fe5b0490508091505b5092915050565b60008282018381101561116757fe5b60008083151561128d5760009150611264565b5082820282848281151561129d57fe5b041461116757fe5b600254421190565b600754600554101590565b60006112c38261145f565b8015610de5575050600d5490101590565b6000600160a060020a03831615156112eb57600080fd5b506010548190611301908263ffffffff61126b16565b601055600160a060020a0383166000908152600f6020526040902054151561136857601180546001810161133583826114c3565b506000918252602090912001805473ffffffffffffffffffffffffffffffffffffffff1916600160a060020a0385161790555b600160a060020a0383166000908152600f6020526040902054611391908263ffffffff61126b16565b600f600085600160a060020a0316600160a060020a031681526020019081526020016000208190555082600160a060020a031633600160a060020a03167fc29b8032387f267ddc010037627574acbf3b1a65a6022ca8ba6c25f0ba85ee7584846011805490506005546040518085815260200184815260200183815260200182815260200194505050505060405180910390a3505050565b600354600160a060020a031681156108fc0282604051600060405180830381858888f19350505050151561145c57600080fd5b50565b600061146a82611480565b8015610de557506114796112ad565b1592915050565b6000806000600154421015801561149957506002544211155b9150508215158180156114a95750805b949350505050565b60206040519081016040526000815290565b815481835581811511610cdf57600083815260209020610cdf91810190830161076e91905b808211156114fc57600081556001016114e8565b50905600a165627a7a7230582064a4fa7851aa7446eea952a67a374cab77ba6db6a198ce832d3e85b4fcc9e9380029",
  "source": "pragma solidity ^0.4.18;\n\nimport \"./minime_0.2.0/ERC20MiniMe.sol\";\nimport \"./minime_0.2.0/TokenController.sol\";\nimport \"zeppelin-solidity/contracts/lifecycle/Pausable.sol\";\nimport \"./TravelkoinCappedCrowdsale.sol\";\nimport \"./TravelkoinFinalizableCrowdsale.sol\";\n\n/**\n * @title TravelkoinNormalSale\n * @author Bjorn Harvold\n * @notice Travelkoin Token Sale round one normal sale contract, with softcap and hardcap (cap)\n * @dev This contract has to be finalized before refund or token claims are enabled\n */\ncontract TravelkoinNormalSale is Pausable, TravelkoinFinalizableCrowdsale, TravelkoinCappedCrowdsale {\n    // the token is here\n    TokenController public travelkoinController;\n\n    uint256 public rate = 1000;\n    uint256 public cap = 55555 ether;\n\n    // total token sold and undistributed token count\n    uint256 public tokenSold;\n    uint256 public tokenBalance;\n\n    // minimum contribution, 0.1ETH\n    uint256 public minContribution = 0.1 ether;\n    uint256 public maxContributionFirstTwentyFourHours = 1 ether;\n\n    // stakes contains contribution stake in wei\n    mapping(address => uint256) public stakes;\n    uint256 totalStakes;\n\n    // addresses of contributors to handle finalization after token sale end (refunds or token claims)\n    address[] public contributorsKeys;\n\n    // events for token purchase during sale and claiming tokens after sale\n    event TokenClaimed(address indexed _claimer, address indexed _beneficiary, uint256 _stake, uint256 _amount);\n    event TokenPurchase(address indexed _purchaser, address indexed _beneficiary, uint256 _value, uint256 _stake, uint256 _participants, uint256 _weiRaised);\n\n    ////////////////\n    // Constructor and inherited function overrides\n    ////////////////\n\n    /// @notice Constructor to create TravelkoinNormalSale contract\n    /// @param _travelkoinController Address of travelkoinController\n    /// @param _startTime The start time of token sale in seconds.\n    /// @param _endTime The end time of token sale in seconds.\n    /// @param _minContribution The minimum contribution per transaction in wei (0.1 ETH)\n    /// @param _rate Number of TKT tokens per 1 ETH\n    /// @param _cap Maximum cap in wei, we can't raise more funds\n    /// @param _wallet Address of multisig wallet, which will get all the funds after successful sale\n    function TravelkoinNormalSale(\n        address _travelkoinController,\n        uint256 _startTime,\n        uint256 _endTime,\n        uint256 _minContribution,\n        uint256 _maxContributionFirstTwentyFourHours,\n        uint256 _rate,\n        uint256 _cap,\n        address _wallet\n    )\n    TravelkoinCappedCrowdsale(_cap)\n    TravelkoinMiniMeCrowdsale(_startTime, _endTime, _rate, _wallet)\n    TravelkoinFinalizableCrowdsale()\n    public\n    {\n        // travelkoinController must be valid\n        require(_travelkoinController != address(0));\n        travelkoinController = TokenController(_travelkoinController);\n\n        // this is needed since super constructor wont overwrite overridden variables\n        cap = _cap;\n        rate = _rate;\n\n        minContribution = _minContribution;\n        maxContributionFirstTwentyFourHours = _maxContributionFirstTwentyFourHours;\n    }\n\n    /// @notice claimToken() for multiple addresses\n    /// @dev Anyone can call this function and distribute tokens after successful token sale\n    /// @param _beneficiaries Array of addresses for which we want to claim tokens\n    function claimTokensFor(address[] _beneficiaries) external afterSaleSuccess {\n        for (uint256 i = 0; i < _beneficiaries.length; i++) {\n            claimTokenFor(_beneficiaries[i]);\n        }\n    }\n\n    ////////////////\n    // BEFORE token sale\n    ////////////////\n\n    /// @notice Modifier for before sale cases\n    modifier beforeSale() {\n        require(!hasStarted());\n        _;\n    }\n\n    /// @notice Sets min contribution before sale\n    function setMinContribution(uint256 _minContribution) public onlyOwner beforeSale {\n        minContribution = _minContribution;\n    }\n\n    /// @notice Sets min contribution before sale\n    function setMaxContributionFirstTwentyFourHours(uint256 _maxContributionFirstTwentyFourHours) public onlyOwner beforeSale {\n        maxContributionFirstTwentyFourHours = _maxContributionFirstTwentyFourHours;\n    }\n\n    /// @notice Sets soft and max cap\n    function setCap(uint256 _cap) public onlyOwner beforeSale {\n        require(0 < _cap);\n        cap = _cap;\n    }\n\n    /// @notice Sets crowdsale start and end time\n    function setTimes(uint256 _startTime, uint256 _endTime) public onlyOwner beforeSale {\n        require(_startTime > now && _startTime < _endTime);\n        startTime = _startTime;\n        endTime = _endTime;\n    }\n\n    /// @notice Set rate\n    function setRate(uint256 _rate) public onlyOwner beforeSale {\n        require(_rate > 0);\n        rate = _rate;\n    }\n\n\n    ////////////////\n    // AFTER token sale\n    ////////////////\n\n    /// @notice Modifier for cases where sale is closed and was successful.\n    /// @dev It checks whether the sale has ended AND whether the contract is finalized\n    modifier afterSaleSuccess() {\n        require(hasEnded() && isFinalized);\n        _;\n    }\n\n    /// @notice Claim token for msg.sender after token sale based on stake.\n    function claimToken() public afterSaleSuccess {\n        claimTokenFor(msg.sender);\n    }\n\n    /// @notice Claim token after token sale based on stake.\n    /// @dev Anyone can call this function and distribute tokens after successful token sale\n    /// @param _beneficiary Address of the beneficiary who gets the token\n    function claimTokenFor(address _beneficiary) public afterSaleSuccess whenNotPaused {\n        uint256 stake = stakes[_beneficiary];\n        require(stake > 0);\n\n        // calculate token count\n        uint256 tokens = tokenSold.mul(stakes[_beneficiary]).div(totalStakes);\n\n        // set the stake 0 for beneficiary\n        stakes[_beneficiary] = 0;\n\n        // decrease tokenBalance\n        tokenBalance = tokenBalance.sub(tokens);\n\n        // distribute hodlr stake\n        travelkoinController.addHodlerStake(_beneficiary, tokens);\n\n        // distribute token\n        require(travelkoinController.token().transfer(_beneficiary, tokens));\n        TokenClaimed(\n            msg.sender,\n            _beneficiary,\n            stake,\n            tokens\n        );\n    }\n\n\n    ////////////////\n    // Constant, helper functions\n    ////////////////\n\n    /// @notice How many wei can the msg.sender contribute now.\n    function howMuchCanIContributeNow() view public returns (uint256) {\n        return howMuchCanXContributeNow(msg.sender);\n    }\n\n    /// @notice How many wei can an ethereum address contribute now.\n    /// @dev This function can return 0 when the crowdsale is stopped\n    ///  or the address has maxed the current day's whitelist cap,\n    ///  it is possible, that next day he can contribute\n    /// @param _beneficiary Ethereum address\n    /// @return Number of wei the _beneficiary can contribute now.\n    function howMuchCanXContributeNow(address _beneficiary) view public returns (uint256) {\n        require(_beneficiary != address(0));\n\n        if (!hasStarted() || hasEnded()) {\n            return 0;\n        }\n\n        // wei to hard cap\n        uint256 weiToCap = cap.sub(weiRaised);\n\n        uint8 _saleDay = getSaleDayNow();\n        if (_saleDay <= 1 && weiToCap > maxContributionFirstTwentyFourHours) {\n            // set wei cap to 1 ether limit per person for the first 24 hours of our sale\n            weiToCap = maxContributionFirstTwentyFourHours;\n        }\n\n        return weiToCap;\n    }\n\n    /// @notice For a give date how many 24 hour blocks have elapsed since token sale start\n    /// @dev _time has to be bigger than the startTime of token sale, otherwise SafeMath's div will throw.\n    ///  Within 24 hours of token sale it will return 1, \n    ///  between 24 and 48 hours it will return 2, etc.\n    /// @param _time Date in seconds for which we want to know which sale day it is\n    /// @return Number of 24 hour blocks elapsing since token sale start starting from 1\n    function getSaleDay(uint256 _time) view public returns (uint8) {\n        return uint8(_time.sub(startTime).div(60 * 60 * 24).add(1));\n    }\n\n    /// @notice How many 24 hour blocks have ellapsed since token sale start\n    /// @return Number of 24 hour blocks ellapsing since token sale start starting from 1\n    function getSaleDayNow() view public returns (uint8) {\n        return getSaleDay(now);\n    }\n\n    ////////////////\n    // Test and contribution web app, NO audit is needed\n    ////////////////\n\n    /// @notice How many contributors we have.\n    /// @return Number of different contributor ethereum addresses\n    function getContributorsCount() view public returns (uint256) {\n        return contributorsKeys.length;\n    }\n\n    /// @notice Get contributor addresses to manage refunds or token claims.\n    /// @dev If the sale is not yet successful, then it searches in the TravelkoinRefundVault.\n    ///  If the sale is successful, it searches in contributors.\n    /// @param _pending If true, then returns addresses which didn't get refunded or their tokens distributed to them\n    /// @param _claimed If true, then returns already refunded or token distributed addresses\n    /// @return Array of addresses of contributors\n    function getContributors(bool _pending, bool _claimed) view public returns (address[] contributors) {\n        uint256 i = 0;\n        uint256 results = 0;\n        address[] memory _contributors = new address[](contributorsKeys.length);\n\n\n        for (i = 0; i < contributorsKeys.length; i++) {\n            if (_pending && stakes[contributorsKeys[i]] > 0 || _claimed && stakes[contributorsKeys[i]] == 0) {\n                _contributors[results] = contributorsKeys[i];\n                results++;\n            }\n        }\n\n        contributors = new address[](results);\n        for (i = 0; i < results; i++) {\n            contributors[i] = _contributors[i];\n        }\n\n        return contributors;\n    }\n\n    /// @notice How many TKT tokens do this contract have\n    function getTravelkoinBalance() view public returns (uint256) {\n        return travelkoinController.token().balanceOf(address(this));\n    }\n\n    /// @notice Minimum between two uint8 numbers\n    function uint8Min(uint8 a, uint8 b) pure internal returns (uint8) {\n        return a > b ? b : a;\n    }\n\n    /// @notice Minimum between two uint256 numbers\n    function uint256Min(uint256 a, uint256 b) pure internal returns (uint256) {\n        return a > b ? b : a;\n    }\n\n\n    /// @dev Overriding Crowdsale#validPurchase to add min contribution logic\n    /// @param _weiAmount Contribution amount in wei\n    /// @return true if contribution is okay\n    function validPurchase(uint256 _weiAmount) internal constant returns (bool) {\n        return super.validPurchase(_weiAmount) && _weiAmount >= minContribution;\n    }\n\n    /// @dev Extending RefundableCrowdsale#finalization sending back excess tokens to travelkoinController\n    function finalization() internal {\n        tokenSold = getTravelkoinBalance();\n\n        // unclaimed tokens\n        tokenBalance = tokenSold;\n\n        // hodler stake counting starts 14 days after closing normal sale\n        travelkoinController.setHodlerTime(now + 14 days);\n\n        super.finalization();\n    }\n\n    /// @dev Overriding Crowdsale#transferToken, which keeps track of contributions DURING token sale\n    /// @param _beneficiary Address of the recepient of the tokens\n    /// @param _weiAmount Contribution in wei\n    function transferToken(address _beneficiary, uint256 _weiAmount) internal {\n        require(_beneficiary != address(0));\n\n        uint256 _stake = _weiAmount;\n\n        // saving total stakes to be able to distribute tokens at the end\n        totalStakes = totalStakes.add(_stake);\n\n        if (stakes[_beneficiary] == 0) {\n            contributorsKeys.push(_beneficiary);\n        }\n\n        stakes[_beneficiary] = stakes[_beneficiary].add(_stake);\n\n        TokenPurchase(\n            msg.sender,\n            _beneficiary,\n            _weiAmount,\n            _stake,\n            contributorsKeys.length,\n            weiRaised\n        );\n    }\n\n    /// @dev Overriding Crowdsale#buyTokens to add partial refund\n    /// @param _beneficiary Beneficiary of the token purchase\n    function buyTokens(address _beneficiary) public payable whenNotPaused {\n        require(_beneficiary != address(0));\n\n        uint256 weiToCap = howMuchCanXContributeNow(_beneficiary);\n        uint256 weiAmount = uint256Min(weiToCap, msg.value);\n\n        require(weiAmount > 0);\n\n        buyTokens(_beneficiary, weiAmount);\n\n        // handle refund\n        uint256 refund = msg.value.sub(weiAmount);\n        if (refund > 0) {\n            msg.sender.transfer(refund);\n        }\n    }\n}",
  "sourcePath": "/Users/crash/git/travelkoin/travelkoin-contracts/contracts/TravelkoinNormalSale.sol",
  "compiler": {
    "name": "solc",
    "version": "0.4.19+commit.c4cbbb05.Emscripten.clang"
  },
  "schemaVersion": "1.0.1",
  "updatedAt": "2018-02-13T11:16:19.583Z"
}